:020000040800F2
:1000000000880020910B0008B50B0008B70B000812
:10001000BB0B0008BF0B0008C30B0008000000006A
:10002000000000000000000000000000C90B0008F4
:10003000C70B000800000000CB0B0008591F000888
:10004000CD0B0008CF0B0008D10B00083D0C0008B9
:10005000D30B0008D50B0008D70B0008D90B0008FC
:10006000DB0B0008DD0B00084B1E0008DF0B00084F
:10007000E10B0008E30B0008E50B0008E70B0008A4
:10008000E90B0008EB0B0008ED0B0008EF0B000874
:10009000F10B0008F30B0008F50B0008831E0008A5
:1000A000F70B0008F90B0008FB0B0008FD0B00081C
:1000B000FF0B0008010C0008030C0008050C0008E9
:1000C000070C0008090C00080B0C00080D0C0008B8
:1000D0000F0C000859170008E917000881180008DC
:1000E000511D0008110C0008870C000800F002F8F0
:1000F00000F045F80AA090E8000C82448344AAF17D
:100100000107DA4501D100F03AF8AFF2090EBAE87A
:100110000F0013F0010F18BFFB1A43F0010318473B
:100120006C9200008C920000103A24BF78C878C10D
:10013000FAD8520724BF30C830C144BF04680C60ED
:10014000704700000023002400250026103A28BF35
:1001500078C1FBD8520728BF30C148BF0B60704739
:100160001FB5AFF300809DE8030003F011FA03F020
:100170005DF91FBD10B5002006F03BFE10BD03F079
:1001800073FA1146FFF7ECFF03F0D0F803F0ABFA77
:10019000FFF7F0FF03F05EFA08B500214FF00060B2
:1001A00003F03CFD25208DF8000001208DF80100B2
:1001B00005208DF8020001208DF80300684603F049
:1001C000E9FC26208DF8000001208DF801000520B3
:1001D0008DF8020001208DF80300684603F0DAFC78
:1001E00027208DF8000001208DF8010005208DF8F2
:1001F000020001208DF80300684603F0CBFC4FF4A9
:10020000C06003F001FD28208DF8000001208DF86A
:10021000010007208DF8020001208DF803006846D8
:1002200003F0B8FC08BD0020FF49C8600861142035
:10023000486100208861C8610846006840F00100FC
:10024000086008464068F9490840F7494860084690
:100250000068F7490840F44908600846006820F43F
:10026000802008600846406820F4FE0048600020B6
:100270008860704710B500BFEB48006810F0020FAF
:10028000FAD03020EB4908600846006840F00200D0
:1002900008600846006840F0100008600020E2494D
:1002A000486008464068486008464068486008461C
:1002B000406840F4806048600846406840F4004070
:1002C00048600846406840F460104860084600688E
:1002D00040F08070086000BFD348006810F0007FD5
:1002E000FAD0D148406840F00200CF49486000BFD2
:1002F000CD48406800F00C000828F9D1CA48C06910
:1003000040F00060C849C8610846C06940F08050AC
:10031000C8610846806940F00100886101210846F3
:1003200003F08CFC0121C80303F094FC012144F686
:100330000C0003F09BFC10BD41F63F704FF0E02134
:10034000486106200861002088610846006940F085
:1003500001000861704710B5042003F097FAA0F57A
:100360002541A53903D103F053FD03F047FD10BD2E
:1003700010B5AD48806940F40060AB498861002049
:10038000AD490880AD49A1F8040CAB49283108807B
:1003900040F2FF70091D08800020A749083108803D
:1003A000A54934310880091D0880091D0880091DF0
:1003B00008806020A049183108800020091D0880AD
:1003C000091D088004209C49088000209B49A1F851
:1003D000040C0846B0F8000C40F00100A1F8000C35
:1003E0000121954803F055FD0121934803F05CFD80
:1003F0008D48C06940F001008B49C861084680699A
:1004000040F0010088618E48406840F400708C49DB
:1004100048608548806940F0040083498861084647
:10042000806940F008008861002089040880888085
:10043000088540F2FF3088850020088140F2FF30B7
:1004400088860020088788877E49088046F27000E9
:10045000090608830020888311200884042008806E
:10046000002088800846008840F0010008806E481F
:10047000C06940F002006C49C8610846806940F0DC
:10048000010088616E48406840F440606C494860F3
:100490006548806940F010006349886100206A491E
:1004A0000880091D0880684928310880FF20091D3F
:1004B00008800320644908310880002062493431F3
:1004C0000880091D0880091D0880091D088040F268
:1004D00001105D49183108800020091D0880091DA0
:1004E000088004205849088000200905A1F8040468
:1004F0000846B0F8000440F00100A1F800044A48A2
:10050000C06940F004004849C8610846806940F06D
:10051000010088614A48406840F48050484948607A
:100520004148806940F010003F49886100204749F8
:100530000880091D0880454928310880FF20091DD1
:100540000880032041490831088000203F493431A8
:100550000880091D0880091D0880091D088040F2D7
:1005600001103A49183108800020091D0880091D32
:1005700008800420354908800020C904A1F8040837
:100580000846B0F8000840F001003049088010BD6E
:100590001CB50F21032003F071FA4FF400400090C6
:1005A00000208DF804000C208DF8050001208DF846
:1005B0000600684603F01CFA0E21032003F05EFAE1
:1005C0004FF48040009000208DF804000C208DF83E
:1005D000050001208DF80600684603F009FA0C2199
:1005E000022003F04BFA4FF48050009000208DF869
:1005F00004000C208DF8050001208DF806006846E7
:1006000003F0F6F91CBD0848806940F00400064973
:100610008861BB200E4908600E480949C1F80408EA
:100620000148806918E00000001002400000FFF857
:10063000FFFFF6FE00200240002C01400020014098
:10064000000001404000004000040040000800405D
:1006500000080140BB84484440F00800FE4988611E
:10066000FE48FF490860FF48FF49C1F8040CFA48FA
:10067000806940F01000F8498861FC48FC49086036
:10068000FC484860F448806940F02000F2498861E5
:10069000F948FA490860FA48F549C1F80404EE48F7
:1006A000806940F04000EC498861F648F6490860EE
:1006B000F648EF49C1F80408704708B5012148051C
:1006C00003F0C8FA0121022003F03CFA4FF4407015
:1006D000ADF8000003208DF802001C208DF8030007
:1006E0006946DF4803F0DEF908BD10B5E84803F0BD
:1006F000F1F8E748283003F0EDF8E548643003F0FE
:10070000E9F810BD1FB50121880303F0AFFA4FF4DB
:10071000E13000900020ADF80400ADF80600ADF81F
:100720000800ADF80C000C20ADF80A006946D94865
:1007300003F0F0FB012240F22551D64803F0D1FB33
:100740000121D44803F0BBFB0121480403F082FAE5
:100750000121082003F0F6F94FF4E1300090002069
:10076000ADF80400ADF80600ADF80800ADF80C00D7
:100770000C20ADF80A006946C74803F0CBFB012204
:1007800040F22551C44803F0ACFB0121C24803F0FC
:1007900096FB0121880403F05DFA0121BF4803F0B4
:1007A000D1F94FF4E13000900020ADF80400ADF82D
:1007B0000600ADF80800ADF80C000C20ADF80A00FA
:1007C0006946B74803F0A6FB012240F22551B44820
:1007D00003F087FBA048C06940F480209E49C861AF
:1007E0000121AF4803F06BFB1FBD9B48806940F4BB
:1007F0000070994988610846806940F0040088616A
:100800000846806940F0080088610846806940F029
:10081000100088610020A3490860A349C1F80804BA
:100820000846D0F80C0440F00500C1F80C04084656
:10083000D0F80C0440F02800C1F80C040846D0F8A9
:100840000C0440F4A070C1F80C040846D0F80C0465
:1008500040F42060C1F80C040846D0F80C0440F4C1
:10086000A040C1F80C040846D0F80C0440F4203035
:10087000C1F80C040846D0F8100440F00500C1F897
:1008800010040846D0F8100440F02800C1F8100405
:100890000846D0F8100440F4A070C1F810040846CF
:1008A000D0F8100440F42060C1F810040846D0F8D5
:1008B000100440F4A040C1F810040846D0F8100419
:1008C00040F42030C1F810040846D0F8100440F479
:1008D000A010C1F810040846D0F8100440F420001D
:1008E000C1F810040846D0F8100440F0A060C1F828
:1008F00010040846D0F8100440F0205069490C312B
:1009000008600020674928310860091D08606649B1
:10091000C1F834040846D0F8080440F00100C1F8DA
:1009200008040846D0F8080440F008005D49091D95
:10093000086000BF5B48001D006810F0080FF9D187
:100940005848001D006840F004005749C1F80804E9
:1009500000BF5448001D006810F0040FF9D1704723
:100960001CB500BF00BFFFF75EFCFFF783FCFFF77D
:1009700013FC4E48006840F480703B49C1F81008F1
:100980000846D0F8140840F48070C1F814083248C2
:10099000806940F00400304988610846806940F071
:1009A000080088610846806940F0100088610846A8
:1009B000806940F0200088610846806940F040006E
:1009C000886100220D2101A800F01FFA00222921D0
:1009D00001A800F01AFA00222A2101A800F015FA55
:1009E00000222B2101A800F010FA00222C2101A8DE
:1009F00000F00BFA00220F2101A800F006FA0022F5
:100A0000192101A800F001FA00221A2101A800F022
:100A1000FCF900221B2101A800F0F7F900221C219B
:100A200001A800F0F2F900221D2101A800F0EDF963
:100A300000221E2101A800F0E8F9FFF7E4FD0122E1
:100A40000D2101A800F0E1F91949684606F065FC9E
:100A50000022192101A82DE00010024000343400CA
:100A6000000C0140B0334433000001404003004417
:100A700000100140334B04343344B44400140140AB
:100A80004344444433443433001801404333333344
:100A90001C000240003801400044004010001400D7
:100AA000004800400424014000200140100801409B
:100AB00000350C0000F0A9F900221A2101A800F06D
:100AC000A4F900221B2101A800F09FF900221C219B
:100AD00001A800F09AF900221D2101A800F095F963
:100AE00000221E2101A800F090F90122292101A86D
:100AF00000F08BF92449684606F00FFC01222A21F8
:100B000001A800F082F92049684606F006FC01229F
:100B10002B2101A800F079F91B49684606F0FDFB7E
:100B200001222C2101A800F070F91749684606F04F
:100B3000F4FB0122142101A800F067F9FFF70BFC78
:100B4000FFF716FCFFF7D1FDFFF7DCFDFFF720FDF7
:100B5000FFF74BFEFFF7F0FBFFF7AFFD002214217C
:100B600001A800F052F90948D0F8100840F40050EC
:100B70000649C1F810080846D0F8100840F4804033
:100B8000C1F810081CBD000000350C000010014029
:100B90000348004703480449044A054B70470000D6
:100BA000ED00000800080020008800200058002008
:100BB00000580020704700BFFEE700BFFEE700BFFF
:100BC000FEE700BFFEE77047704770477047704709
:100BD000704770477047704770477047704770475D
:100BE000704770477047704770477047704770474D
:100BF000704770477047704770477047704770473D
:100C0000704770477047704770477047704770472C
:100C10001D48006840F400301C49C1F814041C4809
:100C2000B0F8040820F008001949A1F8040800BF32
:100C30001848008810F0080FFAD07047154800884F
:100C400010F0040F06D01348008820F0040010496B
:100C5000A1F804080F48008810F0020F06D00D48D4
:100C6000008820F002000A49A1F804080948008819
:100C700010F0010F06D00748008820F00100044959
:100C8000A1F80408704770471404014000000140B7
:100C9000002000400428004010B5024600200C4B04
:100CA00019600C4BD3F8083443F00103084C2C3C7A
:100CB000236000BF064B343B1B6813F0020FF9D0D2
:100CC000034B183318680023024CC4F8003410BDDD
:100CD000342401400020014010B50246002025299F
:100CE00072D2DFE801F08E13191F252B8E8E31365C
:100CF0003B41474D8E5266575C618E8E8E8E6C8E58
:100D00008E8E8E8E8E72777C81868800F84B1B6863
:100D1000012424EAD32076E0F54B1B68012424EA61
:100D2000133070E0F34B1B68012424EA13306AE0AF
:100D3000F04B1B68012424EA533064E0EE4B1B683F
:100D4000012424EA53205EE0EC4B1B6803F0010011
:100D500059E0EA4B1B68C3F3400054E0E74B1B68C3
:100D6000012424EA93004EE0E44B1B68012424EAAA
:100D7000D30048E0E14B1B68012424EA131042E051
:100D8000DE4B1B68C3F340103DE0DC4B1B68C3F334
:100D9000C03038E0D84B1B68C3F3C01033E0D64BEB
:100DA0001B68C3F380202EE0D34B1B68C3F3C02025
:100DB00029E0D24B1B68012424EA532023E0CC4BCA
:100DC0001B68C3F300201EE01BE0CB4B1B68C3F382
:100DD000800018E0C84B1B68C3F3C00013E0C64B8B
:100DE0001B68C3F300100EE0C54B9B68C3F3803053
:100DF00009E0002007E0C24B9B68012424EA53006D
:100E000001E0002000BF00BF10BD10B52D2973D236
:100E1000DFE801F017727272727272722A3D72729A
:100E20007250D2F272727272F0EFACBF72EEEDECF1
:100E3000EBEAE9727272727272E8E7E6E563738652
:100E4000990042B1AA4B08331B6843F48073AD4C40
:100E5000C4F8103807E0A64B0C331B6843F48073CA
:100E6000A84CC4F81438BBE142B1A44B08331B684A
:100E700043F00103A24CC4F8103807E09F4B0C3339
:100E80001B6843F001039E4CC4F81438A8E142B13A
:100E90009A4B08331B6843F00203994CC4F810388E
:100EA00007E0964B0C331B6843F00203944CC4F8E4
:100EB000143895E142B1914B08331B6843F020038D
:100EC0008F4CC4F8103807E08C4B0C331B6843F090
:100ED00020038B4CC4F8143882E132B1884B1B6973
:100EE00043F00403864C236105E0854B5B6943F0C6
:100EF0000403834C636173E171E142B17E4B0833BB
:100F00001B6843F480737E4CC4F8103407E07A4BBE
:100F10000C331B6843F48073794CC4F814345FE1DC
:100F200042B1764B08331B6843F04003744CC4F85D
:100F3000103807E0714B0C331B6843F04003704CD2
:100F4000C4F814384CE142B16C4B08331B6843F0D1
:100F500080036B4CC4F8103807E0684B0C331B68F7
:100F600043F08003664CC4F8143839E142B1634B56
:100F700008331B6843F40053614CC4F8103807E091
:100F80005E4B0C331B6843F400535D4CC4F81438BB
:100F900026E142B1594B08331B6843F48043584C57
:100FA000C4F8103807E0554B0C331B6843F48043FA
:100FB000534CC4F8143813E142B14D4B08331B684D
:100FC00043F400434F4CC4F8103807E0484B0C334F
:100FD0001B6843F400434B4CC4F8143800E1EFE0C5
:100FE000DCE0C9E0B6E0A6E096E077E063E04FE041
:100FF0003BE027E013E0FFE742B1404B08331B68BA
:1010000043F400433E4CC4F8103807E03B4B0C332C
:101010001B6843F400433A4CC4F81438E0E042B192
:10102000364B0C331B6843F48073354CC4F81438CA
:1010300007E0324B08331B6843F48073304CC4F82C
:101040001038CDE042B12A4B08331B6843F40073DB
:101050002C4CC4F8103807E0254B0C331B6843F4C4
:101060000073284CC4F81438BAE042B9214B083355
:101070001B6843F48063234CC4F8103C07E01D4B0D
:101080000C331B6843F480631E4CC4F8143CA7E087
:1010900042B9184B08331B6843F40063194CC4F879
:1010A000103C07E0134B0C331B6843F40063154CF2
:1010B000C4F8143C94E042B90E4B08331B6843F467
:1010C0008043104CC4F8103C07E00A4B0C331B68FB
:1010D00043F480430B4CC4F8143C81E0A2B9054BA7
:1010E00008331B6843F40043064CC4F8103C12E07C
:1010F00008080140080C014008140140081801408C
:101100000010014000000140364B1B6843F40043CF
:10111000354CC4F8143C63E032B9344B1B6943F4DA
:101120008073324C236105E0304B5B6943F480737C
:101130002E4C636154E032B92C4B1B6943F40073AD
:101140002A4C236105E0294B5B6943F40073274C6B
:10115000636145E03AB1264B1B6843F48063234C3E
:10116000C4F8103807E0224B1B1D1B6843F4806352
:101170001E4CC4F8143833E03AB11D4B1B6843F4DD
:1011800000631A4CC4F8103807E0194B1B1D1B688C
:1011900043F40063154CC4F8143821E03AB1144B01
:1011A0001B6843F48053114CC4F8103807E0104B0F
:1011B0001B1D1B6843F480530C4CC4F814380FE01B
:1011C00032B10A4B1B6943F40043084C236105E02C
:1011D000064B5B6943F40043044C636100E000BFCD
:1011E00000BF10BD140C0140000001400010014080
:1011F0001018014020B101281AD002284CD131E04A
:1012000071B1F74A128842F08002F64BA3F80C281D
:101210001A46B2F80C2842F00802A3F80C2806E09F
:10122000EF4A128822F08002EE4BA3F80C2834E03B
:1012300079B1ED4A128842F080024FF04023A3F8C2
:101240000C241A46B2F80C2442F00802A3F80C242D
:1012500007E0E54A128822F080024FF04023A3F80D
:101260000C241AE079B1E14A128842F080024FF072
:101270004023A3F80C281A46B2F80C2842F00802C2
:10128000A3F80C2807E0D94A128822F080024FF018
:101290004023A3F80C2800E000BF00BF704720B136
:1012A00001281AD002284CD131E071B1CC4A128801
:1012B00042F02002CB4BA3F80C281A46B2F80C28B7
:1012C00042F00402A3F80C2806E0C54A128822F076
:1012D0002002C44BA3F80C2834E079B1C24A12882A
:1012E00042F020024FF04023A3F80C241A46B2F833
:1012F0000C2442F00402A3F80C2407E0BA4A128836
:1013000022F020024FF04023A3F80C241AE079B118
:10131000B64A128842F020024FF04023A3F80C286E
:101320001A46B2F80C2842F00402A3F80C2807E091
:10133000AE4A128822F020024FF04023A3F80C2876
:1013400000E000BF00BF70472DE9F04104460D46A4
:1013500016460027B84600212046FFF7A0FF24B11B
:10136000012C1BD0022C49D130E0A14805F0E8FD4A
:101370008046B8F1FF0F05D99D4805F0FBFD002020
:10138000BDE8F081002704E0994805F0F9FDE85533
:101390007F1C474501D2B742F6DB30E0954805F0A7
:1013A000CFFD8046B8F1FF0F04D9924805F0E2FD69
:1013B0000020E5E7002704E08E4805F0E1FDE85550
:1013C0007F1C474501D2B742F6DB18E08A4805F09A
:1013D000B7FD8046B8F1FF0F04D9874805F0CAFD74
:1013E0000020CDE7002704E0834805F0C9FDE8555B
:1013F0007F1C474501D2B742F6DB00E000BF00BFCB
:1014000001212046FFF74BFF3846B9E770B5044687
:101410000E46022C01D9002070BD04EB440000EB05
:10142000C400764901EB80051020A860EE60002022
:101430002861802068610020A861E86128624FF47B
:10144000405068620020A86224B1012C23D0022CF5
:1014500068D144E000216A4802F032FA69486860C5
:101460005F48083828602946654802F0A3FA4FF41F
:10147000005002F01BFA0122802159480C3802F07A
:1014800028FD01215E4802F01BFA012154480C3866
:1014900002F015FD46E0002159483C3002F010FAF8
:1014A00059486860504808382860294654483C30FC
:1014B00002F080FA4FF0007002F0F8F9012280216A
:1014C00049480C3802F005FD01214D483C3002F03E
:1014D000F7F9012144480C3802F0F1FC22E0002128
:1014E0004748283802F0ECF9484868603F48083817
:1014F000286029464248283802F05CFA202002F091
:10150000D5F90122802139480C3802F0E2FC012192
:101510003B48283802F0D4F9012134480C3802F055
:10152000CEFC00BF00BF012076E72DE9F041044664
:101530000D46164624B1012C1CD0022C75D134E086
:101540000020334908603349086000BF09E02A5C85
:101550002F490B680968491C2D4F39602949CA5425
:10156000401CB042F3DB0020294908603146FFF7F8
:101570004DFF5BE00020284908602849086000BF53
:1015800009E02A5C24490B680968491C224F39602C
:101590001D49CA54401CB042F3DB00201E490860BC
:1015A00031460120FFF732FF40E000201C4908606F
:1015B0001C49086000BF09E02A5C19490B680968EA
:1015C000491C174F39601149CA54401CB042F3DB23
:1015D00000201349086031460220FFF717FF25E07D
:1015E0000C380140003001400C4400400C480040E1
:1015F00054000020640200207404002084060020AF
:10160000440002406401002074030020840500208F
:101610000000002004000020080000200C00002032
:101620001000002014000020FFE700BF00BF30467C
:10163000BDE8F0810146002021B1012905D0022931
:1016400009D105E0C34A106807E0C34A106804E006
:10165000C24A106801E0002000BF00BF70472DE9BA
:10166000F04104460D461646BD48046024B1012CE5
:101670000CD0022C1ED113E0002704E0E919B94870
:1016800005F093FC7F1CB742F8DB14E0002704E070
:10169000E919B54805F089FC7F1CB742F8DB0AE080
:1016A000002704E0E919B14805F07FFC7F1CB74230
:1016B000F8DB00E000BF00BFBDE8F08130B50346B5
:1016C00023B1012B18D0022B42D12BE0A84800688F
:1016D000A04C2468A04205D10020A54C20609D4C60
:1016E000206030BDA24804680068401CA04D2860FE
:1016F000A048005D08702CE09F480068964C246864
:10170000A04205D100209C4C2060934C2060E8E76B
:10171000994804680068401C974D28609748005D10
:10172000087016E0964800688C4C2468A04205D1E9
:101730000020934C2060894C2060D2E790480468D8
:101740000068401C8E4D28608E48005D087000E0E7
:1017500000BF00BF0120C4E738B58B48048814F0EF
:10176000200F0FD0001D0088C0B2009001226946F2
:101770000020FFF774FF8548B0F8000820F0200033
:101780008149088014F0800F1DD07F48008820F028
:1017900080007E49A1F80008012269460020FFF779
:1017A0008DFF0546002D05DD9DF800007649091DD9
:1017B000088007E074480C30008820F080007349EE
:1017C000A1F80C0800BF14F0080F05D114F0040FA5
:1017D00002D114F0020F06D06B4804886B48B0F8B1
:1017E0000408C0B2009038BD38B56948048814F0C8
:1017F000200F10D0001D0088C0B200900122694661
:101800001046FFF72CFF4FF04020B0F8000420F006
:1018100020005F49088014F0800F1FD05C480088CA
:1018200020F080004FF04021A1F800040122694619
:101830001046FFF743FF0546002D05DD9DF800002B
:101840005349091D088008E051480C30008820F0F9
:1018500080004FF04021A1F80C0400BF14F0080FE5
:1018600005D114F0040F02D114F0020F07D048483C
:1018700004884FF04020B0F80404C0B2009038BD96
:1018800038B54448048814F0200F10D0001D00889B
:10189000C0B20090012269460220FFF7E0FE4FF03F
:1018A0004020B0F8000820F020003A49088014F0E9
:1018B000800F1FD03748008820F080004FF0402173
:1018C000A1F80008012269460220FFF7F7FE05464D
:1018D000002D05DD9DF800002E49091D088008E057
:1018E0002C480C30008820F080004FF04021A1F8F7
:1018F0000C0800BF14F0080F05D114F0040F02D13A
:1019000014F0020F07D0234804884FF04020B0F8AD
:101910000408C0B2009038BD70B5124805F05CFBF9
:1019200005461D4A1D4905F03BFA04460E4805F0E0
:1019300053FB0546184A194905F032FA04460B488C
:1019400005F04AFB0546144A144905F029FA0446F5
:1019500070BD0000000000200800002010000020E2
:1019600018000020540000206402002074040020AD
:1019700004000020640100200C00002074030020FB
:101980001400002084050020003801400030014090
:10199000004400400048004000000008FD6F0008BF
:1019A0007FB506460C46214603A8FFF775F900905F
:1019B000214603A8FFF770F90190214603A8FFF71D
:1019C0006BF902900025002013E0411C0EE05DF849
:1019D00020205DF821309A4207DD5DF820505DF847
:1019E00021204DF820204DF82150491C0329EEDB21
:1019F000401C0228E9DB019804B070BD2DE9F041DC
:101A000004460D4616461F4615F0FF0002D0012879
:101A10001ED10EE05D4800880006800C30600E216B
:101A20002046FFF7BDFF40F239314843401238608D
:101A300012E0574800880006800C30600F212046D5
:101A4000FFF7AEFF40F2393148434012386003E0FF
:101A500000203060386000BF00BFBDE8F08138B5BD
:101A6000044600220F216846FFF7CFF90020E0600E
:101A700038BD38B5044601220F216846FFF7C5F985
:101A8000E068142802DAE068401CE06038BDF8B570
:101A900004460D461646E068142801DA002000E0EE
:101AA00030460746E8B206286ED2DFE800F0031F92
:101AB0003F50575D002F0BDBB802364990FBF1F029
:101AC00049060887002208216846FFF79EF90CE0C6
:101AD000784280022F4990FBF1F0490608870122E5
:101AE00008216846FFF791F900BF4DE0002F0DDB9C
:101AF000B802284990FBF1F0C0F58060490688865D
:101B0000002209216846FFF780F90EE07842800242
:101B1000204990FBF1F0C0F58060490688860122DB
:101B200009216846FFF771F900BF2DE0002F06DBA1
:101B3000B802184990FBF1F04906888706E0784220
:101B40008002144990FBF1F0490688871CE0B80236
:101B5000104990FBF1F01049088015E0B0020D49E2
:101B600090FBF1F060600FE0B0020A4990FBF1F0E9
:101B7000A06000BFD4E90110884201DAA06800E04B
:101B800060680649088000BF00BFF8BD240400401B
:101B900024080040A086010040000040342C014091
:101BA000002008E0DA4B03EBC001DA4B03EBC00284
:101BB0000A6000BF401C0428F4DB704730B10128E4
:101BC0000CD0022812D0032820D117E0D24909688E
:101BD00041F48051D14AC2F8001418E0CE49096896
:101BE00041F40041CD4AC2F8001410E0CA49096826
:101BF00041F48051C94AC2F8001408E0C649096896
:101C000041F48041C54AC2F8001400E000BF00BFA3
:101C1000704730B101280CD0022812D0032820D1FF
:101C200017E0BD49096821F48051BC4AC2F800148C
:101C300018E0B949096821F40041B84AC2F8001413
:101C400010E0B549096821F48051B44AC2F8001483
:101C500008E0B149096821F48041B04AC2F8001493
:101C600000E000BF00BF7047012804D0022812D056
:101C7000032830D11FE0A8490831096841F4004128
:101C8000A64AC2F808141146D1F80C1421F40041F8
:101C9000C2F80C1420E0A0490831096841F48051D1
:101CA0009E4AC2F808141146D1F80C1421F4805150
:101CB000C2F80C1410E098490831096841F48041D9
:101CC000964AC2F808141146D1F80C1421F4804148
:101CD000C2F80C1400E000BF00BF7047012804D018
:101CE000022812D0032830D11FE08B49083109683F
:101CF00021F40041894AC2F808141146D1F80C14A5
:101D000041F40041C2F80C1420E08349083109680D
:101D100021F48051814AC2F808141146D1F80C14FC
:101D200041F48051C2F80C1410E07B490831096875
:101D300021F48041794AC2F808141146D1F80C14F4
:101D400041F48041C2F80C1400E000BF00BF7047AE
:101D500010B571481430006810F4805F19D06E48D7
:101D6000006820F480506D49C1F800040846D0F89E
:101D7000140440F48050C1F814046548103004F095
:101D800023FA6648D0F8000440F480506349C1F853
:101D9000000461481430006810F4004F19D05E4808
:101DA000006820F400405D49C1F800040846D0F8FE
:101DB000140440F40040C1F814045548083004F0FD
:101DC00003FA5648D0F8000440F400405349C1F8E3
:101DD000000451481430006810F4806F14D04E484D
:101DE000006820F480604D49C1F800040846D0F82E
:101DF000140440F48060C1F814040846D0F80004CC
:101E000040F48060C1F8000443481430006810F4C6
:101E1000804F19D04048006820F480403F49C1F805
:101E200000040846D0F8140440F48040C1F81404BB
:101E30003748183004F0C8F93848D0F8000440F4A6
:101E400080403649C1F8000410BD334814300068A2
:101E500010F0100F14D03048006820F010002F4907
:101E6000C1F800040846D0F8140440F01000C1F88E
:101E700014040846D0F8000440F01000C1F8000433
:101E8000704725481430006810F0400F14D02248E5
:101E9000006820F040002149C1F800040846D0F84D
:101EA000140440F04000C1F814040846D0F80004BF
:101EB00040F04000C1F80004704710B50446184BCC
:101EC00008220421124804F0C2FF10BD10B50446D8
:101ED000144B082204210F4804F0B9FF10BD10B5BF
:101EE0000423082210490B4804F072FF0F4A1049DE
:101EF000002004F055FF042308220E49044804F092
:101F000067FF0A4A0C49002004F04AFF10BD000098
:101F100028070020080700200004014000000140BD
:101F2000EF610008CD750008BD75000800000008CD
:101F3000CD1E0008E7610008BB1E0008002008E075
:101F40005F4B03EBC0015F4B03EBC0020A6000BFB5
:101F5000401C0228F4DB704710B500BF58484068A9
:101F600028B1574A506852681268916888475448A7
:101F7000006828B1524A1068126812689168884750
:101F800000BF10BD10B5044601214FF0C05001F054
:101F900061FE012001F04CFE01F06EFC012001F019
:101FA000D9FE00BF412001F0BDFE0028FAD04FF459
:101FB000807001F0E5FE012001F0DCFE01F028FF59
:101FC00001F01CFF01F01AFF47F6FF7001F006FF59
:101FD00001F014FF4FF46162216851436268C2EB63
:101FE000021201EB8201A268881801F0E9FE01F0FB
:101FF00005FF4AF2A551042001F050FC10BD2DE967
:10200000F04104460D461646042001F03FFCA0F5C1
:102010002541A53904D0FF2020702870307023E0BE
:1020200001F0C6FE07464FF46160B7FBF0F01821DF
:10203000B0FBF1F201FB120020704FF46160B7FBBE
:10204000F0F100FB11703C21B0FBF1F028704FF46F
:102050006160B7FBF0F100FB11703C21B0FBF1F2C5
:1020600001FB1200307000BFBDE8F08110B50446DE
:10207000154B08220221124804F0E9FE10BD10B5EC
:102080000446124B082202210E4804F0E0FE10BD67
:1020900010B5022308220E490A4804F099FE0D4AA1
:1020A0000D49002004F07CFE022308220B4904485D
:1020B00004F08EFE074A0A49002004F071FE10BDAC
:1020C0005807002048070020EF610008CD75000880
:1020D000BD750008000000087F200008E7610008C7
:1020E0006D20000800BF002002490860486000BF62
:1020F000704700002C0000207CB50446A069FFF763
:1021000099FA00B17CBD04F1B40004F0C6FEAA2027
:10211000019001A904F1B40004F0DAFE5520019009
:1021200001A904F1B40004F0D3FE0020019001A93C
:1021300004F1B40004F0CCFE04F1B401D4F8E401DD
:1021400004F05DFF04F1B40004F08BFEC01EC5B2C4
:10215000022104F1B40004F0E3FE057000200090B9
:1021600002250AE0294604F1B40004F0D9FE007803
:102170009DF80010484000906D1C04F1B40004F07C
:1021800070FEA842EEDC694604F1B40004F0A0FE43
:102190000020C4F8E80104F1B40004F062FE054632
:1021A00004F1B40004F074FE06462A4601460020FD
:1021B000FFF7BBF904F1B40004F053FE054604F147
:1021C000B40004F065FE06462A4601460220FFF7E9
:1021D000ACF997E72DE9FC410446002504F1240001
:1021E00004F061FEA2E104F1240004F05CFE064666
:1021F0000D2E79D2DFE806F078072D587F9EC3CCEC
:10220000F6EEEDECEB0004F5A67704F12408404669
:1022100004F027FE7979884201DA002016E0424670
:1022200007F1080101A802F02CFF424607F10A015C
:1022300001A802F026FF386881683846884710B147
:102240000120B87101E00020B871B87900B1012512
:102250006BE104F5AC7704F12408404604F001FE7C
:102260007979884201DA00201BE04246F91D01A875
:1022700002F0FEFE424607F1080101A802F0F8FE56
:10228000424607F1090101A802F0F2FE38688168B0
:102290003846884710B10120B87101E00020B871BC
:1022A000B87900B1012540E104F5B27704F12408C2
:1022B000404604F0D6FD7979884201DA002017E023
:1022C000424607F1080101A802F0ECFE424607F180
:1022D0000A01684602F0CCFE3868816838468847B3
:1022E00018B10120B87102E01AE10020B871B87984
:1022F00000B1012519E104F5B87704F1240840463E
:1023000004F0AFFD7979884201DA00200FE04246FF
:10231000F91D01A802F0ACFE38688168384688478C
:1023200010B10120B87101E00020B871B87900B196
:102330000125FAE004F5BC7704F12408404604F0D6
:1023400090FD7979884201DA002015E04246F91DB6
:1023500001A802F08DFE424607F1080101A802F033
:1023600087FE386881683846884710B10120B87107
:1023700001E00020B871B87900B10125D5E004F181
:10238000240104F5C27004F080FB00B10125CCE00B
:1023900004F5CE7704F12408404604F062FD797913
:1023A000884201DA00201AE04246F91D01A802F035
:1023B0005FFE424607F1080101A802F059FE3868A5
:1023C00081683846884738B10120B87106E087E057
:1023D00067E047E026E005E00020B871B87900B179
:1023E0000125A2E004F5D47704F12408404604F066
:1023F00038FD7979884201DA002010E0424607F181
:10240000080101A802F04EFE386881683846884706
:1024100010B10120B87101E00020B871B87900B1A5
:10242000012582E004F5DA7704F12408404604F03F
:1024300018FD7979884201DA002010E0424607F160
:10244000080101A802F02EFE3868816838468847E6
:1024500010B10120B87101E00020B871B87900B165
:10246000012562E004F5E07704F12408404604F019
:10247000F8FC7979884201DA00200FE04246F91D24
:1024800001A802F0F5FD386881683846884710B128
:102490000120B87101E00020B871B87900B10125C0
:1024A00043E004F5E87704F12408404604F0D9FC41
:1024B0007979884201DA00200FE04246F91D01A82F
:1024C00002F0D6FD386881683846884710B101208F
:1024D000B87101E00020B871B87900B1012524E09D
:1024E00004F5EC7704F12408404604F0BAFC79794D
:1024F000884201DA002010E0424607F1080101A8F5
:1025000002F0D0FD386881683846884710B1012054
:10251000B87101E00020B871B87900B1012504E07C
:1025200004F1240004F0B9FC00BF00BF04F1240052
:1025300004F097FC00283FF756AE2846BDE8FC8122
:1025400073B50446002594F8200030B101280CD062
:10255000022812D003283CD129E09DF80400AA28C3
:1025600002D1012084F8200037E09DF804005528AE
:1025700002D1022084F820002FE09DF80400782882
:1025800011DA9DF80400801CC4F8480104F124000D
:1025900004F083FC01A904F1240004F099FC032059
:1025A00084F8200002E0002084F8200015E001A952
:1025B00004F1240004F08CFC04F1240004F051FC2C
:1025C000D4F84811884203D10125002084F8200066
:1025D00003E0002084F8200000BF00BF28467CBD37
:1025E0002DE9F041A0B0064688464FF0FF37F0696C
:1025F000B0F1FF3F05D058B101280AD0022810D110
:1026000008E031480068F0612F480068B06109E0D7
:1026100000BF00BFD6E90610884201D0F069B06162
:1026200000E000BF00BF80226946B069FEF78CFE63
:10263000054600240BE01DF804103046FFF780FF2C
:1026400020B13046FFF7C6FD00B10027641CAC4244
:10265000F1DB00BFD6F84401401CC6F84401042851
:1026600004DB0020C6F84401012000E0002010B186
:102670003046FFF741FD384620B0BDE8F0814FF00D
:10268000FF31C161704770B5044604F1B40004F035
:10269000E8FBD4F8E811451A202D00DD2025002D97
:1026A00010DD04F1B40004F0F3FBD4F8E81146188F
:1026B0002A463146A069FEF738FFD4F8E8012844DD
:1026C000C4F8E80170BD0000180000202DE9F05F9B
:1026D000ADF5AE5D002500260027A846A94600BF3F
:1026E00004200DF5805CCCF8A0050020CCF8A405F2
:1026F000CCF8A805CCF8AC05CCF8B00501208CF8D6
:10270000B40500BF7D24FF48046000BFFFF748FA0E
:10271000FFF714FCFEF724F941F29450684401F0ED
:1027200075FC41F2E840684400BF002120F8081F12
:102730002021417601218176C1762221017717215E
:102740004177402181776121C1770021A0F87E1077
:1027500000BF00BF491EC0F8A010083800BF41F2FA
:10276000E8416944A1F5F67003F0F0FD82460B20C4
:102770000DF5805C41F28833E34ACCF8BC050CF2DD
:10278000BC51A1F53C7002F0DFFD0B200DF5805C23
:1027900041F28833DC4ACCF8B8050CF5B761A1F5F5
:1027A000477002F0D1FD41F28C206844D7490160A6
:1027B00000BFD749016000214160816000BF03462E
:1027C00000F1100200F140010DF58B5002F02CF9E0
:1027D00000BFD0480DF5805CCCF874000020CCF828
:1027E0007800CCF87C00CCF88000CCF88400CCF8E1
:1027F0008800CCF85801CCF85C0100BF06E000224C
:1028000041F28C01694441F82020401C3228F6DB5B
:1028100000200DF5805CCCF8540100BF0DF563601D
:1028200004F0E4F80DF6687A4FF480730AF10C02B4
:102830000021504604F010FE00BF0DF2A46003F02A
:1028400063FA0DF67470CDF8FC0800BF0DF2A460B9
:1028500002F05AFE00BF0020ADF850060F20ADF880
:1028600054060420CDF858060020CDF85C066420FC
:10287000CDF860062920CDF864062A210DF5CA603E
:1028800081612B21C1612C21016200BFE43802F07B
:10289000DBFA03210DF5916003F0DAFB0121E9A8D1
:1028A00003F0D6FB0221B0A803F0D2FB0DF5217A8C
:1028B0004FF0FF320021504602F028F98246964838
:1028C000CAF8000000208AF814008AF815008AF877
:1028D0001600012205210AF1180004F002FDA0F102
:1028E000180A012205210AF1240004F0FAFCA0F1E3
:1028F000240A012205210AF1300004F0F2FCA0F1C3
:10290000300A00BF0DF5177A4FF0FF320021504614
:1029100002F0FCF882468148CAF8000040F2DC5020
:10292000CAF8140000208AF818000AF11C000021DF
:10293000016000BFA0F11C0A0020CAF8240000BFFB
:1029400041F28C2169440FA801F03CFE00BF002039
:102950000E9000BF96224FF488711AA802F0FBF87F
:102960009622E5211AA802F0F6F8C822AB211AA88F
:1029700002F0F1F8032200211AA802F0D2F8962200
:10298000AB211AA802F0E7F89622E5211AA802F076
:10299000E2F8C8224FF488711AA802F0DCF803228A
:1029A00011461AA802F0BDF8322288211AA802F0B6
:1029B000D2F8322200211AA802F0CDF83222882162
:1029C0001AA802F0C8F8032206211AA802F0A9F8F2
:1029D000192288211AA802F0BEF8022200211AA8A2
:1029E00002F0B9F8022209211AA802F09AF864222A
:1029F00098211AA802F0AFF86422AB211AA802F0BD
:102A0000AAF86422CC211AA802F0A5F8642240F2A8
:102A100001111AA802F09FF864224FF488711AA8D5
:102A200002F099F84FF4FA6200211AA802F093F824
:102A3000642298211AA802F08EF86422AB211AA809
:102A400002F089F86422CC211AA802F084F86422EA
:102A500040F201111AA802F07EF864224FF4887146
:102A60001AA802F078F84FF4FA6200211AA802F0CE
:102A700072F8642298211AA802F06DF86422AB2142
:102A80001AA802F068F86422CC211AA802F063F8B0
:102A9000642240F201111AA802F05DF864224FF49A
:102AA00088711AA802F057F811220B211AA802F017
:102AB00038F864224FF488711AA802F04CF86422A6
:102AC00040F201111AA802F046F86422E5211AA882
:102AD00002F041F86422CC211AA802F03CF86422EA
:102AE000B5211AA802F037F805221C211AA802F015
:102AF00018F864224FF488711AA802F02CF86422A6
:102B00000EE0000028000020486B010068910008DA
:102B1000C8910008A3B0AE3D988F00082891000826
:102B200040F201111AA802F016F86422E5211AA851
:102B300002F011F86422CC211AA802F00CF86422E9
:102B4000B5211AA802F007F86422AB211AA802F0F6
:102B500002F8642298211AA801F0FDFF642288215E
:102B60001AA801F0F8FF082221211AA801F0D9FFC4
:102B700000210FA801F01AFC00BF00208DF82400EE
:102B800001208DF825008DF8260000200A90642091
:102B90000B9000200C900D9000BF00BF089000BF6C
:102BA00000BF0790FF4800680DF5805CCCF88405F5
:102BB000FC48001D0068CCF88805FA480830006819
:102BC000CCF88C05B1E300BF0DF5805C9CF8940552
:102BD00000B9AAE300BF00200DF5805C8CF89405D5
:102BE00000BFBCF8F004401DACF8F0040CF59D618A
:102BF0000DF26C5002F054F800210DF5916003F0D5
:102C000009F941F2065169440DF5916003F006FAA5
:102C10000021E9A803F0FEF841F207516944E9A850
:102C200003F0FCF90021B0A803F0F4F841F20851D8
:102C30006944B0A803F0F2F90DF5CA6003F08FFA09
:102C40000021A1A801F0C3FF9DF8990208B102205C
:102C500000E000200DF5805C8CF8FE049CF8FE047A
:102C60009DF89A1209B1012100E0002108430DF5F9
:102C7000805C8CF8FE049CF8FE049DF8981209B163
:102C8000042100E0002108430DF5805C8CF8FE046F
:102C9000079810F0010F04D19CF8FE0410F0010F0A
:102CA00015D1079810F0020F06D10DF5805C9CF845
:102CB000FE0410F0020F0AD1079810F0040F0AD199
:102CC0000DF5805C9CF8FE0410F0040F03D0032186
:102CD0000FA801F06BFB0DF5805C9CF8FE040790DB
:102CE000002197A803F0B0FA97A803F0AAFA64218C
:102CF00090FBF1F00DF5805C8CF8000500BF9DF8AD
:102D000075028CF8FF0400BF9DF8740208B1102012
:102D100000E000200DF5805C9CF8FF1408438CF85F
:102D2000FF040CF20F52511E481EFFF768F90021F4
:102D30000FA801F009FC0FA801F0DEFE48B10DF567
:102D40008B5001F0D9FE20B100210DF58B5001F020
:102D50002BFD00BF0DF5805CDCF8A005401CCCF815
:102D6000A0059CF8B415884204DBDCF8A805CCF873
:102D7000B00512E00DF5805C9CF8B405DCF8A015F8
:102D8000401ADCF8A41548439CF8B41590FBF1F008
:102D9000DCF8A815081ACCF8B0050DF5805CDCF855
:102DA000B085DCF8AC9500BFC246CB46D046CCF827
:102DB00058A1D946CCF85CB15B4652460CF59D61F2
:102DC000A1F2744001F055FC00BF0DF5805C0DF5DB
:102DD0008B500CF5AC7106C901F04AFD97A803F0C1
:102DE00030FA8246014641F2CC20684402F0A4FA4F
:102DF00097A803F026FA8246014641F29C206844D7
:102E000002F09AFA97A803F01CFA8246B8F1640F10
:102E100001DC012000E000200346524641F2E84177
:102E2000694409A802F05BF800BF9DF8240003285C
:102E300001D1012000E0002028B1002211460DF54B
:102E40008B5001F015FD00BF9DF8260008B1002051
:102E500003E001208DF8260000BF18B102210FA861
:102E600001F0A4FA00210DF58B5001F0AFFD41F205
:102E7000E84169440DF58B5001F0A1FC00BF0DF550
:102E8000805CDCF89C15C8B200BF8CF801050021FD
:102E90000DF5636003F04EFC0DF5805CDCF8580125
:102EA00070B9DCF85C0158B9DCF8E80440B9DCF82A
:102EB000EC0428B99CF8F40410B99CF8F30418B198
:102EC00001208DF8A50602E000208DF8A5060DF57D
:102ED000805C9CF8200508B9012000E000200590E6
:102EE0000DF5805C9CF82005C0F1180301460CF23A
:102EF000225000EB410206A90DF5636003F03BFC94
:102F00000DF5805C9CF8201508448CF8200500BF66
:102F1000BDF85E1F04919DF8640F00218DF8641FB9
:102F200000BF28B30023009301931A460293BDF813
:102F3000100001B20DF2A46002F0D4FC1A49DDF8D1
:102F4000A80605F001FC824605F020FD00B20DF553
:102F5000805CACF818051449DDF8B00605F0F4FB08
:102F6000824605F013FD00B20DF5805CACF81A0541
:102F70009DF85A0F28B9BDF85C1F0DF2A46002F04D
:102F800045FA00220D2141F2E840684401F009F8B9
:102F90000122042141F2E840684401F002F805985A
:102FA00050B103E0E8F7FF1F0000C8429DF8180089
:102FB0000DF5805C8CF81F05002141F2FC2068446F
:102FC000FFF70EFB00287DD100BF41F2FC206844D2
:102FD00090F8520168B1002141F2FC20684480F869
:102FE0005211B0F95621B0F954110DF5AD5002F05F
:102FF000E9FE41F2FC20684490F86A01D0B100215A
:1030000041F2FC20684480F86A1101210DF58B50D3
:1030100001F0CAFB0DF58B5001F06EFD50B141F28D
:10302000FC20684490F86E21B0F86C1100230FA8C2
:1030300001F03EF941F2FC20684490F85E0128B1AD
:10304000002141F2FC20684480F85E1141F2FC202E
:10305000684490F8760168B141F2FC20684490F829
:1030600077110FA801F0A2F9002141F2FC20684479
:1030700080F8761141F2FC20684490F8A20128B152
:10308000002141F2FC20684480F8A21141F2FC20AA
:10309000684490F88A0128B1002141F2FC2068447C
:1030A00080F88A1141F2FC20684490F8AE0170B1BA
:1030B000002141F2A44068448171A0F5D471B1F8B7
:1030C000B00100E018E1ADF8200600BF00BF41F2FA
:1030D000FC20684490F8BA0100283ED0002141F25B
:1030E000FC20684480F8BA11B0F8BC0110F0010F60
:1030F00006D001220A2141F2E840684400F051FF65
:1031000041F2FC206844B0F8BC0110F0020F06D078
:1031100001220B2141F2E840684400F042FF41F2F5
:10312000FC206844B0F8BC0110F0040F06D0012266
:103130000C2141F2E840684400F033FF41F2FC20EA
:103140006844B0F8BC0110F0080F06D0012213212A
:1031500041F2E840684400F024FF41F2FC2068445A
:1031600090F8DE01002871D0002141F2FC20684473
:1031700080F8DE11B0F8E001C0431FFA80FA4FEA90
:103180002A1A00BFBDF8540600EA0A00ADF850063E
:103190000DF5CA6002F0E3FF00BF41F2FC20684475
:1031A000B0F8E00100F00102252103A8FDF72DFE93
:1031B00041F2FC206844B0F8E001C0F3400226214F
:1031C00003A8FDF722FE41F2FC206844B0F8E001BC
:1031D000C0F38002272103A8FDF717FE41F2FC206F
:1031E0006844B0F8E001C0F3C002282103A8FDF74D
:1031F0000CFE41F2FC206844B0F8E001C0F300226C
:103200001B2103A8FDF701FE41F2FC206844B0F841
:10321000E001C0F340221C2103A8FDF7F6FD41F2B6
:10322000FC206844B0F8E001C0F380221D2103A80F
:10323000FDF7EBFD41F2FC206844B0F8E001C0F37B
:10324000C0221E2103A8FDF7E0FD00BF41F2FC20D3
:10325000684490F8D60168B3002141F2CC4068443C
:1032600081710DF6687000F5657393F8D71100F25F
:10327000EB520B014FF0000E09E003EB0E0A00F1D8
:103280000C0C1CF80AA002F80EA00EF1010EBEF103
:10329000100FF2DB00BF41F2FC20684490F8D70128
:1032A0000DF5805C8CF8520501220F210CF59D6014
:1032B00000F077FE41F2FC20684490F8C601B8B1F6
:1032C000002141F2BC4068448171A0F5E07191F8A1
:1032D000C701002109E00DF6566212F83120824242
:1032E00002D1CDF8481E02E0491C2029F3DB00BFC3
:1032F00000270025012617E0781C0746B0F5167F49
:1033000012DD41F2FC206844FFF7B9F900275EB1F5
:103310004DB904210FA801F049F8002211460DF51E
:10332000AD5002F04FFD012500BF4CE410B5FFF792
:10333000CDF9002010BD032A40F2318010F0030CBB
:1033400000F0158011F8013BBCF1020F624498BFF8
:1033500011F801CB00F8013B38BF11F8013BA2F195
:10336000040298BF00F801CB38BF00F8013B11F010
:10337000030300F02680083AC0F0098051F8043BAE
:1033800051F804CB40F8043B40F804CBF3E7121D9E
:103390005CBF51F8043B40F8043BAFF30080D20718
:1033A00024BF11F8013B11F801CB48BF11F8012BE4
:1033B00024BF00F8013B00F801CB48BF00F8012B07
:1033C000704710B5203AC0F00B80B1E81850203A91
:1033D000A0E81850B1E81850A0E81850BFF4F5AFB5
:1033E0005FEA027C24BFB1E81850A0E8185044BF3F
:1033F00018C918C0BDE810405FEA827C24BF51F8AC
:10340000043B40F8043B08BF7047D20728BF31F89F
:10341000023B48BF11F8012B28BF20F8023B48BFF0
:1034200000F8012B704770477047704770B5064C25
:103430007C44064D7D4403E0206820448047241DE1
:10344000AC42F9D170BD0000785F0000845F0000DD
:1034500001487047704700009C07002001487047F2
:1034600070470000A007002070B5064600F072F813
:103470000568301D082838BF0820C01D20F007044B
:10348000B44220D929466868B8B10268A24210D374
:1034900004F108039A423CBF42684A6007D343687C
:1034A0000219536003681B1B13604A600460001D0F
:1034B00070BD014640680028E7D12146284600F04B
:1034C00053F80028DED1002070BD70B50546041FFA
:1034D00000F040F80168002D08BF70BD486801E0A9
:1034E00001464068002818BFA042F9D30A68531863
:1034F000A34218BF4C6003D123680C461A440A60EB
:1035000021680A1982421CBF606070BD4268626017
:1035100000680844206070BD10B500F075F8BDE883
:10352000104000F06BB82DE9F04105460F461646F5
:1035300033B106FB0354A41B2046B847A542FAD179
:10354000A5F10800BDE8F08100F076B800487047AA
:10355000680700200148704770470000700700208E
:10356000704770477047704738B504460A460020D8
:103570006946AFF30080002808BF38BD02460099B5
:10358000204600F096F8012038BD012000F0D2B8A6
:10359000F8B5AFF30080054600200C46102000BFB0
:1035A00006462844A0420DD9324669460020AFF3B2
:1035B0000080070008BF00F0BDF80098A04218BFC7
:1035C0000546C419FFF7C6FFF11D074621F00701A4
:1035D0004E190560284600F00AF8B44208BFF8BD4D
:1035E000A21B31463868BDE8F84000F062B80021FF
:1035F000016041608060704710207047002801D052
:1036000000F028B87047000010B5002102A000F0BB
:1036100078F8012010BD00005349475056464E3AF5
:103620002050757265207669727475616C20666EC3
:103630002063616C6C65640010B500F085F8016969
:1036400019B100220261884701E08068804700F0DC
:1036500050F8000003494FF01800ABBE704700005F
:1036600041010000260002007546FFF76FFFAE46DD
:1036700005006946534620F00700854618B020B57E
:10368000FDF788FABDE820404FF000064FF0000734
:103690004FF000084FF0000B21F00701AC46ACE8FA
:1036A000C009ACE8C009ACE8C009ACE8C0098D4667
:1036B00070478C4600E018464368002B18BF6345EE
:1036C000F9D303681844604507D0C81C20F00700F0
:1036D00000F1040CACEB0100121A0CF10400CCF860
:1036E0000020FFF7F2BE0446AFF300802046FCF74F
:1036F0004FFD002000F05CF8FCF73CFD0120FFF7D7
:10370000A9FF70B504460D460A2000E0641C00F0D5
:1037100041F834B120780028F8D102E06D1C00F0A7
:1037200039F815B128780028F8D1BDE870400A2092
:1037300000F030B810B500F043F8BDE81040FFF7D6
:103740005DBF0000FFF7D5FF70B500F02BF80468EF
:103750000546B4B92020FFF787FE040001D1FFF72A
:10376000C8FF094900202C60C4E900010749A16095
:103770002073206160610649A06109B100F046F83C
:10378000E061204670BD00000000000045370008E1
:103790000000000008B5694600900320ABBE08BDDC
:1037A000704700000148704770470000A4070020E0
:1037B00010B500F049F8BDE81040FFF71FBF00004A
:1037C000002110B5012800D102A108A0FFF799FF40
:1037D000012010BD3A2048656170206D656D6F72E3
:1037E0007920636F72727570746564005349475233
:1037F000544D454D3A204F7574206F6620686561C1
:1038000070206D656D6F72790000000010B5882022
:10381000FFF72AFE002801D00021017010BD802989
:1038200002D808B1017809B100207047012100F8E1
:10383000081B704718B100F10802914201D0002026
:10384000704700210170704710B5002102A0FFF7FA
:1038500058FF012010BD0000534947414252543ADD
:103860002041626E6F726D616C207465726D696E5D
:103870006174696F6E00000010B5012000F002FA5B
:10388000BDE81040002000F0FDB9000002490844E6
:10389000B0F8000C7047000000600040024A10447D
:1038A000A0F8001C70470000006000400349C200FF
:1038B00002D5C1F804047047486070470000024018
:1038C0000029016802D041F0010101E021F001016D
:1038D000016070470268002122F00102026001606D
:1038E00041608160C160304B2F49C21A80399842D3
:1038F00045D018DC2D4BA0EB0302984237D00ADCF0
:103900002B4A80182BD014282DD0282826D148687F
:1039100040F4706036E0142A2DD0282A1ED1486861
:1039200040F470002EE0B2F56C7F32D00ADCB2F5C4
:10393000627F29D0B2F5677F10D1D1F8040440F03E
:10394000F00009E0B2F5717F28D0B2F5767F05D19D
:10395000D1F8040440F47020C1F8040470474868AA
:1039600040F00F000EE0486840F0F0000AE04868C0
:1039700040F4704006E0486840F4702002E0486877
:1039800040F0706048607047D1F8040440F00F00C8
:10399000E2E7D1F8040440F47060DDE7D1F80404F4
:1039A00040F47040D8E7000080000240440002402C
:1039B000F8FFFDBF70B5026847F6F0739A430E6AD0
:1039C0008B680C693343D1E905562C432343CC69FA
:1039D00033432343D1E909542B4323431343036067
:1039E000CA6842600A6882604968C16070BD0000B0
:1039F00010B5837920490268A3B3D1F8003493430A
:103A0000C1F80034D1F8042403689A43C1F80424AF
:103A1000027904680A44D2F800342343C2F800341F
:103A2000D1F8082403689A43C1F80824D1F80C247B
:103A300003689A43C1F80C244279102A0AD101F58F
:103A400081610A6803681A430A604A680068024391
:103A50004A6010BD1144D1F8002400680243C1F847
:103A6000002410BDFFE700790844D0F8001491430A
:103A7000C0F80014F5E700000000014010B58A0707
:103A800021F003040649120F21440F238C68934050
:103A90009C438C608B68904003438B6010BD00009A
:103AA00000000140F0B5CB780022DC0603F00F03E4
:103AB00001D58C7823430C880F2714F0FF0F4FF0AB
:103AC000010C1CD0D0F800500E880CFA02F42640ED
:103AD000A64210D1960007FA06FE25EA0E0E03FA5A
:103AE00006F5CE7845EA0E05282E00D14461CE7841
:103AF000482E00D10461521C082AE5D305600A88CB
:103B0000FF2A1ED94568002202F108060CFA06F4C5
:103B10000E882640A64210D1960007FA06FE25EA36
:103B20000E0E03FA06F5CE7845EA0E05282E00D1D2
:103B30004461CE78482E00D10461521C082AE3D398
:103B40004560F0BDF0B5104D6B68440D260184B2A0
:103B5000C0F30157B440C0F30342032F06D1686895
:103B600023F0706220F07060686008E0C00203D546
:103B700003209040834300E0A34343F0706201B10F
:103B800022436A60F0BD00000000014041617047BF
:103B900001617047F0B50F23C27801784FF0E0243F
:103BA000012742B3D4F80C2D467802F4E062C2F546
:103BB000E062120AC2F10405D3408278AE401A4096
:103BC000324315018A07D20E954021F003010B19EB
:103BD000D3F80064FF2191408E430D402E43C3F87B
:103BE00000640078410900F01F0004EB8101874068
:103BF000C1F80071F0BD01F01F008740480904EBD7
:103C00008000C0F88071F0BD024908430249086095
:103C1000704700000000FA050CED00E0024A114078
:103C2000014302480160704780FFFF1F08ED00E07C
:103C3000014908627047000000000E42044A002952
:103C4000516901D0014300E0814351617047000098
:103C500000100240044A0029D16901D0014300E06C
:103C60008143D1617047000000100240044A0029DE
:103C7000916901D0014300E08143916170470000E8
:103C800000100240014908607047000040044242B1
:103C900030B5204A5168204B11F00C0103D00429A3
:103CA00001D0082901D0036011E05168022401F419
:103CB000701104EB91415468184D14F4803F02D008
:103CC0005468A40301D5694300E059430160516879
:103CD000134B01F0F00109095C5C0168E1404160AF
:103CE000546804F4E064240A1C5D21FA04F484603E
:103CF000546804F46054E40A1B5DD940C160526802
:103D0000074B02F44042920B1B1F9A5CB1FBF2F18D
:103D1000016130BD0010024000127A0000093D0030
:103D2000AC8E0008034600205909094A012901D137
:103D3000116804E0022901D1116A00E0516A03F020
:103D40001F02012393400B4200D001207047000066
:103D500000100240064900220A7001F820290128BB
:103D600002D0042802D1052081F82000704700000D
:103D70002010024001490860704700003C044242A4
:103D800002490A6A02430A627047000000100240BA
:103D90000248018841F0100101807047042800406A
:103DA0000248018821F0100101807047042800407A
:103DB00002498888098840EA014070471828004075
:103DC00000B50246FFF7E4FF0348110C0180828032
:103DD0005DF804EBFFF7E4BF1828004000B5024689
:103DE000FFF7D6FF0448C2F30341018082805DF8EB
:103DF00004EBFFF7D5BF000008280040034800BFD0
:103E0000B0F804188906FBD5704700000020004078
:103E10000648B0F8041821F00801A0F8041800BF03
:103E2000B0F804180907FBD57047000000200040D7
:103E30000029018802D041F0400101E021F0400159
:103E4000018070470246128900200A4200D00120FA
:103E50007047808970478181704770B502880B88F0
:103E60004E888C88CD8833432C430E8923434C895C
:103E700033438D892343CC892B4302F4415223439E
:103E800013430380828B22F400628283098A0182B9
:103E900070BD0029018802D041F0010102E040F22A
:103EA000FE32114001807047002930F8441F02D0D3
:103EB00041F4004101E0C1F30E0101807047002987
:103EC000818902D041F4005101E021F40051818147
:103ED0007047002A828A01D00A4300E08A43828226
:103EE000704710B5C1F3421301F01F040121A14036
:103EF000012B01D10C3004E0022B01D1103000E085
:103F00001430002A026801D00A4300E08A430260AC
:103F100010BD000030B50446008A85B00D464CF651
:103F2000FF710840E98801432182A0894EF6F31110
:103F30000840A9882A8911436A8902431143A18153
:103F4000A08A4FF6FF410840A9890143A182684633
:103F5000FFF79EFE1048844201D1039800E00298CA
:103F600019214843296864228900B0FBF1F0B0FBB5
:103F7000F2F109010B096FF018056B43322500EBD4
:103F8000830005EB0010B0FBF2F000F00F000843D7
:103F9000208105B030BD00000038014001460120FD
:103FA000704710B5012404FA01F32AB1D0F8A840F3
:103FB0001C43C0F8A84004E0D0F8A8409C43C0F8D7
:103FC000A84010BD00BF0E490968491C0C4A116089
:103FD0000C4909680C4A126811440A4A116000BF72
:103FE00000BF4168491C4160282903DB0021416072
:103FF000012100E0002109B101210170704700009A
:104000001C00002024000020280000207CB504466D
:1040100000202070201D0021016000BF041F0F49F7
:1040200003C9CDE900010E48406840B10C48406822
:1040300028B10B4A506852681268516888471020AE
:1040400002F09AFE05462146DDE9002303F06EFAF0
:1040500005460348456000BF20467CBDA08E000891
:104060004807002010B5044600202549088025484F
:10407000806940F400602349886100202249A1F84A
:10408000000C1F493039088001201D490C39088077
:10409000B020091D0880002019492C3908801849D2
:1040A0000880091D0880091D0880091D08806020FE
:1040B00013491C3908800020091D0880091D08804B
:1040C00004200F493439088000200F49A1F8040C5E
:1040D0000846B0F8000C40F0010009493439088066
:1040E00001200949A1F8140C012105483438FFF7D3
:1040F000D0FE012102483438FFF7D6FE10BD000083
:10410000342C0140001002400020014010B504464C
:10411000606A20B1012806D002280CD107E02046B1
:1041200000F06EF908E0204600F0FAF804E02046BE
:10413000FFF798FF00E000BF00BF10BD10B50446B8
:10414000606A20B1012806D002280CD107E0204681
:1041500000F00CF808E0204600F060F804E020468B
:1041600000F09CF900E000BF00BF10BD10B5044690
:104170000020274908802748806940F400602549CD
:10418000886100202449A1F8000C214930390880B9
:1041900001201F490C390880B020091D088000202B
:1041A0001B492C3908801A4908805820091D0880AD
:1041B0000020091D0880091D08804FF4C0401449E3
:1041C0001C3908800020091D08801020091D088066
:1041D00004200F493439088000200F49A1F8040C4D
:1041E0000846B0F8000C40F0010009493439088055
:1041F00001200949A1F8140C012105483438FFF7C2
:1042000048FE012102483438FFF74EFE10BD000081
:10421000342C014000100240002001402249C969AD
:1042200041F00201204AD1612049098880F820101C
:1042300000219204A2F800141C4A203A11800121A6
:104240001A4A121D11804D21121D11800021174A9A
:104250001C3A1180154A10321180121D1180121D56
:1042600011802421121D11800021104A0C3A118066
:104270004FF4C041121D11809114121D11800421B0
:104280000A4A243A118000211205A2F804141146AA
:10429000B1F8001441F00101044A243A11800121CF
:1042A0008A07A2F81414704700100240240400404A
:1042B0002DE9F04104460D4616461F4684F8297044
:1042C000206801692046884710B12046FFF736FF75
:1042D000208BA84217D04DB994F8280078B9012056
:1042E00084F828002046FFF711FF08E094F8280022
:1042F00028B1002084F828002046FFF71FFF2583FF
:10430000208B06490880E66120684168204688477E
:1043100001F07CFF6061BDE8F0810000282C0140C5
:104320002049C96941F002011E4AD16100211E4A9B
:1043300011801205A2F804141B4A28321180FF21B3
:10434000121D11800321184A083211800021164ADB
:1043500034321180121D1180121D1180121D118026
:1043600040F20111104A183211800021121D1180F3
:10437000121D118004210C4A118000211205A2F89F
:1043800004141146B1F8001441F00101064A1180ED
:104390000121054A1432118090F820101207A2F86A
:1043A0002414704700100240000400407CB504460D
:1043B0000D46684601F026FF04F12C008168A942F1
:1043C00001D8002107E0C56000F5D071C26851F83E
:1043D00032100160012109B900207CBD694604F159
:1043E0002C0000F0CDFB08B90020F6E7BDF8001066
:1043F00001232046019AFFF75BFF0120EDE7000053
:1044000010B504462248806940F400602049886164
:104410000020204908802049A1F8040C1D492831BA
:10442000088040F2FF70091D0880002019490831FA
:104430000880184934310880091D0880091D08804A
:10444000091D088060201349183108800020091DCB
:1044500008800120091D088004200E4908800020E2
:104460000D49A1F8040C0846B0F8000C40F001001A
:1044700008490880012007491431088001210548B6
:10448000FFF707FD01210348FFF70EFD10BD0000F7
:1044900000100240002C01400020014010B50446ED
:1044A0000020264908802648806940F4006024499D
:1044B000886100202349A1F8000C20493039088088
:1044C00001201E490C390880B020091D08800020F9
:1044D0001A492C3908805820184908800020091DE5
:1044E0000880091D0880091D0880602013491C39B7
:1044F00008800020091D08800120091D0880042073
:104500000E493439088000200E49A1F8040C0846F1
:10451000B0F8000C40F0010008493439088001204F
:104520000849A1F8140C012104483438FFF7B1FC04
:10453000012102483438FFF7B7FC10BD342C01408C
:1045400000100240002001407CB504460D46206862
:10455000294642692046904710B14FF0FF307CBD9C
:1045600001F054FE6169411AE06981421FD394F859
:104570002900C0B1684601F045FE694604F12C00EF
:1045800000F0FEFA38B1BDF8001001232046019A70
:10459000FFF78EFE06E0002084F82900206881687D
:1045A0002046884703E0206881682046884700202D
:1045B000D5E710B504462046FFF7A8FD002020727D
:1045C000208310BD70B504460E464FF0FF32002127
:1045D000204600F09BFA04461748206004F11800BA
:1045E00001F010FEA0F1180402206062002084F89F
:1045F000280084F8290004F12C0528606860A86070
:10460000322308220D4905F1100002F0E1FBA0F170
:1046100010050A2308220A4905F5D07002F0D8FBDC
:10462000A0F5D07500BFA5F12C04C4F81C6220468B
:10463000FFF7BFFF204670BD108F0008056200081D
:10464000DD4E00080146012070470246087F5A28C7
:1046500001DD01207047087B08B10120FAE7C87A24
:1046600008B10120F6E7887A08B10120F2E70020BE
:10467000F0E72DE9F05F04460D4616461F46D5E9E2
:10468000000100EB0108D4F8E000401C322190FB4F
:10469000F1F201FB120904F1180050F829006169D8
:1046A000081A606160694044606104F1180040F8D4
:1046B0002980C4F8E0906169480004F09FF98346BE
:1046C000216804F0E9F9824604F060F9206160682D
:1046D00000281DDD6068401E60600020C4F8E8000E
:1046E000A068C4F8E400606840B929462046FFF796
:1046F000ACFF18B1012060600020A0603A4631464E
:10470000204600F044F808B900206060BDE8F09F42
:104710003A463146204600F03AF800282DD020696C
:10472000C8282ADD29462046FFF78FFF28B300BF9F
:1047300014206060287B08B9E87A28B12069C0F1AC
:10474000C8008000A0600BE0A87A28B12069C0F101
:10475000C8004000A06003E02069C0F1C800A0606C
:10476000A068002801DD0020A06000BF0020C4F880
:10477000E800A068C4F8E40008E0C4F8E870C4F8F1
:10478000E4603A463146204600F001F8BEE70346B1
:10479000002907DD22B1C82A02DC12F1C80F01DAB4
:1047A000012070470020FCE770B504460D461DB19E
:1047B000206881682046884784F8285170BD70B50C
:1047C00004460D4600BFE16B0846C91700EB916136
:1047D0008911296000BFA16B0846C91700EB9161E0
:1047E000C1F38F11E98100BF606C4FF47A7190FBC7
:1047F000F1F0A87400BFD4F8C4100846C91700EB44
:1048000091618911696000BFD4F8C0100846C917CA
:1048100000EB9161C1F38F122A8200BFD4F8CC0063
:104820004FF47A7190FBF1F0E8740020A87604F15F
:10483000140000F056FCA97E0843A87604F19C0001
:1048400000F04FFC08B1022000E00020A97E0843E0
:10485000A8760A21A06C90FBF1F085F82800D02002
:10486000005990FBF1F0C1B229204155002070BDE4
:104870002DE9F04F85B004460D4616460027B04698
:10488000284603F097FBCDE902014EA00CC8029820
:1048900003F0E4FBCDE9000103F03EFB049094F843
:1048A000280110B105B0BDE8F08F04F1140000F04C
:1048B00023F938B104F19C0000F01EF910B10DB9D4
:1048C00006B9EFE7B8F1000F0AD104F1140004991A
:1048D00001F060FE04F19C00049901F05BFE4BE0E6
:1048E00018F1010002D0B8F1010F10D1C8F1000099
:1048F000049A00FB02F104F1140001F04BFE04984D
:1049000008FB00F104F19C0001F044FE34E0B8F132
:10491000000F02DAC8F100080127A8F17B0908F1AD
:104920007B0AA7B1049800FB0AF090FBFAFB5946FA
:1049300004F1140001F02EFE049800FB09F090FB36
:10494000FAFB594604F19C0001F024FE13E00498A0
:1049500000FB09F090FBFAFB594604F1140001F04A
:1049600019FE049800FB0AF090FBFAFB594604F18B
:104970009C0001F00FFE00BF049810F15A0F0DDAF1
:10498000B8F1000F0AD1012104F1140000F0A0FBDE
:10499000012104F19C0000F09BFB09E0002104F1DF
:1049A000140000F095FB002104F19C0000F090FB46
:1049B00000BF0120207700BF00BF84F8A40000BF23
:1049C00020726FE7C9AC410C32030E4070B504464B
:1049D0000D46294604F1140000F08AFB294604F133
:1049E0009C0000F085FB00BF207F18B900BF94F841
:1049F000A40028B1D4F824010268D168884706E0F1
:104A0000D4F82401026891688847002020720020B1
:104A100070BD10B5044604F1140000F007FC04F169
:104A20009C0000F003FC10BDF0B585B004460D46B7
:104A300016461F464FF0FF320021204600F066F870
:104A40000446174820600523012200210E20CDE9ED
:104A50000323CDE90101134B00932B463A4604F1A1
:104A6000140000F0F7FBA0F11404052301220E202E
:104A7000CDE90102CDE903230A4B009333463A46C0
:104A8000012104F19C0000F0E5FBA0F19C04C4F8B6
:104A90002471002084F82801204605B0F0BD0000F4
:104AA000448F000818730100034B036001714271C9
:104AB0000023837170470000648F000870B50446BE
:104AC0000D46206801692046884748B1E068002803
:104AD00001DA002000E0E06820614FF0FF3070BD97
:104AE0002069401C2061E168884202DA6FF0010011
:104AF000F5E700202061F2E70146087A08B90120B5
:104B000070470020FCE7012101727047034B0360EE
:104B1000416000230372C26002617047788F000811
:104B2000704710B5034698680A2801DB002010BDC5
:104B30008818322801DB0020F9E703F5D0709C6863
:104B400040F834109C6800EBC40042609868401C38
:104B500098600120EBE730B503465868322801DB46
:104B6000002030BD03F110005D6820F835105C684E
:104B700000EBC40042605868401C58600120F0E718
:104B800030B50246D068002801DA002030BD02F5B9
:104B9000D074D56804EBC5001368D0E900452C44F7
:104BA0009C4201DC012400E0002424B14FF0FF30DE
:104BB000D0600020EAE71368581C106002F1100072
:104BC00000EBC30309CBC1E900030120DEE7F8B520
:104BD00004460E4605216846FCF77EF80546014668
:104BE00004F1300002F082FB207504216846FCF7D6
:104BF00073F80546014604F1180002F077FB607572
:104C000003216846FCF768F80546014604F12400D4
:104C100002F06CFBA0750020F8BD2DE9F0410446C0
:104C20000D46164605EB850104F13C0000EBC1077B
:104C3000983050F825100E30FCF72EF880463A6870
:104C4000511C3960391D41F822803968092901DB7E
:104C5000002139600020002108E03A1D52F821208F
:104C6000824202DD3A1D52F82100491C0929F4DB79
:104C700000BF81B206F1800020F8151030F8150051
:104C8000B0F5167F04DA317B0120A840014331736F
:104C9000BDE8F08130B5002502F11B04655430BD3C
:104CA0007CB504460D460020A8720C216846FCF72E
:104CB00013F8A97A0843A8720B216846FCF70CF890
:104CC00008B1022000E00020A97A0843A8720A2156
:104CD0006846FCF701F808B1042000E00020A97A3A
:104CE0000843A8720020E87202216846FBF7F4FF2F
:104CF000E97A0843E87201216846FBF7EDFF08B145
:104D0000022000E00020E97A0843E872002085F8DC
:104D10002E0000BF01232A4600212046FFF7BAFFDC
:104D200000232A4601212046FFF7B4FF01232A462B
:104D300002212046FFF7AEFF002028732A460021FB
:104D40002046FFF76AFF2A4601212046FFF765FF4C
:104D50002A4602212046FFF760FF00BF052101A877
:104D6000FBF79AFFA5F88A00062101A8FBF794FF3C
:104D700081B28C204153072101A8FBF78DFF81B23E
:104D80008E204153092101A8FBF786FF81B29020B4
:104D900041530C2101A8FBF77FFF81B292204153C0
:104DA00000219420415396204153002025F8980F6C
:104DB0001F216846FBF790FF2988084325F89809CA
:104DC00020216846FBF788FF08B1022000E00020A0
:104DD000B5F898100843A5F8980021216846FBF71C
:104DE0007BFF08B1042000E00020B5F898100843CC
:104DF000A5F8980022216846FBF76EFF08B108204D
:104E000000E00020B5F898100843A5F89800232189
:104E10006846FBF761FF08B1102000E0002035F87C
:104E2000981F08432880288825F898092421684677
:104E3000FBF752FF08B1402000E00020B5F89810C1
:104E40000843A5F898007CBD10B504464FF0FF322A
:104E500000212046FFF75AFE04461E48206001222A
:104E6000022104F1140002F053FAA0F1140401220B
:104E7000022104F1200002F04BFAA0F120040122EB
:104E8000022104F12C0002F043FAA0F12C040A20C4
:104E9000A06303232822104904F13C0001F098FF8D
:104EA000A0F13C040020A4F8B40004F1E00000BF2D
:104EB000A0F1E00404F1E10000BFA0F1E10403204F
:104EC000C4F8D4000421D82001510221DC20015172
:104ED000204610BDB88F00088576000870472DE980
:104EE000FC4104460D4616461F4600BF206908B91E
:104EF00026610AE05A212069484306EB860100EB4F
:104F00004100642190FBF1F0206100BF6068401C0B
:104F10006060A168884209DD607890F0010001D0EE
:104F2000012000E00020607000206060207830B137
:104F3000012834D0022864D003282FD177E000BFA5
:104F400043F22C312069884202DA3220A06001E06D
:104F50006420A060E87D30B1E068401CE0609628E5
:104F600001DD0120207043F2BC41206988420ADD46
:104F7000002219216846FBF748FF01221A216846E2
:104F8000FBF743FF0AE0012219216846FBF73DFFCA
:104F900001221A216846FBF738FF00BF65E000BF19
:104FA000E87D38B9E068401EE06010F1960F01DA44
:104FB00000202070E87D00F0060002280DD120704E
:104FC00001221A216846FBF720FF002219216846BA
:104FD000FBF71BFF0020A07047E0607828B101229A
:104FE0001A216846FBF711FF0AE0002219216846E2
:104FF000FBF70BFF00221A216846FBF706FF00BFF4
:1050000033E000BFE87D38B9E068401EE06010F191
:10501000960F01DA0020207001221A2101A8FBF767
:10502000F4FE0022192101A8FBF7EFFE1DE000BFEE
:105030003220A060607828B1012219216846FBF770
:10504000E4FE0AE0002219216846FBF7DEFE00229A
:105050001A216846FBF7D9FE00BF2FB1E87D08B1E1
:10506000012000E00020207000BF00BFBDE8FC81EF
:1050700070B506460C461546284601F014FF207010
:1050800070BD70B506460C461546284601F00BFF6C
:105090002080284601F007FF218841EA002000B265
:1050A000208070BD70B506460C461546284601F0B6
:1050B000FAFE2080284601F0F6FE218841EA002011
:1050C000208070BD014601207047014601207047D5
:1050D00070B504460D46A06E01688A68294690475F
:1050E00070BD10B50446A06E0268D168884710BD37
:1050F000F8B504460E462068816920468847206836
:10510000002142692046904778B10020A56E0090AA
:10511000286803686A46211D28469847A06E0268E1
:10512000516888474FF0FF30F8BD206A08B9012068
:1051300000E00020014604F17C0002F0D7F850B1F5
:10514000206881682046884700202063204601F0BF
:1051500003FA0020E8E7A06E016804F128020B685A
:1051600004F1200198472063204601F0F5F9002062
:10517000DAE7000030B58DB0054600200B90696875
:10518000686902680AAB14680BAAA0470A9802F083
:1051900011FFCDE9080121A00CC8089802F05EFFBC
:1051A000CDE90601686B02F005FFCDE904011DA001
:1051B0000CC8049802F052FFCDE90201DDE9062394
:1051C00002F056FBCDE9000102F0A6FE686395F8F7
:1051D0006C0010B10B9840420B90E86A0B99081ACA
:1051E000A862A96FA86A884205DD686F4042A96A73
:1051F0000844A86209E0A86F401C4042A96A8142A5
:1052000003DAA96A686F0844A862D5E9090108446D
:1052100068620B98E8620DB030BD00009A999999C8
:105220009999C93F9A9999999999E93F38B504464E
:1052300000202072A06E0268516888470020A56E89
:105240000090286803686A46211D28469847002078
:10525000206238BD2DE9F84F04460D4616461F461C
:10526000DDE90AB8DDF838A0DDF830900D9B009339
:105270005B4632462946204601F08EF9044618481E
:10528000206004F164000021016000BFA0F164040B
:10529000A76684F86C90C4F870A0012000FA08F0AA
:1052A0006067A8F1010101208840A0670122642104
:1052B00004F17C0002F015F8A0F17C0461686069DB
:1052C000026804F13403D2F800C004F12C02E04774
:1052D0000020A0622046FFF74DFF2046BDE8F88F72
:1052E000209000080146C879642805DC087A642803
:1052F00002DC487A642801DD002070470120FCE7C9
:105300000146012070470146012070470146C879D7
:10531000642801DD002070470120FCE7C2690261BA
:10532000026A426170470146486AB0F5487F01DD74
:10533000012070470020FCE7C16270470021C16076
:10534000816141627047000030B50D4C046000BFC0
:105350000C4C04600C6844600C68E51704EB557550
:10536000ED1085600024C4600261436184610469BA
:10537000C4614469046243F2B0648462C46230BDB3
:10538000F88E0008A0900008F0B503469C69002044
:105390000E681768F51BD3E90267EF1B7E435F6851
:1053A00007FB05669F693E449E61DD601F699E693B
:1053B000BE4205DD1E699E615E6A0A365E6211E0CC
:1053C0001F697F429E69BE4206DA1E6976429E616F
:1053D0005E6A0A365E6205E05E6A002E02DD5E6A83
:1053E000761E5E629E69002E01DD5E6901E05E69E7
:1053F00076429F69F019D3E90A76BE4204DD9E6ABF
:105400004643DF6A96FBF7F0F0BD70472DE9FC419B
:1054100004460D463648006810F0010F11D134489B
:1054200001F00AFD68B100BF002032490860486001
:10543000009069462F4801F075FF00BF2C48AFF37C
:105440000080284603F0DAFA019001A904F26460B2
:1054500002F069F98046284903F01EFB074603F075
:1054600095FA06462548007858B10020234908706F
:10547000304603F0C3FA009069461E4801F052FF1F
:1054800000BF304603F0BAFA01901A4A01995068F9
:1054900003F0CEF8174948601648019902680830B1
:1054A00040F8221008380068401C124908600A2899
:1054B00004DD00200860012081F834000D4A1368E3
:1054C000083252F82310083A506803F0C5FB094926
:1054D000486000BF00BF4868094903F035F9074636
:1054E000084903F0D9FAC4F86006BDE8FC81000061
:1054F00038000020C80700200000C8423400002007
:10550000000020410AD7233C2DE9F04F8FB004461C
:10551000002500200D90D4F85862C4F81C030DAB90
:10552000324604F5C871204601F0D8FF00BF0227BB
:105530000D9881193A460CA8FDF7FDFE0D983844E8
:105540000D9000BFBDF8300003F071FAC4F894016B
:105550008A49D4F8940103F049FB06D28849D4F86B
:10556000940103F099FAC4F89401D4F89401C4F8B2
:105570006006002709E004F5CC7000EB87010DAB55
:105580003246204601F0AAFF7F1C182FF3DB0027CC
:1055900009E004F5FC7000EB87010DAB32462046B4
:1055A00001F09CFF7F1C182FF3DB7649D4F89001A3
:1055B000884203D0002084F8880101250020C4F827
:1055C0002803002790E004F5CC7151F8270003F080
:1055D00015FA834603F004F8CDE90A016AA00CC865
:1055E0000A9802F099FACDE9080102F0F7F880462E
:1055F00004F5FC7151F8270003F000FA834602F02D
:10560000EFFFCDE90A0162A00CC80A9802F084FA03
:10561000CDE9080102F0E2F8814607EB87016FF05F
:10562000770202EB410003F0E9F982460C2F04DB1C
:105630005949504602F0FCFF82460021404603F0E3
:1056400075F950D0484602F0CBFFCDE90A0153A0CE
:105650000CC80A9802F0CAFC05D34FF07F514846A7
:1056600003F0C4FA04D20020C4F81C0301253EE074
:1056700004F51770D4F81C1340F821806030D4F87A
:105680001C1340F82190D4F81C03401CC4F81C03E0
:105690004946404603F000FA834602F0A1FFCDE9F7
:1056A0000A0140A00CC80A9802F0D8FCCDE9080114
:1056B000504602F095FFCDE90601DDE9082302F02E
:1056C0002BFACDE90401D4F8280302F089FFCDE9D3
:1056D0000201DDE9042302F0CBF8CDE9000102F07C
:1056E0007DF8C4F828037F1C182FFFF66CAF5DBB54
:1056F000D4F81C730020C4F8240380460BE004F5A2
:105700002F7252F82810D4F8240302F091FFC4F845
:10571000240308F10108B845F1DB384603F06EF9BF
:1057200080464146D4F8240303F00EF8C4F824035D
:10573000384603F063F980464146D4F8280303F065
:1057400003F8C4F8280300BF4DB9002084F888018D
:10575000012084F82C03801E0FB0BDE8F08FD4F830
:105760008401401CC4F88401052804DB002084F86F
:105770008801401EF0E70020EEE700000000C8426C
:105780000AD7233C785634120000000000408F40B6
:105790000000000084D79741000020410000000075
:1057A0000000E03F2D431CEBE2361A3F2DE9F04F9D
:1057B00085B004460D4618262F684FF00008D4F82F
:1057C0001C03022803DA002005B0BDE8F08F002199
:1057D000286803F031F908D24FF0000AD4F81C030E
:1057E00000EBD0714910049108E0D4F81C0300EBE1
:1057F000D0714FEA610AD4F81C030490D1460AE044
:1058000004F5177151F82900394603F0EFF900D279
:1058100004E009F1010904988145F1DB00BF049817
:10582000814506DB0498411E04F52F7050F8218055
:105830003AE0D14504D104F52F7050F82A8033E0C6
:10584000A9F1010204F5177050F82210384603F050
:1058500003FA0390A9F1010304F5177252F823101B
:1058600052F8290003F0F8F90290A9F1010304F5B8
:105870002F7252F8231052F8290003F0EDF901902D
:105880000399019803F008F90090029902F05CFF77
:105890008346A9F1010204F52F7050F822105846F2
:1058A00002F0C6FE804600BFD4F89411D4F860061A
:1058B00003F0D2F983460A49584603F0EDF88346CF
:1058C00059464FF07E5002F0B3FE834659463846A3
:1058D00003F0E2F807463946404603F0DDF873E787
:1058E00017B751382DE9F04F8DB004460D46DDE96C
:1058F0001778169E94F82C0340B90020C4F86C0168
:105900000A20EB4908600DB0BDE8F08F012084F853
:105910002003284603F072F80A90D4F874110A980C
:1059200003F09AF98346D4F8241303F0B5F88146BE
:1059300000BF29F0004A00BF207830B1DD49504651
:1059400003F054F901D201206070607810B11B207F
:10595000D7490860607818B9D5480068002835DD57
:10596000D3480068002804DDD1480068401ED049B3
:105970000860207888B9D4F8700155280DDBD4F878
:10598000700103F03BF883465946D4F86C0102F0ED
:10599000DBFEC4F8740101202070D4F870013228B5
:1059A0000BDDD4F8700103F029F883465946D4F88A
:1059B0006C0102F0C9FEC4F874010020C4F86C0147
:1059C000C4F870011920BC49086014E0D4F87001D3
:1059D000401CC4F87001D4F87001192804DD0AA92C
:1059E00004F54C7001F0B8FCD4F86C010A9902F08F
:1059F0001FFEC4F86C01207810B34FF0000BAF48C5
:105A0000006810F0010F09D1AC4801F015FA28B177
:105A1000AB48C0F800B0A948AFF30080D4F87001DB
:105A20001A280CDD4FF0010B94F85C0638B100BF6A
:105A3000A449D4F8340302F087FEC4F8740100BF0F
:105A4000D4F874110A9803F007F90B900BA92046BB
:105A5000FFF7ACFE09909C48006810F0010F09D1D7
:105A6000994801F0E9F928B19849099808609648E1
:105A7000AFF3008090480068002804DD8E4800687D
:105A8000401E8D49086000200890607818B98A4847
:105A90000068002865DD607800283CD1099802F094
:105AA0009FFDCDE904018AA00CC8049802F0BAFB5E
:105AB0000AD3099802F094FDCDE9060186A00CC82E
:105AC000069802F093FA4CD26068099902F0B0FD92
:105AD00060607E480168099803F0BEF8834602F0D2
