:020000040800F2
:10000000B08A0020750B0008990B00089B0B0008B4
:100010009F0B0008A30B0008A70B000800000000BE
:10002000000000000000000000000000AD0B000810
:10003000AB0B000800000000AF0B0008791E0008A1
:10004000B10B0008B30B0008B50B00081B0C00082F
:10005000B70B0008B90B0008BB0B0008BD0B00086C
:10006000BF0B0008C10B0008711D0008C30B00087E
:10007000C50B0008C70B0008C90B0008CB0B000814
:10008000CD0B0008CF0B0008D10B0008D30B0008E4
:10009000D50B0008D70B0008D90B0008A71D0008D6
:1000A000DB0B0008DD0B0008DF0B0008E10B00088C
:1000B000E30B0008E50B0008E70B0008E90B00085C
:1000C000EB0B0008ED0B0008EF0B0008F10B00082C
:1000D000F30B0008D716000861170008EB1700089B
:1000E000851C0008F50B00085F0C000800F002F802
:1000F00000F045F80AA090E8000C82448344AAF17D
:100100000107DA4501D100F03AF8AFF2090EBAE87A
:100110000F0013F0010F18BFFB1A43F0010318473B
:1001200090940000B0940000103A24BF78C878C1C1
:10013000FAD8520724BF30C830C144BF04680C60ED
:10014000704700000023002400250026103A28BF35
:1001500078C1FBD8520728BF30C148BF0B60704739
:100160001FB508F0F4FE9DE8030003F0F9F903F071
:100170004BF91FBD10B5002007F0AFF910BD03F01B
:1001800057FA1146FFF7ECFF03F0A9F803F08FFAD6
:1001900003B4FFF7EFFF03BC03F044FA08B50021F6
:1001A0004FF0006003F022FD25208DF800000120B3
:1001B0008DF8010005208DF8020001208DF8030064
:1001C000684603F0CFFC26208DF8000001208DF852
:1001D000010005208DF8020001208DF8030068461B
:1001E00003F0C0FC27208DF8000001208DF80100ED
:1001F00005208DF8020001208DF80300684603F009
:10020000B1FC4FF4C06003F0E7FC28208DF800003B
:1002100001208DF8010007208DF8020001208DF8E3
:100220000300684603F09EFC08BD0020FE49C8603C
:1002300008611420486100208861C8610846006890
:1002400040F00100086008464068F8490840F64957
:10025000486008460068F6490840F34908600846C7
:10026000006820F4802008600846406820F4FE0002
:10027000486000208860704710B500BFEA480068F9
:1002800010F0020FFAD03020EA49086008460068F2
:1002900040F0020008600846006840F01000086066
:1002A0000020E149486008464068486008464068C8
:1002B00048600846406840F48060486008464068EE
:1002C00040F4004048600846406840F460104860D0
:1002D0000846006840F08070086000BFD24800689F
:1002E00010F0007FFAD0D048406840F00200CE49BC
:1002F000486000BFCC48406800F00C000828F9D1E5
:10030000C948C06940F00060C749C8610846C06973
:1003100040F08050C8610846806940F00100886163
:100320000121084603F072FC0121C80303F07AFCA6
:10033000012144F60C0003F081FC10BD41F63F7032
:100340004FF0E021486106200861002088610846DE
:10035000006940F001000861704710B5042003F007
:100360007DFAA0F52541A53903D103F039FD03F04D
:100370002DFD10BD10B5AC48806940F40060AA495D
:1003800088610020AC490880091D0880AA492831ED
:10039000088040F2FF70091D08800020A64908313E
:1003A0000880A54934310880091D0880091D08808E
:1003B000091D08806020A049183108800020091D0F
:1003C0000880091D088004209B4908800020091D21
:1003D0000880081F008840F00100091F08800121E3
:1003E000954803F03EFD0121934803F045FD8E48FA
:1003F000C06940F001008C49C8610846806940F03E
:10040000010088618D48406840F400708B49486065
:100410008548806940F00400834988610846806906
:1004200040F00800886100208904088088800885E1
:1004300040F2FF3088850020088140F2FF30888636
:100440000020088788877E49088046F270004FF0B8
:10045000804108834FF0000088834FF0110008842A
:100460004FF0040008804FF00000888008460088A4
:1004700040F0010008806C48C06940F002006A4901
:10048000C8610846806940F0010088616B48406897
:1004900040F44060694948606348806940F010005A
:1004A000614988614FF000006649088001F104014C
:1004B0000880654908804FF0FF0001F104010880C1
:1004C0004FF00300614908804FF000006049088048
:1004D00001F10401088001F10401088001F1040127
:1004E000088040F201105B4908804FF0000001F1E4
:1004F0000401088001F1040108804FF00400514913
:1005000008804FF0000001F1040108804D48008888
:1005100040F001004B4908804348C06940F00400A6
:100520004149C8610846806940F00100886143483C
:10053000406840F48050414948603B48806940F041
:100540001000394988614FF000004349088001F1EB
:1005500004010880414908804FF0FF0001F10401C7
:1005600008804FF003003E4908804FF000003D49ED
:10057000088001F10401088001F10401088001F103
:100580000401088040F20110374908804FF0000054
:1005900001F10401088001F1040108804FF004001A
:1005A0002D4908804FF0000001F1040108802A481D
:1005B000008840F001002849088010BD1CB50F21BB
:1005C000032003F043FA4FF40040009000208DF820
:1005D00004000C208DF8050001208DF80600684607
:1005E00003F0EEF90E21032003F030FA4FF48040BF
:1005F000009000208DF804000C208DF805000120EB
:100600008DF80600684603F0DBF90C21022003F0A8
:100610001DFA4FF48050009000208DF804000C204B
:100620008DF80500012021E0001002400000FFF8D5
:10063000FFFFF6FE00200240002C014000000140B8
:10064000400000400004004028040040080400402E
:10065000340400401804004000080040280800400E
:100660000808004034080040180800408DF80600D3
:10067000684603F0A5F91CBDFE48806940F00400FF
:10068000FC498861BB20FC490860FC48091D0860E2
:10069000F848806940F00800F6498861F848F9494F
:1006A0000860F948091D0860F248806940F01000B0
:1006B000F0498861F548F6490860F6484860ED4819
:1006C000806940F02000EB498861F348F3490860F5
:1006D000F348091D0860E748806940F04000E5499B
:1006E0008861F048F0490860F048091D08607047CB
:1006F00008B50121480503F095FA0121022003F015
:1007000009FA4FF44070ADF8000003208DF80200A4
:100710001C208DF803006946DA4803F0ABF908BDE8
:1007200010B5E34803F0BEF8E148283003F0BAF80A
:10073000DF48643003F0B6F810BD1FB5012188030F
:1007400003F07CFA4FF4E13000900020ADF8040093
:10075000ADF80600ADF80800ADF80C000C20ADF8BF
:100760000A006946D34803F0BDFB012240F225513F
:10077000D04803F09EFB0121CE4803F088FB012105
:10078000480403F04FFA0121082003F0C3F94FF4A5
:10079000E13000900020ADF80400ADF80600ADF89F
:1007A0000800ADF80C000C20ADF80A006946C248FC
:1007B00003F098FB012240F22551BF4803F079FB7A
:1007C0000121BD4803F063FB0121880403F02AFAEC
:1007D0000121BA4803F09EF94FF4E1300090002067
:1007E000ADF80400ADF80600ADF80800ADF80C0057
:1007F0000C20ADF80A006946B14803F073FB0122F2
:1008000040F22551AE4803F054FB9A48C06940F4C9
:1008100080209849C8610121A94803F038FB1FBD19
:100820009448806940F40070924988610846806964
:1008300040F0040088610846806940F00800886143
:100840000846806940F01000886100209D490860DA
:10085000091D0860081D006840F00500091D0860BA
:100860000846006840F0280008600846006840F428
:10087000A07008600846006840F4206008600846E0
:10088000006840F4A04008600846006840F420304A
:100890000860081D006840F00500091D0860084652
:1008A000006840F0280008600846006840F4A07026
:1008B00008600846006840F4206008600846006848
:1008C00040F4A04008600846006840F4203008600A
:1008D0000846006840F4A01008600846006840F42C
:1008E000200008600846006840F0A06008600846E4
:1008F000006840F0205008600020724928310860EC
:10090000091D0860091D08606E48001D006840F060
:1009100001006C49091D08600846006840F00800A5
:10092000086000BF6748001D006810F0080FF9D18B
:100930006448001D006840F004006249091D086019
:1009400000BF6048001D006810F0040FF9D1704727
:100950001CB5684600BFFFF768FCFFF78DFCFFF78A
:100960001DFC45481030006840F480704249103149
:100970000860081D006840F48070091D08603D484B
:10098000806940F004003B4988610846806940F076
:10099000080088610846806940F0100088610846B8
:1009A000806940F0200088610846806940F040007E
:1009B000886100220D2101A800F00DFA00222921F2
:1009C00001A800F008FA00222A2101A800F003FA89
:1009D00000222B2101A800F0FEF900222C2101A801
:1009E00000F0F9F900220F2101A800F0F4F900222B
:1009F000192101A800F0EFF900221A2101A800F046
:100A0000EAF900221B2101A800F0E5F900221C21CF
:100A100001A800F0E0F900221D2101A800F0DBF997
:100A200000221E2101A800F0D6F9FFF725FE0122C1
:100A30000D2101A800F0CFF92349684607F049F8D5
:100A40000022192101A800F0C6F900221A2101A8EC
:100A500000F0C1F900221B2101A800F0BCF900221E
:100A60001C2101A800F0B7F900221D2101A800F007
:100A7000B2F92BE00010024000080140BB8448445A
:100A800000343400000C0140B033443340030044D0
:100A900000100140334B04343344B444001401408B
:100AA0004344444433443433001801404333333324
:100AB0001C000240003801400044004010001400B7
:100AC000004800400424014000350C0000221E2193
:100AD00001A800F080F90122292101A800F07BF98A
:100AE0002249684606F0F5FF01222A2101A800F0FC
:100AF00072F91E49684606F0ECFF01222B2101A87D
:100B000000F069F91949684606F0E3FF01222C213B
:100B100001A800F060F91549684606F0DAFF0122E5
:100B2000142101A800F057F9FFF717FCFFF722FC8A
:100B3000FFF7F6FDFFF701FEFFF740FDFFF770FE40
:100B4000FFF7FCFBFFF7D4FD0022142101A800F001
:100B500042F90748006840F400500549086008461B
:100B6000006840F4804008601CBD000000350C00A7
:100B7000101801400348004703480449044A054B44
:100B800070470000ED000008B00A0020B08A002085
:100B9000B05A0020B05A0020704700BFFEE700BFE7
:100BA000FEE700BFFEE700BFFEE7704770477047F3
:100BB000704770477047704770477047704770477D
:100BC000704770477047704770477047704770476D
:100BD000704770477047704770477047704770475D
:100BE000704770477047704770477047704770474D
:100BF000704770471A48006840F400301849086090
:100C00001848008820F008001649088000BF1548E1
:100C1000008810F0080FFAD070471248008810F0D2
:100C2000040F05D00F48008820F004000D4908800B
:100C30000C48008810F0020F05D00A48008820F008
:100C40000200084908800748008810F0010F05D00D
:100C50000448008820F0010002490880704770476E
:100C6000140401400428004010B5024600200C4B3B
:100C700019600B4B2C3B1B6843F00103084C2C3CC8
:100C8000236000BF064B343B1B6813F0020FF9D002
:100C9000034B183318680023014C343C236010BD0B
:100CA0003424014010B502460020252972D2DFE825
:100CB00001F08E13191F252B8E8E31363B41474D87
:100CC0008E5266575C618E8E8E8E6C8E8E8E8E8E60
:100CD0008E72777C81868800F84B1B68012424EA99
:100CE000D32076E0F54B1B68012424EA133070E032
:100CF000F34B1B68012424EA13306AE0F04B1B68B5
:100D0000012424EA533064E0EE4B1B68012424EAFA
:100D100053205EE0EC4B1B6803F0010059E0EA4B06
:100D20001B68C3F3400054E0E74B1B68012424EA2E
:100D300093004EE0E44B1B68012424EAD30048E012
:100D4000E14B1B68012424EA131042E0DE4B1B68D0
:100D5000C3F340103DE0DC4B1B68C3F3C03038E008
:100D6000D84B1B68C3F3C01033E0D64B1B68C3F3EA
:100D700080202EE0D34B1B68C3F3C02029E0D24B68
:100D80001B68012424EA532023E0CC4B1B68C3F3E7
:100D900000201EE01BE0CB4B1B68C3F3800018E073
:100DA000C84B1B68C3F3C00013E0C64B1B68C3F3FA
:100DB00000100EE0C54B9B68C3F3803009E00020B3
:100DC00007E0C24B9B68012424EA530001E00020A5
:100DD00000BF00BF10BD10B52D2973D2DFE801F0B0
:100DE00017727272727272722A3D72727250D2F2FD
:100DF00072727272F0EFACBF72EEEDECEBEAE97278
:100E00007272727272E8E7E6E5637386990042B126
:100E1000AA4B08331B6843F48073A84C0834236042
:100E200007E0A64B0C331B6843F48073A34C0C34CF
:100E30002360B5E142B1A44B08331B6843F00103C2
:100E4000A14C0834236007E09F4B0C331B6843F030
:100E500001039D4C0C342360A2E142B19A4B08334C
:100E60001B6843F00203984C0834236007E0964B5C
:100E70000C331B6843F00203934C0C3423608FE166
:100E800042B1914B08331B6843F020038E4C083469
:100E9000236007E08C4B0C331B6843F020038A4C23
:100EA0000C3423607CE132B1884B1B6943F00403AE
:100EB000864C236105E0854B5B6943F00403834C5A
:100EC00063616DE16BE142B17E4B08331B6843F413
:100ED00080737C4C0834236007E07A4B0C331B682A
:100EE00043F48073774C0C34236059E142B1764B64
:100EF00008331B6843F04003734C0834236007E059
:100F0000714B0C331B6843F040036F4C0C3423606F
:100F100046E142B16C4B08331B6843F080036A4CD6
:100F20000834236007E0684B0C331B6843F08003F0
:100F3000654C0C34236033E142B1634B08331B68CA
:100F400043F40053604C0834236007E05E4B0C33DD
:100F50001B6843F400535C4C0C34236020E142B125
:100F6000594B08331B6843F48043574C08342360C3
:100F700007E0554B0C331B6843F48043524C0C3450
:100F800023600DE142B14D4B08331B6843F400432D
:100F90004A4C0834236007E0484B0C331B6843F489
:100FA0000043464C0C342360FAE0E9E0D7E0C5E0AA
:100FB000B3E0A3E093E077E063E04FE03BE027E0BD
:100FC00013E0FFE742B1404B08331B6843F4004392
:100FD0003D4C0834236007E03B4B0C331B6843F463
:100FE0000043394C0C342360DAE042B1364B0C3309
:100FF0001B6843F48073344C0C34236007E0324B9D
:1010000008331B6843F480732F4C08342360C7E017
:1010100042B12A4B08331B6843F40073274C083451
:10102000236007E0254B0C331B6843F40073234C0B
:101030000C342360B4E042B9214B08331B6843F4FD
:1010400080631F4C0834236007E01D4B0C331B6882
:1010500043F480631A4C0C342360A1E042B9184B6E
:1010600008331B6843F40063154C0834236007E021
:10107000134B0C331B6843F40063114C0C34236096
:101080008EE042B90E4B08331B6843F480430C4C8E
:101090000834236007E00A4B0C331B6843F4804399
:1010A000074C0C3423607BE092B9054B08331B6876
:1010B00043F40043024C083423600FE00808014069
:1010C000080C0140081401400818014000100140BC
:1010D000344B1B6843F40043324C236060E032B968
:1010E000314B1B6943F480732F4C236105E02E4B79
:1010F0005B6943F480732C4C636151E032B92A4B35
:101100001B6943F40073284C236105E0264B5B699F
:1011100043F40073244C636142E032B1234B1B68FB
:1011200043F48063214C236007E0204B1B1D1B68A8
:1011300043F480631D4C241D236031E032B11B4B0E
:101140001B6843F40063194C236007E0174B1B1D19
:101150001B6843F40063154C241D236020E032B16A
:10116000124B1B6843F48053104C236007E00F4B75
:101170001B1D1B6843F480530C4C241D23600FE09F
:1011800032B1094B1B6943F40043074C236105E06E
:10119000054B5B6943F40043034C636100E000BF0F
:1011A00000BF10BD140C0140001001401018014098
:1011B00020B1012816D002283CD127E059B1FB4AC2
:1011C000128842F08002F94B1A801A46128842F0C7
:1011D00008021A8005E0F54A128822F08002F34BDB
:1011E0001A8028E059B1F24A128842F08002F04B8E
:1011F0001A801A46128842F008021A8005E0EC4A6A
:10120000128822F08002EA4B1A8014E059B1E94AB0
:10121000128842F08002E74B1A801A46128842F088
:1012200008021A8005E0E34A128822F08002E14BAE
:101230001A8000E000BF00BF704720B1012816D01F
:1012400002283CD127E059B1D84A128842F0200246
:10125000D64B1A801A46128842F004021A8005E022
:10126000D24A128822F02002D04B1A8028E059B1CD
:10127000CF4A128842F02002CD4B1A801A461288BB
:1012800042F004021A8005E0C94A128822F02002C6
:10129000C74B1A8014E059B1C64A128842F02002A6
:1012A000C44B1A801A46128842F004021A8005E0E4
:1012B000C04A128822F02002BE4B1A8000E000BF14
:1012C00000BF70472DE9F04180460E4617460024C6
:1012D000002500214046FFF7B0FFB8F1000F06D00F
:1012E000B8F1010F1BD0B8F1020F46D12EE0B24881
:1012F00006F08EF90546FF2D05D9AF4806F0A2F994
:101300000020BDE8F081002404E0AB4806F0A0F91D
:101310003055641CAC4201D2BC42F6DB2EE0A7483B
:1013200006F076F90546FF2D04D9A44806F08AF99F
:101330000020E6E7002404E0A04806F089F93055D3
:10134000641CAC4201D2BC42F6DB17E09C4806F0BC
:101350005FF90546FF2D04D9994806F073F900207E
:10136000CFE7002404E0964806F072F93055641C7B
:10137000AC4201D2BC42F6DB00E000BF00BF01215D
:101380004046FFF75AFF2046BBE770B505460E46BC
:10139000022D01D9002070BD05EB450000EBC50012
:1013A000884901EB80041020A060E66000202061E5
:1013B000802060610020A061E06120624FF4405015
:1013C00060620020A06225B1012D23D0022D68D1DA
:1013D00044E000217C4802F05BFA7C48606073487E
:1013E000083820602146784802F0CCFA4FF40050CB
:1013F00002F044FA012280216C480C3802F051FDC1
:101400000121714802F044FA012168480C3802F0C9
:101410003EFD46E000216C483C3002F039FA6C4851
:101420006060634808382060214667483C3002F01D
:10143000A9FA4FF0007002F021FA012280215C48E5
:101440000C3802F02EFD01215F483C3002F020FAFA
:10145000012157480C3802F01AFD22E000215A48B9
:10146000283802F015FA5B4860605248083820605E
:1014700021465548283802F085FA202002F0FEF96E
:10148000012280214B480C3802F00BFD01214E480F
:10149000283802F0FDF9012146480C3802F0F7FC2B
:1014A00000BF00BF012076E72DE9F04106460D465A
:1014B000144626B1012E1CD0022E50D134E000205B
:1014C000454908604549086000BF09E02A5C424977
:1014D0000B680968491C404F39603C49CA54401C9C
:1014E000A042F3DB00203C4908602146FFF74DFF96
:1014F00036E000203A4908603A49086000BF09E038
:101500002A5C37490B680968491C354F39603049F6
:10151000CA54401CA042F3DB002031490860214638
:101520000120FFF732FF1BE000202F4908602F4900
:10153000086000BF09E02A5C2B490B680968491C58
:10154000294F39602349CA54401CA042F3DB0020D4
:101550002549086021460220FFF717FF00E000BF81
:1015600000BF2046BDE8F0810146002021B10129DD
:1015700005D0022909D105E0174A106807E0184A8A
:10158000106804E0184A106801E0002000BF00BFA6
:1015900070472DE9F04106460C4615461448066092
:1015A00046B3012E31D0022E43D138E00C38014031
:1015B0000C4400400C48004054000020640200200D
:1015C00074040020840600204400024064010020CE
:1015D0007403002084050020000000200400002087
:1015E000080000200C000020100000201400002043
:1015F00018000020FFE7002704E0E119AA4806F0E0
:101600003CF87F1CAF42F8DB14E0002704E0E1194E
:10161000A64806F032F87F1CAF42F8DB0AE000274C
:1016200004E0E119A24806F028F87F1CAF42F8DB7D
:1016300000E000BF00BFBDE8F08130B5034623B134
:10164000012B18D0022B42D12BE09A4800689A4C0B
:101650002468A04205D10020964C2060964C206062
:1016600030BD944804680068401C924D286093483F
:10167000005D08702CE092480068924C2468A042FB
:1016800005D100208E4C20608E4C2060E8E78C480D
:1016900004680068401C8A4D28608B48005D087013
:1016A00016E08A4800688A4C2468A04205D10020D0
:1016B000864C2060864C2060D2E78448046800682D
:1016C000401C824D28608348005D087000E000BF28
:1016D00000BF0120C4E738B57F48048814F0200F0C
:1016E0000ED0001D0088C0B2009001226946002083
:1016F000FFF74FFF7848008820F0200076490880E7
:1017000014F0800F1CD07448008820F080007249CB
:101710000880012269460020FFF78FFF0546002D53
:1017200005DD9DF800006C49091D088007E06A4846
:101730000C30008820F0800067490C31088000BF21
:1017400014F0080F05D114F0040F02D114F0020FA9
:1017500005D061480488001D0088C0B2009038BDE3
:1017600038B55E48048814F0200F0ED0001D0088A4
:10177000C0B20090012269461046FFF70AFF5748A1
:10178000008820F020005549088014F0800F1CD0FC
:101790005248008820F080005049088001226946A4
:1017A0001046FFF74AFF0546002D05DD9DF80000B5
:1017B0004A49091D088007E048480C30008820F09D
:1017C000800046490C31088000BF14F0080F05D195
:1017D00014F0040F02D114F0020F05D03F48048822
:1017E000001D0088C0B2009038BD38B53C48048860
:1017F00014F0200F0ED0001D0088C0B2009001220E
:1018000069460220FFF7C5FE3548008820F0200019
:101810003349088014F0800F1CD03148008820F034
:1018200080002F490880012269460220FFF705FF4A
:101830000546002D05DD9DF800002949091D088099
:1018400007E027480C30008820F0800024490C3144
:10185000088000BF14F0080F05D114F0040F02D166
:1018600014F0020F05D01E480488001D0088C0B285
:10187000009038BD10B50C4805F016FF0446194A13
:10188000194905F001FE094805F00EFF0446154A06
:10189000154905F0F9FD064805F006FF0446114A12
:1018A000114905F0F1FD10BD540000206402002034
:1018B00074040020040000200000002064010020C7
:1018C0000C000020080000207403002014000020F9
:1018D0001000002084050020003801400044004032
:1018E0000048004000000008CD7600087FB506469D
:1018F0000C46214603A8FFF7B7F90090214603A83C
:10190000FFF7B2F90190214603A8FFF7ADF9029065
:101910000025002013E0411C0EE05DF820205DF85A
:1019200021309A4207DD5DF820505DF821204DF806
:1019300020204DF82150491C0329EEDB401C0228D1
:10194000E9DB019804B070BD2DE9F04107460E4671
:1019500014461D4616F0FF0002D001281ED10EE0ED
:101960005D4800880006800C20600E213846FFF795
:10197000BDFF40F2393148434012286012E0574819
:1019800000880006800C20600F213846FFF7AEFF6C
:1019900040F2393148434012286003E000202060C3
:1019A000286000BF00BFBDE8F08138B504460022C2
:1019B0000F216846FFF70FFA0020E06038BD38B508
:1019C000044601220F216846FFF705FAE068142853
:1019D00002DAE068401CE06038BDF8B505460F4605
:1019E0001646E868142801DA002000E03046044674
:1019F000F8B206286ED2DFE800F0031F3F50575DB3
:101A0000002C0BDBA002364990FBF1F04906088759
:101A1000002208216846FFF7DEF90CE060428002F0
:101A20002F4990FBF1F049060887012208216846FA
:101A3000FFF7D1F900BF4DE0002C0DDBA0022849D3
:101A400090FBF1F0C0F580604906888600220921EC
:101A50006846FFF7C0F90EE060428002204990FB23
:101A6000F1F0C0F5806049068886012209216846A8
:101A7000FFF7B1F900BF2DE0002C06DBA0021849EA
:101A800090FBF1F04906888706E060428002144925
:101A900090FBF1F0490688871CE0A002104990FBFA
:101AA000F1F01049088015E0B0020D4990FBF1F00B
:101AB00068600FE0B0020A4990FBF1F0A86000BF37
:101AC000D5E90110884201DAA86800E06868064993
:101AD000088000BF00BFF8BD240400402408004077
:101AE000A086010040000040342C0140002108463F
:101AF00009E0CF4B03EBC001CE4B03EBC0020A6001
:101B000000BF411C08460428F3DB704730B10128B0
:101B10000BD0022810D003281CD114E0C649096854
:101B200041F48051C44A116015E0C349096841F489
:101B30000041C14A11600EE0BF49096841F480517B
:101B4000BD4A116007E0BC49096841F48041BA4AC6
:101B5000116000E000BF00BF704730B101280BD01A
:101B6000022810D003281CD114E0B349096821F4DD
:101B70008051B14A116015E0AF49096821F4004174
:101B8000AD4A11600EE0AC49096821F48051AA4ABF
:101B9000116007E0A849096821F48041A64A116054
:101BA00000E000BF00BF7047012804D0022811D018
:101BB00003282DD11DE0A0490831096841F40041F6
:101BC0009D4A08321160111D096821F40041121D5F
:101BD00011601EE098490831096841F48051964A25
:101BE00008321160111D096821F48051121D116025
:101BF0000FE091490831096841F480418E4A08326A
:101C00001160111D096821F48041121D116000E06E
:101C100000BF00BF7047012804D0022811D003285C
:101C20002DD11DE084490831096821F40041824A20
:101C300008321160111D096841F40041121D116044
:101C40001EE07D490831096821F480517A4A083242
:101C50001160111D096841F48051121D11600FE0DF
:101C600075490831096821F48041734A08321160CE
:101C7000111D096841F48041121D116000E000BF90
:101C800000BF704710B56C481430006810F4805FD6
:101C900017D06948006820F480506749086066489A
:101CA0001430006840F48050634914310860604883
:101CB000103004F04DFD6048006840F480505E49EB
:101CC00008605D481430006810F4004F17D05A487F
:101CD000006820F4004058490860574814300068F4
:101CE00040F400405449143108605148083004F071
:101CF0002FFD5148006840F400404F4908604E48AD
:101D00001430006810F4806F13D04B48006820F442
:101D100080604949086048481430006840F4806099
:101D20004549143108604448006840F480604249E5
:101D3000086041481430006810F4804F17D03E48C6
:101D4000006820F480403C4908603B48143000683B
:101D500040F480403849143108603548183004F0A8
:101D6000F7FC3548006840F480403349086010BDF6
:101D700031481430006810F0100F13D02E4800685E
:101D800020F010002C4908602B481430006840F007
:101D900010002949143108602748006840F01000FD
:101DA00025490860704724481430006810F0400F3F
:101DB00013D02148006820F040001F4908601E48E9
:101DC0001430006840F040001B49143108601A4884
:101DD000006840F0400018490860704710B504469C
:101DE000042308221549124801F020FB10BD10B54C
:101DF00004460423082212490E4801F017FB10BDC7
:101E000010B5042308220F490A4805F055FB0E4A75
:101E10000E49002005F038FB042308220C49044831
:101E200005F04AFB084A0B49002005F02DFB10BDC8
:101E300028070020080700200004014077670008F9
:101E4000B97D0008A97D000800000008EF1D00080A
:101E50006F670008DD1D00080021084609E0604B9F
:101E600003EBC0015F4B03EBC0020A6000BF411CE3
:101E700008460228F3DB704710B500BF5848406899
:101E800028B1574A50685268126891688847544888
:101E9000006828B1524A1068126812689168884731
:101EA00000BF10BD10B5044601214FF0C05001F035
:101EB000B9FE012001F0A4FE01F0C6FC012001F0F2
:101EC00031FF00BF412001F015FF0028FAD04FF488
:101ED000807001F03DFF012001F034FF01F080FF30
:101EE00001F074FF01F072FF47F6FF7001F05EFF32
:101EF00001F06CFF4FF46162216851436268C2EBEC
:101F0000021201EB8201A268881801F041FF01F082
:101F10005DFF4AF2A551042001F0A8FC10BD2DE997
:101F2000F04104460D461646042001F097FCA0F54A
:101F30002541A53904D0FF2020702870307023E09F
:101F400001F01EFF07464FF46160B7FBF0F0182167
:101F5000B0FBF1F201FB120020704FF46160B7FB9F
:101F6000F0F100FB11703C21B0FBF1F028704FF450
:101F70006160B7FBF0F100FB11703C21B0FBF1F2A6
:101F800001FB1200307000BFBDE8F08110B50446BF
:101F9000022308221449124801F048FA10BD10B576
:101FA00004460223082211490E4801F03FFA10BDF1
:101FB00010B5022308220E490A4805F07DFA0D4AA1
:101FC0000D49002005F060FA022308220B4904485D
:101FD00005F072FA074A0A49002005F055FA10BDCB
:101FE000580700204807002077670008B97D0008DF
:101FF000A97D0008000000089F1F00086F67000807
:102000008D1F0008024800210160416000BF704739
:102010002C0000207CB50446A069FFF7A5FA00B1AA
:102020007CBD04F1B40005F0A0FAAA20019001A93A
:1020300004F1B40005F0B4FA5520019001A904F1AF
:10204000B40005F0ADFA0020019001A904F1B4003C
:1020500005F0A6FA04F1B401D4F8F00105F037FB5D
:1020600004F1B40005F065FAC01EC5B2022104F106
:10207000B40005F0BDFA05700020009002250AE0CA
:10208000294604F1B40005F0B3FA00789DF8001079
:10209000484000906D1C04F1B40005F04AFAA842D3
:1020A000EEDC694604F1B40005F07AFA0020C4F8C9
:1020B000F40104F1B40005F03CFA054604F1B40063
:1020C00005F04EFA06462A4631460020FFF7ECF9A5
:1020D00004F1B40005F02DFA054604F1B40005F052
:1020E0003FFA06462A4631460220FFF7DDF900BFD7
:1020F00096E770B50446002604F1240005F03BFA8B
:1021000082E004F1240005F036FA05460D2D75D263
:10211000DFE805F074071019222B343D464F586153
:102120006A0004F1240104F5A67004F02FFB00B14D
:10213000012668E004F1240104F5AC7003F014F901
:1021400000B101265FE004F1240104F5B27004F04F
:102150006AFB00B1012656E004F1240104F5B870D1
:1021600003F094F900B101264DE004F1240104F5D7
:10217000BE7002F05EFA00B1012644E004F12401D1
:1021800004F5C47004F0BBFF00B101263BE004F18C
:10219000240104F5D07005F00AF800B1012632E000
:1021A00004F1240104F5D67001F0E3FE00B101262C
:1021B00029E004F1240104F5DC7002F087FF00B18E
:1021C000012620E004F1240104F5E27002F053FF3F
:1021D00000B1012617E004F1240104F5EC7003F0CE
:1021E000FAF800B101260EE004F1240104F5F270C2
:1021F00003F01CF900B1012605E0FFE704F124001B
:1022000005F0B3F900BF00BF04F1240005F091F917
:1022100000283FF776AF304670BD73B50446002501
:1022200094F8200030B101280CD0022812D00328E5
:102230003CD129E09DF80400AA2802D1012084F8AD
:10224000200037E09DF80400552802D1022084F8D0
:1022500020002FE09DF80400782811DA9DF8040092
:10226000801CC4F8480104F1240005F07EF901A99E
:1022700004F1240005F094F9032084F8200002E022
:10228000002084F8200015E001A904F1240005F0E5
:1022900087F904F1240005F04CF9D4F8481188427C
:1022A00003D10125002084F8200003E0002084F8F9
:1022B000200000BF00BF28467CBD2DE9F041A0B042
:1022C000044688464FF0FF37E069B0F1FF3F05D084
:1022D00058B101280AD0022810D108E0304800681F
:1022E000E0612F480068A06109E000BF00BFD4E9A9
:1022F0000610884201D0E069A06100E000BF00BF85
:1023000080226946A069FEF7DDFF054600260BE046
:102310001DF806102046FFF780FF20B12046FFF78A
:10232000E8FE00B10027761CAE42F1DB00BFD4F816
:102330004401401CC4F84401042804DB0020C4F814
:102340004401012000E0002010B12046FFF762FEAA
:10235000384620B0BDE8F0814FF0FF31C1617047D1
:1023600070B5044604F1B40005F0E3F8D4F8F411B4
:10237000451A202D00DD2025002D10DD04F1B400CC
:1023800005F0EEF8D4F8F41146182A463146A06953
:10239000FFF78AF8D4F8F4012844C4F8F40170BDBA
:1023A00018000020ADF5A25D00200DF58051C1F8A8
:1023B000300400210DF58050C0F82C14C0F828140A
:1023C000C0F82414C0F8201400F581601490042291
:1023D0001498026000221498426014988260149845
:1023E000C2601498026101221498027500BF7D201A
:1023F0000DF58051C1F83C04D1F83C04FE49086059
:1024000000BFFFF773FBFFF727FDFEF7A1FA41F2CC
:10241000FC30684401F00AFE41F2503068441490E8
:10242000149813900022139802812022139880F8A8
:1024300021200122139880F82220139880F823206D
:102440002222139880F824201722139880F8252040
:102450004022139880F826206122139880F82720C4
:1024600000221398A0F8862013981490521E1498F6
:10247000C0F8A82000BF41F250316944A1F5FC70BA
:1024800004F08EFA41F23C106844139000F5057098
:102490001490DDE91310086000221398027113985C
:1024A00082601398C2601398028213984282139834
:1024B000426100BF41F208106844139000F51270A9
:1024C0001490DDE913104860139802721398C260EB
:1024D00013980261139882821398C28213988261C2
:1024E0001398C261139880F8212000BF0B200DF5CE
:1024F00080510023C14AC1F8380401F58761A1F574
:10250000587003F001F80B200DF580510023BB4AF1
:10251000C1F8340401F23441A1F5637002F0F4FF14
:10252000B74B41F2A8026A4402F130010DF67C700B
:1025300002F042FA0DF569601390B2481490DDE99B
:102540001301016000211398416013988160139872
:10255000C16013980161139841611398C0F8E410A9
:102560001398C0F8E8100020129009E00022139898
:1025700000F11801129841F820201298401C129086
:1025800012983228F2DB00211398C0F8E01000BF47
:102590000DF64C4004F058FD0DF6845214924FF4A1
:1025A0008073149A0C320021149805F04FFB00BF81
:1025B0000DF5986003F0CAFD0DF55960149014985C
:1025C000CDF8180700BF0DF5986003F0FBF90DF288
:1025D0006C4014900022149802800F22149882807C
:1025E00004221498826000221498C2606422149815
:1025F00002612922149842612A22149882612B22B6
:102600001498C2612C221498026200BFE2A802F062
:10261000E5FB0321A9A803F0DFFF012170A803F067
:10262000DBFF022137A803F0D7FF28A914914FF050
:10263000FF320021149802F033FA734914900160BC
:102640000021149801751498417514988175012220
:1026500005211498183005F020FAA0F11801149102
:10266000012205211498243005F017FAA0F1240165
:102670001491012205211498303005F00EFAA0F1D2
:102680003001149100BF1EA914914FF0FF320021B8
:10269000149802F005FA5D491490016040F2DC5193
:1026A0001498416100211498017614981C301390FD
:1026B0000022139802601398A0F11C0114910021CC
:1026C0001498416200BF1DA814901498026000BFC6
:1026D00096224FF488714E4802F007FA3222002108
:1026E0004B4802F002FA9622E521494802F0FDF932
:1026F00032220021464802F0F8F99622AB214448E4
:1027000002F0F3F905220021414802F0D4F99622A3
:10271000AB213F4802F0E9F99622E5213C4802F05E
:10272000E4F9C8224FF48871394802F0DEF9032237
:102730000521374802F0BFF932228821344802F0DF
:10274000D4F932220021324802F0CFF93222882116
:102750002F4802F0CAF9032208212D4802F0ABF9F4
:10276000192288212A4802F0C0F9022200212848B3
:1027700002F0BBF902220B21254802F09CF96422E9
:102780009821234802F0B1F96422AB21204802F0DD
:10279000ACF96422CC211E4802F0A7F9642240F271
:1027A00001111B4802F0A1F964224FF48871184806
:1027B00002F09BF94FF4FA620021154802F095F9F6
:1027C00064229821124802F090F96422AB2110484B
:1027D00002F08BF96422CC210D4802F086F96422C4
:1027E00040F201110A4802F080F964224FF4887126
:1027F000074802F07AF90DE028000020D07E0100A1
:1028000068070020A3B0AE3DB491000844930008CF
:10281000A40700204FF4FA620021FE4802F065F997
:1028200064229821FB4802F060F96422AB21F94848
:1028300002F05BF96422CC21F64802F056F96422DA
:1028400040F20111F34802F050F964224FF488710C
:10285000F04802F04AF911220D21EE4802F02BF95E
:1028600064228821EB4802F040F964229821E9486B
:1028700002F03BF96422AB21E64802F036F964220B
:10288000B521E44802F031F96422CC21E14802F09C
:102890002CF96422E521DF4802F027F9642240F296
:1028A0000111DC4802F021F964224FF48871D94803
:1028B00002F01BF908221E21D64802F0FCF864221F
:1028C0004FF48871D34802F010F9642240F20111EC
:1028D000D04802F00AF96422E521CE4802F005F959
:1028E0006422CC21CB4802F000F96422B521C9480A
:1028F00002F0FBF86422AB21C64802F0F6F864222D
:102900009821C44802F0F1F864228821C14802F0FD
:10291000ECF808222621BF4802F0CDF896224FF4A9
:102920008871BC4802F0E1F832220021B94802F077
:10293000DCF89622AB21B74802F0D7F803222E210B
:10294000B44802F0B8F89622AB21B24802F0CDF8B4
:1029500032220021AF4802F0C8F896224FF4887165
:10296000AC4802F0C2F803223121AA4802F0A3F8D1
:102970000021A8482C3801F019FD18A81490002156
:1029800014980170012114984170149881700021ED
:102990001498416064211498816000211498C160EA
:1029A0001498016100BF17A81490002214980260C7
:1029B00000BF16911591984801680DF58050C0F838
:1029C000EC139548001D01680DF58050C0F8F01318
:1029D0009148083001680DF58050C0F8F413F5E314
:1029E00000BF0DF5805090F8FC0300B9F7E700BF79
:1029F00000210DF5805080F8FC1300BFB0F858039B
:102A0000401D81B20DF58050A0F8581300F55471A7
:102A1000E2A802F00EF90021A9A803F0BBFC41F2E4
:102A20006E316944A9A803F0BDFD002170A803F030
:102A3000B1FC41F26F31694470A803F0B3FD00218D
:102A400037A803F0A7FC41F27031694437A803F0BE
:102A5000A9FD0DF26C4003F046FE002128A802F00B
:102A600080F89DF8B50008B1022100E000210DF5C5
:102A7000805080F8661390F866039DF8B61009B18F
:102A8000012100E0002108430DF5805181F8660323
:102A9000084690F866039DF8B41009B1042100E0DF
:102AA000002108430DF5805181F86603159810F058
:102AB000010F05D1084690F8660310F0010F15D1FB
:102AC000159810F0020F06D10DF5805090F86603AE
:102AD00010F0020F0AD1159810F0040F0BD10DF56C
:102AE000805090F8660310F0040F04D00321494889
:102AF0002C3801F05BFC0DF5805090F866131591B1
:102B000000211EA803F0C0FE1EA803F0BAFE642137
:102B100090FBF1F0C1B20DF5805080F8681300BF52
:102B20009DF8911080F8671300BF9DF8900008B1E0
:102B3000102000E000200DF5805191F86713084344
:102B40000DF5805181F8670301F27732511E481E5E
:102B5000FFF7E5F900212F482C3801F0E9FC2D485A
:102B60002C3801F092FF48B10DF67C7001F08DFF1A
:102B700020B100210DF67C7001F089FD00BF0DF53C
:102B80008050D0F80814491CC0F8081490F81C04B0
:102B9000814206DB0DF58050D0F81014C0F81814EF
:102BA0001AE00DF5805090F81C14D0F80804091AAA
:102BB0000DF58050D0F80C0441430DF5805090F88D
:102BC0001C0491FBF0F10DF58050D0F81004411A6F
:102BD0000DF58050C0F818140DF58050D0F8181479
:102BE000C0F82414D0F81414C0F8201400BFD0F892
:102BF00024040DF580511090D1F820041190109804
:102C0000CDF8740F1198CDF8780F00BFDDF8780F6C
:102C1000119003E0A4070020E8F7FF1FDDF8740F10
:102C2000109001460DF67C70119A01F0E5FD1EA88A
:102C300003F027FE0146119041F2D800684402F0EB
:102C40005BFC1EA803F01DFE0146119041F2A80096
:102C5000684402F051FC1EA803F013FE0DF58051EC
:102C60001190D1F82404642801DC012000E0002048
:102C70000346109041F25031694418A8119A02F0AD
:102C8000F9F800BF9DF86000032801D1012000E0A1
:102C9000002028B1002211460DF67C7001F0ACFD39
:102CA00000BF9DF8620008B1002003E001208DF80C
:102CB000620000BF18B10221FE4801F077FB41F22B
:102CC0003C10684403F0A4FA00BF0DF5805090F862
:102CD000400158B10DF58050B0F94E111191B0F985
:102CE0004C1110918438119A01F036FD41F2081010
:102CF000684402F075FC00BF0DF5805090F810019B
:102D000058B10DF58050B0F91E111191B0F91C1198
:102D100010918438119A01F01FFD00210DF67C708E
:102D200001F00EFE41F2503169440DF67C7001F065
:102D3000B9FC00BF0DF58050D0F80404C1B2119168
:102D400011990DF5805080F8691300210DF64C4063
:102D500004F020F8DDF8740FB0B9DDF8780F98B9F9
:102D60000DF58050D0F8500370B90DF58050D0F8B3
:102D7000540348B90DF5805090F85C0320B90DF567
:102D8000805090F85B0318B101208DF8C10402E077
:102D900000208DF8C1040DF5805090F8880308B923
:102DA000012000E0002013900DF5805090F888037A
:102DB000C0F118010DF58050119190F8881300F2C0
:102DC0008A3000EB410110910A4614A90DF64C40DF
:102DD000119B04F000F801460DF5805090F888032F
:102DE0000844C1B20DF5805080F8881300BFBDF8CB
:102DF0007A1D12919DF8801D119100218DF8801D82
:102E0000119850B3002000900190034602460290B2
:102E1000BDF8480001B20DF5986002F0B5FFDDF88D
:102E2000C4141091A449109805F058FE119005F0B3
:102E30004BFF00B20DF58051A1F88003DDF8CC14F2
:102E400010919D49109805F049FE119005F03CFF46
:102E500000B20DF58051A1F882039DF8760D30B9CE
:102E6000BDF8781D0DF59860119102F04DFD9DF8AB
:102E7000611C0A4611910D2141F25030684401F065
:102E8000A0F80122042141F25030684401F099F881
:102E9000139828B19DF850100DF5805080F88713D5
:102EA000002141F258106844FFF707FA00287DD14D
:102EB000169818B906217F4801F078FA012016907B
:102EC00041F25810684490F8530180B1002141F25A
:102ED0005810684480F85311B0F956111191B0F9A7
:102EE0005411109100F52C70119A03F02CFA41F254
:102EF0005810684490F86B01E8B1002141F2581075
:102F0000684480F86B1101210DF67C7001F0BFFB65
:102F10000DF67C7001F0B9FD68B141F258106844BB
:102F200090F86E111191B0F86C1100231091614866
:102F3000119A01F0BFF941F25810684490F85F010E
:102F400028B1002141F25810684480F85F1141F225
:102F50005810684490F8770178B141F258106844ED
:102F600090F8780101461190524801F01FFA0021B3
:102F700041F25810684480F8771141F258106844C3
:102F800090F8A70128B1002141F25810684480F858
:102F9000A71141F25810684490F88F0128B1002120
:102FA00041F25810684480F88F1100E065E141F269
:102FB0005810684490F8B30180B1002141F25810D4
:102FC000684480F8B311E2A91091B0F8B4011190EF
:102FD000DDE91010A1F8B40000BF00BF41F25810A5
:102FE000684490F8BF01E8B3002141F258106844EA
:102FF00080F8BF11B0F8C00110F0010F06D0012217
:103000000A2141F25030684400F0DBFF41F25810D1
:103010006844B0F8C00110F0020F06D001220B2165
:1030200041F25030684400F0CCFF41F2581068443F
:10303000B0F8C00110F0040F06D001220C2141F2BB
:103040005030684400F0BDFF41F258106844B0F8B9
:10305000C00110F0080F08D00122132141F25030B6
:10306000684400E001E000F0ACFF41F25810684411
:1030700090F8EB0100287DD0002141F258106844FF
:1030800080F8EB11B0F8EC01C04381B210911098B8
:10309000011110910DF26C400E9010980F900E9847
:1030A00081880F9801400E9801800E9803F01BFB59
:1030B00000BF03E0780700200000C84241F258102A
:1030C0006844B0F8EC0100F001010A460F91252197
:1030D00011A8FDF780FE41F258106844B0F8EC01E9
:1030E000C0F340010A460F91262111A8FDF773FE97
:1030F00041F258106844B0F8EC01C0F380010A4670
:103100000F91272111A8FDF766FE41F2581068447F
:10311000B0F8EC01C0F3C0010A460F91282111A8B4
:10312000FDF759FE41F258106844B0F8EC01C0F3C5
:1031300000210A460F911B2111A8FDF74CFE41F218
:1031400058106844B0F8EC01C0F340210A460F91D2
:103150001C2111A8FDF73FFE41F258106844B0F859
:10316000EC01C0F380210A460F911D2111A8FDF743
:1031700032FE00E00DE041F258106844B0F8EC0176
:10318000C0F3C0210A460F911E2111A8FDF723FEAE
:1031900000BF41F25810684490F8DF01B8B3002135
:1031A00041F25810684480F8DF110DF684500F90FA
:1031B00000F5757090F8E01100F26320CDE9101071
:1031C000109801010E9100200D900CE085E0DDE9E2
:1031D0000D0101440F980C30425C11990D980A546E
:1031E0000D98401C0D900D981028F0DB00BF41F2A7
:1031F0005810684490F8E0010DF5805181F8BA0349
:1032000001220F2141F25030684400F0DAFE41F211
:103210005810684490F8CB0120B3002141F25810B7
:10322000684480F8CB110DF64C40109000F20C5021
:1032300090F8CC01119000200F900FE0109800F151
:1032400026010F9811F830101198814203D1DDE961
:103250000F01886105E00F98401C0F900F982028FF
:10326000ECDB00BF00210DF58050C0F82814C0F839
:1032700030140121C0F82C142EE00DF58050D0F848
:103280002804411C0DF58050C0F82814B1F5167FB4
:1032900022DD00F5AC70FFF75FF800210DF58050DE
:1032A000C0F82814D0F82C04B0B10DF58050D0F837
:1032B000300450B90521134801F078F80022114676
:1032C00041F20840684403F03EF801210DF58050BA
:1032D000C0F830140021169100BFFFF781BBFFF743
:1032E00061F810B508480949016000BF084901604C
:1032F00000214160816000BF0146024801F056F99B
:1033000010BD0000780700206807002084930008A3
:10331000E8930008032A40F2308010F0030C00F01C
:10332000158011F8013BBCF1020F624498BF11F8FF
:1033300001CB00F8013B38BF11F8013BA2F10402B8
:1033400098BF00F801CB38BF00F8013B11F0030330
:1033500000F02580083AC0F0088051F8043B083A94
:1033600051F804CBA0E80810F5E7121D5CBF51F836
:10337000043B40F8043BAFF30080D20724BF11F8B0
:10338000013B11F801CB48BF11F8012B24BF00F815
:10339000013B00F801CB48BF00F8012B704710B586
:1033A000203AC0F00B80B1E81850203AA0E818503D
:1033B000B1E81850A0E81850BFF4F5AF5FEA027CFE
:1033C00024BFB1E81850A0E8185044BF18C918C06D
:1033D000BDE810405FEA827C24BF51F8043B40F80E
:1033E000043B08BF7047D20728BF31F8023B48BFF3
:1033F00011F8012B28BF20F8023B48BF00F8012B31
:10340000704770477047704770B5064C7C44064D56
:103410007D4403E0206820448047241DAC42F9D15C
:1034200070BD0000C0610000D06100002DE9F041D6
:1034300005460F46164633B106FB0354A41B20462F
:10344000B847A542FAD1A5F10800BDE8F081000017
:10345000004870474C0A002000487047500A00207E
:1034600070B5064600F060F8056806F10B0020F024
:103470000704B4429CBF002070BD2B466A68BAB1F5
:103480001068A04210D304F1080188423CBF506884
:10349000586007D35168101941601168091B016019
:1034A00058601460101D70BD13465268002AE7D1A1
:1034B0002146284600F040F80028DED170BD70B5E6
:1034C0000446051F00F030F80068002C14BF446863
:1034D00070BD002C18BFA54284BF20466468F8D890
:1034E00001680A18AA4218BF456003D12A68054638
:1034F0001144016028684119A1421CBF6C6070BD75
:103500006168696021680844286070BD10B500F0EA
:1035100063F8BDE8104000F059B800F075B800003D
:1035200000487047180A002000487047200A002011
:10353000704770477047704738B504460A46002008
:103540006946AFF30080002808BF38BD02460099E5
:10355000204600F092F8012038BD012000F0CEB8DE
:10356000F8B5AFF30080054600200C46102000BFE0
:103570000646A819A0420DD9324669460020AFF38D
:103580000080070008BF00F0B9F80098A04218BFFB
:103590000546C419FFF7C8FF05600746F01D20F077
:1035A00007004619284600F00AF8B44208BFF8BDE3
:1035B000A21B31463868BDE8F84000F05EB8002133
:1035C0000160C0E90110704710207047002801D049
:1035D00000F028B87047000010B5002102A000F0EC
:1035E00074F8012010BD00005349475056464E3A2A
:1035F0002050757265207669727475616C20666EF4
:103600002063616C6C65640010B500F081F801699D
:1036100019B100220261884701E08068804700F00C
:103620004CF8000001491820ABBEFEE7260002005E
:103630007546FFF775FFAE4605006946534620F014
:103640000700854618B020B5FDF796FABDE8204082
:103650004FF000064FF000074FF000084FF0000B4E
:1036600021F00701AC46ACE8C009ACE8C009ACE801
:10367000C009ACE8C0098D467047034640688C46D7
:10368000002818BF814284BF03464068F8D81868F4
:103690001844884207D00CF1030020F00700001DF9
:1036A000411A521A0146081D0A60FFF708BF044676
:1036B000AFF300802046FCF76BFD002000F05AF8C5
:1036C000FCF758FD0120FFF7ADFF70B505460C462D
:1036D0000A2000E06D1C00F041F835B12878002880
:1036E000F8D102E0641C00F039F814B12078002809
:1036F000F8D1BDE870400A2000F030B810B500F0F5
:1037000041F8BDE81040FFF761BF0000FFF7D5FFAB
:1037100070B500F02BF804680546A4B92020FFF727
:103720009FFE040011D00A4900202C60C4E900016A
:103730000849A1602073206160610749A06109B157
:1037400000F048F8E061204670BDFFF7B6FF0000CA
:10375000000000000D3700080000000008B56946B1
:103760008DF800000320ABBE08BD704700487047CD
:10377000540A002010B500F04FF8BDE81040FFF7E4
:1037800025BF000010B5012805D0002103A0FFF7D8
:103790009CFF012010BD09A1F8E7000053494752E2
:1037A000544D454D3A204F7574206F662068656111
:1037B00070206D656D6F7279000000003A204865D9
:1037C0006170206D656D6F727920636F72727570B4
:1037D0007465640010B58820FFF742FE002801D010
:1037E0000021017010BD802902D808B1017809B10B
:1037F00000207047012100F8081B704718B100F144
:103800000802914201D000207047002101707047EA
:10381000004870471C0A002010B5002102A0FFF7E5
:1038200054FF012010BD0000534947414252543A11
:103830002041626E6F726D616C207465726D696E8D
:103840006174696F6E00000010B5012000F002FA8B
:10385000BDE81040002000F0FDB900000249084416
:10386000B0F8000C7047000000600040024A1044AD
:10387000A0F8001C70470000006000400349C2002F
:1038800002D5C1F804047047486070470000024048
:103890000029016802D041F0010101E021F001019D
:1038A000016070470268002122F00102026001609D
:1038B00041608160C160304B2F49C21A8039984203
:1038C00045D018DC2D4BA0EB0302984237D00ADC20
:1038D0002B4A80182BD014282DD0282826D14868B0
:1038E00040F4706036E0142A2DD0282A1ED1486892
:1038F00040F470002EE0B2F56C7F32D00ADCB2F5F5
:10390000627F29D0B2F5677F10D1D1F8040440F06E
:10391000F00009E0B2F5717F28D0B2F5767F05D1CD
:10392000D1F8040440F47020C1F8040470474868DA
:1039300040F00F000EE0486840F0F0000AE04868F0
:1039400040F4704006E0486840F4702002E04868A7
:1039500040F0706048607047D1F8040440F00F00F8
:10396000E2E7D1F8040440F47060DDE7D1F8040424
:1039700040F47040D8E7000080000240440002405C
:10398000F8FFFDBF70B5026847F6F0739A430E6A00
:103990008B680C693343D1E905562C432343CC692A
:1039A00033432343D1E909542B4323431343036097
:1039B000CA6842600A6882604968C16070BD0000E0
:1039C00010B5837920490268A3B3D1F8003493433A
:1039D000C1F80034D1F8042403689A43C1F80424E0
:1039E000027904680A44D2F800342343C2F8003450
:1039F000D1F8082403689A43C1F80824D1F80C24AC
:103A000003689A43C1F80C244279102A0AD101F5BF
:103A100081610A6803681A430A604A6800680243C1
:103A20004A6010BD1144D1F8002400680243C1F877
:103A3000002410BDFFE700790844D0F8001491433A
:103A4000C0F80014F5E700000000014010B58A0737
:103A500021F003040649120F21440F238C68934080
:103A60009C438C608B68904003438B6010BD0000CA
:103A700000000140F0B5CB780022DC0603F00F0314
:103A800001D58C7823430C880F2714F0FF0F4FF0DB
:103A9000010C1CD0D0F800500E880CFA02F426401D
:103AA000A64210D1960007FA06FE25EA0E0E03FA8A
:103AB00006F5CE7845EA0E05282E00D14461CE7871
:103AC000482E00D10461521C082AE5D305600A88FB
:103AD000FF2A1ED94568002202F108060CFA06F4F6
:103AE0000E882640A64210D1960007FA06FE25EA67
:103AF0000E0E03FA06F5CE7845EA0E05282E00D103
:103B00004461CE78482E00D10461521C082AE3D3C8
:103B10004560F0BDF0B5104D6B68440D260184B2D0
:103B2000C0F30157B440C0F30342032F06D16868C5
:103B300023F0706220F07060686008E0C00203D576
:103B400003209040834300E0A34343F0706201B13F
:103B500022436A60F0BD00000000014041617047EF
:103B600001617047F0B50F23C27801784FF0E0246F
:103B7000012742B3D4F80C2D467802F4E062C2F576
:103B8000E062120AC2F10405D3408278AE401A40C6
:103B9000324315018A07D20E954021F003010B191B
:103BA000D3F80064FF2191408E430D402E43C3F8AB
:103BB00000640078410900F01F0004EB8101874098
:103BC000C1F80071F0BD01F01F008740480904EB07
:103BD0008000C0F88071F0BD0249084302490860C6
:103BE000704700000000FA050CED00E0024A1140A9
:103BF000014302480160704780FFFF1F08ED00E0AD
:103C0000014908627047000000000E42044A002982
:103C1000516901D0014300E08143516170470000C8
:103C200000100240044A0029D16901D0014300E09C
:103C30008143D1617047000000100240044A00290E
:103C4000916901D0014300E0814391617047000018
:103C500000100240014908607047000040044242E1
:103C600030B5204A5168204B11F00C0103D00429D3
:103C700001D0082901D0036011E05168022401F449
:103C8000701104EB91415468184D14F4803F02D038
:103C90005468A40301D5694300E0594301605168A9
:103CA000134B01F0F00109095C5C0168E1404160DF
:103CB000546804F4E064240A1C5D21FA04F484606E
:103CC000546804F46054E40A1B5DD940C160526832
:103CD000074B02F44042920B1B1F9A5CB1FBF2F1BE
:103CE000016130BD0010024000127A0000093D0061
:103CF000C8900008034600205909094A012901D14A
:103D0000116804E0022901D1116A00E0516A03F050
:103D10001F02012393400B4200D001207047000096
:103D200000100240064900220A7001F820290128EB
:103D300002D0042802D1052081F82000704700003D
:103D40002010024001490860704700003C044242D4
:103D500002490A6A02430A627047000000100240EA
:103D60000248018841F0100101807047042800409A
:103D70000248018821F010010180704704280040AA
:103D800002498888098840EA0140704718280040A5
:103D900000B50246FFF7E4FF0348110C0180828062
:103DA0005DF804EBFFF7E4BF1828004000B50246B9
:103DB000FFF7D6FF0448C2F30341018082805DF81B
:103DC00004EBFFF7D5BF000008280040034800BF00
:103DD000B0F804188906FBD57047000000200040A9
:103DE0000648B0F8041821F00801A0F8041800BF34
:103DF000B0F804180907FBD5704700000020004008
:103E00000029018802D041F0400101E021F0400189
:103E1000018070470246128900200A4200D001202A
:103E20007047808970478181704770B502880B8820
:103E30004E888C88CD8833432C430E8923434C898C
:103E400033438D892343CC892B4302F441522343CE
:103E500013430380828B22F400628283098A0182E9
:103E600070BD0029018802D041F0010102E040F25A
:103E7000FE32114001807047002930F8441F02D003
:103E800041F4004101E0C1F30E01018070470029B7
:103E9000818902D041F4005101E021F40051818177
:103EA0007047002A828A01D00A4300E08A43828256
:103EB000704710B5C1F3421301F01F040121A14066
:103EC000012B01D10C3004E0022B01D1103000E0B5
:103ED0001430002A026801D00A4300E08A430260DD
:103EE00010BD000030B50446008A85B00D464CF682
:103EF000FF710840E98801432182A0894EF6F31141
:103F00000840A9882A8911436A8902431143A18183
:103F1000A08A4FF6FF410840A9890143A182684663
:103F2000FFF79EFE1048844201D1039800E00298FA
:103F300019214843296864228900B0FBF1F0B0FBE5
:103F4000F2F109010B096FF018056B43322500EB04
:103F5000830005EB0010B0FBF2F000F00F00084307
:103F6000208105B030BD000000380140014601202D
:103F700070477CB504460D462A46A11D01A801F0F4
:103F80004DF8A0796179884201D000207CBD284697
:103F900003F0CFFA6179884201DA0020F6E72A4679
:103FA00004F10801684601F053F820688168204652
:103FB000884710B10120E07101E00020E071E07954
:103FC000E4E710B5012404FA01F32AB1D0F8A840BF
:103FD0001C43C0F8A84004E0D0F8A8409C43C0F8B7
:103FE000A84010BD00BF0E490968491C0C4A116069
:103FF0000C4909680C4A126811440A4A116000BF52
:1040000000BF4168491C4160282903DB0021416051
:10401000012100E0002109B1012101707047000079
:104020001C00002024000020280000207CB504464D
:1040300000202070201D002140F8041900BF044614
:1040400025460F4903C9CDE900010E48406840B13B
:104050000C48406828B10B4A506852681268516891
:104060008847102003F0FCF906462946DDE90023C5
:1040700003F052FE06460348466000BF20467CBD62
:10408000BC9000084807002010B5044600202349D2
:1040900008802348806940F400602149886100203D
:1040A0001E4934390880091D088001201B490C393C
:1040B0000880B020091D0880002018492C3908808C
:1040C00016490880091D0880091D0880091D0880FF
:1040D000602012491C3908800020091D0880091D34
:1040E000088004200D49343908800020091D08800B
:1040F000081F008840F00100091F088001200749BF
:1041000020390880012105483438FFF7AAFE012133
:1041100002483438FFF7B0FE10BD0000342C0140D7
:104120000010024010B50446606A20B1012806D094
:1041300002280CD107E0204600F062F908E0204692
:1041400000F0F0F804E02046FFF79EFF00E000BF1B
:1041500000BF10BD10B50446606A20B1012806D02A
:1041600002280CD107E0204600F00CF808E02046B9
:1041700000F05AF804E0204600F08AF900E000BFA1
:1041800000BF10BD10B50446002025490880254811
:10419000806940F400602349886100202049343957
:1041A0000880091D088001201D490C390880B020B5
:1041B000091D088000201A492C39088018490880F8
:1041C0005820091D08800020091D0880091D08804D
:1041D0004FF4C04012491C3908800020091D088096
:1041E0001020091D088004200D4934390880002062
:1041F000091D0880081F008840F00100091F088081
:104200000120074920390880012105483438FFF78B
:1042100028FE012102483438FFF72EFE10BD0000B1
:10422000342C0140001002402049C96941F00201CC
:104230001E4AD1611E49098880F8201000211C4ABD
:10424000243A1180121D11800121194A121D11807A
:104250004D21121D11800021154A1C3A1180144A6B
:1042600010321180121D1180121D11802421121D87
:10427000118000210E4A0C3A11804FF4C041121DEA
:1042800011809114121D11800421094A243A1180D1
:104290000021121D1180111F098841F00101121F18
:1042A00011800121024A103A11807047001002402B
:1042B000240400402DE9F04104460D4616461F46F1
:1042C00084F82970206801692046884710B120468B
:1042D000FFF740FF208BA84217D04DB994F8280073
:1042E00078B9012084F828002046FFF71BFF08E07A
:1042F00094F8280028B1002084F828002046FFF711
:1043000029FF2583208B06490880E66120684168E3
:104310002046884702F06CFA6061BDE8F081000039
:10432000282C01401F49C96941F002011D4AD16191
:1043300000211D4A1180121D11801B4A2832118054
:10434000FF21121D11800321174A0832118000211C
:10435000154A34321180121D1180121D1180121D58
:10436000118040F20111104A183211800021121DF3
:104370001180121D118004210B4A11800021121D91
:104380001180111F098841F00101121F11800121C4
:10439000054A1432118090F82010034A243211800B
:1043A0007047000000100240000400407CB5044645
:1043B0000D46684602F018FA04F12C00294682687E
:1043C0008A4201D8002207E0C16000F50472C36888
:1043D00052F83320026001220AB900207CBD6946F0
:1043E00004F12C0000F096FB08B90020F6E7BDF8B8
:1043F000001001232046019AFFF75CFF0120EDE742
:1044000010B504462048806940F400601E49886168
:1044100000201E490880091D08801C492831088099
:1044200040F2FF70091D08800020184908310880FB
:10443000164934310880091D0880091D0880091DAE
:10444000088060201149183108800020091D08806B
:104450000120091D088004200C4908800020091D46
:104460000880081F008840F00100091F0880012013
:1044700006491431088001210448FFF7F2FC0121AC
:104480000248FFF7F9FC10BD00100240002C01406B
:1044900010B504460020244908802448806940F46F
:1044A00000602249886100201F4934390880091DB5
:1044B000088001201C490C390880B020091D0880A3
:1044C000002019492C3908805820174908800020FD
:1044D000091D0880091D0880091D088060201249F7
:1044E0001C3908800020091D08800120091D088052
:1044F00004200D49343908800020091D0880081F58
:10450000008840F00100091F088001200649203979
:104510000880012104483438FFF7A3FC0121024838
:104520003438FFF7A9FC10BD342C014000100240C4
:104530007CB504460D4620682946426920469047CE
:1045400010B14FF0FF307CBD02F052F96169411AA1
:10455000E06981421FD394F82900C0B1684602F097
:1045600043F9694604F12C0000F0D4FA38B1BDF8E3
:10457000001001232046019AFFF79CFE06E0002070
:1045800084F82900206881682046884703E0206875
:104590008168204688470020D5E710B504462046AC
:1045A000FFF7C0FD00202072208310BD70B50446C7
:1045B0000E464FF0FF320021204600F071FA04460B
:1045C0001748206004F1180002F00EF9A0F1180459
:1045D00002206062002084F8280084F8290004F199
:1045E0002C0528606860A860402308220D4905F169
:1045F000100002F061FFA0F110050C2308220A4907
:1046000005F5047002F058FFA0F5047500BFA5F190
:104610002C04C4F89C622046FFF7BFFF204670BD03
:104620002C910008E9670008714E0008014601203E
:10463000704738B504460D462A46A11D684600F06D
:10464000EDFCA0796179884201D0002038BD284670
:1046500002F06FFF6179884201DA0020F6E72A460E
:1046600004F10801684600F0D9FC2A4604F109016A
:10467000684600F0D3FC206881682046884710B166
:104680000120E07101E00020E071E079DEE770B523
:1046900004460D461DB1206881682046884784F88D
:1046A000285170BD70B505460C4600BFE96B084641
:1046B000C91700EB91618911216000BFA96B084601
:1046C000C91700EB9161C1F38F11E18100BF686CE4
:1046D0004FF47A7190FBF1F0A07400BFD5F8C410CC
:1046E0000846C91700EB91618911616000BFD5F8D8
:1046F000C0100846C91700EB9161C1F38F122282E6
:1047000000BFD5F8CC004FF47A7190FBF1F0E07463
:104710000020A07605F1140000F009FDA17E0843F9
:10472000A07605F19C0000F002FD08B1022000E037
:104730000020A17E0843A0760A21A86C90FBF1F02E
:1047400084F82800D020405990FBF1F0C1B2292014
:104750000155002070BD00002DE9FC4706460F46BC
:104760009046384603F09BFE214A224BCDE90001DA
:1047700003F0FCFE044603F063FE8146404603F06E
:104780008EFE04461A4A1B4B03F0F0FECDE90001F1
:1047900003F056FE824696F8280108B1BDE8FC8772
:1047A00006F1140000F071F958B106F19C0000F018
:1047B0006CF930B1B9F1000F03D1BAF1000F00D19B
:1047C000ECE7494606F1140002F013FA514606F1EF
:1047D0009C0002F00EFA06F1140000F05DF906F1FB
:1047E0009C0000F059F90120307200BFD6E70000AC
:1047F000C9AC410C32030E402DE9FE4F06468946F6
:104800009246002002905746484603F048FE4A4A26
:104810004A4BCDE9000103F0A9FE044603F010FE67
:10482000804696F8280108B1BDE8FE8F06F1140015
:1048300000F02BF958B106F19C0000F026F930B1D8
:10484000B9F1000F03D1BAF1000F00D1ECE757B96D
:10485000414606F1140002F0CCF9414606F19C00F5
:1048600002F0C7F942E0781C01D0012F0DD1784247
:1048700000FB08F106F1140002F0BBF907FB08F198
:1048800006F19C0002F0B5F930E0002F02DA7F4219
:1048900001200290A7F17B0507F17B04029890B1FB
:1048A00008FB04F090FBF4FB594606F1140002F0FB
:1048B000A0F908FB05F090FBF4FB594606F19C00BB
:1048C00002F097F911E008FB05F090FBF4FB594664
:1048D00006F1140002F08DF908FB04F090FBF4FBE4
:1048E000594606F19C0002F084F900BF18F15A0FF6
:1048F0000BDA57B9012106F1140000F00FFC012179
:1049000006F19C0000F00AFC09E0002106F1140009
:1049100000F004FC002106F19C0000F0FFFB06F112
:10492000140000F0B9F806F19C0000F0B5F8012081
:10493000307200BF78E70000C9AC410C32030E4072
:1049400070B504460D46294604F1140000F0F6FB4C
:10495000294604F19C0000F0F1FB00BF207F18B94C
:1049600000BF94F8A40098B1D4F824010268D1687B
:104970008847D4F8240102681169884778B904F19E
:10498000140000F083FC04F19C0000F07FFC06E0C2
:10499000D4F8240102689168884700202072002022
:1049A00070BD10B5044604F1140000F076FC04F16B
:1049B0009C0000F072FC10BDF0B585B004460E46B8
:1049C00017461D464FF0FF320021204600F068F8E0
:1049D0000446174820600520012100220E23CDE95E
:1049E0000132CDE90310134833462A4600210090D6
:1049F00004F1140000F066FCA0F11404052001216C
:104A00000E23CDE90131CDE903100A483B462A4681
:104A1000009004F19C0000F055FCA0F19C04C4F847
:104A20002451002084F82801204605B0F0BD000084
:104A30006091000818730100034B0360017142711B
:104A40000023C371704700008091000870B50446D0
:104A50000D46206801692046884748B1E068002873
:104A600001DA002000E0E06820614FF0FF3070BD07
:104A70002069401C2061E168884202DA6FF0010081
:104A8000F5E70020206100BFF1E70146087A08B988
:104A9000012070470020FCE70121017270470000EF
:104AA000034B0360416000230372C26002617047E0
:104AB00094910008704710B5034698680C2801DBF4
:104AC000002010BD8818402801DB0020F9E703F51D
:104AD00004709C6840F834109C6800EBC40042608D
:104AE0009868401C98600120EBE730B50346586891
:104AF000402801DB002030BD03F110005D6820F884
:104B000035105C6800EBC40042605868401C586077
:104B10000120F0E730B50246D068002801DA002015
:104B200030BD02F50474D56804EBC5001368D0E904
:104B300000452C449C4201DC012400E0002424B107
:104B40004FF0FF30D0600020EAE71368581C106077
:104B500002F1100000EBC30309CBC1E900030120FF
:104B6000DEE7F8B504460E4605216846FCF79AF8DC
:104B70000546294604F1300002F094FF2075042117
:104B80006846FCF78FF80546294604F1180002F044
:104B900089FF607503216846FCF784F805462946BD
:104BA00004F1240002F07EFFA0750020F8BD2DE97D
:104BB000F04107460D46164605EB850107F13C001E
:104BC00000EBC104983050F825100E30FCF74CF87B
:104BD00080462268501C2060201D40F822802068FA
:104BE000092801DB002020600021002008E0221DB0
:104BF00052F820208A4202DD221D52F82010401C6B
:104C00000928F4DB00BF06F1800020F8151030F809
:104C10001500B0F5167F04DA307B0121A940084366
:104C20003073BDE8F08130B5002502F11B046554F6
:104C300030BD7CB505460C460020A0720C216846AC
:104C4000FCF730F8A17A0843A0720B216846FCF704
:104C500029F808B1022000E00020A17A0843A072E0
:104C60000A216846FCF71EF808B1042000E0002085
:104C7000A17A0843A0720020E07202216846FCF786
:104C800011F8E17A0843E07201216846FCF70AF85E
:104C900008B1022000E00020E17A0843E072002021
:104CA00084F82E0000BF0123224600212846FFF78A
:104CB000BAFF0023224601212846FFF7B4FF012353
:104CC000224602212846FFF7AEFF0020207322462D
:104CD00000212846FFF76BFF224601212846FFF7F7
:104CE00066FF224602212846FFF761FF00BF05212B
:104CF00001A8FBF7B9FFA4F88A00062101A8FBF779
:104D0000B3FF81B28C200153072101A8FBF7ACFF50
:104D100081B28E200153092101A8FBF7A5FF81B2C2
:104D2000902001530C2101A8FBF79EFF81B2922035
:104D3000015300219420015396200153002024F8B0
:104D4000980F1F216846FBF7ADFF2188084324F820
:104D5000980920216846FBF7A5FF08B1022000E072
:104D60000020B4F898100843A4F898002121684660
:104D7000FBF798FF08B1042000E00020B4F8981079
:104D80000843A4F8980022216846FBF78BFF08B17E
:104D9000082000E00020B4F898100843A4F8980018
:104DA00023216846FBF77EFF08B1102000E00020B9
:104DB00034F8981F08432080208824F8980924217B
:104DC0006846FBF76FFF08B1402000E00020B4F810
:104DD00098100843A4F898007CBD000010B5044664
:104DE0004FF0FF3200212046FFF75AFE04461E48CE
:104DF00020600122022104F1140002F065FEA0F1FE
:104E000014040122022104F1200002F05DFEA0F151
:104E100020040122022104F12C0002F055FEA0F131
:104E20002C040A20A06303232822104904F13C002B
:104E300002F042FBA0F13C040020A4F8B40004F10D
:104E4000E00000BFA0F1E00404F1E10000BFA0F128
:104E5000E1040320C4F8D4000421D8200151022128
:104E6000DC200151204610BDD4910008717E00085D
:104E7000704700002DE9FC4104460D4617461E46CA
:104E80003846216909B920610AE05A222169514353
:104E900000EB800201EB4201642291FBF2F12161FF
:104EA00000BF6068401C6060A168884209DD6078CE
:104EB00090F0010001D0012000E00020607000208F
:104EC0006060207830B1012837D002286AD00328EA
:104ED00032D180E043F22C312069884202DA32205C
:104EE000A06001E06420A060E87D50B1E068401C53
:104EF000E060962805DD0120207007214648FFF775
:104F000055FA43F2BC41206988420ADD002219218A
:104F10006846FBF760FF01221A216846FBF75BFF3A
:104F20000AE0012219216846FBF755FF01221A21E8
:104F30006846FBF750FF00BF6AE0E87D58B9E068BB
:104F4000401EE06010F1960F05DA00202070082165
:104F50003148FFF72BFAE87D00F0060002280DD15A
:104F6000207001221A216846FBF735FF0022192123
:104F70006846FBF730FF0020A07049E0607828B158
:104F800001221A216846FBF726FF0AE000221921B8
:104F90006846FBF720FF00221A216846FBF71BFF3B
:104FA00000BF35E0E87D58B9E068401EE06010F1D0
:104FB000960F05DA0020207008211748FFF7F6F950
:104FC00001221A2101A8FBF706FF0022192101A8DE
:104FD000FBF701FF1CE03220A060607828B10122BD
:104FE00019216846FBF7F7FE0AE0002219216846FE
:104FF000FBF7F1FE00221A216846FBF7ECFE00BF2A
:105000002EB1E87D08B1012000E00020207000BF33
:1050100000BFBDE8FC8100007807002070B506469F
:105020000C461546284602F0A6FA207070BD70B5F1
:1050300006460C461546284602F09DFA2080284672
:1050400002F099FA218841EA002000B2208070BD68
:1050500070B506460C461546284602F08CFA2080AC
:10506000284602F088FA218841EA0020208070BD9D
:1050700001460120704738B504460D462A46A11D59
:105080006846FFF7CBFFA0796179884201D0002004
:1050900038BD284602F04DFA6179884201DA0020D5
:1050A000F6E72A4604F108016846FFF7B7FF2068D3
:1050B00081682046884710B10120E07101E000209E
:1050C000E071E079E4E70146012070477CB50446D1
:1050D0000D462A46A11D01A8FFF7A0FFA07961791E
:1050E000884201D000207CBD284602F022FA617976
:1050F000884201DA0020F6E72A4604F108016846F2
:10510000FFF7A6FF206881682046884710B101207C
:10511000E07101E00020E071E079E4E770B5044659
:105120000D46A06E01688A682946904770BD10B58B
:105130000446A06E0268D168884710BDF8B50446E1
:105140000E46206881692046884720680021426910
:105150002046904778B10020A56E0090286803682B
:105160006A46211D28469847A06E02685168884704
:105170004FF0FF30F8BD206A08B9012000E00020A0
:10518000014604F17C0002F08DFC50B1206881687A
:105190002046884700202063204601F00CFD0020B7
:1051A000E8E7A06E016804F128020B6804F1200111
:1051B00098472063204601F0FEFC0020DAE700005B
:1051C0002DE9FF47804600200390D8F80410D8F856
:1051D0001400026802AB146803AAA047029803F007
:1051E0005EF90446264A274B03F0C0F906460F46EF
:1051F000D8F8340003F053F90446214A224B03F057
:10520000B5F9814632463B4602F00EFFCDE900017A
:1052100003F016F9C8F8340098F86C0010B1039840
:1052200040420390D8F82C000399081AC8F82800C7
:10523000D8F87810D8F82800884208DDD8F874002B
:105240004042D8F828100844C8F828000EE0D8F8E2
:105250007800401C4042D8F82810814206DAD8F87D
:105260002810D8F874000844C8F82800D8E90901C3
:105270000844C8F824000398C8F82C00BDE8FF874C
:105280009A9999999999C93F9999E93F10B5044616
:10529000A06E02685168884710BD38B504460020EA
:1052A0002072A06E0268516888470020A56E0090A9
:1052B000286803686A46211D284698470020206216
:1052C00038BD00002DE9F84F04460F4693461D46B1
:1052D0000BAE96E84007CDF800905A463946204676
:1052E0000A9B01F089FC04461748206004F1640021
:1052F000002140F8641900BF0446A56684F86C805C
:10530000C4F870A00120B0406067701E0121814088
:10531000A1670122642104F17C0002F0BEFBA0F130
:105320007C0461686069026804F13403D2F800C04B
:1053300004F12C02E0470020A0622046FFF740FF66
:105340002046BDE8F88F00003C9200080146087A2C
:10535000642805DC487A642802DC887A642801DD48
:10536000002070470120FCE738B504460D462A4668
:10537000A11D6846FFF752FEA0796179884201D0ED
:10538000002038BD284602F0D4F86179884201DA5D
:105390000020F6E72A4604F108016846FFF73EFEC2
:1053A0002A4604F109016846FFF738FE2A4604F14F
:1053B0000A016846FFF732FE206881682046884768
:1053C00010B10120E07101E00020E071E079D8E740
:1053D00001460120704738B504460D462A46A11DF6
:1053E0006846FFF71BFEA0796179884201D0002052
:1053F00038BD284602F09DF86179884201DA002024
:10540000F6E72A4604F108016846FFF707FE206820
:1054100081682046884710B10120E07101E000203A
:10542000E071E079E4E70146012070477CB504466D
:105430000D462A46A11D01A8FFF7F0FDA07961796C
:10544000884201D000207CBD284602F072F86179C4
:10545000884201DA0020F6E72A4604F1080168468E
:10546000FFF7F6FD206881682046884710B10120CB
:10547000E07101E00020E071E079E4E70146087A9C
:10548000642801DD002070470120FCE738B50446A0
:105490000D462A46A11D6846FFF7C0FDA079617937
:1054A000884201D0002038BD284602F042F86179D8
:1054B000884201DA0020F6E72A4604F1080168462E
:1054C000FFF7ACFD206881682046884710B10120B5
:1054D000E07101E00020E071E079E4E7C269026177
:1054E000026A426170470146486AB0F5487F01DDB3
:1054F000012070470020FCE7C16270470021C160B5
:10550000816141627047000030B50D4C046000BFFE
:105510000C4C04600C6844600C68E51704EB55758E
:10552000ED1085600024C4600261436184610469F8
:10553000C4614469046243F2B0648462C46230BDF1
:1055400014910008BC920008F0B503460C469D6912
:10555000002026681768F11BD3E90267CF1B7E4342
:105560005F6807FB01669F693E449E61D9601F69C1
:105570009E69BE4205DD1E699E615E6A761D5E62A1
:1055800011E01F697F429E69BE4206DA1E697642BB
:105590009E615E6A761D5E6205E05E6A002E02DD37
:1055A0005E6A761E5E629E69002E01DD5E6901E024
:1055B0005E6976429F69F019D3E90A76BE4204DD3E
:1055C0009E6A4643DF6A96FBF7F0F0BD7047002104
:1055D000C1828182C1628162416202210170704791
:1055E00038B5044600BF207A00B112E0E068B0F59B
:1055F000167F0DDAE068401CE0606068807D01285D
:1056000006D12169481C2061642901DD0120207236
:1056100000BF207A20B96068807D84F8210038BD01
:10562000A069401CA061A069642805DA01221D213F
:105630006846FBF7D0FB15E0A069C82805DA01220F
:105640001E216846FBF7C7FB0CE00020A06100228A
:105650001D216846FBF7BFFB00221E216846FBF7B1
:10566000BAFB00BF94F8210010F0010F0CD0606865
:10567000807D48B994F8200090F0010001D001200D
:1056800000E0002084F8200094F8200028B90020D1
:10569000E0612046FFF79BFF14E0E069401CE061F9
:1056A0000B49E069884203DA204600F015F809E06A
:1056B0000849E069884203DA2046FFF788FF01E0E5
:1056C0000020E0616068807D84F8210000BFA6E7CB
:1056D00080FC0A00A0BB0D00C16A491CC1620178B0
:1056E00001297AD0022902D0032977D1CAE0818A20
:1056F000891C09B28182C18A891C09B2C1824168B0
:10570000097B002945D09622826203220270002282
:10571000C2828282426290F8302092F0010201D06F
:10572000012200E0002280F830200022C26242689C
:10573000127B02F00702012A06D0032A07D0042AAE
:105740000DD0062A16D10DE09622426200E000BF7D
:10575000426A8C324262012280F830200EE09622AA
:10576000426200E000BF426A8C324262002280F84E
:10577000302003E04FF4AA72426200BF00BF614ACA
:105780001288D1B24023C3EB6103426A1A444262D9
:105790004BE04168897A81B36422826203220270FD
:1057A0000022C2828282426290F8302092F001028E
:1057B00001D0012200E0002280F830200022C262E5
:1057C0004268927A02F00702012A08D0032A09D01F
:1057D000042A0FD0062A19D110E027E06AE07822C7
:1057E000426200E000BF426A78324262012280F8E1
:1057F00030200FE07822426201E016E000BF426AEA
:1058000078324262002280F8302003E04FF4AA721E
:10581000426200BF00BF3B4A1288D1B24023C3EBB3
:105820006103426A1A44426200BF46E0B0F91410B4
:10583000FA291CDAB0F9141011F1FA0F17DDB0F9DA
:10584000141090F8302012B16FF0030200E004222F
:10585000114409B28182B0F9161090F830200AB1D3
:10586000042201E06FF00302114409B2C182426ACE
:10587000C16A914205DD0021C162C182818202219B
:1058800001701AE0B0F9141011F1960F07DD818A4A
:10589000891E09B28182C18A891E09B2C182D0E9FA
:1058A0000A21914205DD0021C162C182818201216C
:1058B000017002E00221017000BF00BFB0F91410B6
:1058C000B1F5C87F03DD4FF4C871818207E0B0F9FC
:1058D000141011F5C87F02DA4FF670618182B0F9B9
:1058E0001610B1F5C87F03DD4FF4C871C18207E01F
:1058F000B0F9161011F5C87F02DA4FF67061C18257
:1059000070470000240800402DE9FC4105460E4682
:105910002648006810F0010F10D1244801F0FEFD68
:1059200060B1234C002020606060009069462046F2
:1059300002F0D4F800BF1D48AFF30080304603F0FA
:10594000DFF9019001A905F2646002F0DFFA8046F8
:10595000184903F035FA044603F0B6F9074616482D
:10596000007858B1002014490870384603F0C8F98F
:10597000009069460E4802F0B1F800BF384603F0C7
:10598000BFF9019001A90A4802F0C2F800BF084916
:1059900048680A4903F0A2F80446094903F010FADE
:1059A0004FF4CC614851BDE8FC8100003800002074
:1059B000780A00200000C842340000200000204186
:1059C0000AD7233C2DE9F04F8FB006464FF0000A6E
:1059D00000200E90D6F85882C6F81C030EAB424643
:1059E00006F5C871304602F070F90DAC4546022745
:1059F0000E9841193A462046FDF78CFC0E98384423
:105A00000E9000BFBDF8340003F092F9C6F894017F
:105A10008949D6F8940103F0A6FA06D28749D6F848
:105A2000940103F0CDF9C6F894014FF4CC60D6F898
:105A300094118151002409E006F5CC7000EB84013B
:105A40000EAB4246304602F040F9641C182CF3DBE2
:105A5000002409E006F5FC7000EB84010EAB424621
:105A6000304602F032F9641C182CF3DB7449D6F886
:105A70009001884204D0002086F888014FF0010A86
:105A80000020C6F82803002789E006F5CC7151F8FC
:105A9000270003F035F9099002F086FF0022694BD8
:105AA000CDE90A0102F074FB044602F08BFA83464A
:105AB00006F5FC7151F8270003F022F9099002F075
:105AC00073FF04460022604B02F062FBCDE90A013D
:105AD00002F078FA814607EB87016FF0770202EB5C
