:020000040800F2
:1000000000880020750B0008990B00089B0B000866
:100010009F0B0008A30B0008A70B000800000000BE
:10002000000000000000000000000000AD0B000810
:10003000AB0B000800000000AF0B0008791E0008A1
:10004000B10B0008B30B0008B50B00081B0C00082F
:10005000B70B0008B90B0008BB0B0008BD0B00086C
:10006000BF0B0008C10B0008711D0008C30B00087E
:10007000C50B0008C70B0008C90B0008CB0B000814
:10008000CD0B0008CF0B0008D10B0008D30B0008E4
:10009000D50B0008D70B0008D90B0008A71D0008D6
:1000A000DB0B0008DD0B0008DF0B0008E10B00088C
:1000B000E30B0008E50B0008E70B0008E90B00085C
:1000C000EB0B0008ED0B0008EF0B0008F10B00082C
:1000D000F30B0008D716000861170008EB1700089B
:1000E000851C0008F50B00085F0C000800F002F802
:1000F00000F045F80AA090E8000C82448344AAF17D
:100100000107DA4501D100F03AF8AFF2090EBAE87A
:100110000F0013F0010F18BFFB1A43F0010318473B
:100120004494000064940000103A24BF78C878C159
:10013000FAD8520724BF30C830C144BF04680C60ED
:10014000704700000023002400250026103A28BF35
:1001500078C1FBD8520728BF30C148BF0B60704739
:100160001FB508F0D2FE9DE8030003F0C5F903F0C7
:1001700017F91FBD10B5002007F0ABF910BD03F053
:1001800023FA1146FFF7ECFF03F08EF803F05BFA59
:1001900003B4FFF7EFFF03BC03F010FA08B500212A
:1001A0004FF0006003F0EEFC25208DF800000120E8
:1001B0008DF8010005208DF8020001208DF8030064
:1001C000684603F09BFC26208DF8000001208DF886
:1001D000010005208DF8020001208DF8030068461B
:1001E00003F08CFC27208DF8000001208DF8010021
:1001F00005208DF8020001208DF80300684603F009
:100200007DFC4FF4C06003F0B3FC28208DF80000A3
:1002100001208DF8010007208DF8020001208DF8E3
:100220000300684603F06AFC08BD0020FE49C86070
:1002300008611420486100208861C8610846006890
:1002400040F00100086008464068F8490840F64957
:10025000486008460068F6490840F34908600846C7
:10026000006820F4802008600846406820F4FE0002
:10027000486000208860704710B500BFEA480068F9
:1002800010F0020FFAD03020EA49086008460068F2
:1002900040F0020008600846006840F01000086066
:1002A0000020E149486008464068486008464068C8
:1002B00048600846406840F48060486008464068EE
:1002C00040F4004048600846406840F460104860D0
:1002D0000846006840F08070086000BFD24800689F
:1002E00010F0007FFAD0D048406840F00200CE49BC
:1002F000486000BFCC48406800F00C000828F9D1E5
:10030000C948C06940F00060C749C8610846C06973
:1003100040F08050C8610846806940F00100886163
:100320000121084603F03EFC0121C80303F046FC0E
:10033000012144F60C0003F04DFC10BD41F63F7066
:100340004FF0E021486106200861002088610846DE
:10035000006940F001000861704710B5042003F007
:1003600049FAA0F52541A53903D103F005FD03F0B5
:10037000F9FC10BD10B5AC48806940F40060AA4992
:1003800088610020AC490880091D0880AA492831ED
:10039000088040F2FF70091D08800020A64908313E
:1003A0000880A54934310880091D0880091D08808E
:1003B000091D08806020A049183108800020091D0F
:1003C0000880091D088004209B4908800020091D21
:1003D0000880081F008840F00100091F08800121E3
:1003E000954803F00AFD0121934803F011FD8E4862
:1003F000C06940F001008C49C8610846806940F03E
:10040000010088618D48406840F400708B49486065
:100410008548806940F00400834988610846806906
:1004200040F00800886100208904088088800885E1
:1004300040F2FF3088850020088140F2FF30888636
:100440000020088788877E49088046F270004FF0B8
:10045000804108834FF0000088834FF0110008842A
:100460004FF0040008804FF00000888008460088A4
:1004700040F0010008806C48C06940F002006A4901
:10048000C8610846806940F0010088616B48406897
:1004900040F44060694948606348806940F010005A
:1004A000614988614FF000006649088001F104014C
:1004B0000880654908804FF0FF0001F104010880C1
:1004C0004FF00300614908804FF000006049088048
:1004D00001F10401088001F10401088001F1040127
:1004E000088040F201105B4908804FF0000001F1E4
:1004F0000401088001F1040108804FF00400514913
:1005000008804FF0000001F1040108804D48008888
:1005100040F001004B4908804348C06940F00400A6
:100520004149C8610846806940F00100886143483C
:10053000406840F48050414948603B48806940F041
:100540001000394988614FF000004349088001F1EB
:1005500004010880414908804FF0FF0001F10401C7
:1005600008804FF003003E4908804FF000003D49ED
:10057000088001F10401088001F10401088001F103
:100580000401088040F20110374908804FF0000054
:1005900001F10401088001F1040108804FF004001A
:1005A0002D4908804FF0000001F1040108802A481D
:1005B000008840F001002849088010BD1CB50F21BB
:1005C000032003F00FFA4FF40040009000208DF854
:1005D00004000C208DF8050001208DF80600684607
:1005E00003F0BAF90E21032003F0FCF94FF4804028
:1005F000009000208DF804000C208DF805000120EB
:100600008DF80600684603F0A7F90C21022003F0DC
:10061000E9F94FF48050009000208DF804000C2080
:100620008DF80500012021E0001002400000FFF8D5
:10063000FFFFF6FE00200240002C014000000140B8
:10064000400000400004004028040040080400402E
:10065000340400401804004000080040280800400E
:100660000808004034080040180800408DF80600D3
:10067000684603F071F91CBDFE48806940F0040033
:10068000FC498861BB20FC490860FC48091D0860E2
:10069000F848806940F00800F6498861F848F9494F
:1006A0000860F948091D0860F248806940F01000B0
:1006B000F0498861F548F6490860F6484860ED4819
:1006C000806940F02000EB498861F348F3490860F5
:1006D000F348091D0860E748806940F04000E5499B
:1006E0008861F048F0490860F048091D08607047CB
:1006F00008B50121480503F061FA0121022003F049
:10070000D5F94FF44070ADF8000003208DF80200D9
:100710001C208DF803006946DA4803F077F908BD1C
:1007200010B5E34803F08AF8E148283003F086F872
:10073000DF48643003F082F810BD1FB50121880343
:1007400003F048FA4FF4E13000900020ADF80400C7
:10075000ADF80600ADF80800ADF80C000C20ADF8BF
:100760000A006946D34803F089FB012240F2255173
:10077000D04803F06AFB0121CE4803F054FB01216D
:10078000480403F01BFA0121082003F08FF94FF40D
:10079000E13000900020ADF80400ADF80600ADF89F
:1007A0000800ADF80C000C20ADF80A006946C248FC
:1007B00003F064FB012240F22551BF4803F045FBE2
:1007C0000121BD4803F02FFB0121880403F0F6F955
:1007D0000121BA4803F06AF94FF4E130009000209B
:1007E000ADF80400ADF80600ADF80800ADF80C0057
:1007F0000C20ADF80A006946B14803F03FFB012226
:1008000040F22551AE4803F020FB9A48C06940F4FD
:1008100080209849C8610121A94803F004FB1FBD4D
:100820009448806940F40070924988610846806964
:1008300040F0040088610846806940F00800886143
:100840000846806940F01000886100209D490860DA
:10085000091D0860081D006840F00500091D0860BA
:100860000846006840F0280008600846006840F428
:10087000A07008600846006840F4206008600846E0
:10088000006840F4A04008600846006840F420304A
:100890000860081D006840F00500091D0860084652
:1008A000006840F0280008600846006840F4A07026
:1008B00008600846006840F4206008600846006848
:1008C00040F4A04008600846006840F4203008600A
:1008D0000846006840F4A01008600846006840F42C
:1008E000200008600846006840F0A06008600846E4
:1008F000006840F0205008600020724928310860EC
:10090000091D0860091D08606E48001D006840F060
:1009100001006C49091D08600846006840F00800A5
:10092000086000BF6748001D006810F0080FF9D18B
:100930006448001D006840F004006249091D086019
:1009400000BF6048001D006810F0040FF9D1704727
:100950001CB5684600BFFFF768FCFFF78DFCFFF78A
:100960001DFC45481030006840F480704249103149
:100970000860081D006840F48070091D08603D484B
:10098000806940F004003B4988610846806940F076
:10099000080088610846806940F0100088610846B8
:1009A000806940F0200088610846806940F040007E
:1009B000886100220D2101A800F00DFA00222921F2
:1009C00001A800F008FA00222A2101A800F003FA89
:1009D00000222B2101A800F0FEF900222C2101A801
:1009E00000F0F9F900220F2101A800F0F4F900222B
:1009F000192101A800F0EFF900221A2101A800F046
:100A0000EAF900221B2101A800F0E5F900221C21CF
:100A100001A800F0E0F900221D2101A800F0DBF997
:100A200000221E2101A800F0D6F9FFF725FE0122C1
:100A30000D2101A800F0CFF92349684607F027F8F7
:100A40000022192101A800F0C6F900221A2101A8EC
:100A500000F0C1F900221B2101A800F0BCF900221E
:100A60001C2101A800F0B7F900221D2101A800F007
:100A7000B2F92BE00010024000080140BB8448445A
:100A800000343400000C0140B033443340030044D0
:100A900000100140334B04343344B444001401408B
:100AA0004344444433443433001801404333333324
:100AB0001C000240003801400044004010001400B7
:100AC000004800400424014000350C0000221E2193
:100AD00001A800F080F90122292101A800F07BF98A
:100AE0002249684606F0D3FF01222A2101A800F01E
:100AF00072F91E49684606F0CAFF01222B2101A89F
:100B000000F069F91949684606F0C1FF01222C215D
:100B100001A800F060F91549684606F0B8FF012207
:100B2000142101A800F057F9FFF717FCFFF722FC8A
:100B3000FFF7F6FDFFF701FEFFF740FDFFF770FE40
:100B4000FFF7FCFBFFF7D4FD0022142101A800F001
:100B500042F90748006840F400500549086008461B
:100B6000006840F4804008601CBD000000350C00A7
:100B7000101801400348004703480449044A054B44
:100B800070470000ED0000080008002000880020E9
:100B90000058002000580020704700BFFEE700BF4B
:100BA000FEE700BFFEE700BFFEE7704770477047F3
:100BB000704770477047704770477047704770477D
:100BC000704770477047704770477047704770476D
:100BD000704770477047704770477047704770475D
:100BE000704770477047704770477047704770474D
:100BF000704770471A48006840F400301849086090
:100C00001848008820F008001649088000BF1548E1
:100C1000008810F0080FFAD070471248008810F0D2
:100C2000040F05D00F48008820F004000D4908800B
:100C30000C48008810F0020F05D00A48008820F008
:100C40000200084908800748008810F0010F05D00D
:100C50000448008820F0010002490880704770476E
:100C6000140401400428004010B5024600200C4B3B
:100C700019600B4B2C3B1B6843F00103084C2C3CC8
:100C8000236000BF064B343B1B6813F0020FF9D002
:100C9000034B183318680023014C343C236010BD0B
:100CA0003424014010B502460020252972D2DFE825
:100CB00001F08E13191F252B8E8E31363B41474D87
:100CC0008E5266575C618E8E8E8E6C8E8E8E8E8E60
:100CD0008E72777C81868800F84B1B68012424EA99
:100CE000D32076E0F54B1B68012424EA133070E032
:100CF000F34B1B68012424EA13306AE0F04B1B68B5
:100D0000012424EA533064E0EE4B1B68012424EAFA
:100D100053205EE0EC4B1B6803F0010059E0EA4B06
:100D20001B68C3F3400054E0E74B1B68012424EA2E
:100D300093004EE0E44B1B68012424EAD30048E012
:100D4000E14B1B68012424EA131042E0DE4B1B68D0
:100D5000C3F340103DE0DC4B1B68C3F3C03038E008
:100D6000D84B1B68C3F3C01033E0D64B1B68C3F3EA
:100D700080202EE0D34B1B68C3F3C02029E0D24B68
:100D80001B68012424EA532023E0CC4B1B68C3F3E7
:100D900000201EE01BE0CB4B1B68C3F3800018E073
:100DA000C84B1B68C3F3C00013E0C64B1B68C3F3FA
:100DB00000100EE0C54B9B68C3F3803009E00020B3
:100DC00007E0C24B9B68012424EA530001E00020A5
:100DD00000BF00BF10BD10B52D2973D2DFE801F0B0
:100DE00017727272727272722A3D72727250D2F2FD
:100DF00072727272F0EFACBF72EEEDECEBEAE97278
:100E00007272727272E8E7E6E5637386990042B126
:100E1000AA4B08331B6843F48073A84C0834236042
:100E200007E0A64B0C331B6843F48073A34C0C34CF
:100E30002360B5E142B1A44B08331B6843F00103C2
:100E4000A14C0834236007E09F4B0C331B6843F030
:100E500001039D4C0C342360A2E142B19A4B08334C
:100E60001B6843F00203984C0834236007E0964B5C
:100E70000C331B6843F00203934C0C3423608FE166
:100E800042B1914B08331B6843F020038E4C083469
:100E9000236007E08C4B0C331B6843F020038A4C23
:100EA0000C3423607CE132B1884B1B6943F00403AE
:100EB000864C236105E0854B5B6943F00403834C5A
:100EC00063616DE16BE142B17E4B08331B6843F413
:100ED00080737C4C0834236007E07A4B0C331B682A
:100EE00043F48073774C0C34236059E142B1764B64
:100EF00008331B6843F04003734C0834236007E059
:100F0000714B0C331B6843F040036F4C0C3423606F
:100F100046E142B16C4B08331B6843F080036A4CD6
:100F20000834236007E0684B0C331B6843F08003F0
:100F3000654C0C34236033E142B1634B08331B68CA
:100F400043F40053604C0834236007E05E4B0C33DD
:100F50001B6843F400535C4C0C34236020E142B125
:100F6000594B08331B6843F48043574C08342360C3
:100F700007E0554B0C331B6843F48043524C0C3450
:100F800023600DE142B14D4B08331B6843F400432D
:100F90004A4C0834236007E0484B0C331B6843F489
:100FA0000043464C0C342360FAE0E9E0D7E0C5E0AA
:100FB000B3E0A3E093E077E063E04FE03BE027E0BD
:100FC00013E0FFE742B1404B08331B6843F4004392
:100FD0003D4C0834236007E03B4B0C331B6843F463
:100FE0000043394C0C342360DAE042B1364B0C3309
:100FF0001B6843F48073344C0C34236007E0324B9D
:1010000008331B6843F480732F4C08342360C7E017
:1010100042B12A4B08331B6843F40073274C083451
:10102000236007E0254B0C331B6843F40073234C0B
:101030000C342360B4E042B9214B08331B6843F4FD
:1010400080631F4C0834236007E01D4B0C331B6882
:1010500043F480631A4C0C342360A1E042B9184B6E
:1010600008331B6843F40063154C0834236007E021
:10107000134B0C331B6843F40063114C0C34236096
:101080008EE042B90E4B08331B6843F480430C4C8E
:101090000834236007E00A4B0C331B6843F4804399
:1010A000074C0C3423607BE092B9054B08331B6876
:1010B00043F40043024C083423600FE00808014069
:1010C000080C0140081401400818014000100140BC
:1010D000344B1B6843F40043324C236060E032B968
:1010E000314B1B6943F480732F4C236105E02E4B79
:1010F0005B6943F480732C4C636151E032B92A4B35
:101100001B6943F40073284C236105E0264B5B699F
:1011100043F40073244C636142E032B1234B1B68FB
:1011200043F48063214C236007E0204B1B1D1B68A8
:1011300043F480631D4C241D236031E032B11B4B0E
:101140001B6843F40063194C236007E0174B1B1D19
:101150001B6843F40063154C241D236020E032B16A
:10116000124B1B6843F48053104C236007E00F4B75
:101170001B1D1B6843F480530C4C241D23600FE09F
:1011800032B1094B1B6943F40043074C236105E06E
:10119000054B5B6943F40043034C636100E000BF0F
:1011A00000BF10BD140C0140001001401018014098
:1011B00020B1012816D002283CD127E059B1FB4AC2
:1011C000128842F08002F94B1A801A46128842F0C7
:1011D00008021A8005E0F54A128822F08002F34BDB
:1011E0001A8028E059B1F24A128842F08002F04B8E
:1011F0001A801A46128842F008021A8005E0EC4A6A
:10120000128822F08002EA4B1A8014E059B1E94AB0
:10121000128842F08002E74B1A801A46128842F088
:1012200008021A8005E0E34A128822F08002E14BAE
:101230001A8000E000BF00BF704720B1012816D01F
:1012400002283CD127E059B1D84A128842F0200246
:10125000D64B1A801A46128842F004021A8005E022
:10126000D24A128822F02002D04B1A8028E059B1CD
:10127000CF4A128842F02002CD4B1A801A461288BB
:1012800042F004021A8005E0C94A128822F02002C6
:10129000C74B1A8014E059B1C64A128842F02002A6
:1012A000C44B1A801A46128842F004021A8005E0E4
:1012B000C04A128822F02002BE4B1A8000E000BF14
:1012C00000BF70472DE9F04180460E4617460024C6
:1012D000002500214046FFF7B0FFB8F1000F06D00F
:1012E000B8F1010F1BD0B8F1020F46D12EE0B24881
:1012F00006F08AF90546FF2D05D9AF4806F09EF99C
:101300000020BDE8F081002404E0AB4806F09CF921
:101310003055641CAC4201D2BC42F6DB2EE0A7483B
:1013200006F072F90546FF2D04D9A44806F086F9A7
:101330000020E6E7002404E0A04806F085F93055D7
:10134000641CAC4201D2BC42F6DB17E09C4806F0BC
:101350005BF90546FF2D04D9994806F06FF9002086
:10136000CFE7002404E0964806F06EF93055641C7F
:10137000AC4201D2BC42F6DB00E000BF00BF01215D
:101380004046FFF75AFF2046BBE770B505460E46BC
:10139000022D01D9002070BD05EB450000EBC50012
:1013A000884901EB80041020A060E66000202061E5
:1013B000802060610020A061E06120624FF4405015
:1013C00060620020A06225B1012D23D0022D68D1DA
:1013D00044E000217C4802F027FA7C4860607348B2
:1013E000083820602146784802F098FA4FF40050FF
:1013F00002F010FA012280216C480C3802F01DFD29
:101400000121714802F010FA012168480C3802F0FD
:101410000AFD46E000216C483C3002F005FA6C48B9
:101420006060634808382060214667483C3002F01D
:1014300075FA4FF0007002F0EDF9012280215C484E
:101440000C3802F0FAFC01215F483C3002F0ECF964
:10145000012157480C3802F0E6FC22E000215A48EE
:10146000283802F0E1F95B48606052480838206093
:1014700021465548283802F051FA202002F0CAF9D6
:10148000012280214B480C3802F0D7FC01214E4844
:10149000283802F0C9F9012146480C3802F0C3FC93
:1014A00000BF00BF012076E72DE9F04106460D465A
:1014B000144626B1012E1CD0022E50D134E000205B
:1014C000454908604549086000BF09E02A5C424977
:1014D0000B680968491C404F39603C49CA54401C9C
:1014E000A042F3DB00203C4908602146FFF74DFF96
:1014F00036E000203A4908603A49086000BF09E038
:101500002A5C37490B680968491C354F39603049F6
:10151000CA54401CA042F3DB002031490860214638
:101520000120FFF732FF1BE000202F4908602F4900
:10153000086000BF09E02A5C2B490B680968491C58
:10154000294F39602349CA54401CA042F3DB0020D4
:101550002549086021460220FFF717FF00E000BF81
:1015600000BF2046BDE8F0810146002021B10129DD
:1015700005D0022909D105E0174A106807E0184A8A
:10158000106804E0184A106801E0002000BF00BFA6
:1015900070472DE9F04106460C4615461448066092
:1015A00046B3012E31D0022E43D138E00C38014031
:1015B0000C4400400C48004054000020640200200D
:1015C00074040020840600204400024064010020CE
:1015D0007403002084050020000000200400002087
:1015E000080000200C000020100000201400002043
:1015F00018000020FFE7002704E0E119AA4806F0E0
:1016000038F87F1CAF42F8DB14E0002704E0E11952
:10161000A64806F02EF87F1CAF42F8DB0AE0002750
:1016200004E0E119A24806F024F87F1CAF42F8DB81
:1016300000E000BF00BFBDE8F08130B5034623B134
:10164000012B18D0022B42D12BE09A4800689A4C0B
:101650002468A04205D10020964C2060964C206062
:1016600030BD944804680068401C924D286093483F
:10167000005D08702CE092480068924C2468A042FB
:1016800005D100208E4C20608E4C2060E8E78C480D
:1016900004680068401C8A4D28608B48005D087013
:1016A00016E08A4800688A4C2468A04205D10020D0
:1016B000864C2060864C2060D2E78448046800682D
:1016C000401C824D28608348005D087000E000BF28
:1016D00000BF0120C4E738B57F48048814F0200F0C
:1016E0000ED0001D0088C0B2009001226946002083
:1016F000FFF74FFF7848008820F0200076490880E7
:1017000014F0800F1CD07448008820F080007249CB
:101710000880012269460020FFF78FFF0546002D53
:1017200005DD9DF800006C49091D088007E06A4846
:101730000C30008820F0800067490C31088000BF21
:1017400014F0080F05D114F0040F02D114F0020FA9
:1017500005D061480488001D0088C0B2009038BDE3
:1017600038B55E48048814F0200F0ED0001D0088A4
:10177000C0B20090012269461046FFF70AFF5748A1
:10178000008820F020005549088014F0800F1CD0FC
:101790005248008820F080005049088001226946A4
:1017A0001046FFF74AFF0546002D05DD9DF80000B5
:1017B0004A49091D088007E048480C30008820F09D
:1017C000800046490C31088000BF14F0080F05D195
:1017D00014F0040F02D114F0020F05D03F48048822
:1017E000001D0088C0B2009038BD38B53C48048860
:1017F00014F0200F0ED0001D0088C0B2009001220E
:1018000069460220FFF7C5FE3548008820F0200019
:101810003349088014F0800F1CD03148008820F034
:1018200080002F490880012269460220FFF705FF4A
:101830000546002D05DD9DF800002949091D088099
:1018400007E027480C30008820F0800024490C3144
:10185000088000BF14F0080F05D114F0040F02D166
:1018600014F0020F05D01E480488001D0088C0B285
:10187000009038BD10B50C4805F012FF0446194A17
:10188000194905F0FDFD094805F00AFF0446154A0F
:10189000154905F0F5FD064805F002FF0446114A1A
:1018A000114905F0EDFD10BD540000206402002038
:1018B00074040020040000200000002064010020C7
:1018C0000C000020080000207403002014000020F9
:1018D0001000002084050020003801400044004032
:1018E0000048004000000008C57600087FB50646A5
:1018F0000C46214603A8FFF7B7F90090214603A83C
:10190000FFF7B2F90190214603A8FFF7ADF9029065
:101910000025002013E0411C0EE05DF820205DF85A
:1019200021309A4207DD5DF820505DF821204DF806
:1019300020204DF82150491C0329EEDB401C0228D1
:10194000E9DB019804B070BD2DE9F04107460E4671
:1019500014461D4616F0FF0002D001281ED10EE0ED
:101960005D4800880006800C20600E213846FFF795
:10197000BDFF40F2393148434012286012E0574819
:1019800000880006800C20600F213846FFF7AEFF6C
:1019900040F2393148434012286003E000202060C3
:1019A000286000BF00BFBDE8F08138B504460022C2
:1019B0000F216846FFF70FFA0020E06038BD38B508
:1019C000044601220F216846FFF705FAE068142853
:1019D00002DAE068401CE06038BDF8B505460F4605
:1019E0001646E868142801DA002000E03046044674
:1019F000F8B206286ED2DFE800F0031F3F50575DB3
:101A0000002C0BDBA002364990FBF1F04906088759
:101A1000002208216846FFF7DEF90CE060428002F0
:101A20002F4990FBF1F049060887012208216846FA
:101A3000FFF7D1F900BF4DE0002C0DDBA0022849D3
:101A400090FBF1F0C0F580604906888600220921EC
:101A50006846FFF7C0F90EE060428002204990FB23
:101A6000F1F0C0F5806049068886012209216846A8
:101A7000FFF7B1F900BF2DE0002C06DBA0021849EA
:101A800090FBF1F04906888706E060428002144925
:101A900090FBF1F0490688871CE0A002104990FBFA
:101AA000F1F01049088015E0B0020D4990FBF1F00B
:101AB00068600FE0B0020A4990FBF1F0A86000BF37
:101AC000D5E90110884201DAA86800E06868064993
:101AD000088000BF00BFF8BD240400402408004077
:101AE000A086010040000040342C0140002108463F
:101AF00009E0CF4B03EBC001CE4B03EBC0020A6001
:101B000000BF411C08460428F3DB704730B10128B0
:101B10000BD0022810D003281CD114E0C649096854
:101B200041F48051C44A116015E0C349096841F489
:101B30000041C14A11600EE0BF49096841F480517B
:101B4000BD4A116007E0BC49096841F48041BA4AC6
:101B5000116000E000BF00BF704730B101280BD01A
:101B6000022810D003281CD114E0B349096821F4DD
:101B70008051B14A116015E0AF49096821F4004174
:101B8000AD4A11600EE0AC49096821F48051AA4ABF
:101B9000116007E0A849096821F48041A64A116054
:101BA00000E000BF00BF7047012804D0022811D018
:101BB00003282DD11DE0A0490831096841F40041F6
:101BC0009D4A08321160111D096821F40041121D5F
:101BD00011601EE098490831096841F48051964A25
:101BE00008321160111D096821F48051121D116025
:101BF0000FE091490831096841F480418E4A08326A
:101C00001160111D096821F48041121D116000E06E
:101C100000BF00BF7047012804D0022811D003285C
:101C20002DD11DE084490831096821F40041824A20
:101C300008321160111D096841F40041121D116044
:101C40001EE07D490831096821F480517A4A083242
:101C50001160111D096841F48051121D11600FE0DF
:101C600075490831096821F48041734A08321160CE
:101C7000111D096841F48041121D116000E000BF90
:101C800000BF704710B56C481430006810F4805FD6
:101C900017D06948006820F480506749086066489A
:101CA0001430006840F48050634914310860604883
:101CB000103004F055FD6048006840F480505E49E3
:101CC00008605D481430006810F4004F17D05A487F
:101CD000006820F4004058490860574814300068F4
:101CE00040F400405449143108605148083004F071
:101CF00037FD5148006840F400404F4908604E48A5
:101D00001430006810F4806F13D04B48006820F442
:101D100080604949086048481430006840F4806099
:101D20004549143108604448006840F480604249E5
:101D3000086041481430006810F4804F17D03E48C6
:101D4000006820F480403C4908603B48143000683B
:101D500040F480403849143108603548183004F0A8
:101D6000FFFC3548006840F480403349086010BDEE
:101D700031481430006810F0100F13D02E4800685E
:101D800020F010002C4908602B481430006840F007
:101D900010002949143108602748006840F01000FD
:101DA00025490860704724481430006810F0400F3F
:101DB00013D02148006820F040001F4908601E48E9
:101DC0001430006840F040001B49143108601A4884
:101DD000006840F0400018490860704710B504469C
:101DE000042308221549124801F0ECFA10BD10B581
:101DF00004460423082212490E4801F0E3FA10BDFC
:101E000010B5042308220F490A4805F051FB0E4A79
:101E10000E49002005F034FB042308220C49044835
:101E200005F046FB084A0B49002005F029FB10BDD0
:101E300028070020080700200004014087670008E9
:101E4000757D0008657D000800000008EF1D000892
:101E50007F670008DD1D00080021084609E0604B8F
:101E600003EBC0015F4B03EBC0020A6000BF411CE3
:101E700008460228F3DB704710B500BF5848406899
:101E800028B1574A50685268126891688847544888
:101E9000006828B1524A1068126812689168884731
:101EA00000BF10BD10B5044601214FF0C05001F035
:101EB00085FE012001F070FE01F092FC012001F08E
:101EC000FDFE00BF412001F0E1FE0028FAD04FF4F2
:101ED000807001F009FF012001F000FF01F04CFFCC
:101EE00001F040FF01F03EFF47F6FF7001F02AFFCE
:101EF00001F038FF4FF46162216851436268C2EB20
:101F0000021201EB8201A268881801F00DFF01F0B6
:101F100029FF4AF2A551042001F074FC10BD2DE9FF
:101F2000F04104460D461646042001F063FCA0F57E
:101F30002541A53904D0FF2020702870307023E09F
:101F400001F0EAFE07464FF46160B7FBF0F018219C
:101F5000B0FBF1F201FB120020704FF46160B7FB9F
:101F6000F0F100FB11703C21B0FBF1F028704FF450
:101F70006160B7FBF0F100FB11703C21B0FBF1F2A6
:101F800001FB1200307000BFBDE8F08110B50446BF
:101F9000022308221449124801F014FA10BD10B5AA
:101FA00004460223082211490E4801F00BFA10BD25
:101FB00010B5022308220E490A4805F079FA0D4AA5
:101FC0000D49002005F05CFA022308220B49044861
:101FD00005F06EFA074A0A49002005F051FA10BDD3
:101FE000580700204807002087670008757D000813
:101FF000657D0008000000089F1F00087F6700083B
:102000008D1F0008024800210160416000BF704739
:102010002C0000207CB50446A069FFF7A5FA00B1AA
:102020007CBD04F1B40005F09CFAAA20019001A93E
:1020300004F1B40005F0B0FA5520019001A904F1B3
:10204000B40005F0A9FA0020019001A904F1B40040
:1020500005F0A2FA04F1B401D4F8F00105F033FB65
:1020600004F1B40005F061FAC01EC5B2022104F10A
:10207000B40005F0B9FA05700020009002250AE0CE
:10208000294604F1B40005F0AFFA00789DF800107D
:10209000484000906D1C04F1B40005F046FAA842D7
:1020A000EEDC694604F1B40005F076FA0020C4F8CD
:1020B000F40104F1B40005F038FA054604F1B40067
:1020C00005F04AFA06462A4631460020FFF7ECF9A9
:1020D00004F1B40005F029FA054604F1B40005F056
:1020E0003BFA06462A4631460220FFF7DDF900BFDB
:1020F00096E770B50446002604F1240005F037FA8F
:1021000082E004F1240005F032FA05460D2D75D267
:10211000DFE805F074071019222B343D464F586153
:102120006A0004F1240104F5A67004F037FB00B145
:10213000012668E004F1240104F5AC7003F068F9AD
:1021400000B101265FE004F1240104F5B27004F04F
:1021500072FB00B1012656E004F1240104F5B870C9
:1021600003F0E8F900B101264DE004F1240104F583
:10217000BE7002F02AFA00B1012644E004F1240105
:1021800004F5C47004F0B7FF00B101263BE004F190
:10219000240104F5D07005F006F800B1012632E004
:1021A00004F1240104F5D67001F0AFFE00B1012660
:1021B00029E004F1240104F5DC7002F0E3FF00B132
:1021C000012620E004F1240104F5E27002F0AFFFE3
:1021D00000B1012617E004F1240104F5EC7003F0CE
:1021E0004EF900B101260EE004F1240104F5F2706D
:1021F00003F070F900B1012605E0FFE704F12400C7
:1022000005F0AFF900BF00BF04F1240005F08DF91F
:1022100000283FF776AF304670BD73B50446002501
:1022200094F8200030B101280CD0022812D00328E5
:102230003CD129E09DF80400AA2802D1012084F8AD
:10224000200037E09DF80400552802D1022084F8D0
:1022500020002FE09DF80400782811DA9DF8040092
:10226000801CC4F8480104F1240005F07AF901A9A2
:1022700004F1240005F090F9032084F8200002E026
:10228000002084F8200015E001A904F1240005F0E5
:1022900083F904F1240005F048F9D4F84811884284
:1022A00003D10125002084F8200003E0002084F8F9
:1022B000200000BF00BF28467CBD2DE9F041A0B042
:1022C000044688464FF0FF37E069B0F1FF3F05D084
:1022D00058B101280AD0022810D108E0304800681F
:1022E000E0612F480068A06109E000BF00BFD4E9A9
:1022F0000610884201D0E069A06100E000BF00BF85
:1023000080226946A069FEF7DDFF054600260BE046
:102310001DF806102046FFF780FF20B12046FFF78A
:10232000E8FE00B10027761CAE42F1DB00BFD4F816
:102330004401401CC4F84401042804DB0020C4F814
:102340004401012000E0002010B12046FFF762FEAA
:10235000384620B0BDE8F0814FF0FF31C1617047D1
:1023600070B5044604F1B40005F0DFF8D4F8F411B8
:10237000451A202D00DD2025002D10DD04F1B400CC
:1023800005F0EAF8D4F8F41146182A463146A06957
:10239000FFF78AF8D4F8F4012844C4F8F40170BDBA
:1023A00018000020ADF5B25D00200DF58051C1F898
:1023B000300600210DF58050C0F82C16C0F8281604
:1023C000C0F82416C0F8201600F5C1600990042258
:1023D0000998026000220998426009988260099871
:1023E000C2600998026101220998027500BF7D2030
:1023F0000DF58051C1F83C06D1F83C06FE49086055
:1024000000BFFFF773FBFFF727FDFEF7A1FA41F2CC
:10241000FC50684401F0D6FD41F2505068440990E8
:10242000099808900022089802812022089880F8D4
:1024300021200122089880F82220089880F8232083
:102440002222089880F824201722089880F8252056
:102450004022089880F826206122089880F82720DA
:1024600000220898A0F8862008980990521E099822
:10247000C0F8A82000BF41F250516944A1F5FC709A
:1024800004F096FA41F23C306844089000F505707B
:102490000990DDE908100860002208980271089888
:1024A00082600898C2600898028208984282089860
:1024B000426100BF41F208306844089000F5127094
:1024C0000990DDE908104860089802720898C26017
:1024D00008980261089882820898C28208988261EE
:1024E0000898C261089880F8212000BF0B200DF5E4
:1024F000805141F28833C14AC1F8380601F5C761FD
:10250000A1F5587003F054F80B200DF5805141F2FD
:102510008833BA4AC1F8340601F23461A1F5637018
:1025200003F046F841F29820684409900998B44AAB
:10253000089002600898B34A099002600022099846
:10254000426000210998816000BF41F298236B44EA
:1025500003F1100202F13001A1F5B67002F098FA11
:102560000DF58451A848CDE90810DDE908010160A6
:10257000002108984160089881600898C160089817
:102580000161089841610898C0F8E4100898C0F803
:10259000E8100020079009E00022089800F11801D7
:1025A000079841F820200798401C07900798322888
:1025B000F2DB00210898C0F8E01000BF0DF63C6087
:1025C00004F046FD0DF6747209924FF48073099A77
:1025D0000C320021099805F017FB00BF0DF5D660FD
:1025E00003F0BCFD0DF5786009900998CDF8080955
:1025F00000BF0DF5D66003F0EDF90DF25C600990B7
:102600000022099802800F220998828004220998EA
:10261000826000220998C26064220998026129221E
:10262000099842612A22099882612B220998C26185
:102630002C220998026200BF0DF5AF6002F03AFC4F
:1026400003210DF2944003F0CFFF0121ECA803F029
:10265000CBFF0221B3A803F0C7FFA4A909914FF053
:10266000FF320021099802F087FA68490990016059
:102670000021099801750998417509988175012211
:1026800005210998183005F0E6F9A0F11801099123
:10269000012205210998243005F0DDF9A0F124017B
:1026A0000991012205210998303005F0D4F9A0F1F3
:1026B0003001099100BF9AA909914FF0FF32002122
:1026C000099802F059FA52490990016040F2DC5130
:1026D0000998416100210998017609981C300890F9
:1026E00000220898026008981C38099009984262F4
:1026F00000BF41F29821694412A801F023FF11A8FC
:10270000099000220998026000BF96224FF4887158
:102710001DA802F056FA9622E5211DA802F051FAF2
:10272000C822AB211DA802F04CFA032200211DA8EB
:1027300002F02DFA9622AB211DA802F042FA962251
:10274000E5211DA802F03DFAC8224FF488711DA8AA
:1027500002F037FA032211461DA802F018FA3222BD
:1027600088211DA802F02DFA322200211DA802F0B6
:1027700028FA322288211DA802F023FA032206211A
:102780001DA802F004FA192288211DA802F019FAE6
:10279000022200211DA802F014FA022209211DA81C
:1027A00002F0F5F9642298211DA802F00AFA6422C9
:1027B000AB211DA802F005FA6422CC211DA802F06D
:1027C00000FA642240F201111DA802F0FAF9642215
:1027D0004FF488711DA802F0F4F94FF4FA62002159
:1027E0001DA802F0EEF9642298211DA802F0E9F973
:1027F0006422AB211DA80DE028000020486B0100D9
:1028000040930008A0930008A3B0AE3D709100086B
:102810000093000802F0D5F96422CC211DA802F033
:10282000D0F9642240F201111DA802F0CAF9642215
:102830004FF488711DA802F0C4F94FF4FA62002128
:102840001DA802F0BEF9642298211DA802F0B9F972
:102850006422AB211DA802F0B4F96422CC211DA88A
:1028600002F0AFF9642240F201111DA802F0A9F9AB
:1028700064224FF488711DA802F0A3F911220B21E4
:102880001DA802F084F964224FF488711DA802F09B
:1028900098F9642240F201111DA802F092F9642215
:1028A000E5211DA802F08DF96422CC211DA802F0BB
:1028B00088F96422B5211DA802F083F905221C21A4
:1028C0001DA802F064F964224FF488711DA802F07B
:1028D00078F9642240F201111DA802F072F9642215
:1028E000E5211DA802F06DF96422CC211DA802F09B
:1028F00068F96422B5211DA802F063F96422AB21B6
:102900001DA802F05EF9642298211DA802F059F971
:10291000642288211DA802F054F9082221211DA853
:1029200002F035F9002112A801F00CFD0CA8099065
:102930000022099802700122099842700998827059
:102940000022099842606422099882600022099856
:10295000C2600998026100BF0BA809900021099884
:10296000016000BF00BF0A91FE4801680DF580506C
:10297000C0F8EC15FB48001D01680DF58050C0F84B
:10298000F015F848083001680DF58050C0F8F415CE
:10299000FEE300BF0DF5805090F8FC0500B9F7E7A5
:1029A00000BF00210DF5805080F8FC1500BFB0F885
:1029B0005805401D81B20DF58050A0F8581500F55E
:1029C000AA610DF5AF6002F0A0F900210DF294406C
:1029D00003F0E8FC41F26E5169440DF2944003F0BB
:1029E000E9FD0021ECA803F0DDFC41F26F516944E0
:1029F000ECA803F0DFFD0021B3A803F0D3FC41F203
:102A000070516944B3A803F0D5FD0DF25C6003F08A
:102A100072FE0021A4A802F010F99DF8A50208B1E9
:102A2000022100E000210DF5805080F8661590F835
:102A300066159DF8A60208B1012000E000200143C0
:102A40000DF5805080F8661590F866159DF8A40283
:102A500008B1042000E0002001430DF5805080F80B
:102A600066150A9810F0010F06D10DF5805090F808
:102A7000660510F0010F15D10A9810F0020F06D16B
:102A80000DF5805090F8660510F0020F0AD10A98F3
:102A900010F0040F0AD10DF5805090F8660510F083
:102AA000040F03D0032112A801F04CFC0DF5805057
:102AB00090F866150A9100219AA803F0EDFE9AA8F5
:102AC00003F0E7FE642190FBF1F0C1B20DF58050F8
:102AD00080F8681500BF9DF8811280F8671500BF67
:102AE0009DF8800208B1102000E000200DF5805113
:102AF00091F8671508430DF5805181F8670501F2DB
:102B00007752511E481EFFF70AFA002112A801F061
:102B1000DBFC12A802F025F858B141F26C106844B1
:102B200002F01FF828B1002141F26C10684401F056
:102B300029FE00BF0DF58050D0F80816491CC0F8DA
:102B4000081690F81C06814206DB0DF58050D0F87F
:102B50001016C0F818161AE00DF5805090F81C16E3
:102B6000D0F80806091A0DF58050D0F80C0641433C
:102B70000DF5805090F81C0691FBF0F10DF580509A
:102B8000D0F81006411A0DF58050C0F818160DF552
:102B90008050D0F81816C0F82416D0F81416C0F8D3
:102BA000201600BF8030039000F59A600DF580512B
:102BB0000490D1F824060590D1F8200606900399D8
:102BC0000598C1F8E40003990698C1F8E80003A845
:102BD0000FC801F03CFD00BF0DF58050D0F8681122
:102BE0000691D0F86411059100F5B670069A01F0CF
:102BF0007DFE9AA803F04DFE0146069041F2D820D2
:102C0000684402F0CDFC9AA803F043FE014606900A
:102C100041F2A820684402F0C3FC9AA803F039FEF0
:102C20000DF580510690D1F82406642801DC0120BE
:102C300000E000200346059041F2505169440CA881
:102C4000069A02F082F900BF9DF83000032801D1F6
:102C5000012000E0002030B10022114641F26C104A
:102C6000684401F043FE00BF9DF8320008B1002027
:102C700003E001208DF8320000BF18B1022112A834
:102C800001F060FB41F23C30684403F0C9FA00BF38
:102C90000DF5805090F8400360B10DF58050B0F90B
:102CA0004E130691B0F94C13059100F5B670069AD3
:102CB00001F0CCFD41F20830684402F0E5FC00BFB1
:102CC0000DF5805090F8100360B10DF58050B0F90B
:102CD0001E130691B0F91C13059100F5B670069A03
:102CE00001F0B4FD002141F26C10684401F0A2FE35
:102CF00041F250516944A1F5797001F04EFD00BFD9
:102D00000DF58050D0F80406C1B2069106990DF574
:102D1000805080F8691500210DF63C6004F03EF803
:102D20000DF58050D0F86401C0B90DF58050D0F891
:102D3000680198B90DF58050D0F8500570B90DF5BF
:102D40008050D0F8540548B90DF5805090F85C05D6
:102D500020B90DF5805090F85B0528B101208DF861
:102D6000B10604E0E8F7FF1F00208DF8B1060DF56D
:102D7000805090F8880508B9012000E000200890F4
:102D80000DF5805090F88805C0F118010DF58050C0
:102D9000069190F8881500F28A5000EB41010591E8
:102DA0000A4609A90DF63C60069B04F018F8014696
:102DB0000DF5805090F888050844C1B20DF580509B
:102DC00080F8881500BFBDF86A1F07919DF8701F35
:102DD000069100218DF8701F069850B300200090D6
:102DE0000190034602460290BDF81C0001B20DF5A9
:102DF000D66002F0D1FFDDF8B4160591FE490598C2
:102E000005F04AFE069005F03DFF00B20DF5805139
:102E1000A1F88005DDF8BC160591F749059805F085
:102E20003BFE069005F02EFF00B20DF58051A1F893
:102E300082059DF8660F30B9BDF8681F0DF5D660A4
:102E4000069102F069FD9DF8511E0A4606910D217A
:102E500041F25050684401F080F80122042141F20F
:102E60005050684401F079F8089828B19DF8241072
:102E70000DF5805080F88715002141F258306844E4
:102E8000FFF71BFA00287CD100BF41F2583068449C
:102E900090F8530198B1002141F25830684480F80D
:102EA0005311B0F95601069041F258306844B0F918
:102EB0005411059100F52C70069A03F04CFA41F27A
:102EC0005830684490F86B0108B3002141F2583043
:102ED000684480F86B110121A0F5F67001F052FCF6
:102EE00041F26C10684401F03CFE80B141F2583070
:102EF000684490F86E01069041F258306844B0F88A
:102F00006C110023059112A8069A01F09FF941F275
:102F10005830684490F85F0128B1002141F25830E0
:102F2000684480F85F1141F25830684490F87701A6
:102F300070B141F25830684490F8781112A80691A7
:102F400001F000FA002141F25830684480F877110E
:102F500041F25830684490F8A70128B1002141F2AD
:102F60005830684480F8A71141F25830684490F80E
:102F70008F0128B1002141F25830684480F88F1148
:102F800000E063E141F25830684490F8B30188B141
:102F9000002141F25830684480F8B3110DF5AF615B
:102FA0000591B0F8B4010690DDE90510A1F8B40070
:102FB00000BF00BF41F25830684490F8BF01E8B349
:102FC000002141F25830684480F8BF11B0F8C001C8
:102FD00010F0010F06D001220A2141F2505068443E
:102FE00000F0BBFF41F258306844B0F8C00110F067
:102FF000020F06D001220B2141F25050684400F02C
:10300000ACFF41F258306844B0F8C00110F0040F32
:1030100006D001220C2141F25050684400F09DFF7F
:1030200041F258306844B0F8C00110F0080F08D0E1
:103030000122132141F25050684400E001E000F009
:103040008CFF41F25830684490F8EB0100287DD0A5
:10305000002141F25830684480F8EB11B0F8EC01DF
:10306000C04380B205900598011105910DF25C6096
:103070000390059804900398818804980140039870
:103080000180039803F037FB00BF41F258306844D9
:10309000B0F8EC0100F001010A460491252106A8D0
:1030A000FDF799FE41F258306844B0F8EC01C0F3E6
:1030B00040010A460491262106A8FDF78CFE41F244
:1030C00058306844B0F8EC01C0F380010A4604911E
:1030D000272106A8FDF77FFE41F258306844B0F87A
:1030E000EC01C0F3C0010A460491282106A8FDF7AF
:1030F00072FE41F258306844B0F8EC01C0F3002190
:103100000A4604911B2106A8FDF765FE41F25830DE
:103110006844B0F8EC01C0F340210A4604911C2138
:1031200006A8FDF758FE41F258306844B0F8EC01AB
:10313000C0F380210A4604911D2106A8FDF74BFE2D
:1031400041F258306844B0F8EC0100E008E0C0F308
:10315000C0210A4604911E2106A8FDF73CFE00BFCF
:1031600041F25830684490F8DF01C0B3002141F2C9
:103170005830684480F8DF110DF67470049000F543
:10318000797090F8E01100F26320CDE9051000E0BD
:1031900088E0059801010391002002900BE0DDE931
:1031A0000201014404980C30425C069902980A54CA
:1031B0000298401C029002981028F0DB00BF41F2F8
:1031C0005830684490F8E0010DF5805181F8BA0557
:1031D00001220F2141F25050684400F0BEFE41F23E
:1031E0005830684490F8CB0128B3002141F25830A0
:1031F000684480F8CB1101E00000C8420DF63C6144
:10320000059190F8CC110691002004900FE00598EC
:1032100000F12601049811F830100698814203D17C
:10322000DDE90401886105E00498411C04910498DB
:103230002028ECDB00BF00210DF58050C0F82816D7
:10324000C0F830160121C0F82C162AE00DF5805187
:10325000D1F82806401CC1F82806B0F5167F20DDFD
:1032600001F55670FFF778F800210DF58050C0F891
:103270002816D0F82C06A0B10DF58050D0F83006F5
:1032800050B9042112A801F05DF80022114641F264
:103290000860684403F05FF801200DF58051C1F823
:1032A000300600BFFFF775BBFFF77CF8032A40F23A
:1032B000308010F0030C00F0158011F8013BBCF1D8
:1032C000020F624498BF11F801CB00F8013B38BFF0
:1032D00011F8013BA2F1040298BF00F801CB38BFFE
:1032E00000F8013B11F0030300F02580083AC0F01C
:1032F000088051F8043B083A51F804CBA0E80810C4
:10330000F5E7121D5CBF51F8043B40F8043BAFF3F6
:103310000080D20724BF11F8013B11F801CB48BF50
:1033200011F8012B24BF00F8013B00F801CB48BF86
:1033300000F8012B704710B5203AC0F00B80B1E8BF
:103340001850203AA0E81850B1E81850A0E81850DA
:10335000BFF4F5AF5FEA027C24BFB1E81850A0E8E3
:10336000185044BF18C918C0BDE810405FEA827CFD
:1033700024BF51F8043B40F8043B08BF7047D20714
:1033800028BF31F8023B48BF11F8012B28BF20F8B5
:10339000023B48BF00F8012B7047704770477047E9
:1033A00070B5064C7C44064D7D4403E02068204403
:1033B0008047241DAC42F9D170BD0000DC610000E3
:1033C000E86100002DE9F04105460F46164633B18D
:1033D00006FB0354A41B2046B847A542FAD1A5F129
:1033E0000800BDE8F0810000004870479C070020FD
:1033F00000487047A007002070B5064600F060F84E
:10340000056806F10B0020F00704B4429CBF0020C1
:1034100070BD2B466A68BAB11068A04210D304F19F
:10342000080188423CBF5068586007D351681019A2
:1034300041601168091B016058601460101D70BD67
:1034400013465268002AE7D12146284600F040F88A
:103450000028DED170BD70B50446051F00F030F8BD
:103460000068002C14BF446870BD002C18BFA54232
:1034700084BF20466468F8D801680A18AA4218BFB9
:10348000456003D12A680546114401602868411946
:10349000A1421CBF6C6070BD61686960216808440E
:1034A000286070BD10B500F063F8BDE8104000F072
:1034B00059B800F075B80000004870476807002050
:1034C000004870477007002070477047704770478A
:1034D00038B504460A4600206946AFF3008000284C
:1034E00008BF38BD02460099204600F092F801203E
:1034F00038BD012000F0CEB8F8B5AFF30080054626
:1035000000200C46102000BF0646A819A0420DD985
:10351000324669460020AFF30080070008BF00F084
:10352000B9F80098A04218BF0546C419FFF7C8FFB4
:1035300005600746F01D20F007004619284600F0F8
:103540000AF8B44208BFF8BDA21B31463868BDE88E
:10355000F84000F05EB800210160C0E9011070473A
:1035600010207047002801D000F028B870470000F4
:1035700010B5002102A000F074F8012010BD000079
:103580005349475056464E3A205075726520766929
:10359000727475616C20666E2063616C6C6564008A
:1035A00010B500F081F8016919B100220261884765
:1035B00001E08068804700F04CF8000001491820C5
:1035C000ABBEFEE7260002007546FFF775FFAE466C
:1035D00005006946534620F00700854618B020B51F
:1035E000FDF7CAFABDE820404FF000064FF0000793
:1035F0004FF000084FF0000B21F00701AC46ACE89B
:10360000C009ACE8C009ACE8C009ACE8C0098D4607
:103610007047034640688C46002818BF814284BF2B
:1036200003464068F8D818681844884207D00CF15F
:10363000030020F00700001D411A521A0146081D20
:103640000A60FFF708BF0446AFF300802046FCF78E
:103650009FFD002000F05AF8FCF78CFD0120FFF7D9
:10366000ADFF70B505460C460A2000E06D1C00F069
:1036700041F835B128780028F8D102E0641C00F048
:1036800039F814B120780028F8D1BDE870400A203C
:1036900000F030B810B500F041F8BDE81040FFF779
:1036A00061BF0000FFF7D5FF70B500F02BF804688C
:1036B0000546A4B92020FFF79FFE040011D00A4957
:1036C00000202C60C4E900010849A160207320613A
:1036D00060610749A06109B100F048F8E061204647
:1036E00070BDFFF7B6FF000000000000A53600081F
:1036F0000000000008B569468DF800000320ABBE4D
:1037000008BD704700487047A407002010B500F0BE
:103710004FF8BDE81040FFF725BF000010B50128A5
:1037200005D0002103A0FFF79CFF012010BD09A1D7
:10373000F8E7000053494752544D454D3A204F7524
:1037400074206F662068656170206D656D6F727999
:10375000000000003A2048656170206D656D6F7251
:103760007920636F727275707465640010B588207B
:10377000FFF742FE002801D00021017010BD802912
:1037800002D808B1017809B100207047012100F882
:10379000081B704718B100F10802914201D00020C7
:1037A0007047002101707047004870476C07002087
:1037B00010B5002102A0FFF754FF012010BD00004A
:1037C000534947414252543A2041626E6F726D61D3
:1037D0006C207465726D696E6174696F6E000000B3
:1037E00010B5012000F002FABDE81040002000F002
:1037F000FDB9000002490844B0F8000C7047000011
:1038000000600040024A1044A0F8001C704700000D
:10381000006000400349C20002D5C1F804047047AB
:1038200048607047000002400029016802D041F062
:10383000010101E021F001010160704702680021EF
:1038400022F001020260016041608160C160304B82
:103850002F49C21A8039984245D018DC2D4BA0EB75
:103860000302984237D00ADC2B4A80182BD0142848
:103870002DD0282826D1486840F4706036E0142AFC
:103880002DD0282A1ED1486840F470002EE0B2F5F1
:103890006C7F32D00ADCB2F5627F29D0B2F5677F47
:1038A00010D1D1F8040440F0F00009E0B2F5717FC6
:1038B00028D0B2F5767F05D1D1F8040440F4702009
:1038C000C1F804047047486840F00F000EE04868F3
:1038D00040F0F0000AE0486840F4704006E04868B4
:1038E00040F4702002E0486840F070604860704723
:1038F000D1F8040440F00F00E2E7D1F8040440F4EA
:103900007060DDE7D1F8040440F47040D8E70000AF
:103910008000024044000240F8FFFDBF70B502681D
:1039200047F6F0739A430E6A8B680C693343D1E90A
:1039300005562C432343CC6933432343D1E909542F
:103940002B43234313430360CA6842600A688260C2
:103950004968C16070BD000010B5837920490268D4
:10396000A3B3D1F800349343C1F80034D1F8042450
:1039700003689A43C1F80424027904680A44D2F81F
:1039800000342343C2F80034D1F8082403689A4372
:10399000C1F80824D1F80C2403689A43C1F80C2418
:1039A0004279102A0AD101F581610A6803681A4335
:1039B0000A604A68006802434A6010BD1144D1F8A9
:1039C000002400680243C1F8002410BDFFE700791D
:1039D0000844D0F800149143C0F80014F5E7000043
:1039E0000000014010B58A0721F003040649120FB8
:1039F00021440F238C6893409C438C608B689040DB
:103A000003438B6010BD000000000140F0B5CB788F
:103A10000022DC0603F00F0301D58C7823430C88C9
:103A20000F2714F0FF0F4FF0010C1CD0D0F80050FE
:103A30000E880CFA02F42640A64210D1960007FA2E
:103A400006FE25EA0E0E03FA06F5CE7845EA0E05C7
:103A5000282E00D14461CE78482E00D10461521C3A
:103A6000082AE5D305600A88FF2A1ED94568002286
:103A700002F108060CFA06F40E882640A64210D180
:103A8000960007FA06FE25EA0E0E03FA06F5CE7832
:103A900045EA0E05282E00D14461CE78482E00D18B
:103AA0000461521C082AE3D34560F0BDF0B5104D07
:103AB0006B68440D260184B2C0F30157B440C0F3D3
:103AC0000342032F06D1686823F0706220F0706013
:103AD000686008E0C00203D503209040834300E003
:103AE000A34343F0706201B122436A60F0BD00005D
:103AF000000001404161704701617047F0B50F233C
:103B0000C27801784FF0E024012742B3D4F80C2D9D
:103B1000467802F4E062C2F5E062120AC2F10405DE
:103B2000D3408278AE401A40324315018A07D20E44
:103B3000954021F003010B19D3F80064FF21914057
:103B40008E430D402E43C3F800640078410900F015
:103B50001F0004EB81018740C1F80071F0BD01F046
:103B60001F008740480904EB8000C0F88071F0BD59
:103B70000249084302490860704700000000FA0546
:103B80000CED00E0024A1140014302480160704719
:103B900080FFFF1F08ED00E0014908627047000048
:103BA00000000E42044A0029516901D0014300E09F
:103BB000814351617047000000100240044A00290F
:103BC000D16901D0014300E08143D1617047000019
:103BD00000100240044A0029916901D0014300E02D
:103BE0008143916170470000001002400149086064
:103BF000704700004004424230B5204A5168204BD3
:103C000011F00C0103D0042901D0082901D0036070
:103C100011E05168022401F4701104EB91415468E1
:103C2000184D14F4803F02D05468A40301D56943B1
:103C300000E0594301605168134B01F0F00109099C
:103C40005C5C0168E1404160546804F4E064240A6B
:103C50001C5D21FA04F48460546804F46054E40A9E
:103C60001B5DD940C1605268074B02F44042920B81
:103C70001B1F9A5CB1FBF2F1016130BD00100240E4
:103C800000127A0000093D008490000803460020DD
:103C90005909094A012901D1116804E0022901D119
:103CA000116A00E0516A03F01F02012393400B42A6
:103CB00000D0012070470000001002400649002299
:103CC0000A7001F82029012802D0042802D1052019
:103CD00081F8200070470000201002400149086070
:103CE000704700003C04424202490A6A02430A62E9
:103CF00070470000001002400248018841F01001A6
:103D000001807047042800400248018821F010011A
:103D1000018070470428004002498888098840EAE9
:103D2000014070471828004000B50246FFF7E4FF45
:103D30000348110C018082805DF804EBFFF7E4BFBB
:103D40001828004000B50246FFF7D6FF0448C2F32A
:103D50000341018082805DF804EBFFF7D5BF0000CE
:103D600008280040034800BFB0F804188906FBD5B6
:103D700070470000002000400648B0F8041821F009
:103D80000801A0F8041800BFB0F804180907FBD513
:103D900070470000002000400029018802D041F057
:103DA000400101E021F04001018070470246128984
:103DB00000200A4200D0012070478089704781812D
:103DC000704770B502880B884E888C88CD88334345
:103DD0002C430E8923434C8933438D892343CC895B
:103DE0002B4302F44152234313430380828B22F47A
:103DF00000628283098A018270BD0029018802D095
:103E000041F0010102E040F2FE32114001807047B2
:103E1000002930F8441F02D041F4004101E0C1F311
:103E20000E01018070470029818902D041F40051C0
:103E300001E021F4005181817047002A828A01D07B
:103E40000A4300E08A438282704710B5C1F34213EF
:103E500001F01F040121A140012B01D10C3004E02D
:103E6000022B01D1103000E01430002A026801D08A
:103E70000A4300E08A43026010BD000030B50446EA
:103E8000008A85B00D464CF6FF710840E988014371
:103E90002182A0894EF6F3110840A9882A8911438E
:103EA0006A8902431143A181A08A4FF6FF4108406D
:103EB000A9890143A1826846FFF79EFE104884420B
:103EC00001D1039800E0029819214843296864222F
:103ED0008900B0FBF1F0B0FBF2F109010B096FF0C2
:103EE00018056B43322500EB830005EB0010B0FB97
:103EF000F2F000F00F000843208105B030BD000053
:103F0000003801400146012070477CB504460D464B
:103F10002A46A11D01A801F0DDF8A0796179884247
:103F200001D000207CBD284603F0FFFA6179884269
:103F300001DA0020F6E72A4604F10801684601F09C
:103F4000E3F8206881682046884710B10120E071BD
:103F500001E00020E071E079E4E710B5012404FA03
:103F600001F32AB1D0F8A8401C43C0F8A84004E0EF
:103F7000D0F8A8409C43C0F8A84010BD00BF0E492F
:103F80000968491C0C4A11600C4909680C4A1268FE
:103F900011440A4A116000BF00BF4168491C4160DA
:103FA000282903DB00214160012100E0002109B143
:103FB00001210170704700001C0000202400002037
:103FC000280000207CB5044600202070201D002120
:103FD00040F8041900BF044625460F4903C9CDE93E
:103FE00000010E48406840B10C48406828B10B4AB7
:103FF00050685268126851688847102003F02CFA04
:1040000006462946DDE9002303F064FE0646034820
:10401000466000BF20467CBD78900008480700201D
:1040200010B504460020234908802348806940F4E5
:1040300000602149886100201E4934390880091D2B
:10404000088001201B490C390880B020091D088018
:10405000002018492C39088016490880091D08805D
:10406000091D0880091D0880602012491C3908803C
:104070000020091D0880091D088004200D493439DD
:1040800008800020091D0880081F008840F00100FA
:10409000091F0880012007492039088001210548AF
:1040A0003438FFF7AAFE012102483438FFF7B0FE8A
:1040B00010BD0000342C01400010024010B5044631
:1040C000606A20B1012806D002280CD107E0204602
:1040D00000F062F908E0204600F0F0F804E0204625
:1040E000FFF79EFF00E000BF00BF10BD10B5044603
:1040F000606A20B1012806D002280CD107E02046D2
:1041000000F00CF808E0204600F05AF804E02046E1
:1041100000F08AF900E000BF00BF10BD10B50446F2
:104120000020254908802548806940F40060234923
:1041300088610020204934390880091D0880012049
:104140001D490C390880B020091D088000201A493B
:104150002C390880184908805820091D0880002043
:10416000091D0880091D08804FF4C04012491C3900
:1041700008800020091D08801020091D08800420E7
:104180000D49343908800020091D0880081F008867
:1041900040F00100091F08800120074920390880EC
:1041A000012105483438FFF728FE01210248343840
:1041B000FFF72EFE10BD0000342C0140001002401D
:1041C0002049C96941F002011E4AD1611E4909888E
:1041D00080F8201000211C4A243A1180121D118001
:1041E0000121194A121D11804D21121D118000213B
:1041F000154A1C3A1180144A10321180121D118088
:10420000121D11802421121D118000210E4A0C3A2A
:1042100011804FF4C041121D11809114121D1180A4
:104220000421094A243A11800021121D1180111F16
:10423000098841F00101121F11800121024A103A40
:104240001180704700100240240400402DE9F04125
:1042500004460D4616461F4684F8297020680169F9
:104260002046884710B12046FFF740FF208BA84228
:1042700017D04DB994F8280078B9012084F82800A7
:104280002046FFF71BFF08E094F8280028B1002023
:1042900084F828002046FFF729FF2583208B064954
:1042A0000880E661206841682046884702F0A8FA45
:1042B0006061BDE8F0810000282C01401F49C969F8
:1042C00041F002011D4AD16100211D4A1180121DD9
:1042D00011801B4A28321180FF21121D11800321F9
:1042E000174A083211800021154A34321180121DFC
:1042F0001180121D1180121D118040F20111104A0F
:10430000183211800021121D1180121D118004210C
:104310000B4A11800021121D1180111F098841F0E4
:104320000101121F11800121054A1432118090F8F9
:104330002010034A24321180704700000010024010
:10434000000400407CB504460D46684602F054FA6D
:1043500004F12C00294682688A4201D8002207E035
:10436000C16000F5D072C36852F8332002600122A8
:104370000AB900207CBD694604F12C0000F036FC2F
:1043800008B90020F6E7BDF8001001232046019A85
:10439000FFF75CFF0120EDE710B504462048806977
:1043A00040F400601E49886100201E490880091DF4
:1043B00008801C492831088040F2FF70091D0880E0
:1043C0000020184908310880164934310880091D39
:1043D0000880091D0880091D0880602011491831D6
:1043E00008800020091D08800120091D0880042084
:1043F0000C4908800020091D0880081F008840F033
:104400000100091F0880012006491431088001219C
:104410000448FFF7F2FC01210248FFF7F9FC10BD48
:1044200000100240002C014010B504460020244931
:1044300008802448806940F4006022498861002097
:104440001F4934390880091D088001201C490C3996
:104450000880B020091D0880002019492C390880E7
:104460005820174908800020091D0880091D088070
:10447000091D0880602012491C3908800020091D90
:1044800008800120091D088004200D493439088066
:104490000020091D0880081F008840F00100091F46
:1044A0000880012006492039088001210448343859
:1044B000FFF7A3FC012102483438FFF7A9FC10BD27
:1044C000342C0140001002407CB504460D462068A3
:1044D000294642692046904710B14FF0FF307CBD1D
:1044E00002F08EF96169411AE06981421FD394F8A4
:1044F0002900C0B1684602F07FF9694604F12C003A
:1045000000F074FB38B1BDF8001001232046019A79
:10451000FFF79CFE06E0002084F8290020688168EF
:104520002046884703E020688168204688470020AD
:10453000D5E710B504462046FFF7C0FD00202072E5
:10454000208310BD70B504460E464FF0FF320021A7
:10455000204600F011FB04461748206004F11800C3
:1045600002F04AF9A0F1180402206062002084F8E9
:10457000280084F8290004F12C0528606860A860F0
:10458000322308220D4905F1100002F091FFA0F13D
:1045900010050A2308220A4905F5D07002F088FFA9
:1045A000A0F5D07500BFA5F12C04C4F81C6220460C
:1045B000FFF7BFFF204670BDE8900008F9670008CC
:1045C000494F000801460120704738B504460D46A2
:1045D0002A46A11D684600F07DFDA07961798842D8
:1045E00001D0002038BD284602F09FFF6179884243
:1045F00001DA0020F6E72A4604F10801684600F0D7
:1046000069FD2A4604F10901684600F063FD20684F
:1046100081682046884710B10120E07101E0002048
:10462000E071E079DEE70246087F5A2801DD0120CB
:104630007047087B08B10120FAE7C87A08B1012069
:10464000F6E7887A08B10120F2E70020F0E72DE9CB
:10465000F05F04460D4616461F46D5E9000100EB03
:104660000109D4F8E000401C322190FBF1F201FB7B
:10467000120804F1180050F828006169081A6061F6
:1046800060694844606104F1180040F82890C4F85B
:10469000E0806169480004F011FB8346216804F062
:1046A0006DFB824604F0EEFA2061606800281DDD93
:1046B0006068401E60600020C4F8E800A068C4F88C
:1046C000E400606840B929462046FFF7ACFF18B106
:1046D000012060600020A0603A463146204600F08C
:1046E00044F808B900206060BDE8F09F3A463146C2
:1046F000204600F03AF868B32069C8282ADD294628
:104700002046FFF790FF28B300BF14206060287B8D
:1047100008B9E87A28B12069C0F1C8008000A0601B
:104720000BE0A87A28B12069C0F1C8004000A06061
:1047300003E02069C0F1C800A060A068002801DD86
:104740000020A06000BF0020C4F8E800A068C4F802
:10475000E40008E0C4F8E870C4F8E4603A46314682
:10476000204600F002F800BFBEE70346002907DD3F
:1047700022B1C82A02DC12F1C80F01DA0120704709
:104780000020FCE770B504460D461DB12068816825
:104790002046884784F8285170BD70B505460C4600
:1047A00000BFE96B0846C91700EB916189112160D0
:1047B00000BFA96B0846C91700EB9161C1F38F11C7
:1047C000E18100BF686C4FF47A7190FBF1F0A07446
:1047D00000BFD5F8C4100846C91700EB91618911D4
:1047E000616000BFD5F8C0100846C91700EB9161A1
:1047F000C1F38F12228200BFD5F8CC004FF47A713A
:1048000090FBF1F0E0740020A07605F1140000F0B8
:10481000EAFCA17E0843A07605F19C0000F0E3FCD1
:1048200008B1022000E00020A17E0843A0760A2102
:10483000A86C90FBF1F084F82800D020405990FB40
:10484000F1F0C1B229200155002070BD2DE9FC47CF
:1048500006460F469046384603F0FFFD214A224B9C
:10486000CDE9000103F060FE044603F0C7FD814678
:10487000404603F0F2FD04461A4A1B4B03F054FE77
:10488000CDE9000103F0BAFD824696F8280108B18F
:10489000BDE8FC8706F1140000F063F958B106F199
:1048A0009C0000F05EF930B1B9F1000F03D1BAF10C
:1048B000000F00D1ECE7494606F1140002F09EF922
:1048C000514606F19C0002F099F906F1140000F03F
:1048D0004FF906F19C0000F04BF90120307200BF47
:1048E000D6E70000C9AC410C32030E402DE9FE4F63
:1048F000064689469246002002905746484603F0F5
:10490000ACFD4A4A4A4BCDE9000103F00DFE0446D6
:1049100003F074FD804696F8280108B1BDE8FE8FCB
:1049200006F1140000F01DF958B106F19C0000F0EA
:1049300018F930B1B9F1000F03D1BAF1000F00D16D
:10494000ECE757B9414606F1140002F057F9414629
:1049500006F19C0002F052F942E0781C01D0012FD0
:104960000DD1784200FB08F106F1140002F046F97F
:1049700007FB08F106F19C0002F040F930E0002F3F
:1049800002DA7F4201200290A7F17B0507F17B0448
:10499000029890B108FB04F090FBF4FB594606F135
:1049A000140002F02BF908FB05F090FBF4FB5946CC
:1049B00006F19C0002F022F911E008FB05F090FBE3
:1049C000F4FB594606F1140002F018F908FB04F054
:1049D00090FBF4FB594606F19C0002F00FF900BF72
:1049E00018F15A0F0BDA57B9012106F1140000F043
:1049F000F1FB012106F19C0000F0ECFB09E0002135
:104A000006F1140000F0E6FB002106F19C0000F026
:104A1000E1FB06F1140000F0ABF806F19C0000F099
:104A2000A7F80120307200BF78E70000C9AC410C44
:104A300032030E4070B504460D46294604F11400B9
:104A400000F0D8FB294604F19C0000F0D3FB00BF26
:104A5000207F18B900BF94F8A40028B1D4F824012D
:104A60000268D168884706E0D4F82401026891689A
:104A7000884700202072002070BD10B5044604F164
:104A8000140000F05FFC04F19C0000F05BFC10BD22
:104A9000F0B585B004460E4617461D464FF0FF326E
:104AA0000021204600F068F80446174820600520E1
:104AB000012100220E23CDE90132CDE90310134874
:104AC00033462A460021009004F1140000F04EFC09
:104AD000A0F11404052001210E23CDE90131CDE917
:104AE00003100A483B462A46009004F19C0000F05F
:104AF0003DFCA0F19C04C4F82451002084F8280156
:104B0000204605B0F0BD00001C910008187301009C
:104B1000034B0360017142710023C37170470000B1
:104B20003C91000870B504460D4620680169204696
:104B3000884748B1E068002801DA002000E0E0681A
:104B400020614FF0FF3070BD2069401C2061E1689A
:104B5000884202DA6FF00100F5E70020206100BF13
:104B6000F1E70146087A08B9012070470020FCE708
:104B70000121017270470000034B03604160002374
:104B80000372C2600261704750910008704710B50F
:104B9000034698680A2801DB002010BD88183228D7
:104BA00001DB0020F9E703F5D0709C6840F8341071
:104BB0009C6800EBC40042609868401C986001202B
:104BC000EBE730B503465868322801DB002030BDE2
:104BD00003F110005D6820F835105C6800EBC4003C
:104BE00042605868401C58600120F0E730B502462A
:104BF000D068002801DA002030BD02F5D074D568F5
:104C000004EBC5001368D0E900452C449C4201DC4C
:104C1000012400E0002424B14FF0FF30D0600020D8
:104C2000EAE71368581C106002F1100000EBC303A0
:104C300009CBC1E900030120DEE7F8B504460E46C2
:104C400005216846FCF72EF80546294604F1300098
:104C500002F006FF207504216846FCF723F805469C
:104C6000294604F1180002F0FBFE60750321684636
:104C7000FCF718F80546294604F1240002F0F0FE7E
:104C8000A0750020F8BD2DE9F04107460D461646F7
:104C900005EB850107F13C0000EBC104983050F8AA
:104CA00025100E30FBF7E0FF80462268501C206084
:104CB000201D40F822802068092801DB00202060A8
:104CC0000021002008E0221D52F820208A4202DD47
:104CD000221D52F82010401C0928F4DB00BF06F109
:104CE000800020F8151030F81500B0F5167F04DAB2
:104CF000307B0121A94008433073BDE8F08130B515
:104D0000002502F11B04655430BD7CB505460C46F8
:104D10000020A0720C216846FBF7C4FFA17A08436B
:104D2000A0720B216846FBF7BDFF08B1022000E02E
:104D30000020A17A0843A0720A216846FBF7B2FF5F
:104D400008B1042000E00020A17A0843A0720020EE
:104D5000E07202216846FBF7A5FFE17A0843E072A2
:104D600001216846FBF79EFF08B1022000E0002009
:104D7000E17A0843E072002084F82E0000BF01238E
:104D8000224600212846FFF7BAFF002322460121D0
:104D90002846FFF7B4FF0123224602212846FFF7E9
:104DA000AEFF00202073224600212846FFF76BFF4C
:104DB000224601212846FFF766FF224602212846A7
:104DC000FFF761FF00BF052101A8FBF74DFFA4F825
:104DD0008A00062101A8FBF747FF81B28C2001530E
:104DE000072101A8FBF740FF81B28E200153092162
:104DF00001A8FBF739FF81B2902001530C2101A8D3
:104E0000FBF732FF81B2922001530021942001531D
:104E100096200153002024F8980F1F216846FBF7C5
:104E200041FF2188084324F8980920216846FBF7B0
:104E300039FF08B1022000E00020B4F898100843C0
:104E4000A4F8980021216846FBF72CFF08B1042044
:104E500000E00020B4F898100843A4F8980022213C
:104E60006846FBF71FFF08B1082000E00020B4F8F7
:104E700098100843A4F8980023216846FBF712FF16
:104E800008B1102000E0002034F8981F084320806B
:104E9000208824F8980924216846FBF703FF08B10D
:104EA000402000E00020B4F898100843A4F89800CF
:104EB0007CBD000010B504464FF0FF3200212046B3
:104EC000FFF75AFE04461E4820600122022104F129
:104ED000140002F0D7FDA0F114040122022104F114
:104EE000200002F0CFFDA0F120040122022104F1F4
:104EF0002C0002F0C7FDA0F12C040A20A0630323BC
:104F00002822104904F13C0002F0D2FAA0F13C043E
:104F10000020A4F8B40004F1E00000BFA0F1E00418
:104F200004F1E10000BFA0F1E1040320C4F8D400C3
:104F30000421D82001510221DC200151204610BD5E
:104F4000909100082D7E000870472DE9FC41044631
:104F50000D4617461E463846216909B920610AE008
:104F60005A222169514300EB800201EB4201642285
:104F700091FBF2F1216100BF6068401C6060A16894
:104F8000884209DD607890F0010001D0012000E046
:104F90000020607000206060207830B1012833D09C
:104FA000022862D003282ED174E043F22C3120690C
:104FB000884202DA3220A06001E06420A060E87D2F
:104FC00030B1E068401CE060962801DD01202070CF
:104FD00043F2BC41206988420ADD0022192168465B
:104FE000FBF7F9FE01221A216846FBF7F4FE0AE0FE
:104FF000012219216846FBF7EEFE01221A216846BC
:10500000FBF7E9FE00BF62E0E87D38B9E068401ECA
:10501000E06010F1960F01DA00202070E87D00F0CA
:10502000060002280DD1207001221A216846FBF7E4
:10503000D2FE002219216846FBF7CDFE0020A070A9
:1050400045E0607828B101221A216846FBF7C3FECB
:105050000AE0002219216846FBF7BDFE00221A2152
:105060006846FBF7B8FE00BF31E0E87D38B9E0687C
:10507000401EE06010F1960F01DA0020207001223E
:105080001A2101A8FBF7A7FE0022192101A8FBF7AE
:10509000A2FE1CE03220A060607828B10122192114
:1050A0006846FBF798FE0AE0002219216846FBF7E4
:1050B00092FE00221A216846FBF78DFE00BF2EB13A
:1050C000E87D08B1012000E00020207000BF00BF93
:1050D000BDE8FC8170B506460C461546284602F030
:1050E00046FA207070BD70B506460C461546284637
:1050F00002F03DFA2080284602F039FA218841EA80
:10510000002000B2208070BD70B506460C461546E2
:10511000284602F02CFA2080284602F028FA21883E
:1051200041EA0020208070BD01460120704738B55B
:1051300004460D462A46A11D6846FFF7CBFFA0791D
:105140006179884201D0002038BD284602F0EDF98F
:105150006179884201DA0020F6E72A4604F1080165
:105160006846FFF7B7FF206881682046884710B17E
:105170000120E07101E00020E071E079E4E7014600
:10518000012070477CB504460D462A46A11D01A8A2
:10519000FFF7A0FFA0796179884201D000207CBD93
:1051A000284602F0C2F96179884201DA0020F6E768
:1051B0002A4604F108016846FFF7A6FF20688168C7
:1051C0002046884710B10120E07101E00020E07125
:1051D000E079E4E770B504460D46A06E01688A6880
:1051E0002946904770BD10B50446A06E0268D1688C
:1051F000884710BDF8B504460E46206881692046F0
:1052000088472068002142692046904778B10020F5
:10521000A56E0090286803686A46211D28469847B5
:10522000A06E0268516888474FF0FF30F8BD206AD1
:1052300008B9012000E00020014604F17C0002F0E2
:105240000FFC50B120688168204688470020206309
:10525000204601F0B5FC0020E8E7A06E016804F1EB
:1052600028020B6804F1200198472063204601F0D2
:10527000A7FC0020DAE700002DE9FF478046002068
:105280000390D8F80410D8F81400026802AB146830
:1052900003AAA047029803F0E0F80446264A274BE9
:1052A00003F042F906460F46D8F8340003F0D5F86B
:1052B0000446214A224B03F037F9814632463B46E9
:1052C00002F090FECDE9000103F098F8C8F8340030
:1052D00098F86C0010B1039840420390D8F82C0065
:1052E0000399081AC8F82800D8F87810D8F82800C8
:1052F000884208DDD8F874004042D8F828100844E5
:10530000C8F828000EE0D8F87800401C4042D8F8D1
:105310002810814206DAD8F82810D8F8740008441A
:10532000C8F82800D8E909010844C8F824000398FF
:10533000C8F82C00BDE8FF879A9999999999C93FB7
:105340009999E93F38B5044600202072A06E0268A2
:10535000516888470020A56E0090286803686A4657
:10536000211D284698470020206238BD2DE9F84FBE
:1053700004460F4693461D460BAE96E84007CDF80F
:1053800000905A46394620460A9B01F039FC0446F3
:105390001748206004F16400002140F8641900BF40
:1053A0000446A56684F86C80C4F870A00120B04063
:1053B0006067701E01218140A1670122642104F110
:1053C0007C0002F048FBA0F17C046168606902681F
:1053D00004F13403D2F800C004F12C02E0470020AD
:1053E000A0622046FFF748FF2046BDE8F88F000086
:1053F000F89100080146087A642805DC487A642898
:1054000002DC887A642801DD002070470120FCE777
:1054100038B504460D462A46A11D6846FFF75AFED8
:10542000A0796179884201D0002038BD284602F079
:105430007CF86179884201DA0020F6E72A4604F117
:1054400008016846FFF746FE2A4604F1090168464E
:10545000FFF740FE2A4604F10A016846FFF73AFECC
:10546000206881682046884710B10120E07101E082
:105470000020E071E079D8E701460120704738B597
:1054800004460D462A46A11D6846FFF723FEA07973
:105490006179884201D0002038BD284602F045F8E5
:1054A0006179884201DA0020F6E72A4604F1080112
:1054B0006846FFF70FFE206881682046884710B1D4
:1054C0000120E07101E00020E071E079E4E70146AD
:1054D000012070477CB504460D462A46A11D01A84F
:1054E000FFF7F8FDA0796179884201D000207CBDEA
:1054F000284602F01AF86179884201DA0020F6E7BE
:105500002A4604F108016846FFF7FEFD206881681D
:105510002046884710B10120E07101E00020E071D1
:10552000E079E4E70146087A642801DD002070474D
:105530000120FCE738B504460D462A46A11D684601
:10554000FFF7C8FDA0796179884201D0002038BDFD
:10555000284601F0EAFF6179884201DA0020F6E787
:105560002A4604F108016846FFF7B4FD2068816807
:105570002046884710B10120E07101E00020E07171
:10558000E079E4E7C2690261026A4261704701465C
:10559000486AB0F5487F01DD012070470020FCE734
:1055A000C16270470021C1608161416270470000A3
:1055B00030B50D4C046000BF0C4C04600C684460B6
:1055C0000C68E51704EB5575ED1085600024C46088
:1055D0000261436184610469C4614469046243F205
:1055E000B0648462C46230BDD09000087892000834
:1055F000F0B503460C469D69002026681768F11B2C
:10560000D3E90267CF1B7E435F6807FB01669F6992
:105610003E449E61D9601F699E69BE4205DD1E69D8
:105620009E615E6A0A365E6211E01F697F429E6972
:10563000BE4206DA1E6976429E615E6A0A365E6284
:1056400005E05E6A002E02DD5E6A761E5E629E697D
:10565000002E01DD5E6901E05E6976429F69F01906
:10566000D3E90A76BE4204DD9E6A4643DF6A96FBB2
:10567000F7F0F0BD70470021C1828182C162816272
:10568000416202210170704738B5044600BF207A9C
:1056900000B112E0E068B0F5167F0DDAE068401C5A
:1056A000E0606068807D012806D12169481C206186
:1056B000642901DD0120207200BF207A20B96068D2
:1056C000807D84F8210038BDA069401CA061A069DC
:1056D000642805DA01221D216846FBF77CFB15E0F2
:1056E000A069C82805DA01221E216846FBF773FB72
:1056F0000CE00020A06100221D216846FBF76BFB37
:1057000000221E216846FBF766FB00BF94F82100CB
:1057100010F0010F0CD06068807D48B994F820002B
:1057200090F0010001D0012000E0002084F820006A
:1057300094F8200028B90020E0612046FFF79BFF85
:1057400014E0E069401CE0610B49E069884203DA3B
:10575000204600F015F809E00849E069884203DABC
:105760002046FFF788FF01E00020E0616068807D4F
:1057700084F8210000BFA6E780FC0A00A0BB0D0052
:10578000C16A491CC1620178012957D0022902D09F
:1057900003296FD17FE0818A891C09B28182C18A85
:1057A000891C09B2C1824168897A002945D06422E6
:1057B0008262032202700022C2828282426290F8D8
:1057C000302092F0010201D0012200E0002280F896
:1057D00030200022C2624268927A02F00702012A57
:1057E00006D0032A07D0042A0DD0062A16D10DE0D0
:1057F0007822426200E000BF426A783242620122AF
:1058000080F830200EE07822426200E000BF426A59
:1058100078324262002280F8302003E04FF4AA720E
:10582000426200BF00BF3B4A1288D1B24023C3EBA3
:105830006103426A1A44426200BF47E0B0F91410A3
:10584000FA291DDAB0F9141011F1FA0F18DDB0F9C8
:10585000141090F8302012B16FF0030200E004221F
:10586000114409B28182B0F9161090F8302012B1BB
:10587000042202E027E06FF00302114409B2C18262
:10588000426AC16A914205DD0021C162C182818202
:10589000022101701AE0B0F9141011F1960F07DD22
:1058A000818A891E09B28182C18A891E09B2C18298
:1058B000D0E90A21914205DD0021C162C1828182C5
:1058C0000121017002E00221017000BF00BFB0F9A8
:1058D0001410B1F5C87F03DD4FF4C871818207E071
:1058E000B0F9141011F5C87F02DA4FF670618182A9
:1058F000B0F91610B1F5C87F03DD4FF4C871C1824D
:1059000007E0B0F9161011F5C87F02DA4FF67061A2
:10591000C1827047240800402DE9FC4105460E462F
:105920002648006810F0010F10D1244801F0F2FD64
:1059300060B1234C002020606060009069462046E2
:1059400002F0AAF800BF1D48AFF30080304603F014
:10595000B5F9019001A905F2646002F0B5FA80463C
:10596000184903F00BFA044603F08CF90746164871
:10597000007858B1002014490870384603F09EF9A9
:10598000009069460E4802F087F800BF384603F0E1
:1059900095F9019001A90A4802F098F800BF08495A
:1059A00048680A4903F078F80446094903F0E6F923
:1059B0004FF4CC614851BDE8FC8100003800002064
:1059C000C80700200000C842340000200000204129
:1059D0000AD7233C2DE9F04F8FB006464FF0000A5E
:1059E00000200E90D6F85882C6F81C030EAB424633
:1059F00006F5C871304602F046F90DAC454602275F
:105A00000E9841193A462046FDF750FC0E9838444E
:105A10000E9000BFBDF8340003F068F9C6F8940199
:105A20008949D6F8940103F07CFA06D28749D6F862
:105A3000940103F0A3F9C6F894014FF4CC60D6F8B2
:105A400094118151002409E006F5CC7000EB84012B
:105A50000EAB4246304602F016F9641C182CF3DBFC
:105A6000002409E006F5FC7000EB84010EAB424611
:105A7000304602F008F9641C182CF3DB7449D6F8A0
:105A80009001884204D0002086F888014FF0010A76
:105A90000020C6F82803002789E006F5CC7151F8EC
:105AA000270003F00BF9099002F05CFF0022694B1C
:105AB000CDE90A0102F04AFB044602F061FA83468E
:105AC00006F5FC7151F8270003F0F8F8099002F090
:105AD00049FF04460022604B02F038FBCDE90A0181
