:020000040800F2
:10000000B08A0020750B0008990B00089B0B0008B4
:100010009F0B0008A30B0008A70B000800000000BE
:10002000000000000000000000000000AD0B000810
:10003000AB0B000800000000AF0B0008791E0008A1
:10004000B10B0008B30B0008B50B00081B0C00082F
:10005000B70B0008B90B0008BB0B0008BD0B00086C
:10006000BF0B0008C10B0008711D0008C30B00087E
:10007000C50B0008C70B0008C90B0008CB0B000814
:10008000CD0B0008CF0B0008D10B0008D30B0008E4
:10009000D50B0008D70B0008D90B0008A71D0008D6
:1000A000DB0B0008DD0B0008DF0B0008E10B00088C
:1000B000E30B0008E50B0008E70B0008E90B00085C
:1000C000EB0B0008ED0B0008EF0B0008F10B00082C
:1000D000F30B0008D716000861170008EB1700089B
:1000E000851C0008F50B00085F0C000800F002F802
:1000F00000F045F80AA090E8000C82448344AAF17D
:100100000107DA4501D100F03AF8AFF2090EBAE87A
:100110000F0013F0010F18BFFB1A43F0010318473B
:10012000C4950000E4950000103A24BF78C878C157
:10013000FAD8520724BF30C830C144BF04680C60ED
:10014000704700000023002400250026103A28BF35
:1001500078C1FBD8520728BF30C148BF0B60704739
:100160001FB508F08EFF9DE8030003F003FA03F0CB
:1001700055F91FBD10B5002007F067FA10BD03F058
:1001800061FA1146FFF7ECFF03F0B3F803F099FAB8
:1001900003B4FFF7EFFF03BC03F04EFA08B50021EC
:1001A0004FF0006003F02CFD25208DF800000120A9
:1001B0008DF8010005208DF8020001208DF8030064
:1001C000684603F0D9FC26208DF8000001208DF848
:1001D000010005208DF8020001208DF8030068461B
:1001E00003F0CAFC27208DF8000001208DF80100E3
:1001F00005208DF8020001208DF80300684603F009
:10020000BBFC4FF4C06003F0F1FC28208DF8000027
:1002100001208DF8010007208DF8020001208DF8E3
:100220000300684603F0A8FC08BD0020FE49C86032
:1002300008611420486100208861C8610846006890
:1002400040F00100086008464068F8490840F64957
:10025000486008460068F6490840F34908600846C7
:10026000006820F4802008600846406820F4FE0002
:10027000486000208860704710B500BFEA480068F9
:1002800010F0020FFAD03020EA49086008460068F2
:1002900040F0020008600846006840F01000086066
:1002A0000020E149486008464068486008464068C8
:1002B00048600846406840F48060486008464068EE
:1002C00040F4004048600846406840F460104860D0
:1002D0000846006840F08070086000BFD24800689F
:1002E00010F0007FFAD0D048406840F00200CE49BC
:1002F000486000BFCC48406800F00C000828F9D1E5
:10030000C948C06940F00060C749C8610846C06973
:1003100040F08050C8610846806940F00100886163
:100320000121084603F07CFC0121C80303F084FC92
:10033000012144F60C0003F08BFC10BD41F63F7028
:100340004FF0E021486106200861002088610846DE
:10035000006940F001000861704710B5042003F007
:1003600087FAA0F52541A53903D103F043FD03F039
:1003700037FD10BD10B5AC48806940F40060AA4953
:1003800088610020AC490880091D0880AA492831ED
:10039000088040F2FF70091D08800020A64908313E
:1003A0000880A54934310880091D0880091D08808E
:1003B000091D08806020A049183108800020091D0F
:1003C0000880091D088004209B4908800020091D21
:1003D0000880081F008840F00100091F08800121E3
:1003E000954803F048FD0121934803F04FFD8E48E6
:1003F000C06940F001008C49C8610846806940F03E
:10040000010088618D48406840F400708B49486065
:100410008548806940F00400834988610846806906
:1004200040F00800886100208904088088800885E1
:1004300040F2FF3088850020088140F2FF30888636
:100440000020088788877E49088046F270004FF0B8
:10045000804108834FF0000088834FF0110008842A
:100460004FF0040008804FF00000888008460088A4
:1004700040F0010008806C48C06940F002006A4901
:10048000C8610846806940F0010088616B48406897
:1004900040F44060694948606348806940F010005A
:1004A000614988614FF000006649088001F104014C
:1004B0000880654908804FF0FF0001F104010880C1
:1004C0004FF00300614908804FF000006049088048
:1004D00001F10401088001F10401088001F1040127
:1004E000088040F201105B4908804FF0000001F1E4
:1004F0000401088001F1040108804FF00400514913
:1005000008804FF0000001F1040108804D48008888
:1005100040F001004B4908804348C06940F00400A6
:100520004149C8610846806940F00100886143483C
:10053000406840F48050414948603B48806940F041
:100540001000394988614FF000004349088001F1EB
:1005500004010880414908804FF0FF0001F10401C7
:1005600008804FF003003E4908804FF000003D49ED
:10057000088001F10401088001F10401088001F103
:100580000401088040F20110374908804FF0000054
:1005900001F10401088001F1040108804FF004001A
:1005A0002D4908804FF0000001F1040108802A481D
:1005B000008840F001002849088010BD1CB50F21BB
:1005C000032003F04DFA4FF40040009000208DF816
:1005D00004000C208DF8050001208DF80600684607
:1005E00003F0F8F90E21032003F03AFA4FF48040AB
:1005F000009000208DF804000C208DF805000120EB
:100600008DF80600684603F0E5F90C21022003F09E
:1006100027FA4FF48050009000208DF804000C2041
:100620008DF80500012021E0001002400000FFF8D5
:10063000FFFFF6FE00200240002C014000000140B8
:10064000400000400004004028040040080400402E
:10065000340400401804004000080040280800400E
:100660000808004034080040180800408DF80600D3
:10067000684603F0AFF91CBDFE48806940F00400F5
:10068000FC498861BB20FC490860FC48091D0860E2
:10069000F848806940F00800F6498861F848F9494F
:1006A0000860F948091D0860F248806940F01000B0
:1006B000F0498861F548F6490860F6484860ED4819
:1006C000806940F02000EB498861F348F3490860F5
:1006D000F348091D0860E748806940F04000E5499B
:1006E0008861F048F0490860F048091D08607047CB
:1006F00008B50121480503F09FFA0121022003F00B
:1007000013FA4FF44070ADF8000003208DF802009A
:100710001C208DF803006946DA4803F0B5F908BDDE
:1007200010B5E34803F0C8F8E148283003F0C4F8F6
:10073000DF48643003F0C0F810BD1FB50121880305
:1007400003F086FA4FF4E13000900020ADF8040089
:10075000ADF80600ADF80800ADF80C000C20ADF8BF
:100760000A006946D34803F0C7FB012240F2255135
:10077000D04803F0A8FB0121CE4803F092FB0121F1
:10078000480403F059FA0121082003F0CDF94FF491
:10079000E13000900020ADF80400ADF80600ADF89F
:1007A0000800ADF80C000C20ADF80A006946C248FC
:1007B00003F0A2FB012240F22551BF4803F083FB66
:1007C0000121BD4803F06DFB0121880403F034FAD8
:1007D0000121BA4803F0A8F94FF4E130009000205D
:1007E000ADF80400ADF80600ADF80800ADF80C0057
:1007F0000C20ADF80A006946B14803F07DFB0122E8
:1008000040F22551AE4803F05EFB9A48C06940F4BF
:1008100080209849C8610121A94803F042FB1FBD0F
:100820009448806940F40070924988610846806964
:1008300040F0040088610846806940F00800886143
:100840000846806940F01000886100209D490860DA
:10085000091D0860081D006840F00500091D0860BA
:100860000846006840F0280008600846006840F428
:10087000A07008600846006840F4206008600846E0
:10088000006840F4A04008600846006840F420304A
:100890000860081D006840F00500091D0860084652
:1008A000006840F0280008600846006840F4A07026
:1008B00008600846006840F4206008600846006848
:1008C00040F4A04008600846006840F4203008600A
:1008D0000846006840F4A01008600846006840F42C
:1008E000200008600846006840F0A06008600846E4
:1008F000006840F0205008600020724928310860EC
:10090000091D0860091D08606E48001D006840F060
:1009100001006C49091D08600846006840F00800A5
:10092000086000BF6748001D006810F0080FF9D18B
:100930006448001D006840F004006249091D086019
:1009400000BF6048001D006810F0040FF9D1704727
:100950001CB5684600BFFFF768FCFFF78DFCFFF78A
:100960001DFC45481030006840F480704249103149
:100970000860081D006840F48070091D08603D484B
:10098000806940F004003B4988610846806940F076
:10099000080088610846806940F0100088610846B8
:1009A000806940F0200088610846806940F040007E
:1009B000886100220D2101A800F00DFA00222921F2
:1009C00001A800F008FA00222A2101A800F003FA89
:1009D00000222B2101A800F0FEF900222C2101A801
:1009E00000F0F9F900220F2101A800F0F4F900222B
:1009F000192101A800F0EFF900221A2101A800F046
:100A0000EAF900221B2101A800F0E5F900221C21CF
:100A100001A800F0E0F900221D2101A800F0DBF997
:100A200000221E2101A800F0D6F9FFF725FE0122C1
:100A30000D2101A800F0CFF92349684607F0E3F83B
:100A40000022192101A800F0C6F900221A2101A8EC
:100A500000F0C1F900221B2101A800F0BCF900221E
:100A60001C2101A800F0B7F900221D2101A800F007
:100A7000B2F92BE00010024000080140BB8448445A
:100A800000343400000C0140B033443340030044D0
:100A900000100140334B04343344B444001401408B
:100AA0004344444433443433001801404333333324
:100AB0001C000240003801400044004010001400B7
:100AC000004800400424014000350C0000221E2193
:100AD00001A800F080F90122292101A800F07BF98A
:100AE0002249684607F08FF801222A2101A800F068
:100AF00072F91E49684607F086F801222B2101A8E9
:100B000000F069F91949684607F07DF801222C21A7
:100B100001A800F060F91549684607F074F8012251
:100B2000142101A800F057F9FFF717FCFFF722FC8A
:100B3000FFF7F6FDFFF701FEFFF740FDFFF770FE40
:100B4000FFF7FCFBFFF7D4FD0022142101A800F001
:100B500042F90748006840F400500549086008461B
:100B6000006840F4804008601CBD000000350C00A7
:100B7000101801400348004703480449044A054B44
:100B800070470000ED000008B00A0020B08A002085
:100B9000B05A0020B05A0020704700BFFEE700BFE7
:100BA000FEE700BFFEE700BFFEE7704770477047F3
:100BB000704770477047704770477047704770477D
:100BC000704770477047704770477047704770476D
:100BD000704770477047704770477047704770475D
:100BE000704770477047704770477047704770474D
:100BF000704770471A48006840F400301849086090
:100C00001848008820F008001649088000BF1548E1
:100C1000008810F0080FFAD070471248008810F0D2
:100C2000040F05D00F48008820F004000D4908800B
:100C30000C48008810F0020F05D00A48008820F008
:100C40000200084908800748008810F0010F05D00D
:100C50000448008820F0010002490880704770476E
:100C6000140401400428004010B5024600200C4B3B
:100C700019600B4B2C3B1B6843F00103084C2C3CC8
:100C8000236000BF064B343B1B6813F0020FF9D002
:100C9000034B183318680023014C343C236010BD0B
:100CA0003424014010B502460020252972D2DFE825
:100CB00001F08E13191F252B8E8E31363B41474D87
:100CC0008E5266575C618E8E8E8E6C8E8E8E8E8E60
:100CD0008E72777C81868800F84B1B68012424EA99
:100CE000D32076E0F54B1B68012424EA133070E032
:100CF000F34B1B68012424EA13306AE0F04B1B68B5
:100D0000012424EA533064E0EE4B1B68012424EAFA
:100D100053205EE0EC4B1B6803F0010059E0EA4B06
:100D20001B68C3F3400054E0E74B1B68012424EA2E
:100D300093004EE0E44B1B68012424EAD30048E012
:100D4000E14B1B68012424EA131042E0DE4B1B68D0
:100D5000C3F340103DE0DC4B1B68C3F3C03038E008
:100D6000D84B1B68C3F3C01033E0D64B1B68C3F3EA
:100D700080202EE0D34B1B68C3F3C02029E0D24B68
:100D80001B68012424EA532023E0CC4B1B68C3F3E7
:100D900000201EE01BE0CB4B1B68C3F3800018E073
:100DA000C84B1B68C3F3C00013E0C64B1B68C3F3FA
:100DB00000100EE0C54B9B68C3F3803009E00020B3
:100DC00007E0C24B9B68012424EA530001E00020A5
:100DD00000BF00BF10BD10B52D2973D2DFE801F0B0
:100DE00017727272727272722A3D72727250D2F2FD
:100DF00072727272F0EFACBF72EEEDECEBEAE97278
:100E00007272727272E8E7E6E5637386990042B126
:100E1000AA4B08331B6843F48073A84C0834236042
:100E200007E0A64B0C331B6843F48073A34C0C34CF
:100E30002360B5E142B1A44B08331B6843F00103C2
:100E4000A14C0834236007E09F4B0C331B6843F030
:100E500001039D4C0C342360A2E142B19A4B08334C
:100E60001B6843F00203984C0834236007E0964B5C
:100E70000C331B6843F00203934C0C3423608FE166
:100E800042B1914B08331B6843F020038E4C083469
:100E9000236007E08C4B0C331B6843F020038A4C23
:100EA0000C3423607CE132B1884B1B6943F00403AE
:100EB000864C236105E0854B5B6943F00403834C5A
:100EC00063616DE16BE142B17E4B08331B6843F413
:100ED00080737C4C0834236007E07A4B0C331B682A
:100EE00043F48073774C0C34236059E142B1764B64
:100EF00008331B6843F04003734C0834236007E059
:100F0000714B0C331B6843F040036F4C0C3423606F
:100F100046E142B16C4B08331B6843F080036A4CD6
:100F20000834236007E0684B0C331B6843F08003F0
:100F3000654C0C34236033E142B1634B08331B68CA
:100F400043F40053604C0834236007E05E4B0C33DD
:100F50001B6843F400535C4C0C34236020E142B125
:100F6000594B08331B6843F48043574C08342360C3
:100F700007E0554B0C331B6843F48043524C0C3450
:100F800023600DE142B14D4B08331B6843F400432D
:100F90004A4C0834236007E0484B0C331B6843F489
:100FA0000043464C0C342360FAE0E9E0D7E0C5E0AA
:100FB000B3E0A3E093E077E063E04FE03BE027E0BD
:100FC00013E0FFE742B1404B08331B6843F4004392
:100FD0003D4C0834236007E03B4B0C331B6843F463
:100FE0000043394C0C342360DAE042B1364B0C3309
:100FF0001B6843F48073344C0C34236007E0324B9D
:1010000008331B6843F480732F4C08342360C7E017
:1010100042B12A4B08331B6843F40073274C083451
:10102000236007E0254B0C331B6843F40073234C0B
:101030000C342360B4E042B9214B08331B6843F4FD
:1010400080631F4C0834236007E01D4B0C331B6882
:1010500043F480631A4C0C342360A1E042B9184B6E
:1010600008331B6843F40063154C0834236007E021
:10107000134B0C331B6843F40063114C0C34236096
:101080008EE042B90E4B08331B6843F480430C4C8E
:101090000834236007E00A4B0C331B6843F4804399
:1010A000074C0C3423607BE092B9054B08331B6876
:1010B00043F40043024C083423600FE00808014069
:1010C000080C0140081401400818014000100140BC
:1010D000344B1B6843F40043324C236060E032B968
:1010E000314B1B6943F480732F4C236105E02E4B79
:1010F0005B6943F480732C4C636151E032B92A4B35
:101100001B6943F40073284C236105E0264B5B699F
:1011100043F40073244C636142E032B1234B1B68FB
:1011200043F48063214C236007E0204B1B1D1B68A8
:1011300043F480631D4C241D236031E032B11B4B0E
:101140001B6843F40063194C236007E0174B1B1D19
:101150001B6843F40063154C241D236020E032B16A
:10116000124B1B6843F48053104C236007E00F4B75
:101170001B1D1B6843F480530C4C241D23600FE09F
:1011800032B1094B1B6943F40043074C236105E06E
:10119000054B5B6943F40043034C636100E000BF0F
:1011A00000BF10BD140C0140001001401018014098
:1011B00020B1012816D002283CD127E059B1FB4AC2
:1011C000128842F08002F94B1A801A46128842F0C7
:1011D00008021A8005E0F54A128822F08002F34BDB
:1011E0001A8028E059B1F24A128842F08002F04B8E
:1011F0001A801A46128842F008021A8005E0EC4A6A
:10120000128822F08002EA4B1A8014E059B1E94AB0
:10121000128842F08002E74B1A801A46128842F088
:1012200008021A8005E0E34A128822F08002E14BAE
:101230001A8000E000BF00BF704720B1012816D01F
:1012400002283CD127E059B1D84A128842F0200246
:10125000D64B1A801A46128842F004021A8005E022
:10126000D24A128822F02002D04B1A8028E059B1CD
:10127000CF4A128842F02002CD4B1A801A461288BB
:1012800042F004021A8005E0C94A128822F02002C6
:10129000C74B1A8014E059B1C64A128842F02002A6
:1012A000C44B1A801A46128842F004021A8005E0E4
:1012B000C04A128822F02002BE4B1A8000E000BF14
:1012C00000BF70472DE9F04180460E4617460024C6
:1012D000002500214046FFF7B0FFB8F1000F06D00F
:1012E000B8F1010F1BD0B8F1020F46D12EE0B24881
:1012F00006F046FA0546FF2D05D9AF4806F05AFA22
:101300000020BDE8F081002404E0AB4806F058FA64
:101310003055641CAC4201D2BC42F6DB2EE0A7483B
:1013200006F02EFA0546FF2D04D9A44806F042FA2D
:101330000020E6E7002404E0A04806F041FA30551A
:10134000641CAC4201D2BC42F6DB17E09C4806F0BC
:1013500017FA0546FF2D04D9994806F02BFA00200C
:10136000CFE7002404E0964806F02AFA3055641CC2
:10137000AC4201D2BC42F6DB00E000BF00BF01215D
:101380004046FFF75AFF2046BBE770B505460E46BC
:10139000022D01D9002070BD05EB450000EBC50012
:1013A000884901EB80041020A060E66000202061E5
:1013B000802060610020A061E06120624FF4405015
:1013C00060620020A06225B1012D23D0022D68D1DA
:1013D00044E000217C4802F065FA7C486060734874
:1013E000083820602146784802F0D6FA4FF40050C1
:1013F00002F04EFA012280216C480C3802F05BFDAD
:101400000121714802F04EFA012168480C3802F0BF
:1014100048FD46E000216C483C3002F043FA6C483D
:101420006060634808382060214667483C3002F01D
:10143000B3FA4FF0007002F02BFA012280215C48D1
:101440000C3802F038FD01215F483C3002F02AFAE6
:10145000012157480C3802F024FD22E000215A48AF
:10146000283802F01FFA5B48606052480838206054
:1014700021465548283802F08FFA202002F008FA59
:10148000012280214B480C3802F015FD01214E4805
:10149000283802F007FA012146480C3802F001FD15
:1014A00000BF00BF012076E72DE9F04106460D465A
:1014B000144626B1012E1CD0022E50D134E000205B
:1014C000454908604549086000BF09E02A5C424977
:1014D0000B680968491C404F39603C49CA54401C9C
:1014E000A042F3DB00203C4908602146FFF74DFF96
:1014F00036E000203A4908603A49086000BF09E038
:101500002A5C37490B680968491C354F39603049F6
:10151000CA54401CA042F3DB002031490860214638
:101520000120FFF732FF1BE000202F4908602F4900
:10153000086000BF09E02A5C2B490B680968491C58
:10154000294F39602349CA54401CA042F3DB0020D4
:101550002549086021460220FFF717FF00E000BF81
:1015600000BF2046BDE8F0810146002021B10129DD
:1015700005D0022909D105E0174A106807E0184A8A
:10158000106804E0184A106801E0002000BF00BFA6
:1015900070472DE9F04106460C4615461448066092
:1015A00046B3012E31D0022E43D138E00C38014031
:1015B0000C4400400C48004054000020640200200D
:1015C00074040020840600204400024064010020CE
:1015D0007403002084050020000000200400002087
:1015E000080000200C000020100000201400002043
:1015F00018000020FFE7002704E0E119AA4806F0E0
:10160000F4F87F1CAF42F8DB14E0002704E0E11996
:10161000A64806F0EAF87F1CAF42F8DB0AE0002794
:1016200004E0E119A24806F0E0F87F1CAF42F8DBC5
:1016300000E000BF00BFBDE8F08130B5034623B134
:10164000012B18D0022B42D12BE09A4800689A4C0B
:101650002468A04205D10020964C2060964C206062
:1016600030BD944804680068401C924D286093483F
:10167000005D08702CE092480068924C2468A042FB
:1016800005D100208E4C20608E4C2060E8E78C480D
:1016900004680068401C8A4D28608B48005D087013
:1016A00016E08A4800688A4C2468A04205D10020D0
:1016B000864C2060864C2060D2E78448046800682D
:1016C000401C824D28608348005D087000E000BF28
:1016D00000BF0120C4E738B57F48048814F0200F0C
:1016E0000ED0001D0088C0B2009001226946002083
:1016F000FFF74FFF7848008820F0200076490880E7
:1017000014F0800F1CD07448008820F080007249CB
:101710000880012269460020FFF78FFF0546002D53
:1017200005DD9DF800006C49091D088007E06A4846
:101730000C30008820F0800067490C31088000BF21
:1017400014F0080F05D114F0040F02D114F0020FA9
:1017500005D061480488001D0088C0B2009038BDE3
:1017600038B55E48048814F0200F0ED0001D0088A4
:10177000C0B20090012269461046FFF70AFF5748A1
:10178000008820F020005549088014F0800F1CD0FC
:101790005248008820F080005049088001226946A4
:1017A0001046FFF74AFF0546002D05DD9DF80000B5
:1017B0004A49091D088007E048480C30008820F09D
:1017C000800046490C31088000BF14F0080F05D195
:1017D00014F0040F02D114F0020F05D03F48048822
:1017E000001D0088C0B2009038BD38B53C48048860
:1017F00014F0200F0ED0001D0088C0B2009001220E
:1018000069460220FFF7C5FE3548008820F0200019
:101810003349088014F0800F1CD03148008820F034
:1018200080002F490880012269460220FFF705FF4A
:101830000546002D05DD9DF800002949091D088099
:1018400007E027480C30008820F0800024490C3144
:10185000088000BF14F0080F05D114F0040F02D166
:1018600014F0020F05D01E480488001D0088C0B285
:10187000009038BD10B50C4805F0CEFF0446194A5B
:10188000194905F0B9FE094805F0C6FF0446154A96
:10189000154905F0B1FE064805F0BEFF0446114AA1
:1018A000114905F0A9FE10BD54000020640200207B
:1018B00074040020040000200000002064010020C7
:1018C0000C000020080000207403002014000020F9
:1018D0001000002084050020003801400044004032
:1018E00000480040000000083D7800087FB506462B
:1018F0000C46214603A8FFF7B7F90090214603A83C
:10190000FFF7B2F90190214603A8FFF7ADF9029065
:101910000025002013E0411C0EE05DF820205DF85A
:1019200021309A4207DD5DF820505DF821204DF806
:1019300020204DF82150491C0329EEDB401C0228D1
:10194000E9DB019804B070BD2DE9F04107460E4671
:1019500014461D4616F0FF0002D001281ED10EE0ED
:101960005D4800880006800C20600E213846FFF795
:10197000BDFF40F2393148434012286012E0574819
:1019800000880006800C20600F213846FFF7AEFF6C
:1019900040F2393148434012286003E000202060C3
:1019A000286000BF00BFBDE8F08138B504460022C2
:1019B0000F216846FFF70FFA0020E06038BD38B508
:1019C000044601220F216846FFF705FAE068142853
:1019D00002DAE068401CE06038BDF8B505460F4605
:1019E0001646E868142801DA002000E03046044674
:1019F000F8B206286ED2DFE800F0031F3F50575DB3
:101A0000002C0BDBA002364990FBF1F04906088759
:101A1000002208216846FFF7DEF90CE060428002F0
:101A20002F4990FBF1F049060887012208216846FA
:101A3000FFF7D1F900BF4DE0002C0DDBA0022849D3
:101A400090FBF1F0C0F580604906888600220921EC
:101A50006846FFF7C0F90EE060428002204990FB23
:101A6000F1F0C0F5806049068886012209216846A8
:101A7000FFF7B1F900BF2DE0002C06DBA0021849EA
:101A800090FBF1F04906888706E060428002144925
:101A900090FBF1F0490688871CE0A002104990FBFA
:101AA000F1F01049088015E0B0020D4990FBF1F00B
:101AB00068600FE0B0020A4990FBF1F0A86000BF37
:101AC000D5E90110884201DAA86800E06868064993
:101AD000088000BF00BFF8BD240400402408004077
:101AE000A086010040000040342C0140002108463F
:101AF00009E0CF4B03EBC001CE4B03EBC0020A6001
:101B000000BF411C08460428F3DB704730B10128B0
:101B10000BD0022810D003281CD114E0C649096854
:101B200041F48051C44A116015E0C349096841F489
:101B30000041C14A11600EE0BF49096841F480517B
:101B4000BD4A116007E0BC49096841F48041BA4AC6
:101B5000116000E000BF00BF704730B101280BD01A
:101B6000022810D003281CD114E0B349096821F4DD
:101B70008051B14A116015E0AF49096821F4004174
:101B8000AD4A11600EE0AC49096821F48051AA4ABF
:101B9000116007E0A849096821F48041A64A116054
:101BA00000E000BF00BF7047012804D0022811D018
:101BB00003282DD11DE0A0490831096841F40041F6
:101BC0009D4A08321160111D096821F40041121D5F
:101BD00011601EE098490831096841F48051964A25
:101BE00008321160111D096821F48051121D116025
:101BF0000FE091490831096841F480418E4A08326A
:101C00001160111D096821F48041121D116000E06E
:101C100000BF00BF7047012804D0022811D003285C
:101C20002DD11DE084490831096821F40041824A20
:101C300008321160111D096841F40041121D116044
:101C40001EE07D490831096821F480517A4A083242
:101C50001160111D096841F48051121D11600FE0DF
:101C600075490831096821F48041734A08321160CE
:101C7000111D096841F48041121D116000E000BF90
:101C800000BF704710B56C481430006810F4805FD6
:101C900017D06948006820F480506749086066489A
:101CA0001430006840F48050634914310860604883
:101CB000103004F005FE6048006840F480505E4932
:101CC00008605D481430006810F4004F17D05A487F
:101CD000006820F4004058490860574814300068F4
:101CE00040F400405449143108605148083004F071
:101CF000E7FD5148006840F400404F4908604E48F5
:101D00001430006810F4806F13D04B48006820F442
:101D100080604949086048481430006840F4806099
:101D20004549143108604448006840F480604249E5
:101D3000086041481430006810F4804F17D03E48C6
:101D4000006820F480403C4908603B48143000683B
:101D500040F480403849143108603548183004F0A8
:101D6000AFFD3548006840F480403349086010BD3D
:101D700031481430006810F0100F13D02E4800685E
:101D800020F010002C4908602B481430006840F007
:101D900010002949143108602748006840F01000FD
:101DA00025490860704724481430006810F0400F3F
:101DB00013D02148006820F040001F4908601E48E9
:101DC0001430006840F040001B49143108601A4884
:101DD000006840F0400018490860704710B504469C
:101DE000042308221549124801F02AFB10BD10B542
:101DF00004460423082212490E4801F021FB10BDBD
:101E000010B5042308220F490A4805F00DFC0E4ABC
:101E10000E49002005F0F0FB042308220C49044879
:101E200005F002FC084A0B49002005F0E5FB10BD57
:101E3000280700200807002000040140E768000888
:101E4000ED7E0008DD7E000800000008EF1D0008A0
:101E5000DF680008DD1D00080021084609E0604B2E
:101E600003EBC0015F4B03EBC0020A6000BF411CE3
:101E700008460228F3DB704710B500BF5848406899
:101E800028B1574A50685268126891688847544888
:101E9000006828B1524A1068126812689168884731
:101EA00000BF10BD10B5044601214FF0C05001F035
:101EB000C3FE012001F0AEFE01F0D0FC012001F0D4
:101EC0003BFF00BF412001F01FFF0028FAD04FF474
:101ED000807001F047FF012001F03EFF01F08AFF12
:101EE00001F07EFF01F07CFF47F6FF7001F068FF14
:101EF00001F076FF4FF46162216851436268C2EBE2
:101F0000021201EB8201A268881801F04BFF01F078
:101F100067FF4AF2A551042001F0B2FC10BD2DE983
:101F2000F04104460D461646042001F0A1FCA0F540
:101F30002541A53904D0FF2020702870307023E09F
:101F400001F028FF07464FF46160B7FBF0F018215D
:101F5000B0FBF1F201FB120020704FF46160B7FB9F
:101F6000F0F100FB11703C21B0FBF1F028704FF450
:101F70006160B7FBF0F100FB11703C21B0FBF1F2A6
:101F800001FB1200307000BFBDE8F08110B50446BF
:101F9000022308221449124801F052FA10BD10B56C
:101FA00004460223082211490E4801F049FA10BDE7
:101FB00010B5022308220E490A4805F035FB0D4AE8
:101FC0000D49002005F018FB022308220B490448A4
:101FD00005F02AFB074A0A49002005F00DFB10BD59
:101FE0005807002048070020E7680008ED7E000839
:101FF000DD7E0008000000089F1F0008DF68000861
:102000008D1F0008024800210160416000BF704739
:102010002C0000207CB50446A069FFF7A5FA00B1AA
:102020007CBD04F1B40005F058FBAA20019001A981
:1020300004F1B40005F06CFB5520019001A904F1F6
:10204000B40005F065FB0020019001A904F1B40083
:1020500005F05EFB04F1B401D4F8F00105F0EFFBEC
:1020600004F1B40005F01DFBC01EC5B2022104F14D
:10207000B40005F075FB05700020009002250AE011
:10208000294604F1B40005F06BFB00789DF80010C0
:10209000484000906D1C04F1B40005F002FBA8421A
:1020A000EEDC694604F1B40005F032FB0020C4F810
:1020B000F40104F1B40005F0F4FA054604F1B400AB
:1020C00005F006FB06462A4631460020FFF7ECF9EC
:1020D00004F1B40005F0E5FA054604F1B40005F09A
:1020E000F7FA06462A4631460220FFF7DDF900BF1F
:1020F00096E770B50446002604F1240005F0F3FAD3
:1021000082E004F1240005F0EEFA05460D2D75D2AB
:10211000DFE805F074071019222B343D464F586153
:102120006A0004F1240104F5A67004F0E7FB00B195
:10213000012668E004F1240104F5AC7003F0CCF949
:1021400000B101265FE004F1240104F5B27004F04F
:1021500022FC00B1012656E004F1240104F5B87018
:1021600003F04CFA00B101264DE004F1240104F51E
:10217000BE7002F068FA00B1012644E004F12401C7
:1021800004F5C47005F073F800B101263BE004F1DA
:10219000240104F5D07005F0C2F800B1012632E048
:1021A00004F1240104F5D67001F0EDFE00B1012622
:1021B00029E004F1240104F5DC7003F03FF800B1DC
:1021C000012620E004F1240104F5E27003F00BF88D
:1021D00000B1012617E004F1240104F5EC7003F0CE
:1021E000B2F900B101260EE004F1240104F5F27009
:1021F00003F0D4F900B1012605E0FFE704F1240063
:1022000005F06BFA00BF00BF04F1240005F049FAA5
:1022100000283FF776AF304670BD73B50446002501
:1022200094F8200030B101280CD0022812D00328E5
:102230003CD129E09DF80400AA2802D1012084F8AD
:10224000200037E09DF80400552802D1022084F8D0
:1022500020002FE09DF80400782811DA9DF8040092
:10226000801CC4F8480104F1240005F036FA01A9E5
:1022700004F1240005F04CFA032084F8200002E069
:10228000002084F8200015E001A904F1240005F0E5
:102290003FFA04F1240005F004FAD4F8481188420A
:1022A00003D10125002084F8200003E0002084F8F9
:1022B000200000BF00BF28467CBD2DE9F041A0B042
:1022C000044688464FF0FF37E069B0F1FF3F05D084
:1022D00058B101280AD0022810D108E0304800681F
:1022E000E0612F480068A06109E000BF00BFD4E9A9
:1022F0000610884201D0E069A06100E000BF00BF85
:1023000080226946A069FEF7DDFF054600260BE046
:102310001DF806102046FFF780FF20B12046FFF78A
:10232000E8FE00B10027761CAE42F1DB00BFD4F816
:102330004401401CC4F84401042804DB0020C4F814
:102340004401012000E0002010B12046FFF762FEAA
:10235000384620B0BDE8F0814FF0FF31C1617047D1
:1023600070B5044604F1B40005F09BF9D4F8F411FB
:10237000451A202D00DD2025002D10DD04F1B400CC
:1023800005F0A6F9D4F8F41146182A463146A0699A
:10239000FFF78AF8D4F8F4012844C4F8F40170BDBA
:1023A00018000020ADF5A25D00200DF58051C1F8A8
:1023B000300400210DF58050C0F82C14C0F828140A
:1023C000C0F82414C0F8201400F581601490042291
:1023D0001498026000221498426014988260149845
:1023E000C2601498026101221498027500BF7D201A
:1023F0000DF58051C1F83C04D1F83C04FE49086059
:1024000000BFFFF773FBFFF727FDFEF7A1FA41F2CC
:10241000FC30684401F014FE41F2503068441490DE
:10242000149813900022139802812022139880F8A8
:1024300021200122139880F82220139880F823206D
:102440002222139880F824201722139880F8252040
:102450004022139880F826206122139880F82720C4
:1024600000221398A0F8862013981490521E1498F6
:10247000C0F8A82000BF41F250316944A1F5FC70BA
:1024800004F046FB41F23C106844139000F50570DF
:102490001490DDE91310086000221398027113985C
:1024A00082601398C2601398028213984282139834
:1024B000426100BF41F208106844139000F51270A9
:1024C0001490DDE913104860139802721398C260EB
:1024D00013980261139882821398C28213988261C2
:1024E0001398C261139880F8212000BF0B200DF5CE
:1024F00080510023C14AC1F8380401F58761A1F574
:10250000587003F0B9F80B200DF580510023BB4A39
:10251000C1F8340401F23441A1F5637003F0ACF862
:10252000B74B41F2A8026A4402F130010DF67C700B
:1025300002F0FAFA0DF569601390B2481490DDE9E3
:102540001301016000211398416013988160139872
:10255000C16013980161139841611398C0F8E410A9
:102560001398C0F8E8100020129009E00022139898
:1025700000F11801129841F820201298401C129086
:1025800012983228F2DB00211398C0F8E01000BF47
:102590000DF64C4004F010FE0DF6845214924FF4E8
:1025A0008073149A0C320021149805F0E9FB00BFE7
:1025B0000DF5986003F082FE0DF5596014901498A3
:1025C000CDF8180700BF0DF5986003F0B3FA0DF2CF
:1025D0006C4014900022149802800F22149882807C
:1025E00004221498826000221498C2606422149815
:1025F00002612922149842612A22149882612B22B6
:102600001498C2612C221498026200BFE2A802F062
:102610009DFC0321A9A804F097F8012170A804F0FB
:1026200093F8022137A804F08FF828A914914FF0ED
:10263000FF320021149802F0EBFA73491490016004
:102640000021149801751498417514988175012220
:1026500005211498183005F0BAFAA0F11801149168
:10266000012205211498243005F0B1FAA0F12401CB
:102670001491012205211498303005F0A8FAA0F138
:102680003001149100BF1EA914914FF0FF320021B8
:10269000149802F0BDFA5D491490016040F2DC51DB
:1026A0001498416100211498017614981C301390FD
:1026B00000221398026013981C38149014984262F8
:1026C00000BF1DA814901498026000BF96224FF41A
:1026D00088714F4802F0C1FA322200214C4802F0C2
:1026E000BCFA9622E5214A4802F0B7FA32220021CC
:1026F000474802F0B2FA9622AB21454802F0ADFA03
:1027000005220021424802F08EFA9622AB21404871
:1027100002F0A3FA9622E5213D4802F09EFAC82273
:102720004FF488713A4802F098FA0322052138489C
:1027300002F079FA32228821354802F08EFA3222EC
:102740000021334802F089FA32228821304802F011
:1027500084FA032208212E4802F065FA1922882102
:102760002B4802F07AFA02220021294802F075FA79
:1027700002220B21264802F056FA642298212448AE
:1027800002F06BFA6422AB21214802F066FA64225F
:10279000CC211F4802F061FA642240F201111C486A
:1027A00002F05BFA64224FF48871194802F055FA7E
:1027B0004FF4FA620021164802F04FFA6422982181
:1027C000134802F04AFA6422AB21114802F045FA9C
:1027D0006422CC210E4802F040FA642240F201113A
:1027E0000B4802F03AFA64224FF48871084802F06C
:1027F00034FA4FF4FA620DE028000020D07E010088
:1028000068070020A3B0AE3DE89200087894000865
:10281000A40700200021FE4802F01FFA642298213C
:10282000FB4802F01AFA6422AB21F94802F015FACB
:102830006422CC21F64802F010FA642240F2011121
:10284000F34802F00AFA64224FF48871F04802F06B
:1028500004FA11220D21EE4802F0E5F964228821E4
:10286000EB4802F0FAF964229821E94802F0F5F900
:102870006422AB21E64802F0F0F96422B521E44875
:1028800002F0EBF96422CC21E14802F0E6F964227F
:10289000E521DF4802F0E1F9642240F20111DC4851
:1028A00002F0DBF964224FF48871D94802F0D5F9BF
:1028B00008221E21D64802F0B6F964224FF488712E
:1028C000D34802F0CAF9642240F20111D04802F064
:1028D000C4F96422E521CE4802F0BFF96422CC217C
:1028E000CB4802F0BAF96422B521C94802F0B5F923
:1028F0006422AB21C64802F0B0F964229821C44892
:1029000002F0ABF964228821C14802F0A6F908223E
:102910002621BF4802F087F996224FF48871BC48FF
:1029200002F09BF932220021B94802F096F9962272
:10293000AB21B74802F091F903222E21B44802F0EE
:1029400072F99622AB21B24802F087F932220021B7
:10295000AF4802F082F996224FF48871AC4802F039
:102960007CF903223121AA4802F05DF90021A84830
:102970002C3801F025FD18A814900021149801703E
:1029800001211498417014988170002114984160BD
:1029900064211498816000211498C1601498016129
:1029A00000BF17A8149000221498026000BF0020F6
:1029B00016901590974800680DF58051C1F8EC030A
:1029C0009448001D0068C1F8F00392480830006880
:1029D000C1F8F403FEE300BF0DF5805090F8FC034E
:1029E00000B9F7E700BF00210DF5805080F8FC1317
:1029F00000BFB0F85803401D81B20DF58050A0F81B
:102A0000581300F55471E2A802F0CBF90021A9A8EF
:102A100003F078FD41F26E316944A9A803F07AFE13
:102A2000002170A803F06EFD41F26F31694470A877
:102A300003F070FE002137A803F064FD41F270310D
:102A4000694437A803F066FE0DF26C4003F003FF03
:102A5000002128A802F03DF99DF8B50008B1022137
:102A600000E000210DF5805080F8661390F86603B1
:102A70009DF8B61009B1012100E0002108430DF5D1
:102A8000805181F86603084690F866039DF8B410FB
:102A900009B1042100E0002108430DF5805181F8BF
:102AA0006603159810F0010F05D1084690F86603EB
:102AB00010F0010F15D1159810F0020F06D10DF589
:102AC000805090F8660310F0020F0AD1159810F0AC
:102AD000040F0BD10DF5805090F8660310F0040F31
:102AE00004D003214A482C3801F06AFC0DF58050CF
:102AF00090F86613159100211EA803F07DFF1EA813
:102B000003F077FF642190FBF1F0C1B20DF5805026
:102B100080F8681300BF9DF8911080F8671300BF1C
:102B20009DF8900008B1102000E000200DF58051C4
:102B300091F8671308430DF5805181F8670301F29E
:102B40007732511E481EFFF7EAF9002130482C3831
:102B500001F0F8FC2E482C3802F04FF848B10DF681
:102B60007C7002F04AF820B100210DF67C7001F073
:102B700047FE00BF0DF58050D0F80814491CC0F87E
:102B8000081490F81C04814206DB0DF58050D0F843
:102B90001014C0F818141AE00DF5805090F81C14A9
:102BA000D0F80804091A0DF58050D0F80C04414300
:102BB0000DF5805090F81C0491FBF0F10DF580505C
:102BC000D0F81004411A0DF58050C0F818140DF516
:102BD0008050D0F81814C0F82414D0F81414C0F899
:102BE000201400BF0DF569600E9000F598600DF59A
:102BF00080510F90D1F824041090D1F82004119046
:102C00000E991098C1F8E4000E99119804E00000A4
:102C1000A4070020E8F7FF1FC1F8E8000EA80FC8BE
:102C200001F053FD00BFDDF8781F1191DDF8741F2E
:102C300010910DF67C70119A01F096FE1EA803F01B
:102C4000D8FE0146119041F2D800684402F00CFD14
:102C50001EA803F0CEFE0146119041F2A800684480
:102C600002F002FD1EA803F0C4FE0DF58051119084
:102C7000D1F82404642801DC012100E000210B4686
:102C8000109141F25031694418A8119A02F0AAF942
:102C900000BF9DF86000032801D1012000E0002062
:102CA00028B1002211460DF67C7001F05DFE00BFD8
:102CB0009DF8620008B1002003E001208DF8620059
:102CC00000BF18B10221FE4801F07AFB41F23C102E
:102CD000684403F055FB00BF0DF5805090F84001AB
:102CE00058B10DF58050B0F94E111191B0F94C1159
:102CF00010918438119A01F0E7FD41F20810684400
:102D000002F026FD00BF0DF5805090F8100158B17B
:102D10000DF58050B0F91E111191B0F91C111091F0
:102D20008438119A01F0D0FD00210DF67C7001F07D
:102D3000BFFE41F2503169440DF67C7001F06BFD2D
:102D400000BF0DF58050D0F80404C1B21191119963
:102D50000DF5805080F8691300210DF64C4004F009
:102D6000D1F8DDF8740FB0B9DDF8780F98B90DF52A
:102D70008050D0F8500370B90DF58050D0F854034E
:102D800048B90DF5805090F85C0320B90DF58050DE
:102D900090F85B0318B101208DF8C10402E0002017
:102DA0008DF8C1040DF5805090F8880308B9012012
:102DB00000E0002013900DF5805090F88803C0F1DA
:102DC00018010DF58050119190F8881300F28A30A7
:102DD00000EB410110910A4614A90DF64C40119BDD
:102DE00004F0B1F801460DF5805090F888030844CE
:102DF000C1B20DF5805080F8881300BFBDF87A1D70
:102E000012919DF8801D119100218DF8801D11985F
:102E100050B3002000900190034602460290BDF896
:102E2000480001B20DF5986003F066F8DDF8C414AF
:102E30001091A449109805F0EBFE119005F0DEFF0B
:102E400000B20DF58051A1F88003DDF8CC1410918B
:102E50009C49109805F0DCFE119005F0CFFF00B200
:102E60000DF58051A1F882039DF8760D30B9BDF8BB
:102E7000781D0DF59860119102F0FEFD9DF8611C22
:102E80000A4611910D2141F25030684401F0A3F837
:102E90000122042141F25030684401F09CF813985B
:102EA00028B19DF850100DF5805080F8871300214F
:102EB00041F258106844FFF700FA00287DD11698B7
:102EC00018B906217E4801F07BFA0120169041F2E4
:102ED0005810684490F8530198B1002141F25810FD
:102EE000684480F85311B0F95601119041F258101E
:102EF0006844B0F95411109100F52C70119A03F048
:102F0000DAFA41F25810684490F86B01E8B10021F8
:102F100041F25810684480F86B1101210DF67C7065
:102F200001F06EFC0DF67C7001F067FE68B141F2B5
:102F30005810684490F86E111191B0F86C1100238C
:102F400010915F48119A01F0BFF941F2581068449E
:102F500090F85F0128B1002141F25810684480F8D0
:102F60005F1141F25810684490F8770170B141F256
:102F70005810684490F878115148119101F020FAE6
:102F8000002141F25810684480F8771141F258103E
:102F9000684490F8A70128B1002141F25810684414
:102FA00080F8A71141F25810684490F88F0138B1A9
:102FB000002141F25810684400E068E180F88F1168
:102FC00041F25810684490F8B30180B1002141F2F9
:102FD0005810684480F8B311E2A91091B0F8B40118
:102FE0001190DDE91010A1F8B40000BF00BF41F25C
:102FF0005810684490F8BF01E8B3002141F258101E
:10300000684480F8BF11B0F8C00110F0010F06D07D
:1030100001220A2141F25030684400F0DCFF41F205
:1030200058106844B0F8C00110F0020F06D0012219
:103030000B2141F25030684400F0CDFF41F25810AE
:103040006844B0F8C00110F0040F06D001220C2132
:1030500041F25030684400F0BEFF41F2581068441D
:10306000B0F8C00110F0080F08D00122132141F27E
:103070005030684400E001E000F0ADFF41F258102C
:10308000684490F8EB0100287DD0002141F25810EF
:10309000684480F8EB11B0F8EC01C04380B21090A6
:1030A0001098011110910DF26C400E9010980F9035
:1030B0000E9881880F9801400E9801800E9803E0C9
:1030C000780700200000C84203F0C5FB00BF41F2B2
:1030D00058106844B0F8EC0100F001010A460F9165
:1030E000252111A8FDF777FE41F258106844B0F889
:1030F000EC01C0F340010A460F91262111A8FDF70B
:103100006AFE41F258106844B0F8EC01C0F3800147
:103110000A460F91272111A8FDF75DFE41F25810D4
:103120006844B0F8EC01C0F3C0010A460F912821B1
:1031300011A8FDF750FE41F258106844B0F8EC01B8
:10314000C0F300210A460F911B2111A8FDF743FE91
:1031500041F258106844B0F8EC01C0F340210A462F
:103160000F911C2111A8FDF736FE41F2581068445A
:10317000B0F8EC01C0F380210A460F911D2111A87F
:10318000FDF729FE00E00DE041F258106844B0F868
:10319000EC01C0F3C0210A460F911E2111A8FDF7D2
:1031A0001AFE00BF41F25810684490F8DF01C0B326
:1031B000002141F25810684480F8DF110DF6845068
:1031C0000F9000F5757090F8E01100F26320CDE9E2
:1031D000101000E08BE0109801010E9100200D907E
:1031E0000BE0DDE90D0101440F980C30425C1199B0
:1031F0000D980A540D98411C0D910D981028F0DB84
:1032000000BF41F25810684490F8E0010DF580517C
:1032100081F8BA0301220F2141F25030684400F0D6
:10322000DAFE41F25810684490F8CB0120B3002137
:1032300041F25810684480F8CB110DF64C401090C4
:1032400000F20C5090F8CC01119000200F900FE08C
:10325000109800F126010F9811F830101198814252
:1032600003D1DDE90F01886105E00F98411C0F9142
:103270000F982028ECDB00BF00210DF58050C0F82E
:103280002814C0F830140121C0F82C142EE00DF5DC
:103290008050D0F82804411C0DF58050C0F8281447
:1032A000B1F5167F22DD00F5AC70FFF755F800216F
:1032B0000DF58050C0F82814D0F82C04B0B10DF5ED
:1032C0008050D0F8300450B90521134801F078F847
:1032D0000022114641F20840684403F0ECF8012155
:1032E0000DF58050C0F830140021169100BFFFF793
:1032F00072BBFFF757F810B508480949016000BFD5
:103300000849016000214160816000BF0146024818
:1033100001F056F910BD0000780700206807002072
:10332000B89400081C950008032A40F2308010F081
:10333000030C00F0158011F8013BBCF1020F624450
:1033400098BF11F801CB00F8013B38BF11F8013BE1
:10335000A2F1040298BF00F801CB38BF00F8013B8E
:1033600011F0030300F02580083AC0F0088051F8FE
:10337000043B083A51F804CBA0E80810F5E7121D09
:103380005CBF51F8043B40F8043BAFF30080D20728
:1033900024BF11F8013B11F801CB48BF11F8012BF4
:1033A00024BF00F8013B00F801CB48BF00F8012B17
:1033B000704710B5203AC0F00B80B1E81850203AA1
:1033C000A0E81850B1E81850A0E81850BFF4F5AFC5
:1033D0005FEA027C24BFB1E81850A0E8185044BF4F
:1033E00018C918C0BDE810405FEA827C24BF51F8BC
:1033F000043B40F8043B08BF7047D20728BF31F8B0
:10340000023B48BF11F8012B28BF20F8023B48BF00
:1034100000F8012B704770477047704770B5064C35
:103420007C44064D7D4403E0206820448047241DF1
:10343000AC42F9D170BD0000E0620000F062000013
:103440002DE9F04105460F46164633B106FB0354FD
:10345000A41B2046B847A542FAD1A5F10800BDE853
:10346000F0810000004870474C0A00200048704777
:10347000500A002070B5064600F060F8056806F1B5
:103480000B0020F00704B4429CBF002070BD2B4607
:103490006A68BAB11068A04210D304F108018842EA
:1034A0003CBF5068586007D35168101941601168DB
:1034B000091B016058601460101D70BD13465268EE
:1034C000002AE7D12146284600F040F80028DED146
:1034D00070BD70B50446051F00F030F80068002C80
:1034E00014BF446870BD002C18BFA54284BF20469D
:1034F0006468F8D801680A18AA4218BF456003D169
:103500002A6805461144016028684119A1421CBF80
:103510006C6070BD6168696021680844286070BD96
:1035200010B500F063F8BDE8104000F059B800F0A5
:1035300075B8000000487047180A0020004870471E
:10354000200A0020704770477047704738B504461E
:103550000A4600206946AFF30080002808BF38BD46
:1035600002460099204600F092F8012038BD012063
:1035700000F0CEB8F8B5AFF30080054600200C4649
:10358000102000BF0646A819A0420DD93246694650
:103590000020AFF30080070008BF00F0B9F80098E2
:1035A000A04218BF0546C419FFF7C8FF05600746CB
:1035B000F01D20F007004619284600F00AF8B44232
:1035C00008BFF8BDA21B31463868BDE8F84000F0DE
:1035D0005EB800210160C0E90110704710207047FB
:1035E000002801D000F028B87047000010B5002175
:1035F00002A000F074F8012010BD000053494750AC
:1036000056464E3A2050757265207669727475611F
:103610006C20666E2063616C6C65640010B500F010
:1036200081F8016919B100220261884701E08068D0
:10363000804700F04CF8000001491820ABBEFEE7BF
:10364000260002007546FFF775FFAE460500694685
:10365000534620F00700854618B020B5FDF78CFAD8
:10366000BDE820404FF000064FF000074FF0000883
:103670004FF0000B21F00701AC46ACE8C009ACE804
:10368000C009ACE8C009ACE8C0098D4670470346E4
:1036900040688C46002818BF814284BF03464068BA
:1036A000F8D818681844884207D00CF1030020F0BD
:1036B0000700001D411A521A0146081D0A60FFF753
:1036C00008BF0446AFF300802046FCF761FD0020F0
:1036D00000F05AF8FCF74EFD0120FFF7ADFF70B582
:1036E00005460C460A2000E06D1C00F041F835B19B
:1036F00028780028F8D102E0641C00F039F814B1F1
:1037000020780028F8D1BDE870400A2000F030B8D9
:1037100010B500F041F8BDE81040FFF761BF0000B0
:10372000FFF7D5FF70B500F02BF804680546A4B983
:103730002020FFF79FFE040011D00A4900202C60D2
:10374000C4E900010849A160207320616061074954
:10375000A06109B100F048F8E061204670BDFFF7B4
:10376000B6FF000000000000213700080000000044
:1037700008B569468DF800000320ABBE08BD704750
:1037800000487047540A002010B500F04FF8BDE81B
:103790001040FFF725BF000010B5012805D000211B
:1037A00003A0FFF79CFF012010BD09A1F8E700006E
:1037B00053494752544D454D3A204F7574206F661A
:1037C0002068656170206D656D6F72790000000082
:1037D0003A2048656170206D656D6F727920636F66
:1037E000727275707465640010B58820FFF742FE30
:1037F000002801D00021017010BD802902D808B135
:10380000017809B100207047012100F8081B7047BA
:1038100018B100F10802914201D000207047002148
:1038200001707047004870471C0A002010B5002145
:1038300002A0FFF754FF012010BD0000534947418B
:103840004252543A2041626E6F726D616C20746511
:10385000726D696E6174696F6E00000010B50120B1
:1038600000F002FABDE81040002000F0FDB90000B1
:1038700002490844B0F8000C7047000000600040A6
:10388000024A1044A0F8001C70470000006000408D
:103890000349C20002D5C1F804047047486070476C
:1038A000000002400029016802D041F0010101E05E
:1038B00021F00101016070470268002122F001023D
:1038C0000260016041608160C160304B2F49C21AC3
:1038D0008039984245D018DC2D4BA0EB030298426A
:1038E00037D00ADC2B4A80182BD014282DD028285A
:1038F00026D1486840F4706036E0142A2DD0282A7A
:103900001ED1486840F470002EE0B2F56C7F32D0D2
:103910000ADCB2F5627F29D0B2F5677F10D1D1F809
:10392000040440F0F00009E0B2F5717F28D0B2F550
:10393000767F05D1D1F8040440F47020C1F8040466
:103940007047486840F00F000EE0486840F0F00013
:103950000AE0486840F4704006E0486840F470208F
:1039600002E0486840F0706048607047D1F8040495
:1039700040F00F00E2E7D1F8040440F47060DDE7A6
:10398000D1F8040440F47040D8E700008000024001
:1039900044000240F8FFFDBF70B5026847F6F073BF
:1039A0009A430E6A8B680C693343D1E905562C4360
:1039B0002343CC6933432343D1E909542B432343A5
:1039C00013430360CA6842600A6882604968C16044
:1039D00070BD000010B5837920490268A3B3D1F807
:1039E00000349343C1F80034D1F8042403689A43A7
:1039F000C1F80424027904680A44D2F8003423434D
:103A0000C2F80034D1F8082403689A43C1F80824A6
:103A1000D1F80C2403689A43C1F80C244279102A87
:103A20000AD101F581610A6803681A430A604A688D
:103A3000006802434A6010BD1144D1F800240068B8
:103A40000243C1F8002410BDFFE700790844D0F814
:103A500000149143C0F80014F5E700000000014095
:103A600010B58A0721F003040649120F21440F23E1
:103A70008C6893409C438C608B68904003438B60C0
:103A800010BD000000000140F0B5CB780022DC063C
:103A900003F00F0301D58C7823430C880F2714F013
:103AA000FF0F4FF0010C1CD0D0F800500E880CFA1C
:103AB00002F42640A64210D1960007FA06FE25EA37
:103AC0000E0E03FA06F5CE7845EA0E05282E00D133
:103AD0004461CE78482E00D10461521C082AE5D3F7
:103AE00005600A88FF2A1ED94568002202F10806EF
:103AF0000CFA06F40E882640A64210D1960007FA6A
:103B000006FE25EA0E0E03FA06F5CE7845EA0E0506
:103B1000282E00D14461CE78482E00D10461521C79
:103B2000082AE3D34560F0BDF0B5104D6B68440D35
:103B3000260184B2C0F30157B440C0F30342032FFF
:103B400006D1686823F0706220F07060686008E059
:103B5000C00203D503209040834300E0A34343F019
:103B6000706201B122436A60F0BD000000000140B4
:103B70004161704701617047F0B50F23C278017849
:103B80004FF0E024012742B3D4F80C2D467802F41C
:103B9000E062C2F5E062120AC2F10405D340827805
:103BA000AE401A40324315018A07D20E954021F0EB
:103BB00003010B19D3F80064FF2191408E430D409F
:103BC0002E43C3F800640078410900F01F0004EBA5
:103BD00081018740C1F80071F0BD01F01F008740EE
:103BE000480904EB8000C0F88071F0BD0249084329
:103BF00002490860704700000000FA050CED00E083
:103C0000024A1140014302480160704780FFFF1FD4
:103C100008ED00E0014908627047000000000E4214
:103C2000044A0029516901D0014300E081435161F8
:103C30007047000000100240044A0029D16901D0F9
:103C4000014300E08143D161704700000010024051
:103C5000044A0029916901D0014300E08143916148
:103C600070470000001002400149086070470000E2
:103C70004004424230B5204A5168204B11F00C01FB
:103C800003D0042901D0082901D0036011E0516854
:103C9000022401F4701104EB91415468184D14F49E
:103CA000803F02D05468A40301D5694300E0594322
:103CB00001605168134B01F0F00109095C5C016877
:103CC000E1404160546804F4E064240A1C5D21FA78
:103CD00004F48460546804F46054E40A1B5DD94021
:103CE000C1605268074B02F44042920B1B1F9A5C62
:103CF000B1FBF2F1016130BD0010024000127A0008
:103D000000093D00FC910008034600205909094ABA
:103D1000012901D1116804E0022901D1116A00E0F2
:103D2000516A03F01F02012393400B4200D001208F
:103D30007047000000100240064900220A7001F896
:103D40002029012802D0042802D1052081F8200072
:103D500070470000201002400149086070470000D1
:103D60003C04424202490A6A02430A627047000068
:103D7000001002400248018841F0100101807047A4
:103D8000042800400248018821F01001018070479A
:103D90000428004002498888098840EA01407047A9
:103DA0001828004000B50246FFF7E4FF0348110C55
:103DB000018082805DF804EBFFF7E4BF1828004023
:103DC00000B50246FFF7D6FF0448C2F30341018065
:103DD00082805DF804EBFFF7D5BF000008280040A3
:103DE000034800BFB0F804188906FBD570470000EF
:103DF000002000400648B0F8041821F00801A0F89F
:103E0000041800BFB0F804180907FBD5704700007C
:103E1000002000400029018802D041F0400101E06B
:103E200021F04001018070470246128900200A42B9
:103E300000D001207047808970478181704770B53C
:103E400002880B884E888C88CD8833432C430E899A
:103E500023434C8933438D892343CC892B4302F47C
:103E60004152234313430380828B22F400628283F6
:103E7000098A018270BD0029018802D041F0010148
:103E800002E040F2FE32114001807047002930F814
:103E9000441F02D041F4004101E0C1F30E01018052
:103EA00070470029818902D041F4005101E021F4DA
:103EB000005181817047002A828A01D00A4300E0C4
:103EC0008A438282704710B5C1F3421301F01F0488
:103ED0000121A140012B01D10C3004E0022B01D1C2
:103EE000103000E01430002A026801D00A4300E0DC
:103EF0008A43026010BD000030B50446008A85B0D8
:103F00000D464CF6FF710840E98801432182A089E3
:103F10004EF6F3110840A9882A8911436A890243A1
:103F20001143A181A08A4FF6FF410840A9890143AE
:103F3000A1826846FFF79EFE1048844201D1039893
:103F400000E0029819214843296864228900B0FBE7
:103F5000F1F0B0FBF2F109010B096FF018056B43AA
:103F6000322500EB830005EB0010B0FBF2F000F00F
:103F70000F000843208105B030BD0000003801402B
:103F80000146012070477CB504460D462A46A11D16
:103F900001A801F0FBF8A0796179884201D00020E6
:103FA0007CBD284603F07DFB6179884201DA002060
:103FB000F6E72A4604F10801684601F001F9206895
:103FC00081682046884710B10120E07101E000209F
:103FD000E071E079E4E710B5012404FA01F32AB1B5
:103FE000D0F8A8401C43C0F8A84004E0D0F8A8408E
:103FF0009C43C0F8A84010BD00BF0E490968491C89
:104000000C4A11600C4909680C4A126811440A4AAA
:10401000116000BF00BF4168491C4160282903DBD3
:1040200000214160012100E0002109B1012101705E
:10403000704700001C000020240000202800002001
:104040007CB5044600202070201D002140F8041992
:1040500000BF044625460F4903C9CDE900010E48BB
:10406000406840B10C48406828B10B4A506852681B
:10407000126851688847102003F0AAFA06462946BC
:10408000DDE9002303F0E2FE06460348466000BF78
:1040900020467CBDF09100084807002010B504467A
:1040A0000020234908802348806940F400602149AA
:1040B000886100201E4934390880091D08800120CC
:1040C0001B490C390880B020091D088000201849C0
:1040D0002C39088016490880091D0880091D0880B0
:1040E000091D0880602012491C3908800020091D24
:1040F0000880091D088004200D49343908800020FB
:10410000091D0880081F008840F00100091F088071
:104110000120074920390880012105483438FFF77C
:10412000AAFE012102483438FFF7B0FE10BD00009E
:10413000342C01400010024010B50446606A20B1E2
:10414000012806D002280CD107E0204600F062F9D1
:1041500008E0204600F0F0F804E02046FFF79EFF5C
:1041600000E000BF00BF10BD10B50446606A20B17A
:10417000012806D002280CD107E0204600F00CF8F8
:1041800008E0204600F05AF804E0204600F08AF9E2
:1041900000E000BF00BF10BD10B504460020254957
:1041A00008802548806940F4006023498861002028
:1041B000204934390880091D088001201D490C3927
:1041C0000880B020091D088000201A492C39088079
:1041D000184908805820091D08800020091D088002
:1041E000091D08804FF4C04012491C390880002086
:1041F000091D08801020091D088004200D4934394C
:1042000008800020091D0880081F008840F0010078
:10421000091F08800120074920390880012105482D
:104220003438FFF728FE012102483438FFF72EFE0C
:1042300010BD0000342C0140001002402049C96923
:1042400041F002011E4AD1611E49098880F8201000
:1042500000211C4A243A1180121D11800121194AA3
:10426000121D11804D21121D11800021154A1C3A8A
:104270001180144A10321180121D1180121D1180FC
:104280002421121D118000210E4A0C3A11804FF496
:10429000C041121D11809114121D11800421094A80
:1042A000243A11800021121D1180111F098841F04C
:1042B0000101121F11800121024A103A118070473A
:1042C00000100240240400402DE9F04104460D4650
:1042D00016461F4684F829702068016920468847E1
:1042E00010B12046FFF740FF208BA84217D04DB9F0
:1042F00094F8280078B9012084F828002046FFF7B8
:104300001BFF08E094F8280028B1002084F828005A
:104310002046FFF729FF2583208B06490880E661A8
:10432000206841682046884702F01AFB6061BDE8BA
:10433000F0810000282C01401F49C96941F00201A9
:104340001D4AD16100211D4A1180121D11801B4A96
:1043500028321180FF21121D11800321174A0832D3
:1043600011800021154A34321180121D1180121D56
:104370001180121D118040F20111104A1832118073
:104380000021121D1180121D118004210B4A118081
:104390000021121D1180111F098841F00101121F17
:1043A00011800121054A1432118090F82010034A2F
:1043B00024321180704700000010024000040040C9
:1043C0007CB504460D46684602F0C6FA04F12C009E
:1043D000294682688A4201D8002207E0C16000F5C0
:1043E0000472C36852F83320026001220AB9002027
:1043F0007CBD694604F12C0000F044FC08B90020A3
:10440000F6E7BDF8001001232046019AFFF75CFF94
:104410000120EDE710B504462048806940F40060B3
:104420001E49886100201E490880091D08801C491A
:104430002831088040F2FF70091D088000201849CB
:1044400008310880164934310880091D0880091D8B
:104450000880091D0880602011491831088000205B
:10446000091D08800120091D088004200C490880CE
:104470000020091D0880081F008840F00100091F66
:104480000880012006491431088001210448FFF703
:10449000F2FC01210248FFF7F9FC10BD00100240B8
:1044A000002C014010B5044600202449088024480F
:1044B000806940F400602249886100201F49343936
:1044C0000880091D088001201C490C390880B02093
:1044D000091D0880002019492C39088058201749E7
:1044E00008800020091D0880091D0880091D08801A
:1044F000602012491C3908800020091D0880012015
:10450000091D088004200D49343908800020091D48
:104510000880081F008840F00100091F0880012062
:10452000064920390880012104483438FFF7A3FCEC
:10453000012102483438FFF7A9FC10BD342C01409A
:10454000001002407CB504460D46206829464269A9
:104550002046904710B14FF0FF307CBD02F000FACA
:104560006169411AE06981421FD394F82900C0B102
:10457000684602F0F1F9694604F12C0000F082FB74
:1045800038B1BDF8001001232046019AFFF79CFEC8
:1045900006E0002084F829002068816820468847CA
:1045A00003E020688168204688470020D5E710B5E1
:1045B00004462046FFF7C0FD00202072208310BD76
:1045C00070B504460E464FF0FF320021204600F041
:1045D0001FFB04461748206004F1180002F0BCF9E4
:1045E000A0F1180402206062002084F8280084F8FA
:1045F000290004F12C0528606860A8604023082287
:104600000D4905F1100003F00FF8A0F110050C237F
:1046100008220A4905F5047003F006F8A0F50475B0
:1046200000BFA5F12C04C4F89C622046FFF7BFFF31
:10463000204670BD6092000859690008E14F0008EB
:1046400001460120704738B504460D462A46A11D93
:10465000684600F09BFDA0796179884201D0002076
:1046600038BD284603F01DF86179884201DA002040
:10467000F6E72A4604F10801684600F087FD2A465D
:1046800004F10901684600F081FD20688168204638
:10469000884710B10120E07101E00020E071E0796D
:1046A000DEE70246087F5A2801DD01207047087BBB
:1046B00008B10120FAE7C87A08B10120F6E7887A44
:1046C00008B10120F2E70020F0E72DE9F05F044691
:1046D0000D4616461F46D5E9000100EB0109D4F846
:1046E000E000401C322190FBF1F201FB120804F1C2
:1046F000180050F828006169081A60616069484430
:10470000606104F1180040F82890C4F8E080616905
:10471000480004F08FFB8346216804F0EBFB8246DF
:1047200004F06CFB2061606800281DDD6068401E9D
:1047300060600020C4F8E800A068C4F8E400606885
:1047400040B929462046FFF7ACFF18B10120606050
:104750000020A0603A463146204600F044F808B9EF
:1047600000206060BDE8F09F3A463146204600F0E8
:104770003AF868B32069C8282ADD29462046FFF7A1
:1047800090FF28B300BF14206060287B08B9E87A46
:1047900028B12069C0F1C8008000A0600BE0A87AB1
:1047A00028B12069C0F1C8004000A06003E0206982
:1047B000C0F1C800A060A068002801DD0020A06052
:1047C00000BF0020C4F8E800A068C4F8E40008E0D6
:1047D000C4F8E870C4F8E4603A463146204600F078
:1047E00002F800BFBEE70346002907DD22B1C82A50
:1047F00002DC12F1C80F01DA012070470020FCE74B
:1048000070B504460D461DB1206881682046884772
:1048100084F8285170BD70B505460C4600BFE96BA1
:104820000846C91700EB91618911216000BFA96B8F
:104830000846C91700EB9161C1F38F11E18100BFF8
:10484000686C4FF47A7190FBF1F0A07400BFD5F85A
:10485000C4100846C91700EB91618911616000BF5F
:10486000D5F8C0100846C91700EB9161C1F38F124B
:10487000228200BFD5F8CC004FF47A7190FBF1F0A2
:10488000E0740020A07605F1140000F008FDA17E80
:104890000843A07605F19C0000F001FD08B102205C
:1048A00000E00020A17E0843A0760A21A86C90FBBE
:1048B000F1F084F82800D020405990FBF1F0C1B20B
:1048C00029200155002070BD2DE9FC4706460F4602
:1048D0009046384603F07DFE214A224BCDE9000187
:1048E00003F0DEFE044603F045FE8146404603F039
:1048F00070FE04461A4A1B4B03F0D2FECDE90001BC
:1049000003F038FE824696F8280108B1BDE8FC871E
:1049100006F1140000F071F958B106F19C0000F0A6
:104920006CF930B1B9F1000F03D1BAF1000F00D129
:10493000ECE7494606F1140002F013FA514606F17D
:104940009C0002F00EFA06F1140000F05DF906F189
:104950009C0000F059F90120307200BFD6E700003A
:10496000C9AC410C32030E402DE9FE4F0646894684
:104970009246002002905746484603F02AFE4A4AD3
:104980004A4BCDE9000103F08BFE044603F0F2FD33
:10499000804696F8280108B1BDE8FE8F06F11400A4
:1049A00000F02BF958B106F19C0000F026F930B167
:1049B000B9F1000F03D1BAF1000F00D1ECE757B9FC
:1049C000414606F1140002F0CCF9414606F19C0084
:1049D00002F0C7F942E0781C01D0012F0DD17842D6
:1049E00000FB08F106F1140002F0BBF907FB08F127
:1049F00006F19C0002F0B5F930E0002F02DA7F42A8
:104A000001200290A7F17B0507F17B04029890B189
:104A100008FB04F090FBF4FB594606F1140002F089
:104A2000A0F908FB05F090FBF4FB594606F19C0049
:104A300002F097F911E008FB05F090FBF4FB5946F2
:104A400006F1140002F08DF908FB04F090FBF4FB72
:104A5000594606F19C0002F084F900BF18F15A0F84
:104A60000BDA57B9012106F1140000F00FFC012107
:104A700006F19C0000F00AFC09E0002106F1140098
:104A800000F004FC002106F19C0000F0FFFB06F1A1
:104A9000140000F0B9F806F19C0000F0B5F8012010
:104AA000307200BF78E70000C9AC410C32030E4001
:104AB00070B504460D46294604F1140000F0F6FBDB
:104AC000294604F19C0000F0F1FB00BF207F18B9DB
:104AD00000BF94F8A40098B1D4F824010268D1680A
:104AE0008847D4F8240102681169884778B904F12D
:104AF000140000F083FC04F19C0000F07FFC06E051
:104B0000D4F82401026891688847002020720020B0
:104B100070BD10B5044604F1140000F076FC04F1F9
:104B20009C0000F072FC10BDF0B585B004460E4646
:104B300017461D464FF0FF320021204600F068F86E
:104B40000446174820600520012100220E23CDE9EC
:104B50000132CDE90310134833462A460021009064
:104B600004F1140000F066FCA0F1140405200121FA
:104B70000E23CDE90131CDE903100A483B462A4610
:104B8000009004F19C0000F055FCA0F19C04C4F8D6
:104B90002451002084F82801204605B0F0BD000013
:104BA0009492000818730100034B03600171427175
:104BB0000023C37170470000B492000870B504462A
:104BC0000D46206801692046884748B1E068002802
:104BD00001DA002000E0E06820614FF0FF3070BD96
:104BE0002069401C2061E168884202DA6FF0010010
:104BF000F5E70020206100BFF1E70146087A08B917
:104C0000012070470020FCE701210172704700007D
:104C1000034B0360416000230372C260026170476E
:104C2000C8920008704710B5034698680C2801DB4D
:104C3000002010BD8818402801DB0020F9E703F5AB
:104C400004709C6840F834109C6800EBC40042601B
:104C50009868401C98600120EBE730B5034658681F
:104C6000402801DB002030BD03F110005D6820F812
:104C700035105C6800EBC40042605868401C586006
:104C80000120F0E730B50246D068002801DA0020A4
:104C900030BD02F50474D56804EBC5001368D0E993
:104CA00000452C449C4201DC012400E0002424B196
:104CB0004FF0FF30D0600020EAE71368581C106006
:104CC00002F1100000EBC30309CBC1E9000301208E
:104CD000DEE7F8B504460E4605216846FBF7E2FF1D
:104CE0000546294604F1300002F076FF20750421C4
:104CF0006846FBF7D7FF0546294604F1180002F085
:104D00006BFF607503216846FBF7CCFF054629461B
:104D100004F1240002F060FFA0750020F8BD2DE929
:104D2000F04107460D46164605EB850107F13C00AC
:104D300000EBC104983050F825100E30FBF794FFBB
:104D400080462268501C2060201D40F82280206888
:104D5000092801DB002020600021002008E0221D3E
:104D600052F820208A4202DD221D52F82010401CF9
:104D70000928F4DB00BF06F1800020F8151030F898
:104D80001500B0F5167F04DA307B0121A9400843F5
:104D90003073BDE8F08130B5002502F11B04655485
:104DA00030BD7CB505460C460020A0720C2168463B
:104DB000FBF778FFA17A0843A0720B216846FBF746
:104DC00071FF08B1022000E00020A17A0843A07220
:104DD0000A216846FBF766FF08B1042000E00020C6
:104DE000A17A0843A0720020E07202216846FBF716
:104DF00059FFE17A0843E07201216846FBF752FF50
:104E000008B1022000E00020E17A0843E0720020AF
:104E100084F82E0000BF0123224600212846FFF718
:104E2000BAFF0023224601212846FFF7B4FF0123E1
:104E3000224602212846FFF7AEFF002020732246BB
:104E400000212846FFF76BFF224601212846FFF785
:104E500066FF224602212846FFF761FF00BF0521B9
:104E600001A8FBF701FFA4F88A00062101A8FBF7BF
:104E7000FBFE81B28C200153072101A8FBF7F4FE51
:104E800081B28E200153092101A8FBF7EDFE81B20A
:104E9000902001530C2101A8FBF7E6FE81B292207D
:104EA000015300219420015396200153002024F83F
:104EB000980F1F216846FBF7F5FE2188084324F868
:104EC000980920216846FBF7EDFE08B1022000E0BA
:104ED0000020B4F898100843A4F8980021216846EF
:104EE000FBF7E0FE08B1042000E00020B4F89810C1
:104EF0000843A4F8980022216846FBF7D3FE08B1C6
:104F0000082000E00020B4F898100843A4F89800A6
:104F100023216846FBF7C6FE08B1102000E0002000
:104F200034F8981F08432080208824F89809242109
:104F30006846FBF7B7FE08B1402000E00020B4F857
:104F400098100843A4F898007CBD000010B50446F2
:104F50004FF0FF3200212046FFF75AFE04461E485C
:104F600020600122022104F1140002F047FEA0F1AA
:104F700014040122022104F1200002F03FFEA0F1FE
:104F800020040122022104F12C0002F037FEA0F1DE
:104F90002C040A20A06303232822104904F13C00BA
:104FA00002F042FBA0F13C040020A4F8B40004F19C
:104FB000E00000BFA0F1E00404F1E10000BFA0F1B7
:104FC000E1040320C4F8D4000421D82001510221B7
:104FD000DC200151204610BD08930008A57F000881
:104FE000704700002DE9FC4104460D4617461E4659
:104FF0003846216909B920610AE05A2221695143E2
:1050000000EB800201EB4201642291FBF2F121618D
:1050100000BF6068401C6060A168884209DD60785C
:1050200090F0010001D0012000E00020607000201D
:105030006060207830B1012837D002286AD0032878
:1050400032D180E043F22C312069884202DA3220EA
:10505000A06001E06420A060E87D50B1E068401CE1
:10506000E060962805DD0120207007214648FFF703
:10507000A7F943F2BC41206988420ADD00221921C8
:105080006846FBF7A8FE01221A216846FBF7A3FE3B
:105090000AE0012219216846FBF79DFE01221A2130
:1050A0006846FBF798FE00BF6AE0E87D58B9E06803
:1050B000401EE06010F1960F05DA002020700821F4
:1050C0003148FFF77DF9E87D00F0060002280DD198
:1050D000207001221A216846FBF77DFE002219216B
:1050E0006846FBF778FE0020A07049E0607828B1A0
:1050F00001221A216846FBF76EFE0AE00022192100
:105100006846FBF768FE00221A216846FBF763FE3B
:1051100000BF35E0E87D58B9E068401EE06010F15E
:10512000960F05DA0020207008211748FFF748F98C
:1051300001221A2101A8FBF74EFE0022192101A825
:10514000FBF749FE1CE03220A060607828B1012204
:1051500019216846FBF73FFE0AE000221921684644
:10516000FBF739FE00221A216846FBF734FE00BF28
:105170002EB1E87D08B1012000E00020207000BFC2
:1051800000BFBDE8FC8100007807002070B506462E
:105190000C461546284602F0A6FA207070BD70B580
:1051A00006460C461546284602F09DFA2080284601
:1051B00002F099FA218841EA002000B2208070BDF7
:1051C00070B506460C461546284602F08CFA20803B
:1051D000284602F088FA218841EA0020208070BD2C
:1051E00001460120704738B504460D462A46A11DE8
:1051F0006846FFF7CBFFA0796179884201D0002093
:1052000038BD284602F04DFA6179884201DA002063
:10521000F6E72A4604F108016846FFF7B7FF206861
:1052200081682046884710B10120E07101E000202C
:10523000E071E079E4E70146012070477CB504465F
:105240000D462A46A11D01A8FFF7A0FFA0796179AC
:10525000884201D000207CBD284602F022FA617904
:10526000884201DA0020F6E72A4604F10801684680
:10527000FFF7A6FF206881682046884710B101200B
:10528000E07101E00020E071E079E4E770B50446E8
:105290000D46A06E01688A682946904770BD10B51A
:1052A0000446A06E0268D168884710BDF8B5044670
:1052B0000E4620688169204688472068002142699F
:1052C0002046904778B10020A56E009028680368BA
:1052D0006A46211D28469847A06E02685168884793
:1052E0004FF0FF30F8BD206A08B9012000E000202F
:1052F000014604F17C0002F06FFC50B12068816827
:105300002046884700202063204601F00CFD002045
:10531000E8E7A06E016804F128020B6804F120019F
:1053200098472063204601F0FEFC0020DAE70000E9
:105330002DE9FF47804600200390D8F80410D8F8E4
:105340001400026802AB146803AAA047029803F095
:1053500040F90446264A274B03F0A2F906460F46B9
:10536000D8F8340003F035F90446214A224B03F003
:1053700097F9814632463B4602F0F0FECDE9000146
:1053800003F0F8F8C8F8340098F86C0010B10398EE
:1053900040420390D8F82C000399081AC8F8280056
:1053A000D8F87810D8F82800884208DDD8F87400BA
:1053B0004042D8F828100844C8F828000EE0D8F871
:1053C0007800401C4042D8F82810814206DAD8F80C
:1053D0002810D8F874000844C8F82800D8E9090152
:1053E0000844C8F824000398C8F82C00BDE8FF87DB
:1053F0009A9999999999C93F9999E93F10B50446A5
:10540000A06E02685168884710BD38B50446002078
:105410002072A06E0268516888470020A56E009037
:10542000286803686A46211D2846984700202062A4
:1054300038BD00002DE9F84F04460F4693461D463F
:105440000BAE96E84007CDF800905A463946204604
:105450000A9B01F089FC04461748206004F16400AF
:10546000002140F8641900BF0446A56684F86C80EA
:10547000C4F870A00120B0406067701E0121814017
:10548000A1670122642104F17C0002F0A0FBA0F1DD
:105490007C0461686069026804F13403D2F800C0DA
:1054A00004F12C02E0470020A0622046FFF740FFF5
:1054B0002046BDE8F88F0000709300080146087A86
:1054C000642805DC487A642802DC887A642801DDD7
:1054D000002070470120FCE738B504460D462A46F7
:1054E000A11D6846FFF752FEA0796179884201D07C
:1054F000002038BD284602F0D4F86179884201DAEC
:105500000020F6E72A4604F108016846FFF73EFE50
:105510002A4604F109016846FFF738FE2A4604F1DD
:105520000A016846FFF732FE2068816820468847F6
:1055300010B10120E07101E00020E071E079D8E7CE
:1055400001460120704738B504460D462A46A11D84
:105550006846FFF71BFEA0796179884201D00020E0
:1055600038BD284602F09DF86179884201DA0020B2
:10557000F6E72A4604F108016846FFF707FE2068AF
:1055800081682046884710B10120E07101E00020C9
:10559000E071E079E4E70146012070477CB50446FC
:1055A0000D462A46A11D01A8FFF7F0FDA0796179FB
:1055B000884201D000207CBD284602F072F8617953
:1055C000884201DA0020F6E72A4604F1080168461D
:1055D000FFF7F6FD206881682046884710B101205A
:1055E000E07101E00020E071E079E4E70146087A2B
:1055F000642801DD002070470120FCE738B504462F
:105600000D462A46A11D6846FFF7C0FDA0796179C5
:10561000884201D0002038BD284602F042F8617966
:10562000884201DA0020F6E72A4604F108016846BC
:10563000FFF7ACFD206881682046884710B1012043
:10564000E07101E00020E071E079E4E7C269026105
:10565000026A426170470146486AB0F5487F01DD41
:10566000012070470020FCE7C16270470021C16043
:10567000816141627047000030B50D4C046000BF8D
:105680000C4C04600C6844600C68E51704EB55751D
:10569000ED1085600024C460026143618461046987
:1056A000C4614469046243F2B0648462C46230BD80
:1056B00048920008F0930008F0B503460C469D6937
:1056C000002026681768F11BD3E90267CF1B7E43D1
:1056D0005F6807FB01669F693E449E61D9601F6950
:1056E0009E69BE4205DD1E699E615E6A0A365E6283
:1056F00011E01F697F429E69BE4206DA1E6976424A
:105700009E615E6A0A365E6205E05E6A002E02DD18
:105710005E6A761E5E629E69002E01DD5E6901E0B2
:105720005E6976429F69F019D3E90A76BE4204DDCC
:105730009E6A4643DF6A96FBF7F0F0BD7047002192
:10574000C1828182C162816241620221017070471F
:1057500038B5044600BF207A00B112E0E068B0F529
:10576000167F0DDAE068401CE0606068807D0128EB
:1057700006D12169481C2061642901DD01202072C5
:1057800000BF207A20B96068807D84F8210038BD90
:10579000A069401CA061A069642805DA01221D21CE
:1057A0006846FBF718FB15E0A069C82805DA012256
:1057B0001E216846FBF70FFB0CE00020A0610022D1
:1057C0001D216846FBF707FB00221E216846FBF7F8
:1057D00002FB00BF94F8210010F0010F0CD06068AC
:1057E000807D48B994F8200090F0010001D001209C
:1057F00000E0002084F8200094F8200028B9002060
:10580000E0612046FFF79BFF14E0E069401CE06187
:105810000B49E069884203DA204600F015F809E0F8
:105820000849E069884203DA2046FFF788FF01E073
:105830000020E0616068807D84F8210000BFA6E759
:1058400080FC0A00A0BB0D00C16A491CC16201783E
:1058500001297AD0022902D0032977D1CAE0818AAE
:10586000891C09B28182C18A891C09B2C18241683E
:10587000097B002945D09622826203220270002211
:10588000C2828282426290F8302092F0010201D0FE
:10589000012200E0002280F830200022C26242682B
:1058A000127B02F00702012A06D0032A07D0042A3D
:1058B0000DD0062A16D10DE09622426200E000BF0C
:1058C000426A8C324262012280F830200EE0962239
:1058D000426200E000BF426A8C324262002280F8DD
:1058E000302003E04FF4AA72426200BF00BF614A59
:1058F0001288D1B24023C3EB6103426A1A44426268
:105900004BE04168897A81B364228262032202708B
:105910000022C2828282426290F8302092F001021C
:1059200001D0012200E0002280F830200022C26273
:105930004268927A02F00702012A08D0032A09D0AD
:10594000042A0FD0062A19D110E027E06AE0782255
:10595000426200E000BF426A78324262012280F86F
:1059600030200FE07822426201E016E000BF426A78
:1059700078324262002280F8302003E04FF4AA72AD
:10598000426200BF00BF3B4A1288D1B24023C3EB42
:105990006103426A1A44426200BF46E0B0F9141043
:1059A000FA291CDAB0F9141011F1FA0F17DDB0F969
:1059B000141090F8302012B16FF0030200E00422BE
:1059C000114409B28182B0F9161090F830200AB162
:1059D000042201E06FF00302114409B2C182426A5D
:1059E000C16A914205DD0021C162C182818202212A
:1059F00001701AE0B0F9141011F1960F07DD818AD9
:105A0000891E09B28182C18A891E09B2C182D0E988
:105A10000A21914205DD0021C162C18281820121FA
:105A2000017002E00221017000BF00BFB0F9141044
:105A3000B1F5C87F03DD4FF4C871818207E0B0F98A
:105A4000141011F5C87F02DA4FF670618182B0F947
:105A50001610B1F5C87F03DD4FF4C871C18207E0AD
:105A6000B0F9161011F5C87F02DA4FF67061C182E5
:105A700070470000240800402DE9FC4105460E4611
:105A80002648006810F0010F10D1244801F0FEFDF7
:105A900060B1234C00202060606000906946204681
:105AA00002F0B6F800BF1D48AFF30080304603F0A7
:105AB000C1F9019001A905F2646002F0C1FA8046C3
:105AC000184903F017FA044603F098F907461648F8
:105AD000007858B1002014490870384603F0AAF93C
