:020000040800F2
:1000000000880020910B0008B50B0008B70B000812
:10001000BB0B0008BF0B0008C30B0008000000006A
:10002000000000000000000000000000C90B0008F4
:10003000C70B000800000000CB0B0008591F000888
:10004000CD0B0008CF0B0008D10B00083D0C0008B9
:10005000D30B0008D50B0008D70B0008D90B0008FC
:10006000DB0B0008DD0B00084B1E0008DF0B00084F
:10007000E10B0008E30B0008E50B0008E70B0008A4
:10008000E90B0008EB0B0008ED0B0008EF0B000874
:10009000F10B0008F30B0008F50B0008831E0008A5
:1000A000F70B0008F90B0008FB0B0008FD0B00081C
:1000B000FF0B0008010C0008030C0008050C0008E9
:1000C000070C0008090C00080B0C00080D0C0008B8
:1000D0000F0C000859170008E917000881180008DC
:1000E000511D0008110C0008870C000800F002F8F0
:1000F00000F045F80AA090E8000C82448344AAF17D
:100100000107DA4501D100F03AF8AFF2090EBAE87A
:100110000F0013F0010F18BFFB1A43F0010318473B
:10012000A0940000C0940000103A24BF78C878C1A1
:10013000FAD8520724BF30C830C144BF04680C60ED
:10014000704700000023002400250026103A28BF35
:1001500078C1FBD8520728BF30C148BF0B60704739
:100160001FB5AFF300809DE8030003F0F1F803F042
:100170003DF81FBD10B5002006F003FF10BD03F0D1
:1001800053F91146FFF7ECFF02F0B0FF03F08BF9D3
:10019000FFF7F0FF03F03EF908B500214FF00060D3
:1001A00003F01CFC25208DF8000001208DF80100D3
:1001B00005208DF8020001208DF80300684603F049
:1001C000C9FB26208DF8000001208DF801000520D4
:1001D0008DF8020001208DF80300684603F0BAFB99
:1001E00027208DF8000001208DF8010005208DF8F2
:1001F000020001208DF80300684603F0ABFB4FF4CA
:10020000C06003F0E1FB28208DF8000001208DF88C
:10021000010007208DF8020001208DF803006846D8
:1002200003F098FB08BD0020FF49C8600861142056
:10023000486100208861C8610846006840F00100FC
:10024000086008464068F9490840F7494860084690
:100250000068F7490840F44908600846006820F43F
:10026000802008600846406820F4FE0048600020B6
:100270008860704710B500BFEB48006810F0020FAF
:10028000FAD03020EB4908600846006840F00200D0
:1002900008600846006840F0100008600020E2494D
:1002A000486008464068486008464068486008461C
:1002B000406840F4806048600846406840F4004070
:1002C00048600846406840F460104860084600688E
:1002D00040F08070086000BFD348006810F0007FD5
:1002E000FAD0D148406840F00200CF49486000BFD2
:1002F000CD48406800F00C000828F9D1CA48C06910
:1003000040F00060C849C8610846C06940F08050AC
:10031000C8610846806940F00100886101210846F3
:1003200003F06CFB0121C80303F074FB012144F6C8
:100330000C0003F07BFB10BD41F63F704FF0E02155
:10034000486106200861002088610846006940F085
:1003500001000861704710B5042003F077F9A0F59B
:100360002541A53903D103F033FC03F027FC10BD70
:1003700010B5AD48806940F40060AB498861002049
:10038000AD490880AD49A1F8040CAB49283108807B
:1003900040F2FF70091D08800020A749083108803D
:1003A000A54934310880091D0880091D0880091DF0
:1003B00008806020A049183108800020091D0880AD
:1003C000091D088004209C49088000209B49A1F851
:1003D000040C0846B0F8000C40F00100A1F8000C35
:1003E0000121954803F035FC0121934803F03CFCC2
:1003F0008D48C06940F001008B49C861084680699A
:1004000040F0010088618E48406840F400708C49DB
:1004100048608548806940F0040083498861084647
:10042000806940F008008861002089040880888085
:10043000088540F2FF3088850020088140F2FF30B7
:1004400088860020088788877E49088046F27000E9
:10045000090608830020888311200884042008806E
:10046000002088800846008840F0010008806E481F
:10047000C06940F002006C49C8610846806940F0DC
:10048000010088616E48406840F440606C494860F3
:100490006548806940F010006349886100206A491E
:1004A0000880091D0880684928310880FF20091D3F
:1004B00008800320644908310880002062493431F3
:1004C0000880091D0880091D0880091D088040F268
:1004D00001105D49183108800020091D0880091DA0
:1004E000088004205849088000200905A1F8040468
:1004F0000846B0F8000440F00100A1F800044A48A2
:10050000C06940F004004849C8610846806940F06D
:10051000010088614A48406840F48050484948607A
:100520004148806940F010003F49886100204749F8
:100530000880091D0880454928310880FF20091DD1
:100540000880032041490831088000203F493431A8
:100550000880091D0880091D0880091D088040F2D7
:1005600001103A49183108800020091D0880091D32
:1005700008800420354908800020C904A1F8040837
:100580000846B0F8000840F001003049088010BD6E
:100590001CB50F21032003F051F94FF400400090E7
:1005A00000208DF804000C208DF8050001208DF846
:1005B0000600684603F0FCF80E21032003F03EF924
:1005C0004FF48040009000208DF804000C208DF83E
:1005D000050001208DF80600684603F0E9F80C21BB
:1005E000022003F02BF94FF48050009000208DF88A
:1005F00004000C208DF8050001208DF806006846E7
:1006000003F0D6F81CBD0848806940F00400064994
:100610008861BB200E4908600E480949C1F80408EA
:100620000148806918E00000001002400000FFF857
:10063000FFFFF6FE00200240002C01400020014098
:10064000000001404000004000040040000800405D
:1006500000080140BB84484440F00800FE4988611E
:10066000FE48FF490860FF48FF49C1F8040CFA48FA
:10067000806940F01000F8498861FC48FC49086036
:10068000FC484860F448806940F02000F2498861E5
:10069000F948FA490860FA48F549C1F80404EE48F7
:1006A000806940F04000EC498861F648F6490860EE
:1006B000F648EF49C1F80408704708B5012148051C
:1006C00003F0A8F90121022003F01CF94FF4407057
:1006D000ADF8000003208DF802001C208DF8030007
:1006E0006946DF4803F0BEF808BD10B5E84802F0DF
:1006F000D1FFE748283002F0CDFFE548643002F032
:10070000C9FF10BD1FB50121880303F08FF94FF415
:10071000E13000900020ADF80400ADF80600ADF81F
:100720000800ADF80C000C20ADF80A006946D94865
:1007300003F0D0FA012240F22551D64803F0B1FA75
:100740000121D44803F09BFA0121480403F062F927
:100750000121082003F0D6F84FF4E130009000208A
:10076000ADF80400ADF80600ADF80800ADF80C00D7
:100770000C20ADF80A006946C74803F0ABFA012225
:1007800040F22551C44803F08CFA0121C24803F01D
:1007900076FA0121880403F03DF90121BF4803F0F6
:1007A000B1F84FF4E13000900020ADF80400ADF84E
:1007B0000600ADF80800ADF80C000C20ADF80A00FA
:1007C0006946B74803F086FA012240F22551B44841
:1007D00003F067FAA048C06940F480209E49C861D0
:1007E0000121AF4803F04BFA1FBD9B48806940F4DC
:1007F0000070994988610846806940F0040088616A
:100800000846806940F0080088610846806940F029
:10081000100088610020A3490860A349C1F80804BA
:100820000846D0F80C0440F00500C1F80C04084656
:10083000D0F80C0440F02800C1F80C040846D0F8A9
:100840000C0440F4A070C1F80C040846D0F80C0465
:1008500040F42060C1F80C040846D0F80C0440F4C1
:10086000A040C1F80C040846D0F80C0440F4203035
:10087000C1F80C040846D0F8100440F00500C1F897
:1008800010040846D0F8100440F02800C1F8100405
:100890000846D0F8100440F4A070C1F810040846CF
:1008A000D0F8100440F42060C1F810040846D0F8D5
:1008B000100440F4A040C1F810040846D0F8100419
:1008C00040F42030C1F810040846D0F8100440F479
:1008D000A010C1F810040846D0F8100440F420001D
:1008E000C1F810040846D0F8100440F0A060C1F828
:1008F00010040846D0F8100440F0205069490C312B
:1009000008600020674928310860091D08606649B1
:10091000C1F834040846D0F8080440F00100C1F8DA
:1009200008040846D0F8080440F008005D49091D95
:10093000086000BF5B48001D006810F0080FF9D187
:100940005848001D006840F004005749C1F80804E9
:1009500000BF5448001D006810F0040FF9D1704723
:100960001CB500BF00BFFFF75EFCFFF783FCFFF77D
:1009700013FC4E48006840F480703B49C1F81008F1
:100980000846D0F8140840F48070C1F814083248C2
:10099000806940F00400304988610846806940F071
:1009A000080088610846806940F0100088610846A8
:1009B000806940F0200088610846806940F040006E
:1009C000886100220D2101A800F01FFA00222921D0
:1009D00001A800F01AFA00222A2101A800F015FA55
:1009E00000222B2101A800F010FA00222C2101A8DE
:1009F00000F00BFA00220F2101A800F006FA0022F5
:100A0000192101A800F001FA00221A2101A800F022
:100A1000FCF900221B2101A800F0F7F900221C219B
:100A200001A800F0F2F900221D2101A800F0EDF963
:100A300000221E2101A800F0E8F9FFF7E4FD0122E1
:100A40000D2101A800F0E1F91949684606F07EFD84
:100A50000022192101A82DE00010024000343400CA
:100A6000000C0140B0334433000001404003004417
:100A700000100140334B04343344B44400140140AB
:100A80004344444433443433001801404333333344
:100A90001C000240003801400044004010001400D7
:100AA000004800400424014000200140100801409B
:100AB00000350C0000F0A9F900221A2101A800F06D
:100AC000A4F900221B2101A800F09FF900221C219B
:100AD00001A800F09AF900221D2101A800F095F963
:100AE00000221E2101A800F090F90122292101A86D
:100AF00000F08BF92449684606F028FD01222A21DE
:100B000001A800F082F92049684606F01FFD012285
:100B10002B2101A800F079F91B49684606F016FD63
:100B200001222C2101A800F070F91749684606F04F
:100B30000DFD0122142101A800F067F9FFF70BFC5D
:100B4000FFF716FCFFF7D1FDFFF7DCFDFFF720FDF7
:100B5000FFF74BFEFFF7F0FBFFF7AFFD002214217C
:100B600001A800F052F90948D0F8100840F40050EC
:100B70000649C1F810080846D0F8100840F4804033
:100B8000C1F810081CBD000000350C000010014029
:100B90000348004703480449044A054B70470000D6
:100BA000ED00000800080020008800200058002008
:100BB00000580020704700BFFEE700BFFEE700BFFF
:100BC000FEE700BFFEE77047704770477047704709
:100BD000704770477047704770477047704770475D
:100BE000704770477047704770477047704770474D
:100BF000704770477047704770477047704770473D
:100C0000704770477047704770477047704770472C
:100C10001D48006840F400301C49C1F814041C4809
:100C2000B0F8040820F008001949A1F8040800BF32
:100C30001848008810F0080FFAD07047154800884F
:100C400010F0040F06D01348008820F0040010496B
:100C5000A1F804080F48008810F0020F06D00D48D4
:100C6000008820F002000A49A1F804080948008819
:100C700010F0010F06D00748008820F00100044959
:100C8000A1F80408704770471404014000000140B7
:100C9000002000400428004010B5024600200C4B04
:100CA00019600C4BD3F8083443F00103084C2C3C7A
:100CB000236000BF064B343B1B6813F0020FF9D0D2
:100CC000034B183318680023024CC4F8003410BDDD
:100CD000342401400020014010B50246002025299F
:100CE00072D2DFE801F08E13191F252B8E8E31365C
:100CF0003B41474D8E5266575C618E8E8E8E6C8E58
:100D00008E8E8E8E8E72777C81868800F84B1B6863
:100D1000012424EAD32076E0F54B1B68012424EA61
:100D2000133070E0F34B1B68012424EA13306AE0AF
:100D3000F04B1B68012424EA533064E0EE4B1B683F
:100D4000012424EA53205EE0EC4B1B6803F0010011
:100D500059E0EA4B1B68C3F3400054E0E74B1B68C3
:100D6000012424EA93004EE0E44B1B68012424EAAA
:100D7000D30048E0E14B1B68012424EA131042E051
:100D8000DE4B1B68C3F340103DE0DC4B1B68C3F334
:100D9000C03038E0D84B1B68C3F3C01033E0D64BEB
:100DA0001B68C3F380202EE0D34B1B68C3F3C02025
:100DB00029E0D24B1B68012424EA532023E0CC4BCA
:100DC0001B68C3F300201EE01BE0CB4B1B68C3F382
:100DD000800018E0C84B1B68C3F3C00013E0C64B8B
:100DE0001B68C3F300100EE0C54B9B68C3F3803053
:100DF00009E0002007E0C24B9B68012424EA53006D
:100E000001E0002000BF00BF10BD10B52D2973D236
:100E1000DFE801F017727272727272722A3D72729A
:100E20007250D2F272727272F0EFACBF72EEEDECF1
:100E3000EBEAE9727272727272E8E7E6E563738652
:100E4000990042B1AA4B08331B6843F48073AD4C40
:100E5000C4F8103807E0A64B0C331B6843F48073CA
:100E6000A84CC4F81438BBE142B1A44B08331B684A
:100E700043F00103A24CC4F8103807E09F4B0C3339
:100E80001B6843F001039E4CC4F81438A8E142B13A
:100E90009A4B08331B6843F00203994CC4F810388E
:100EA00007E0964B0C331B6843F00203944CC4F8E4
:100EB000143895E142B1914B08331B6843F020038D
:100EC0008F4CC4F8103807E08C4B0C331B6843F090
:100ED00020038B4CC4F8143882E132B1884B1B6973
:100EE00043F00403864C236105E0854B5B6943F0C6
:100EF0000403834C636173E171E142B17E4B0833BB
:100F00001B6843F480737E4CC4F8103407E07A4BBE
:100F10000C331B6843F48073794CC4F814345FE1DC
:100F200042B1764B08331B6843F04003744CC4F85D
:100F3000103807E0714B0C331B6843F04003704CD2
:100F4000C4F814384CE142B16C4B08331B6843F0D1
:100F500080036B4CC4F8103807E0684B0C331B68F7
:100F600043F08003664CC4F8143839E142B1634B56
:100F700008331B6843F40053614CC4F8103807E091
:100F80005E4B0C331B6843F400535D4CC4F81438BB
:100F900026E142B1594B08331B6843F48043584C57
:100FA000C4F8103807E0554B0C331B6843F48043FA
:100FB000534CC4F8143813E142B14D4B08331B684D
:100FC00043F400434F4CC4F8103807E0484B0C334F
:100FD0001B6843F400434B4CC4F8143800E1EFE0C5
:100FE000DCE0C9E0B6E0A6E096E077E063E04FE041
:100FF0003BE027E013E0FFE742B1404B08331B68BA
:1010000043F400433E4CC4F8103807E03B4B0C332C
:101010001B6843F400433A4CC4F81438E0E042B192
:10102000364B0C331B6843F48073354CC4F81438CA
:1010300007E0324B08331B6843F48073304CC4F82C
:101040001038CDE042B12A4B08331B6843F40073DB
:101050002C4CC4F8103807E0254B0C331B6843F4C4
:101060000073284CC4F81438BAE042B9214B083355
:101070001B6843F48063234CC4F8103C07E01D4B0D
:101080000C331B6843F480631E4CC4F8143CA7E087
:1010900042B9184B08331B6843F40063194CC4F879
:1010A000103C07E0134B0C331B6843F40063154CF2
:1010B000C4F8143C94E042B90E4B08331B6843F467
:1010C0008043104CC4F8103C07E00A4B0C331B68FB
:1010D00043F480430B4CC4F8143C81E0A2B9054BA7
:1010E00008331B6843F40043064CC4F8103C12E07C
:1010F00008080140080C014008140140081801408C
:101100000010014000000140364B1B6843F40043CF
:10111000354CC4F8143C63E032B9344B1B6943F4DA
:101120008073324C236105E0304B5B6943F480737C
:101130002E4C636154E032B92C4B1B6943F40073AD
:101140002A4C236105E0294B5B6943F40073274C6B
:10115000636145E03AB1264B1B6843F48063234C3E
:10116000C4F8103807E0224B1B1D1B6843F4806352
:101170001E4CC4F8143833E03AB11D4B1B6843F4DD
:1011800000631A4CC4F8103807E0194B1B1D1B688C
:1011900043F40063154CC4F8143821E03AB1144B01
:1011A0001B6843F48053114CC4F8103807E0104B0F
:1011B0001B1D1B6843F480530C4CC4F814380FE01B
:1011C00032B10A4B1B6943F40043084C236105E02C
:1011D000064B5B6943F40043044C636100E000BFCD
:1011E00000BF10BD140C0140000001400010014080
:1011F0001018014020B101281AD002284CD131E04A
:1012000071B1F74A128842F08002F64BA3F80C281D
:101210001A46B2F80C2842F00802A3F80C2806E09F
:10122000EF4A128822F08002EE4BA3F80C2834E03B
:1012300079B1ED4A128842F080024FF04023A3F8C2
:101240000C241A46B2F80C2442F00802A3F80C242D
:1012500007E0E54A128822F080024FF04023A3F80D
:101260000C241AE079B1E14A128842F080024FF072
:101270004023A3F80C281A46B2F80C2842F00802C2
:10128000A3F80C2807E0D94A128822F080024FF018
:101290004023A3F80C2800E000BF00BF704720B136
:1012A00001281AD002284CD131E071B1CC4A128801
:1012B00042F02002CB4BA3F80C281A46B2F80C28B7
:1012C00042F00402A3F80C2806E0C54A128822F076
:1012D0002002C44BA3F80C2834E079B1C24A12882A
:1012E00042F020024FF04023A3F80C241A46B2F833
:1012F0000C2442F00402A3F80C2407E0BA4A128836
:1013000022F020024FF04023A3F80C241AE079B118
:10131000B64A128842F020024FF04023A3F80C286E
:101320001A46B2F80C2842F00402A3F80C2807E091
:10133000AE4A128822F020024FF04023A3F80C2876
:1013400000E000BF00BF70472DE9F04104460D46A4
:1013500016460027B84600212046FFF7A0FF24B11B
:10136000012C1BD0022C49D130E0A14805F0B0FE81
:101370008046B8F1FF0F05D99D4805F0C3FE002057
:10138000BDE8F081002704E0994805F0C1FEE8556A
:101390007F1C474501D2B742F6DB30E0954805F0A7
:1013A00097FE8046B8F1FF0F04D9924805F0AAFED7
:1013B0000020E5E7002704E08E4805F0A9FEE85587
:1013C0007F1C474501D2B742F6DB18E08A4805F09A
:1013D0007FFE8046B8F1FF0F04D9874805F092FEE2
:1013E0000020CDE7002704E0834805F091FEE85592
:1013F0007F1C474501D2B742F6DB00E000BF00BFCB
:1014000001212046FFF74BFF3846B9E770B5044687
:101410000E46022C01D9002070BD04EB440000EB05
:10142000C400764901EB80051020A860EE60002022
:101430002861802068610020A861E86128624FF47B
:10144000405068620020A86224B1012C23D0022CF5
:1014500068D144E000216A4802F012F969486860E6
:101460005F48083828602946654802F083F94FF440
:10147000005002F0FBF80122802159480C3802F09C
:1014800008FC01215E4802F0FBF8012154480C38A9
:1014900002F0F5FB46E0002159483C3002F0F0F83C
:1014A00059486860504808382860294654483C30FC
:1014B00002F060F94FF0007002F0D8F801228021AC
:1014C00049480C3802F0E5FB01214D483C3002F060
:1014D000D7F8012144480C3802F0D1FB22E000216A
:1014E0004748283802F0CCF8484868603F48083838
:1014F000286029464248283802F03CF9202002F0B2
:10150000B5F80122802139480C3802F0C2FB0121D4
:101510003B48283802F0B4F8012134480C3802F076
:10152000AEFB00BF00BF012076E72DE9F041044685
:101530000D46164624B1012C1CD0022C75D134E086
:101540000020334908603349086000BF09E02A5C85
:101550002F490B680968491C2D4F39602949CA5425
:10156000401CB042F3DB0020294908603146FFF7F8
:101570004DFF5BE00020284908602849086000BF53
:1015800009E02A5C24490B680968491C224F39602C
:101590001D49CA54401CB042F3DB00201E490860BC
:1015A00031460120FFF732FF40E000201C4908606F
:1015B0001C49086000BF09E02A5C19490B680968EA
:1015C000491C174F39601149CA54401CB042F3DB23
:1015D00000201349086031460220FFF717FF25E07D
:1015E0000C380140003001400C4400400C480040E1
:1015F00054000020640200207404002084060020AF
:10160000440002406401002074030020840500208F
:101610000000002004000020080000200C00002032
:101620001000002014000020FFE700BF00BF30467C
:10163000BDE8F0810146002021B1012905D0022931
:1016400009D105E0C34A106807E0C34A106804E006
:10165000C24A106801E0002000BF00BF70472DE9BA
:10166000F04104460D461646BD48046024B1012CE5
:101670000CD0022C1ED113E0002704E0E919B94870
:1016800005F05BFD7F1CB742F8DB14E0002704E0A7
:10169000E919B54805F051FD7F1CB742F8DB0AE0B7
:1016A000002704E0E919B14805F047FD7F1CB74267
:1016B000F8DB00E000BF00BFBDE8F08130B50346B5
:1016C00023B1012B18D0022B42D12BE0A84800688F
:1016D000A04C2468A04205D10020A54C20609D4C60
:1016E000206030BDA24804680068401CA04D2860FE
:1016F000A048005D08702CE09F480068964C246864
:10170000A04205D100209C4C2060934C2060E8E76B
:10171000994804680068401C974D28609748005D10
:10172000087016E0964800688C4C2468A04205D1E9
:101730000020934C2060894C2060D2E790480468D8
:101740000068401C8E4D28608E48005D087000E0E7
:1017500000BF00BF0120C4E738B58B48048814F0EF
:10176000200F0FD0001D0088C0B2009001226946F2
:101770000020FFF774FF8548B0F8000820F0200033
:101780008149088014F0800F1DD07F48008820F028
:1017900080007E49A1F80008012269460020FFF779
:1017A0008DFF0546002D05DD9DF800007649091DD9
:1017B000088007E074480C30008820F080007349EE
:1017C000A1F80C0800BF14F0080F05D114F0040FA5
:1017D00002D114F0020F06D06B4804886B48B0F8B1
:1017E0000408C0B2009038BD38B56948048814F0C8
:1017F000200F10D0001D0088C0B200900122694661
:101800001046FFF72CFF4FF04020B0F8000420F006
:1018100020005F49088014F0800F1FD05C480088CA
:1018200020F080004FF04021A1F800040122694619
:101830001046FFF743FF0546002D05DD9DF800002B
:101840005349091D088008E051480C30008820F0F9
:1018500080004FF04021A1F80C0400BF14F0080FE5
:1018600005D114F0040F02D114F0020F07D048483C
:1018700004884FF04020B0F80404C0B2009038BD96
:1018800038B54448048814F0200F10D0001D00889B
:10189000C0B20090012269460220FFF7E0FE4FF03F
:1018A0004020B0F8000820F020003A49088014F0E9
:1018B000800F1FD03748008820F080004FF0402173
:1018C000A1F80008012269460220FFF7F7FE05464D
:1018D000002D05DD9DF800002E49091D088008E057
:1018E0002C480C30008820F080004FF04021A1F8F7
:1018F0000C0800BF14F0080F05D114F0040F02D13A
:1019000014F0020F07D0234804884FF04020B0F8AD
:101910000408C0B2009038BD70B5124805F024FC30
:1019200005461D4A1D4905F003FB04460E4805F017
:101930001BFC0546184A194905F0FAFA04460B48FB
:1019400005F012FC0546144A144905F0F1FA044664
:1019500070BD0000000000200800002010000020E2
:1019600018000020540000206402002074040020AD
:1019700004000020640100200C00002074030020FB
:101980001400002084050020003801400030014090
:101990000044004000480040000000088D7100082D
:1019A0007FB506460C46214603A8FFF775F900905F
:1019B000214603A8FFF770F90190214603A8FFF71D
:1019C0006BF902900025002013E0411C0EE05DF849
:1019D00020205DF821309A4207DD5DF820505DF847
:1019E00021204DF820204DF82150491C0329EEDB21
:1019F000401C0228E9DB019804B070BD2DE9F041DC
:101A000004460D4616461F4615F0FF0002D0012879
:101A10001ED10EE05D4800880006800C30600E216B
:101A20002046FFF7BDFF40F239314843401238608D
:101A300012E0574800880006800C30600F212046D5
:101A4000FFF7AEFF40F2393148434012386003E0FF
:101A500000203060386000BF00BFBDE8F08138B5BD
:101A6000044600220F216846FFF7CFF90020E0600E
:101A700038BD38B5044601220F216846FFF7C5F985
:101A8000E068142802DAE068401CE06038BDF8B570
:101A900004460D461646E068142801DA002000E0EE
:101AA00030460746E8B206286ED2DFE800F0031F92
:101AB0003F50575D002F0BDBB802364990FBF1F029
:101AC00049060887002208216846FFF79EF90CE0C6
:101AD000784280022F4990FBF1F0490608870122E5
:101AE00008216846FFF791F900BF4DE0002F0DDB9C
:101AF000B802284990FBF1F0C0F58060490688865D
:101B0000002209216846FFF780F90EE07842800242
:101B1000204990FBF1F0C0F58060490688860122DB
:101B200009216846FFF771F900BF2DE0002F06DBA1
:101B3000B802184990FBF1F04906888706E0784220
:101B40008002144990FBF1F0490688871CE0B80236
:101B5000104990FBF1F01049088015E0B0020D49E2
:101B600090FBF1F060600FE0B0020A4990FBF1F0E9
:101B7000A06000BFD4E90110884201DAA06800E04B
:101B800060680649088000BF00BFF8BD240400401B
:101B900024080040A086010040000040342C014091
:101BA000002008E0DA4B03EBC001DA4B03EBC00284
:101BB0000A6000BF401C0428F4DB704730B10128E4
:101BC0000CD0022812D0032820D117E0D24909688E
:101BD00041F48051D14AC2F8001418E0CE49096896
:101BE00041F40041CD4AC2F8001410E0CA49096826
:101BF00041F48051C94AC2F8001408E0C649096896
:101C000041F48041C54AC2F8001400E000BF00BFA3
:101C1000704730B101280CD0022812D0032820D1FF
:101C200017E0BD49096821F48051BC4AC2F800148C
:101C300018E0B949096821F40041B84AC2F8001413
:101C400010E0B549096821F48051B44AC2F8001483
:101C500008E0B149096821F48041B04AC2F8001493
:101C600000E000BF00BF7047012804D0022812D056
:101C7000032830D11FE0A8490831096841F4004128
:101C8000A64AC2F808141146D1F80C1421F40041F8
:101C9000C2F80C1420E0A0490831096841F48051D1
:101CA0009E4AC2F808141146D1F80C1421F4805150
:101CB000C2F80C1410E098490831096841F48041D9
:101CC000964AC2F808141146D1F80C1421F4804148
:101CD000C2F80C1400E000BF00BF7047012804D018
:101CE000022812D0032830D11FE08B49083109683F
:101CF00021F40041894AC2F808141146D1F80C14A5
:101D000041F40041C2F80C1420E08349083109680D
:101D100021F48051814AC2F808141146D1F80C14FC
:101D200041F48051C2F80C1410E07B490831096875
:101D300021F48041794AC2F808141146D1F80C14F4
:101D400041F48041C2F80C1400E000BF00BF7047AE
:101D500010B571481430006810F4805F19D06E48D7
:101D6000006820F480506D49C1F800040846D0F89E
:101D7000140440F48050C1F814046548103004F095
:101D800055FA6648D0F8000440F480506349C1F821
:101D9000000461481430006810F4004F19D05E4808
:101DA000006820F400405D49C1F800040846D0F8FE
:101DB000140440F40040C1F814045548083004F0FD
:101DC00035FA5648D0F8000440F400405349C1F8B1
:101DD000000451481430006810F4806F14D04E484D
:101DE000006820F480604D49C1F800040846D0F82E
:101DF000140440F48060C1F814040846D0F80004CC
:101E000040F48060C1F8000443481430006810F4C6
:101E1000804F19D04048006820F480403F49C1F805
:101E200000040846D0F8140440F48040C1F81404BB
:101E30003748183004F0FAF93848D0F8000440F474
:101E400080403649C1F8000410BD334814300068A2
:101E500010F0100F14D03048006820F010002F4907
:101E6000C1F800040846D0F8140440F01000C1F88E
:101E700014040846D0F8000440F01000C1F8000433
:101E8000704725481430006810F0400F14D02248E5
:101E9000006820F040002149C1F800040846D0F84D
:101EA000140440F04000C1F814040846D0F80004BF
:101EB00040F04000C1F80004704710B50446184BCC
:101EC00008220421124805F08AF810BD10B5044616
:101ED000144B082204210F4805F081F810BD10B5FD
:101EE0000423082210490B4805F03AF80F4A10491C
:101EF000002005F01DF8042308220E49044805F0CF
:101F00002FF80A4A0C49002005F012F810BD000015
:101F100028070020080700200004014000000140BD
:101F20005362000801780008F177000800000008FB
:101F3000CD1E00084B620008BB1E0008002008E010
:101F40005F4B03EBC0015F4B03EBC0020A6000BFB5
:101F5000401C0228F4DB704710B500BF58484068A9
:101F600028B1574A506852681268916888475448A7
:101F7000006828B1524A1068126812689168884750
:101F800000BF10BD10B5044601214FF0C05001F054
:101F900041FD012001F02CFD01F04EFB012001F07C
:101FA000B9FD00BF412001F09DFD0028FAD04FF49B
:101FB000807001F0C5FD012001F0BCFD01F008FEBC
:101FC00001F0FCFD01F0FAFD47F6FF7001F0E6FDBF
:101FD00001F0F4FD4FF46162216851436268C2EB85
:101FE000021201EB8201A268881801F0C9FD01F01C
:101FF000E5FD4AF2A551042001F030FB10BD2DE9AA
:10200000F04104460D461646042001F01FFBA0F5E2
:102010002541A53904D0FF2020702870307023E0BE
:1020200001F0A6FD07464FF46160B7FBF0F0182100
:10203000B0FBF1F201FB120020704FF46160B7FBBE
:10204000F0F100FB11703C21B0FBF1F028704FF46F
:102050006160B7FBF0F100FB11703C21B0FBF1F2C5
:1020600001FB1200307000BFBDE8F08110B50446DE
:10207000154B08220221124804F0B1FF10BD10B523
:102080000446124B082202210E4804F0A8FF10BD9E
:1020900010B5022308220E490A4804F061FF0D4AD8
:1020A0000D49002004F044FF022308220B49044894
:1020B00004F056FF074A0A49002004F039FF10BD1A
:1020C00058070020480700205362000801780008E4
:1020D000F1770008000000087F2000084B6200082C
:1020E0006D20000800BF002002490860486000BF62
:1020F000704700002C0000207CB50446A069FFF763
:1021000099FA00B17CBD04F1B40004F08EFFAA205E
:10211000019001A904F1B40004F0A2FF5520019040
:1021200001A904F1B40004F09BFF0020019001A973
:1021300004F1B40004F094FF04F1B401D4F8F00108
:1021400005F025F804F1B40004F053FFC01EC5B239
:10215000022104F1B40004F0ABFF057000200090F0
:1021600002250AE0294604F1B40004F0A1FF00783A
:102170009DF80010484000906D1C04F1B40004F07C
:1021800038FFA842EEDC694604F1B40004F068FFB1
:102190000020C4F8F40104F1B40004F02AFF05465D
:1021A00004F1B40004F03CFF06462A460146002034
:1021B000FFF7BBF904F1B40004F01BFF054604F17E
:1021C000B40004F02DFF06462A4601460220FFF720
:1021D000ACF997E770B50446002604F1240004F03A
:1021E0002AFF82E004F1240004F025FF05460D2DAE
:1021F00075D2DFE805F074071019222B343D464FE5
:1022000058616A0004F1240104F5A67004F02CF86A
:1022100000B1012668E004F1240104F5AC7002F07D
:10222000F5FF00B101265FE004F1240104F5B2706E
:1022300004F067F800B1012656E004F1240104F52A
:10224000B87003F075F800B101264DE004F12401E7
:1022500004F5BE7002F001F900B1012644E004F17A
:10226000240104F5C47004F09EFC00B101263BE09B
:1022700004F1240104F5D07004F0EDFC00B1012656
:1022800032E004F1240104F5D67001F06AFD00B1DA
:10229000012629E004F1240104F5DC7002F076FE49
:1022A00000B1012620E004F1240104F5E27002F0FF
:1022B00042FE00B1012617E004F1240104F5EC70A0
:1022C00002F0DBFF00B101260EE004F1240104F569
:1022D000F27002F0FDFF00B1012605E0FFE704F116
:1022E000240004F0A2FE00BF00BF04F1240004F0AB
:1022F00080FE00283FF776AF304670BD73B50446C8
:10230000002594F8200030B101280CD0022812D00A
:1023100003283CD129E09DF80400AA2802D101201D
:1023200084F8200037E09DF80400552802D10220EF
:1023300084F820002FE09DF80400782811DA9DF839
:102340000400801CC4F8480104F1240004F06DFE70
:1023500001A904F1240004F083FE032084F8200086
:1023600002E0002084F8200015E001A904F1240017
:1023700004F076FE04F1240004F03BFED4F848118A
:10238000884203D10125002084F8200003E00020CA
:1023900084F8200000BF00BF28467CBD2DE9F04135
:1023A000A0B0064688464FF0FF37F069B0F1FF3F16
:1023B00005D058B101280AD0022810D108E03148D0
:1023C0000068F0612F480068B06109E000BF00BFFD
:1023D000D6E90610884201D0F069B06100E000BF84
:1023E00000BF80226946B069FEF7AEFF05460024B3
:1023F0000BE01DF804103046FFF780FF20B1304697
:10240000FFF7E8FE00B10027641CAC42F1DB00BF1F
:10241000D6F84401401CC6F84401042804DB00201F
:10242000C6F84401012000E0002010B13046FFF75B
:1024300063FE384620B0BDE8F0814FF0FF31C16146
:10244000704770B5044604F1B40004F0D2FDD4F82E
:10245000F411451A202D00DD2025002D10DD04F19A
:10246000B40004F0DDFDD4F8F41146182A463146D4
:10247000A069FFF75AF8D4F8F4012844C4F8F4012D
:1024800070BD0000180000202DE9F05FADF5B05DD3
:10249000002500260027A846A94600BF04200DF508
:1024A000805CCCF8E0050020CCF8E405CCF8E80529
:1024B000CCF8EC05CCF8F00501208CF8F40500BF51
:1024C0007D24FF48046000BFFFF76AFBFFF736FD7D
:1024D000FEF746FA41F2D450684401F09FFC41F205
:1024E0002850684400BF002120F8081F20214176B1
:1024F00001218176C1762221017717214177402180
:1025000081776121C1770021A0F87E1000BF00BF54
:10251000491EC0F8A010083800BF41F22851694494
:10252000A1F5FC7003F0A0FF82460B200DF5805C46
:1025300041F28833E34ACCF8FC050CF2FC510DF56E
:10254000985002F033FF0B200DF5805C41F2883388
:10255000DC4ACCF8F8050CF5BF61A1F54A7002F031
:1025600025FF0DF59650D849016000BFD74901609D
:1025700000214160816000BF034600F110020DF5AB
:102580009851A0F5967002F085F900BFD0480DF57E
:10259000805CCCF8A8000020CCF8AC00CCF8B000EF
:1025A000CCF8B400CCF8B800CCF8BC00CCF88C0166
:1025B000CCF8900100BF05E000220DF5865141F8EE
:1025C0002020401C3228F7DB00200DF5805CCCF881
:1025D000880100BF0DF6646004F096FA0DF69C7A4F
:1025E0004FF480730AF10C020021504605F04EF8BA
:1025F00000BF0DF5DB6003F0B9FB0DF6A870CDF858
:10260000300900BF0DF5DB6002F0B0FF00BF002015
:10261000ADF884060F20ADF888060420CDF88C06AE
:102620000020CDF890066420CDF894062920CDF83E
:1026300098062A210DF2846081612B21C1612C2131
:10264000016200BFE43802F035FB03210DF2BC400B
:1026500003F030FD0121F6A803F02CFD0221BDA8F6
:1026600003F028FD0DF52E7A4FF0FF320021504681
:1026700002F082F982469748CAF8000000208AF8E2
:1026800014008AF815008AF81600012205210AF1C3
:10269000180004F03FFFA0F1180A012205210AF1F9
:1026A000240004F037FFA0F1240A012205210AF1D9
:1026B000300004F02FFFA0F1300A00BF0DF5247A9E
:1026C0004FF0FF320021504602F056F98246824810
:1026D000CAF8000040F2DC50CAF8140000208AF862
:1026E00018000AF11C000021016000BFA0F11C0AC3
:1026F0000020CAF8240000BF0DF596511CA801F077
:1027000069FE00BF00201B9000BF96224FF4887125
:1027100027A802F056F99622E52127A802F051F9E0
:10272000C822AB2127A802F04CF90322002127A8D8
:1027300002F02DF99622AB2127A802F042F9962249
:10274000E52127A802F03DF9C8224FF4887127A897
:1027500002F037F90322114627A802F018F93222B5
:10276000882127A802F02DF93222002127A802F0A3
:1027700028F93222882127A802F023F90322062112
:1027800027A802F004F91922882127A802F019F9D4
:102790000222002127A802F014F90222092127A809
:1027A00002F0F5F86422982127A802F00AF96422C1
:1027B000AB2127A802F005F96422CC2127A802F05A
:1027C00000F9642240F2011127A802F0FAF864220D
:1027D0004FF4887127A802F0F4F84FF4FA62002150
:1027E00027A802F0EEF86422982127A802F0E9F861
:1027F0006422AB2127A802F0E4F86422CC2127A8A8
:1028000002F0DFF8642240F2011127A802F0D9F8A3
:1028100064224FF4887127A802F0D3F84FF4FA62CB
:10282000002127A802F0CDF86422982127A802F001
:10283000C8F86422AB2127A802F0C3F86422CC2197
:1028400027A802F0BEF8642240F2011127A802F086
:10285000B8F864224FF4887127A802F0B2F8112268
:102860000B2127A802F093F864224FF4887127A85F
:1028700002F0A7F8642240F2011127A802F0A1F8A3
:102880006422E52127A802F09CF86422CC2127A825
:1028900002F097F86422B52127A802F092F80522E9
:1028A0001C2127A802F073F864224FF4887127A82E
:1028B00002F087F8642240F2011127A80EE0000020
:1028C00028000020486B01009C930008FC9300083E
:1028D000A3B0AE3DCC9100085C93000802F071F803
:1028E0006422E52127A802F06CF86422CC2127A8F5
:1028F00002F067F86422B52127A802F062F864228A
:10290000AB2127A802F05DF86422982127A802F0E5
:1029100058F86422882127A802F053F808222121C0
:1029200027A802F034F800211CA801F047FC00BFE2
:1029300000208DF8580001208DF859008DF85A00BC
:102940000020179064201890002019901A9000BF62
:1029500000BF159000BF00BF1490FF4800680DF540
:10296000805CCCF8C405FC48001D0068CCF8C805A4
:10297000F94808300068CCF8CC05B6E300BF0DF587
:10298000805C9CF8D40500B9AFE300BF00200DF5D2
:10299000805C8CF8D40500BFBCF83005401DACF855
:1029A00030050CF5A5610DF5B46002F0AFF800211B
:1029B0000DF2BC4003F060FA41F2465169440DF259
:1029C000BC4003F05DFB0021F6A803F055FA41F28C
:1029D00047516944F6A803F053FB0021BDA803F05A
:1029E0004BFA41F248516944BDA803F049FB0DF28E
:1029F000846003F0E6FB0021AEA802F01EF89DF80B
:102A0000CD0208B1022000E000200DF5805C8CF8BA
:102A10003E059CF83E059DF8CE1209B1012100E06B
:102A2000002108430DF5805C8CF83E059CF83E05BE
:102A30009DF8CC1209B1042100E0002108430DF5F6
:102A4000805C8CF83E05149810F0010F04D19CF8BE
:102A50003E0510F0010F15D1149810F0020F06D1A9
:102A60000DF5805C9CF83E0510F0020F0AD1149819
:102A700010F0040F0AD10DF5805C9CF83E0510F0B3
:102A8000040F03D003211CA801F098FB0DF5805C16
:102A90009CF83E0514900021A4A803F063FCA4A8B0
:102AA00003F05DFC642190FBF1F00DF5805C8CF887
:102AB000400500BF9DF8A9028CF83F0500BF9DF8B6
:102AC000A80208B1102000E000200DF5805C9CF801
:102AD0003F1508438CF83F050CF24F52511E481E1B
:102AE000FFF78DFA00211CA801F036FC1CA801F0AC
:102AF00039FF58B141F29410684401F033FF28B116
:102B0000002141F29410684401F084FD00BF0DF5EE
:102B1000805CDCF8E005401CCCF8E0059CF8F4157E
:102B2000884204DBDCF8E805CCF8F00512E00DF58E
:102B3000805C9CF8F405DCF8E015401ADCF8E4153C
:102B400048439CF8F41590FBF1F0DCF8E815081AFE
:102B5000CCF8F0050DF5805CDCF8F085DCF8EC9540
:102B600000BFC246CB46D046CCF88CA1D946CCF8A3
:102B700090B15B4652460CF5A561A1F5906001F05D
:102B8000AEFC00BF0DF5805C0CF5CA700CF5C6718B
:102B900006C901F0A3FDA4A803F0E1FB82460146AB
:102BA0000DF5985002F0FAFBA4A803F0D8FB82467A
:102BB000014641F2D020684402F0F0FBA4A803F0E3
:102BC000CEFB8246B8F1640F01DC012000E000205A
:102BD0000346524641F22851694416A802F0B5F85E
:102BE00000BF9DF85800032801D1012000E000201B
:102BF00030B10022114641F29410684401F06EFD9C
:102C000000BF9DF85A0008B1002003E001208DF8B4
:102C10005A0000BF18B102211CA801F0CFFA002110
:102C200041F29410684401F007FE41F228516944D2
:102C3000A1F5657001F0F9FC00BF0DF5805CDCF8D2
:102C4000DC15C8B200BF8CF8410500210DF66460A8
:102C500003F0FEFD0DF5805CDCF88C0170B9DCF84A
:102C6000900158B9DCF8280540B9DCF82C0528B9E2
:102C70009CF8340510B99CF8330518B101208DF883
:102C8000D90602E000208DF8D9060DF5805C9CF88D
:102C9000600508B9012000E0002012900DF5805C6D
:102CA0009CF86005C0F1180301460CF2625000EB7D
:102CB000410213A90DF6646003F0EBFD0DF5805C95
:102CC0009CF8601508448CF8600500BFBDF8921FA1
:102CD00011919DF8980F00218DF8981F00BF28B31F
:102CE0000023009301931A460293BDF8440001B2F9
:102CF0000DF5DB6002F028FE1849DDF8DC0605F072
:102D00003DFE824605F05CFF00B20DF5805CACF83C
:102D100058051249DDF8E40605F030FE824605F05C
:102D20004FFF00B20DF5805CACF85A059DF88E0F90
:102D300028B9BDF8901F0DF5DB6002F099FB9DF8F6
:102D4000792E0D2141F22850684401F032F8012219
:102D5000042141F2285003E0E8F7FF1F0000C842B9
:102D6000684401F026F8129828B19DF84C000DF542
:102D7000805C8CF85F05002141F230306844FFF739
:102D80000DFB00287ED100BF41F23030684490F83E
:102D9000530168B1002141F23030684480F853118A
:102DA000B0F95621B0F954110DF5AF5003F03CF8CD
:102DB00041F23030684490F86B01D8B1002141F203
:102DC0003030684480F86B110121A0F5CE7001F01D
:102DD00021FC41F29410684401F0C4FD50B141F26D
:102DE0003030684490F86E21B0F86C1100231CA8B4
:102DF00001F066F941F23030684490F85F0128B183
:102E0000002141F23030684480F85F1141F23030E7
:102E1000684490F8770168B141F23030684490F826
:102E200078111CA801F0CAF9002141F23030684441
:102E300080F8771141F23030684490F8A70128B14A
:102E4000002141F23030684480F8A71141F230305F
:102E5000684490F88F0128B1002141F23030684475
:102E600080F88F1141F23030684490F8B30170B1AE
:102E7000002141F2DC406844C171A0F5D671B1F87F
:102E8000B40100E018E1ADF8540600BF00BF41F204
:102E90003030684490F8BF0100283ED0002141F254
:102EA0003030684480F8BF11B0F8C00110F0010F55
:102EB00006D001220A2141F22850684400F079FF2F
:102EC00041F230306844B0F8C00110F0020F06D073
:102ED00001220B2141F22850684400F06AFF41F2C0
:102EE00030306844B0F8C00110F0040F06D0012261
:102EF0000C2141F22850684400F05BFF41F2303071
:102F00006844B0F8C00110F0080F06D00122132168
:102F100041F22850684400F04CFF41F230306844E0
:102F200090F8EB01002871D0002141F23030684464
:102F300080F8EB11B0F8EC01C0431FFA80FA4FEAB9
:102F40002A1A00BFBDF8880600EA0A00ADF8840618
:102F50000DF2846003F035F900BF41F2303068446F
:102F6000B0F8EC0100F00102252110A8FDF74DFF9B
:102F700041F230306844B0F8EC01C0F34002262141
:102F800010A8FDF742FF41F230306844B0F8EC0180
:102F9000C0F38002272110A8FDF737FF41F230303F
:102FA0006844B0F8EC01C0F3C002282110A8FDF776
:102FB0002CFF41F230306844B0F8EC01C0F300223D
:102FC0001B2110A8FDF721FF41F230306844B0F812
:102FD000EC01C0F340221C2110A8FDF716FF41F2BE
:102FE00030306844B0F8EC01C0F380221D2110A8F5
:102FF000FDF70BFF41F230306844B0F8EC01C0F34C
:10300000C0221E2110A8FDF700FF00BF41F23030A2
:10301000684490F8DF0168B3002141F20850684429
:10302000C1710DF69C7000F5657393F8E01100F224
:10303000F7520B014FF0000E09E003EB0E0A00F10E
:103040000C0C1CF80AA002F80EA00EF1010EBEF145
:10305000100FF2DB00BF41F23030684490F8E0011D
:103060000DF5805C8CF8920501220F210CF5A5600E
:1030700000F09FFE41F23030684490F8CB01B8B1C7
:10308000002141F2F4406844C171A0F5E27191F869
:10309000CC01002109E00DF68A6212F8312082424B
:1030A00002D1CDF87C1E02E0491C2029F3DB00BFD1
:1030B00000270025012617E0781C0746B0F5167F8B
:1030C00012DD41F230306844FFF7B7F900275EB1F6
:1030D0004DB904211CA801F071F8002211460DF52C
:1030E000AF5002F0A1FE012500BF47E410B5FFF785
:1030F000CBF9002010BD032A40F2318010F0030C00
:1031000000F0158011F8013BBCF1020F624498BF3A
:1031100011F801CB00F8013B38BF11F8013BA2F1D7
:10312000040298BF00F801CB38BF00F8013B11F052
:10313000030300F02680083AC0F0098051F8043BF0
:1031400051F804CB40F8043B40F804CBF3E7121DE0
:103150005CBF51F8043B40F8043BAFF30080D2075A
:1031600024BF11F8013B11F801CB48BF11F8012B26
:1031700024BF00F8013B00F801CB48BF00F8012B49
:10318000704710B5203AC0F00B80B1E81850203AD3
:10319000A0E81850B1E81850A0E81850BFF4F5AFF7
:1031A0005FEA027C24BFB1E81850A0E8185044BF81
:1031B00018C918C0BDE810405FEA827C24BF51F8EE
:1031C000043B40F8043B08BF7047D20728BF31F8E2
:1031D000023B48BF11F8012B28BF20F8023B48BF33
:1031E00000F8012B704770477047704770B5064C68
:1031F0007C44064D7D4403E0206820448047241D24
:10320000AC42F9D170BD0000EC630000F86300002F
:1032100001487047704700009C0700200148704734
:1032200070470000A007002070B5064600F072F855
:103230000568301D082838BF0820C01D20F007048D
:10324000B44220D929466868B8B10268A24210D3B6
:1032500004F108039A423CBF42684A6007D34368BE
:103260000219536003681B1B13604A600460001D51
:1032700070BD014640680028E7D12146284600F08D
:1032800053F80028DED1002070BD70B50546041F3C
:1032900000F040F80168002D08BF70BD486801E0EB
:1032A00001464068002818BFA042F9D30A685318A5
:1032B000A34218BF4C6003D123680C461A440A602D
:1032C00021680A1982421CBF606070BD426862605A
:1032D00000680844206070BD10B500F075F8BDE8C6
:1032E000104000F06BB82DE9F04105460F46164638
:1032F00033B106FB0354A41B2046B847A542FAD1BC
:10330000A5F10800BDE8F08100F076B800487047EC
:1033100068070020014870477047000070070020D0
:10332000704770477047704738B504460A4600201A
:103330006946AFF30080002808BF38BD02460099F7
:10334000204600F096F8012038BD012000F0D2B8E8
:10335000F8B5AFF30080054600200C46102000BFF2
:1033600006462844A0420DD9324669460020AFF3F4
:103370000080070008BF00F0BDF80098A04218BF09
:103380000546C419FFF7C6FFF11D074621F00701E6
:103390004E190560284600F00AF8B44208BFF8BD8F
:1033A000A21B31463868BDE8F84000F062B8002141
:1033B000016041608060704710207047002801D094
:1033C00000F028B87047000010B5002102A000F0FE
:1033D00078F8012010BD00005349475056464E3A38
:1033E0002050757265207669727475616C20666E06
:1033F0002063616C6C65640010B500F085F80169AC
:1034000019B100220261884701E08068804700F01E
:1034100050F8000003494FF01800ABBE70470000A1
:1034200041010000260002007546FFF76FFFAE461F
:1034300005006946534620F00700854618B020B5C0
:10344000FDF7A8FBBDE820404FF000064FF0000755
:103450004FF000084FF0000B21F00701AC46ACE83C
:10346000C009ACE8C009ACE8C009ACE8C0098D46A9
:1034700070478C4600E018464368002B18BF634530
:10348000F9D303681844604507D0C81C20F0070032
:1034900000F1040CACEB0100121A0CF10400CCF8A2
:1034A0000020FFF7F2BE0446AFF300802046FCF791
:1034B0006FFE002000F05CF8FCF75CFE0120FFF7D7
:1034C000A9FF70B504460D460A2000E0641C00F018
:1034D00041F834B120780028F8D102E06D1C00F0EA
:1034E00039F815B128780028F8D1BDE870400A20D5
:1034F00000F030B810B500F043F8BDE81040FFF719
:103500005DBF0000FFF7D5FF70B500F02BF8046831
:103510000546B4B92020FFF787FE040001D1FFF76C
:10352000C8FF094900202C60C4E900010749A160D7
:103530002073206160610649A06109B100F046F87E
:10354000E061204670BD0000000000000535000865
:103550000000000008B5694600900320ABBE08BD1E
:10356000704700000148704770470000A407002022
:1035700010B500F049F8BDE81040FFF71FBF00008C
:10358000002110B5012800D102A108A0FFF799FF82
:10359000012010BD3A2048656170206D656D6F7225
:1035A0007920636F72727570746564005349475275
:1035B000544D454D3A204F7574206F662068656103
:1035C00070206D656D6F72790000000010B5882065
:1035D000FFF72AFE002801D00021017010BD8029CC
:1035E00002D808B1017809B100207047012100F824
:1035F000081B704718B100F10802914201D0002069
:10360000704700210170704710B5002102A0FFF73C
:1036100058FF012010BD0000534947414252543A1F
:103620002041626E6F726D616C207465726D696E9F
:103630006174696F6E00000010B5012000F002FA9D
:10364000BDE81040002000F0FDB900000249084428
:10365000B0F8000C7047000000600040024A1044BF
:10366000A0F8001C70470000006000400349C20041
:1036700002D5C1F80404704748607047000002405A
:103680000029016802D041F0010101E021F00101AF
:10369000016070470268002122F0010202600160AF
:1036A00041608160C160304B2F49C21A8039984215
:1036B00045D018DC2D4BA0EB0302984237D00ADC32
:1036C0002B4A80182BD014282DD0282826D14868C2
:1036D00040F4706036E0142A2DD0282A1ED14868A4
:1036E00040F470002EE0B2F56C7F32D00ADCB2F507
:1036F000627F29D0B2F5677F10D1D1F8040440F081
:10370000F00009E0B2F5717F28D0B2F5767F05D1DF
:10371000D1F8040440F47020C1F8040470474868EC
:1037200040F00F000EE0486840F0F0000AE0486802
:1037300040F4704006E0486840F4702002E04868B9
:1037400040F0706048607047D1F8040440F00F000A
:10375000E2E7D1F8040440F47060DDE7D1F8040436
:1037600040F47040D8E7000080000240440002406E
:10377000F8FFFDBF70B5026847F6F0739A430E6A12
:103780008B680C693343D1E905562C432343CC693C
:1037900033432343D1E909542B43234313430360A9
:1037A000CA6842600A6882604968C16070BD0000F2
:1037B00010B5837920490268A3B3D1F8003493434C
:1037C000C1F80034D1F8042403689A43C1F80424F2
:1037D000027904680A44D2F800342343C2F8003462
:1037E000D1F8082403689A43C1F80824D1F80C24BE
:1037F00003689A43C1F80C244279102A0AD101F5D2
:1038000081610A6803681A430A604A6800680243D3
:103810004A6010BD1144D1F8002400680243C1F889
:10382000002410BDFFE700790844D0F8001491434C
:10383000C0F80014F5E700000000014010B58A0749
:1038400021F003040649120F21440F238C68934092
:103850009C438C608B68904003438B6010BD0000DC
:1038600000000140F0B5CB780022DC0603F00F0326
:1038700001D58C7823430C880F2714F0FF0F4FF0ED
:10388000010C1CD0D0F800500E880CFA02F426402F
:10389000A64210D1960007FA06FE25EA0E0E03FA9C
:1038A00006F5CE7845EA0E05282E00D14461CE7883
:1038B000482E00D10461521C082AE5D305600A880D
:1038C000FF2A1ED94568002202F108060CFA06F408
:1038D0000E882640A64210D1960007FA06FE25EA79
:1038E0000E0E03FA06F5CE7845EA0E05282E00D115
:1038F0004461CE78482E00D10461521C082AE3D3DB
:103900004560F0BDF0B5104D6B68440D260184B2E2
:10391000C0F30157B440C0F30342032F06D16868D7
:1039200023F0706220F07060686008E0C00203D588
:1039300003209040834300E0A34343F0706201B151
:1039400022436A60F0BD0000000001404161704701
:1039500001617047F0B50F23C27801784FF0E02481
:10396000012742B3D4F80C2D467802F4E062C2F588
:10397000E062120AC2F10405D3408278AE401A40D8
:10398000324315018A07D20E954021F003010B192D
:10399000D3F80064FF2191408E430D402E43C3F8BD
:1039A00000640078410900F01F0004EB81018740AA
:1039B000C1F80071F0BD01F01F008740480904EB19
:1039C0008000C0F88071F0BD0249084302490860D8
:1039D000704700000000FA050CED00E0024A1140BB
:1039E000014302480160704780FFFF1F08ED00E0BF
:1039F000014908627047000000000E42044A002995
:103A0000516901D0014300E08143516170470000DA
:103A100000100240044A0029D16901D0014300E0AE
:103A20008143D1617047000000100240044A002920
:103A3000916901D0014300E081439161704700002A
:103A400000100240014908607047000040044242F3
:103A500030B5204A5168204B11F00C0103D00429E5
:103A600001D0082901D0036011E05168022401F45B
:103A7000701104EB91415468184D14F4803F02D04A
:103A80005468A40301D5694300E0594301605168BB
:103A9000134B01F0F00109095C5C0168E1404160F1
:103AA000546804F4E064240A1C5D21FA04F4846080
:103AB000546804F46054E40A1B5DD940C160526844
:103AC000074B02F44042920B1B1F9A5CB1FBF2F1D0
:103AD000016130BD0010024000127A0000093D0073
:103AE000E0900008034600205909094A012901D144
:103AF000116804E0022901D1116A00E0516A03F063
:103B00001F02012393400B4200D0012070470000A8
:103B100000100240064900220A7001F820290128FD
:103B200002D0042802D1052081F82000704700004F
:103B30002010024001490860704700003C044242E6
:103B400002490A6A02430A627047000000100240FC
:103B50000248018841F010010180704704280040AC
:103B60000248018821F010010180704704280040BC
:103B700002498888098840EA0140704718280040B7
:103B800000B50246FFF7E4FF0348110C0180828074
:103B90005DF804EBFFF7E4BF1828004000B50246CB
:103BA000FFF7D6FF0448C2F30341018082805DF82D
:103BB00004EBFFF7D5BF000008280040034800BF12
:103BC000B0F804188906FBD57047000000200040BB
:103BD0000648B0F8041821F00801A0F8041800BF46
:103BE000B0F804180907FBD570470000002000401A
:103BF0000029018802D041F0400101E021F040019C
:103C0000018070470246128900200A4200D001203C
:103C10007047808970478181704770B502880B8832
:103C20004E888C88CD8833432C430E8923434C899E
:103C300033438D892343CC892B4302F441522343E0
:103C400013430380828B22F400628283098A0182FB
:103C500070BD0029018802D041F0010102E040F26C
:103C6000FE32114001807047002930F8441F02D015
:103C700041F4004101E0C1F30E01018070470029C9
:103C8000818902D041F4005101E021F40051818189
:103C90007047002A828A01D00A4300E08A43828268
:103CA000704710B5C1F3421301F01F040121A14078
:103CB000012B01D10C3004E0022B01D1103000E0C7
:103CC0001430002A026801D00A4300E08A430260EF
:103CD00010BD000030B50446008A85B00D464CF694
:103CE000FF710840E98801432182A0894EF6F31153
:103CF0000840A9882A8911436A8902431143A18196
:103D0000A08A4FF6FF410840A9890143A182684675
:103D1000FFF79EFE1048844201D1039800E002980C
:103D200019214843296864228900B0FBF1F0B0FBF7
:103D3000F2F109010B096FF018056B43322500EB16
:103D4000830005EB0010B0FBF2F000F00F00084319
:103D5000208105B030BD000000380140014601203F
:103D600070477CB504460D462A46A11D01A801F006
:103D7000B5F8A0796179884201D000207CBD284641
:103D800003F037F96179884201DA0020F6E72A4624
:103D900004F10801684601F0BBF8206881682046FC
:103DA000884710B10120E07101E00020E071E07966
:103DB000E4E710B5012404FA01F32AB1D0F8A840D1
:103DC0001C43C0F8A84004E0D0F8A8409C43C0F8C9
:103DD000A84010BD00BF0E490968491C0C4A11607B
:103DE0000C4909680C4A126811440A4A116000BF64
:103DF00000BF4168491C4160282903DB0021416064
:103E0000012100E0002109B101210170704700008B
:103E10001C00002024000020280000207CB504465F
:103E200000202070201D0021016000BF041F0F49E9
:103E300003C9CDE900010E48406840B10C48406814
:103E400028B10B4A506852681268516888471020A0
:103E500003F05AF805462146DDE9002303F080FC13
:103E600005460348456000BF20467CBDD49000084D
:103E70004807002010B50446002025490880254841
:103E8000806940F400602349886100202249A1F83C
:103E9000000C1F493039088001201D490C39088069
:103EA000B020091D0880002019492C3908801849C4
:103EB0000880091D0880091D0880091D08806020F0
:103EC00013491C3908800020091D0880091D08803D
:103ED00004200F493439088000200F49A1F8040C50
:103EE0000846B0F8000C40F0010009493439088058
:103EF00001200949A1F8140C012105483438FFF7C5
:103F0000A8FE012102483438FFF7AEFE10BD0000C4
:103F1000342C0140001002400020014010B504463E
:103F2000606A20B1012806D002280CD107E02046A3
:103F300000F06EF908E0204600F0FAF804E02046B0
:103F4000FFF798FF00E000BF00BF10BD10B50446AA
:103F5000606A20B1012806D002280CD107E0204673
:103F600000F00CF808E0204600F060F804E020467D
:103F700000F09CF900E000BF00BF10BD10B5044682
:103F80000020274908802748806940F400602549BF
:103F9000886100202449A1F8000C214930390880AB
:103FA00001201F490C390880B020091D088000201D
:103FB0001B492C3908801A4908805820091D08809F
:103FC0000020091D0880091D08804FF4C0401449D5
:103FD0001C3908800020091D08801020091D088058
:103FE00004200F493439088000200F49A1F8040C3F
:103FF0000846B0F8000C40F0010009493439088047
:1040000001200949A1F8140C012105483438FFF7B3
:1040100020FE012102483438FFF726FE10BD0000C3
:10402000342C014000100240002001402249C9699F
:1040300041F00201204AD1612049098880F820100E
:1040400000219204A2F800141C4A203A1180012198
:104050001A4A121D11804D21121D11800021174A8C
:104060001C3A1180154A10321180121D1180121D48
:1040700011802421121D11800021104A0C3A118058
:104080004FF4C041121D11809114121D11800421A2
:104090000A4A243A118000211205A2F8041411469C
:1040A000B1F8001441F00101044A243A11800121C1
:1040B0008A07A2F81414704700100240240400403C
:1040C0002DE9F04104460D4616461F4684F8297036
:1040D000206801692046884710B12046FFF736FF67
:1040E000208BA84217D04DB994F8280078B9012048
:1040F00084F828002046FFF711FF08E094F8280014
:1041000028B1002084F828002046FFF71FFF2583F0
:10411000208B06490880E661206841682046884770
:1041200002F0D4F86061BDE8F0810000282C014065
:104130002049C96941F002011E4AD16100211E4A8D
:1041400011801205A2F804141B4A28321180FF21A5
:10415000121D11800321184A083211800021164ACD
:1041600034321180121D1180121D1180121D118018
:1041700040F20111104A183211800021121D1180E5
:10418000121D118004210C4A118000211205A2F891
:1041900004141146B1F8001441F00101064A1180DF
:1041A0000121054A1432118090F820101207A2F85C
:1041B0002414704700100240000400407CB50446FF
:1041C0000D46684602F07EF804F12C008168A94291
:1041D00001D8002107E0C56000F5D071C26851F830
:1041E00032100160012109B900207CBD694604F14B
:1041F0002C0000F0FBFB08B90020F6E7BDF800102A
:1042000001232046019AFFF75BFF0120EDE7000044
:1042100010B504462248806940F400602049886156
:104220000020204908802049A1F8040C1D492831AC
:10423000088040F2FF70091D0880002019490831EC
:104240000880184934310880091D0880091D08803C
:10425000091D088060201349183108800020091DBD
:1042600008800120091D088004200E4908800020D4
:104270000D49A1F8040C0846B0F8000C40F001000C
:1042800008490880012007491431088001210548A8
:10429000FFF7DFFC01210348FFF7E6FC10BD00003B
:1042A00000100240002C01400020014010B50446DF
:1042B0000020264908802648806940F4006024498F
:1042C000886100202349A1F8000C2049303908807A
:1042D00001201E490C390880B020091D08800020EB
:1042E0001A492C3908805820184908800020091DD7
:1042F0000880091D0880091D0880602013491C39A9
:1043000008800020091D08800120091D0880042064
:104310000E493439088000200E49A1F8040C0846E3
:10432000B0F8000C40F00100084934390880012041
:104330000849A1F8140C012104483438FFF789FC1E
:10434000012102483438FFF78FFC10BD342C0140A6
:1043500000100240002001407CB504460D46206854
:10436000294642692046904710B14FF0FF307CBD8E
:1043700001F0ACFF6169411AE06981421FD394F8F2
:104380002900C0B1684601F09DFF694604F12C0088
:1043900000F02CFB38B1BDF8001001232046019A33
:1043A000FFF78EFE06E0002084F82900206881686F
:1043B0002046884703E0206881682046884700201F
:1043C000D5E710B504462046FFF7A8FD002020726F
:1043D000208310BD70B504460E464FF0FF32002119
:1043E000204600F0C9FA04461748206004F118007E
:1043F00001F068FFA0F1180402206062002084F838
:10440000280084F8290004F12C0528606860A86061
:10441000322308220D4905F1100002F0A1FDA0F1A0
:1044200010050A2308220A4905F5D07002F098FD0C
:10443000A0F5D07500BFA5F12C04C4F81C6220467D
:10444000FFF7BFFF204670BD44910008C562000819
:10445000494D000801460120704738B504460D4615
:104460002A46A11D684600F039FDA079617988428D
:1044700001D0002038BD284602F0BBFD617988429A
:1044800001DA0020F6E72A4604F10801684600F048
:1044900025FD2A4604F10901684600F01FFD206849
:1044A00081682046884710B10120E07101E00020BA
:1044B000E071E079DEE70246087F5A2801DD01203D
:1044C0007047087B08B10120FAE7C87A08B10120DB
:1044D000F6E7887A08B10120F2E70020F0E72DE93D
:1044E000F05F04460D4616461F46D5E9000100EB75
:1044F0000108D4F8E000401C322190FBF1F201FBEE
:10450000120904F1180050F829006169081A606165
:1045100060694044606104F1180040F82980C4F8E3
:10452000E0906169480004F083FB8346216804F051
:10453000CDFB824604F044FB2061606800281DDD4D
:104540006068401E60600020C4F8E800A068C4F8FD
:10455000E400606840B929462046FFF7ACFF18B177
:10456000012060600020A0603A463146204600F0FD
:1045700044F808B900206060BDE8F09F3A46314633
:10458000204600F03AF800282DD02069C8282ADDFE
:1045900029462046FFF78FFF28B300BF1420606034
:1045A000287B08B9E87A28B12069C0F1C8008000EA
:1045B000A0600BE0A87A28B12069C0F1C8004000D3
:1045C000A06003E02069C0F1C800A060A0680028D6
:1045D00001DD0020A06000BF0020C4F8E800A06852
:1045E000C4F8E40008E0C4F8E870C4F8E4603A46AF
:1045F0003146204600F001F8BEE70346002907DDFA
:1046000022B1C82A02DC12F1C80F01DA012070477A
:104610000020FCE770B504460D461DB12068816896
:104620002046884784F8285170BD70B504460D4671
:1046300000BFE16B0846C91700EB91618911296041
:1046400000BFA16B0846C91700EB9161C1F38F1140
:10465000E98100BF606C4FF47A7190FBF1F0A874AF
:1046600000BFD4F8C4100846C91700EB9161891146
:10467000696000BFD4F8C0100846C91700EB91610B
:10468000C1F38F122A8200BFD4F8CC004FF47A71A4
:1046900090FBF1F0E8740020A87604F1140000F01B
:1046A000A6FCA97E0843A87604F19C0000F09FFCBC
:1046B00008B1022000E00020A97E0843A8760A2164
:1046C000A06C90FBF1F085F82800D020005990FBF9
:1046D000F1F0C1B229204155002070BD2DE9F04F05
:1046E00085B004460D4616460027B046284603F01E
:1046F0007BFDCDE902014EA00CC8029803F0C8FD75
:10470000CDE9000103F022FD049094F8280110B1D6
:1047100005B0BDE8F08F04F1140000F023F938B1C2
:1047200004F19C0000F01EF910B10DB906B9EFE7D5
:10473000B8F1000F0AD104F11400049901F0B8FF98
:1047400004F19C00049901F0B3FF4BE018F1010063
:1047500002D0B8F1010F10D1C8F10000049A00FB9B
:1047600002F104F1140001F0A3FF049808FB00F12A
:1047700004F19C0001F09CFF34E0B8F1000F02DA74
:10478000C8F100080127A8F17B0908F17B0AA7B14D
:10479000049800FB0AF090FBFAFB594604F1140060
:1047A00001F086FF049800FB09F090FBFAFB5946E4
:1047B00004F19C0001F07CFF13E0049800FB09F079
:1047C00090FBFAFB594604F1140001F071FF0498C4
:1047D00000FB0AF090FBFAFB594604F19C0001F043
:1047E00067FF00BF049810F15A0F0DDAB8F1000FFF
:1047F0000AD1012104F1140000F0F0FB012104F1C1
:104800009C0000F0EBFB09E0002104F1140000F033
:10481000E5FB002104F19C0000F0E0FB00BF01205B
:10482000207700BF00BF84F8A40000BF20726FE7AC
:10483000C9AC410C32030E4070B504460D46294602
:1048400004F1140000F0DAFB294604F19C0000F0AA
:10485000D5FB00BF207F18B900BF94F8A40028B191
:10486000D4F824010268D168884706E0D4F824010E
:1048700002689168884700202072002070BD10B542
:10488000044604F1140000F057FC04F19C0000F011
:1048900053FC10BDF0B585B004460D4616461F46C4
:1048A0004FF0FF320021204600F066F8044617481A
:1048B00020600523012200210E20CDE90323CDE94C
:1048C0000101134B00932B463A4604F1140000F00B
:1048D00047FCA0F11404052301220E20CDE90102BA
:1048E000CDE903230A4B009333463A46012104F1F4
:1048F0009C0000F035FCA0F19C04C4F82471002059
:1049000084F82801204605B0F0BD00007891000829
:1049100018730100034B0360017142710023C371DE
:10492000704700009891000870B504460D46206855
:1049300001692046884748B1E068002801DA002074
:1049400000E0E06820614FF0FF3070BD2069401C3E
:104950002061E168884202DA6FF00100F5E700208B
:104960002061F2E70146087A08B90120704700206B
:10497000FCE7012101727047034B03604160002393
:104980000372C26002617047AC910008704710B5B5
:10499000034698680A2801DB002010BD88183228D9
:1049A00001DB0020F9E703F5D0709C6840F8341073
:1049B0009C6800EBC40042609868401C986001202D
:1049C000EBE730B503465868322801DB002030BDE4
:1049D00003F110005D6820F835105C6800EBC4003E
:1049E00042605868401C58600120F0E730B502462C
:1049F000D068002801DA002030BD02F5D074D568F7
:104A000004EBC5001368D0E900452C449C4201DC4E
:104A1000012400E0002424B14FF0FF30D0600020DA
:104A2000EAE71368581C106002F1100000EBC303A2
:104A300009CBC1E900030120DEE7F8B504460E46C4
:104A400005216846FCF748F90546014604F13000A7
:104A500002F065FD207504216846FCF73DF9054626
:104A6000014604F1180002F05AFD60750321684602
:104A7000FCF732F90546014604F1240002F04FFD2F
:104A8000A0750020F8BD2DE9F04104460D461646FC
:104A900005EB850104F13C0000EBC107983050F8AC
:104AA00025100E30FCF7F8F880463A68511C396042
:104AB000391D41F822803968092901DB002139605C
:104AC0000020002108E03A1D52F82120824202DD38
:104AD0003A1D52F82100491C0929F4DB00BF81B2BC
:104AE00006F1800020F8151030F81500B0F5167F9B
:104AF00004DA317B0120A84001433173BDE8F08125
:104B000030B5002502F11B04655430BD7CB5044668
:104B10000D460020A8720C216846FCF7DDF8A97A42
:104B20000843A8720B216846FCF7D6F808B10220AA
:104B300000E00020A97A0843A8720A216846FCF721
:104B4000CBF808B1042000E00020A97A0843A8723D
:104B50000020E87202216846FCF7BEF8E97A0843B3
:104B6000E87201216846FCF7B7F808B1022000E0BE
:104B70000020E97A0843E872002085F82E0000BF83
:104B800001232A4600212046FFF7BAFF00232A46C8
:104B900001212046FFF7B4FF01232A4602212046C7
:104BA000FFF7AEFF002028732A4600212046FFF7BA
:104BB0006AFF2A4601212046FFF765FF2A460221A7
:104BC0002046FFF760FF00BF052101A8FCF764F84D
:104BD000A5F88A00062101A8FCF75EF881B28C20B6
:104BE0004153072101A8FCF757F881B28E204153A9
:104BF000092101A8FCF750F881B2902041530C2103
:104C000001A8FCF749F881B2922041530021942079
:104C1000415396204153002025F8980F1F216846E4
:104C2000FCF75AF82988084325F898092021684696
:104C3000FCF752F808B1022000E00020B5F8981007
:104C40000843A5F8980021216846FCF745F808B10B
:104C5000042000E00020B5F898100843A5F898005B
:104C600022216846FCF738F808B1082000E000204F
:104C7000B5F898100843A5F8980023216846FCF77A
:104C80002BF808B1102000E0002035F8981F0843E9
:104C90002880288825F8980924216846FCF71CF804
:104CA00008B1402000E00020B5F898100843A5F8AE
:104CB00098007CBD10B504464FF0FF32002120461D
:104CC000FFF75AFE04461E4820600122022104F12B
:104CD000140002F036FCA0F114040122022104F1B8
:104CE000200002F02EFCA0F120040122022104F198
:104CF0002C0002F026FCA0F12C040A20A063032360
:104D00002822104904F13C0002F02AF9A0F13C04E9
:104D10000020A4F8B40004F1E00000BFA0F1E0041A
:104D200004F1E10000BFA0F1E1040320C4F8D400C5
:104D30000421D82001510221DC200151204610BD60
:104D4000EC910008B978000870472DE9FC41044651
:104D50000D4616461F4600BF206908B926610AE0C5
:104D60005A212069484306EB860100EB410064218B
:104D700090FBF1F0206100BF6068401C6060A1689A
:104D8000884209DD607890F0010001D0012000E048
:104D90000020607000206060207830B1012834D09D
:104DA000022864D003282FD177E000BF43F22C31D2
:104DB0002069884202DA3220A06001E06420A0600D
:104DC000E87D30B1E068401CE060962801DD0120FC
:104DD000207043F2BC41206988420ADD002219217B
:104DE0006846FCF712F801221A216846FCF70DF814
:104DF0000AE0012219216846FCF707F801221A216E
:104E00006846FCF702F800BF65E000BFE87D38B9EE
:104E1000E068401EE06010F1960F01DA002020707B
:104E2000E87D00F0060002280DD1207001221A2131
:104E30006846FBF7EAFF002219216846FBF7E5FF09
:104E40000020A07047E0607828B101221A2168464E
:104E5000FBF7DBFF0AE0002219216846FBF7D5FFCC
:104E600000221A216846FBF7D0FF00BF33E000BFE5
:104E7000E87D38B9E068401EE06010F1960F01DA75
:104E80000020207001221A2101A8FBF7BEFF00229A
:104E9000192101A8FBF7B9FF1DE000BF3220A06077
:104EA000607828B1012219216846FBF7AEFF0AE0BD
:104EB000002219216846FBF7A8FF00221A21684644
:104EC000FBF7A3FF00BF2FB1E87D08B1012000E090
:104ED0000020207000BF00BFBDE8FC8170B5064611
:104EE0000C461546284602F0A6F8207070BD70B535
:104EF00006460C461546284602F09DF820802846B6
:104F000002F099F8218841EA002000B2208070BDAB
:104F100070B506460C461546284602F08CF82080EF
:104F2000284602F088F8218841EA0020208070BDE0
:104F300001460120704738B504460D462A46A11D9A
:104F40006846FFF7CBFFA0796179884201D0002045
:104F500038BD284602F04DF86179884201DA002018
:104F6000F6E72A4604F108016846FFF7B7FF206814
:104F700081682046884710B10120E07101E00020DF
:104F8000E071E079E4E70146012070477CB5044612
:104F90000D462A46A11D01A8FFF7A0FFA07961795F
:104FA000884201D000207CBD284602F022F86179B9
:104FB000884201DA0020F6E72A4604F10801684633
:104FC000FFF7A6FF206881682046884710B10120BE
:104FD000E07101E00020E071E079E4E770B504469B
:104FE0000D46A06E01688A682946904770BD10B5CD
:104FF0000446A06E0268D168884710BDF8B5044623
:105000000E46206881692046884720680021426951
:105010002046904778B10020A56E0090286803686C
:105020006A46211D28469847A06E02685168884745
:105030004FF0FF30F8BD206A08B9012000E00020E1
:10504000014604F17C0002F06AFA50B120688168E0
:105050002046884700202063204601F00BFB0020FB
:10506000E8E7A06E016804F128020B6804F1200152
:1050700098472063204601F0FDFA0020DAE700009F
:1050800030B58DB0054600200B90696868690268EC
:105090000AAB14680BAAA0470A9803F0A5F8CDE95B
:1050A000080121A00CC8089803F0F2F8CDE9060128
:1050B000686B03F099F8CDE904011DA00CC80498B1
:1050C00003F0E6F8CDE90201DDE9062302F0EAFC8F
:1050D000CDE9000103F03AF8686395F86C0010B16F
:1050E0000B9840420B90E86A0B99081AA862A96FC6
:1050F000A86A884205DD686F4042A96A0844A86230
:1051000009E0A86F401C4042A96A814203DAA96AFB
:10511000686F0844A862D5E90901084468620B98E1
:10512000E8620DB030BD00009A9999999999C93FEC
:105130009A9999999999E93F38B5044600202072C7
:10514000A06E0268516888470020A56E009028680C
:1051500003686A46211D284698470020206238BD12
:105160002DE9F84F04460D4616461F46DDE90AB8FC
:10517000DDF838A0DDF830900D9B00935B46324699
:105180002946204601F096FA04461848206004F1AA
:1051900064000021016000BFA0F16404A76684F8E8
:1051A0006C90C4F870A0012000FA08F06067A8F1C4
:1051B000010101208840A0670122642104F17C00E4
:1051C00002F0A8F9A0F17C0461686069026804F14A
:1051D0003403D2F800C004F12C02E0470020A062A2
:1051E0002046FFF74DFF2046BDE8F88F5492000897
:1051F0000146087A642805DC487A642802DC887A4B
:10520000642801DD002070470120FCE738B5044622
:105210000D462A46A11D6846FFF760FEA079617918
:10522000884201D0002038BD284601F0E2FE6179B5
:10523000884201DA0020F6E72A4604F108016846B0
:10524000FFF74CFE2A4604F109016846FFF746FEC7
:105250002A4604F10A016846FFF740FE206881688B
:105260002046884710B10120E07101E00020E07184
:10527000E079D8E701460120704738B504460D466D
:105280002A46A11D6846FFF729FEA0796179884268
:1052900001D0002038BD284601F0ABFE617988427C
:1052A00001DA0020F6E72A4604F108016846FFF714
:1052B00015FE206881682046884710B10120E07102
:1052C00001E00020E071E079E4E701460120704749
:1052D0007CB504460D462A46A11D01A8FFF7FEFD38
:1052E000A0796179884201D000207CBD284601F078
:1052F00080FE6179884201DA0020F6E72A4604F14F
:1053000008016846FFF704FE206881682046884748
:1053100010B10120E07101E00020E071E079E4E7E4
:105320000146087A642801DD002070470120FCE76F
:1053300038B504460D462A46A11D6846FFF7CEFD46
:10534000A0796179884201D0002038BD284601F05B
:1053500050FE6179884201DA0020F6E72A4604F11E
:1053600008016846FFF7BAFD206881682046884733
:1053700010B10120E07101E00020E071E079E4E784
:10538000C2690261026A426170470146486AB0F52B
:10539000487F01DD012070470020FCE7C1627047B3
:1053A0000021C160816141627047000030B50D4C41
:1053B000046000BF0C4C04600C6844600C68E51786
:1053C00004EB5575ED1085600024C46002614361F3
:1053D00084610469C4614469046243F2B064846214
:1053E000C46230BD2C910008D4920008F0B5034689
:1053F0009C6900200E681768F51BD3E90267EF1B54
:105400007E435F6807FB05669F693E449E61DD60E1
:105410001F699E69BE4205DD1E699E615E6A0A368D
:105420005E6211E01F697F429E69BE4206DA1E6914
:1054300076429E615E6A0A365E6205E05E6A002E12
:1054400002DD5E6A761E5E629E69002E01DD5E6987
:1054500001E05E6976429F69F019D3E90A76BE429F
:1054600004DD9E6A4643DF6A96FBF7F0F0BD7047A5
:105470002DE9FC4104460D463648006810F0010F46
:1054800011D1344801F0A0FD68B100BF00203249BD
:1054900008604860009069462F4802F05DF800BF40
:1054A0002C48AFF30080284603F0C2FB019001A90D
:1054B00004F2646002F051FA8046284903F006FCC9
:1054C000074603F07DFB06462548007858B10020CA
:1054D00023490870304603F0ABFB009069461E4834
:1054E00002F03AF800BF304603F0A2FB01901A4ADE
:1054F0000199506803F0B6F91749486016480199B8
:105500000268083040F8221008380068401C124930
:1055100008600A2804DD00200860012081F83400BA
:105520000D4A1368083252F82310083A506803F005
:10553000ADFC0949486000BF00BF4868094903F055
:105540001DFA0746084903F0C1FBC4F86006BDE830
:10555000FC81000038000020C80700200000C8427D
:1055600034000020000020410AD7233C2DE9F04FF1
:105570008FB00446002500200D90D4F85862C4F87E
:105580001C030DAB324604F5C871204602F0C0F88A
:1055900000BF02270D9881193A460CA8FDF7ABFD14
:1055A0000D9838440D9000BFBDF8300003F059FB52
:1055B000C4F894018A49D4F8940103F031FC06D26E
:1055C0008849D4F8940103F081FBC4F89401D4F81D
:1055D0009401C4F86006002709E004F5CC7000EBE4
:1055E00087010DAB3246204602F092F87F1C182F3F
:1055F000F3DB002709E004F5FC7000EB87010DAB3D
:105600003246204602F084F87F1C182FF3DB7649DF
:10561000D4F89001884203D0002084F88801012545
:105620000020C4F82803002790E004F5CC7151F85D
:10563000270003F0FDFA834603F0ECF8CDE90A01F8
:105640006AA00CC80A9802F081FBCDE9080102F0BB
:10565000DFF9804604F5FC7151F8270003F0E8FA01
:10566000834603F0D7F8CDE90A0162A00CC80A9876
:1056700002F06CFBCDE9080102F0CAF9814607EBA4
:1056800087016FF0770202EB410003F0D1FA824606
:105690000C2F04DB5949504603F0E4F88246002100
:1056A000404603F05DFA50D0484603F0B3F8CDE928
:1056B0000A0153A00CC80A9802F0B2FD05D34FF0BE
:1056C0007F51484603F0ACFB04D20020C4F81C0311
:1056D00001253EE004F51770D4F81C1340F8218032
:1056E0006030D4F81C1340F82190D4F81C03401CFF
:1056F000C4F81C034946404603F0E8FA834603F029
:1057000089F8CDE90A0140A00CC80A9802F0C0FD52
:10571000CDE90801504603F07DF8CDE90601DDE949
:10572000082302F013FBCDE90401D4F8280303F0A9
:1057300071F8CDE90201DDE9042302F0B3F9CDE906
:10574000000102F065F9C4F828037F1C182FFFF64A
:105750006CAF5DBBD4F81C730020C4F824038046F2
:105760000BE004F52F7252F82810D4F8240303F04C
:1057700079F8C4F8240308F10108B845F1DB38468C
:1057800003F056FA80464146D4F8240303F0F6F8B5
:10579000C4F82403384603F04BFA80464146D4F857
:1057A000280303F0EBF8C4F8280300BF4DB900202C
:1057B00084F88801012084F82C03801E0FB0BDE816
:1057C000F08FD4F88401401CC4F88401052804DB60
:1057D000002084F88801401EF0E70020EEE700007A
:1057E0000000C8420AD7233C78563412000000005B
:1057F00000408F400000000084D797410000204106
:10580000000000000000E03F2D431CEBE2361A3F91
:105810002DE9F04F85B004460D4618262F684FF04D
:105820000008D4F81C03022803DA002005B0BDE804
:10583000F08F0021286803F019FA08D24FF0000A0F
:10584000D4F81C0300EBD0714910049108E0D4F89F
:105850001C0300EBD0714FEA610AD4F81C030490DA
:10586000D1460AE004F5177151F82900394603F0D2
:10587000D7FA00D204E009F1010904988145F1DB6F
:1058800000BF0498814506DB0498411E04F52F7083
:1058900050F821803AE0D14504D104F52F7050F83A
:1058A0002A8033E0A9F1010204F5177050F82210A4
:1058B000384603F0EBFA0390A9F1010304F51772DF
:1058C00052F8231052F8290003F0E0FA0290A9F1EF
:1058D000010304F52F7252F8231052F8290003F047
:1058E000D5FA01900399019803F0F0F9009002991C
:1058F00003F044F88346A9F1010204F52F7050F833
:105900002210584602F0AEFF804600BFD4F8941132
:10591000D4F8600603F0BAFA83460A49584603F001
:10592000D5F9834659464FF07E5002F09BFF8346DF
:105930005946384603F0CAF907463946404603F04F
:10594000C5F973E717B751382DE9F04F8DB004460C
:105950000D46DDE91778169E94F82C0340B9002017
:10596000C4F86C010A20EB4908600DB0BDE8F08F67
:10597000012084F82003284603F05AF90A90D4F84D
:1059800074110A9803F082FA8346D4F8241303F0C2
:105990009DF9814600BF29F0004A00BF207830B150
:1059A000DD49504603F03CFA01D201206070607876
:1059B00010B11B20D7490860607818B9D548006835
:1059C000002835DDD3480068002804DDD148006890
:1059D000401ED0490860207888B9D4F87001552855
:1059E0000DDBD4F8700103F023F983465946D4F84F
:1059F0006C0102F0C3FFC4F8740101202070D4F8D8
:105A0000700132280BDDD4F8700103F011F98346E0
:105A10005946D4F86C0102F0B1FFC4F874010020BB
:105A2000C4F86C01C4F870011920BC49086014E086
:105A3000D4F87001401CC4F87001D4F87001192822
:105A400004DD0AA904F54C7001F0A0FDD4F86C0146
:105A50000A9902F007FFC4F86C01207810B34FF0E8
:105A6000000BAF48006810F0010F09D1AC4801F0FD
:105A7000ABFA28B1AB48C0F800B0A948AFF300803A
:105A8000D4F870011A280CDD4FF0010B94F85C0675
:105A900038B100BFA449D4F8340302F06FFFC4F852
:105AA000740100BFD4F874110A9803F0EFF90B9059
:105AB0000BA92046FFF7ACFE09909C48006810F047
:105AC000010F09D1994801F07FFA28B19849099846
:105AD00008609648AFF3008090480068002804DD15
