:020000040800F2
:10000000B88A0020910B0008B50B0008B70B000858
:10001000BB0B0008BF0B0008C30B0008000000006A
:10002000000000000000000000000000C90B0008F4
:10003000C70B000800000000CB0B0008591F000888
:10004000CD0B0008CF0B0008D10B00083D0C0008B9
:10005000D30B0008D50B0008D70B0008D90B0008FC
:10006000DB0B0008DD0B00084B1E0008DF0B00084F
:10007000E10B0008E30B0008E50B0008E70B0008A4
:10008000E90B0008EB0B0008ED0B0008EF0B000874
:10009000F10B0008F30B0008F50B0008831E0008A5
:1000A000F70B0008F90B0008FB0B0008FD0B00081C
:1000B000FF0B0008010C0008030C0008050C0008E9
:1000C000070C0008090C00080B0C00080D0C0008B8
:1000D0000F0C000859170008E917000881180008DC
:1000E000511D0008110C0008870C000800F002F8F0
:1000F00000F045F80AA090E8000C82448344AAF17D
:100100000107DA4501D100F03AF8AFF2090EBAE87A
:100110000F0013F0010F18BFFB1A43F0010318473B
:10012000CC9F0000EC9F0000103A24BF78C878C133
:10013000FAD8520724BF30C830C144BF04680C60ED
:10014000704700000023002400250026103A28BF35
:1001500078C1FBD8520728BF30C148BF0B60704739
:100160001FB5AFF300809DE8030003F0BDF903F075
:10017000F7F81FBD10B5002007F045FB10BD03F0D8
:100180001FFA1146FFF7ECFF03F050F803F057FA9F
:10019000FFF7F0FF03F00AFA08B500214FF0006006
:1001A00003F0E8FC25208DF8000001208DF8010007
:1001B00005208DF8020001208DF80300684603F049
:1001C00095FC26208DF8000001208DF80100052007
:1001D0008DF8020001208DF80300684603F086FCCC
:1001E00027208DF8000001208DF8010005208DF8F2
:1001F000020001208DF80300684603F077FC4FF4FD
:10020000C06003F0ADFC28208DF8000001208DF8BF
:10021000010007208DF8020001208DF803006846D8
:1002200003F064FC08BD0020FF49C8600861142089
:10023000486100208861C8610846006840F00100FC
:10024000086008464068F9490840F7494860084690
:100250000068F7490840F44908600846006820F43F
:10026000802008600846406820F4FE0048600020B6
:100270008860704710B500BFEB48006810F0020FAF
:10028000FAD03020EB4908600846006840F00200D0
:1002900008600846006840F0100008600020E2494D
:1002A000486008464068486008464068486008461C
:1002B000406840F4806048600846406840F4004070
:1002C00048600846406840F460104860084600688E
:1002D00040F08070086000BFD348006810F0007FD5
:1002E000FAD0D148406840F00200CF49486000BFD2
:1002F000CD48406800F00C000828F9D1CA48C06910
:1003000040F00060C849C8610846C06940F08050AC
:10031000C8610846806940F00100886101210846F3
:1003200003F038FC0121C80303F040FC012144F62E
:100330000C0003F047FC10BD41F63F704FF0E02188
:10034000486106200861002088610846006940F085
:1003500001000861704710B5042003F043FAA0F5CE
:100360002541A53903D103F0FFFC03F0F3FC10BDD8
:1003700010B5AD48806940F40060AB498861002049
:10038000AD490880AD49A1F8040CAB49283108807B
:1003900040F2FF70091D08800020A749083108803D
:1003A000A54934310880091D0880091D0880091DF0
:1003B00008806020A049183108800020091D0880AD
:1003C000091D088004209C49088000209B49A1F851
:1003D000040C0846B0F8000C40F00100A1F8000C35
:1003E0000121954803F001FD0121934803F008FD28
:1003F0008D48C06940F001008B49C861084680699A
:1004000040F0010088618E48406840F400708C49DB
:1004100048608548806940F0040083498861084647
:10042000806940F008008861002089040880888085
:10043000088540F2FF3088850020088140F2FF30B7
:1004400088860020088788877E49088046F27000E9
:10045000090608830020888311200884042008806E
:10046000002088800846008840F0010008806E481F
:10047000C06940F002006C49C8610846806940F0DC
:10048000010088616E48406840F440606C494860F3
:100490006548806940F010006349886100206A491E
:1004A0000880091D0880684928310880FF20091D3F
:1004B00008800320644908310880002062493431F3
:1004C0000880091D0880091D0880091D088040F268
:1004D00001105D49183108800020091D0880091DA0
:1004E000088004205849088000200905A1F8040468
:1004F0000846B0F8000440F00100A1F800044A48A2
:10050000C06940F004004849C8610846806940F06D
:10051000010088614A48406840F48050484948607A
:100520004148806940F010003F49886100204749F8
:100530000880091D0880454928310880FF20091DD1
:100540000880032041490831088000203F493431A8
:100550000880091D0880091D0880091D088040F2D7
:1005600001103A49183108800020091D0880091D32
:1005700008800420354908800020C904A1F8040837
:100580000846B0F8000840F001003049088010BD6E
:100590001CB50F21032003F01DFA4FF4004000901A
:1005A00000208DF804000C208DF8050001208DF846
:1005B0000600684603F0C8F90E21032003F00AFA8A
:1005C0004FF48040009000208DF804000C208DF83E
:1005D000050001208DF80600684603F0B5F90C21EE
:1005E000022003F0F7F94FF48050009000208DF8BE
:1005F00004000C208DF8050001208DF806006846E7
:1006000003F0A2F91CBD0848806940F004000649C7
:100610008861BB200E4908600E480949C1F80408EA
:100620000148806918E00000001002400000FFF857
:10063000FFFFF6FE00200240002C01400020014098
:10064000000001404000004000040040000800405D
:1006500000080140BB84484440F00800FE4988611E
:10066000FE48FF490860FF48FF49C1F8040CFA48FA
:10067000806940F01000F8498861FC48FC49086036
:10068000FC484860F448806940F02000F2498861E5
:10069000F948FA490860FA48F549C1F80404EE48F7
:1006A000806940F04000EC498861F648F6490860EE
:1006B000F648EF49C1F80408704708B5012148051C
:1006C00003F074FA0121022003F0E8F94FF44070BE
:1006D000ADF8000003208DF802001C208DF8030007
:1006E0006946DF4803F08AF908BD10B5E84803F011
:1006F0009DF8E748283003F099F8E548643003F0A6
:1007000095F810BD1FB50121880303F05BFA4FF483
:10071000E13000900020ADF80400ADF80600ADF81F
:100720000800ADF80C000C20ADF80A006946D94865
:1007300003F09CFB012240F22551D64803F07DFBDB
:100740000121D44803F067FB0121480403F02EFA8D
:100750000121082003F0A2F94FF4E13000900020BD
:10076000ADF80400ADF80600ADF80800ADF80C00D7
:100770000C20ADF80A006946C74803F077FB012258
:1007800040F22551C44803F058FB0121C24803F050
:1007900042FB0121880403F009FA0121BF4803F05C
:1007A0007DF94FF4E13000900020ADF80400ADF881
:1007B0000600ADF80800ADF80C000C20ADF80A00FA
:1007C0006946B74803F052FB012240F22551B44874
:1007D00003F033FBA048C06940F480209E49C86103
:1007E0000121AF4803F017FB1FBD9B48806940F40F
:1007F0000070994988610846806940F0040088616A
:100800000846806940F0080088610846806940F029
:10081000100088610020A3490860A349C1F80804BA
:100820000846D0F80C0440F00500C1F80C04084656
:10083000D0F80C0440F02800C1F80C040846D0F8A9
:100840000C0440F4A070C1F80C040846D0F80C0465
:1008500040F42060C1F80C040846D0F80C0440F4C1
:10086000A040C1F80C040846D0F80C0440F4203035
:10087000C1F80C040846D0F8100440F00500C1F897
:1008800010040846D0F8100440F02800C1F8100405
:100890000846D0F8100440F4A070C1F810040846CF
:1008A000D0F8100440F42060C1F810040846D0F8D5
:1008B000100440F4A040C1F810040846D0F8100419
:1008C00040F42030C1F810040846D0F8100440F479
:1008D000A010C1F810040846D0F8100440F420001D
:1008E000C1F810040846D0F8100440F0A060C1F828
:1008F00010040846D0F8100440F0205069490C312B
:1009000008600020674928310860091D08606649B1
:10091000C1F834040846D0F8080440F00100C1F8DA
:1009200008040846D0F8080440F008005D49091D95
:10093000086000BF5B48001D006810F0080FF9D187
:100940005848001D006840F004005749C1F80804E9
:1009500000BF5448001D006810F0040FF9D1704723
:100960001CB500BF00BFFFF75EFCFFF783FCFFF77D
:1009700013FC4E48006840F480703B49C1F81008F1
:100980000846D0F8140840F48070C1F814083248C2
:10099000806940F00400304988610846806940F071
:1009A000080088610846806940F0100088610846A8
:1009B000806940F0200088610846806940F040006E
:1009C000886100220D2101A800F01FFA00222921D0
:1009D00001A800F01AFA00222A2101A800F015FA55
:1009E00000222B2101A800F010FA00222C2101A8DE
:1009F00000F00BFA00220F2101A800F006FA0022F5
:100A0000192101A800F001FA00221A2101A800F022
:100A1000FCF900221B2101A800F0F7F900221C219B
:100A200001A800F0F2F900221D2101A800F0EDF963
:100A300000221E2101A800F0E8F9FFF7E4FD0122E1
:100A40000D2101A800F0E1F91949684607F0FAF90B
:100A50000022192101A82DE00010024000343400CA
:100A6000000C0140B0334433000001404003004417
:100A700000100140334B04343344B44400140140AB
:100A80004344444433443433001801404333333344
:100A90001C000240003801400044004010001400D7
:100AA000004800400424014000200140100801409B
:100AB00000350C0000F0A9F900221A2101A800F06D
:100AC000A4F900221B2101A800F09FF900221C219B
:100AD00001A800F09AF900221D2101A800F095F963
:100AE00000221E2101A800F090F90122292101A86D
:100AF00000F08BF92449684607F0A4F901222A2165
:100B000001A800F082F92049684607F09BF901220C
:100B10002B2101A800F079F91B49684607F092F9EA
:100B200001222C2101A800F070F91749684607F04E
:100B300089F90122142101A800F067F9FFF70BFCE5
:100B4000FFF716FCFFF7D1FDFFF7DCFDFFF720FDF7
:100B5000FFF74BFEFFF7F0FBFFF7AFFD002214217C
:100B600001A800F052F90948D0F8100840F40050EC
:100B70000649C1F810080846D0F8100840F4804033
:100B8000C1F810081CBD000000350C000010014029
:100B90000348004703480449044A054B70470000D6
:100BA000ED000008B80A0020B88A0020B85A0020DA
:100BB000B85A0020704700BFFEE700BFFEE700BF45
:100BC000FEE700BFFEE77047704770477047704709
:100BD000704770477047704770477047704770475D
:100BE000704770477047704770477047704770474D
:100BF000704770477047704770477047704770473D
:100C0000704770477047704770477047704770472C
:100C10001D48006840F400301C49C1F814041C4809
:100C2000B0F8040820F008001949A1F8040800BF32
:100C30001848008810F0080FFAD07047154800884F
:100C400010F0040F06D01348008820F0040010496B
:100C5000A1F804080F48008810F0020F06D00D48D4
:100C6000008820F002000A49A1F804080948008819
:100C700010F0010F06D00748008820F00100044959
:100C8000A1F80408704770471404014000000140B7
:100C9000002000400428004010B5024600200C4B04
:100CA00019600C4BD3F8083443F00103084C2C3C7A
:100CB000236000BF064B343B1B6813F0020FF9D0D2
:100CC000034B183318680023024CC4F8003410BDDD
:100CD000342401400020014010B50246002025299F
:100CE00072D2DFE801F08E13191F252B8E8E31365C
:100CF0003B41474D8E5266575C618E8E8E8E6C8E58
:100D00008E8E8E8E8E72777C81868800F84B1B6863
:100D1000012424EAD32076E0F54B1B68012424EA61
:100D2000133070E0F34B1B68012424EA13306AE0AF
:100D3000F04B1B68012424EA533064E0EE4B1B683F
:100D4000012424EA53205EE0EC4B1B6803F0010011
:100D500059E0EA4B1B68C3F3400054E0E74B1B68C3
:100D6000012424EA93004EE0E44B1B68012424EAAA
:100D7000D30048E0E14B1B68012424EA131042E051
:100D8000DE4B1B68C3F340103DE0DC4B1B68C3F334
:100D9000C03038E0D84B1B68C3F3C01033E0D64BEB
:100DA0001B68C3F380202EE0D34B1B68C3F3C02025
:100DB00029E0D24B1B68012424EA532023E0CC4BCA
:100DC0001B68C3F300201EE01BE0CB4B1B68C3F382
:100DD000800018E0C84B1B68C3F3C00013E0C64B8B
:100DE0001B68C3F300100EE0C54B9B68C3F3803053
:100DF00009E0002007E0C24B9B68012424EA53006D
:100E000001E0002000BF00BF10BD10B52D2973D236
:100E1000DFE801F017727272727272722A3D72729A
:100E20007250D2F272727272F0EFACBF72EEEDECF1
:100E3000EBEAE9727272727272E8E7E6E563738652
:100E4000990042B1AA4B08331B6843F48073AD4C40
:100E5000C4F8103807E0A64B0C331B6843F48073CA
:100E6000A84CC4F81438BBE142B1A44B08331B684A
:100E700043F00103A24CC4F8103807E09F4B0C3339
:100E80001B6843F001039E4CC4F81438A8E142B13A
:100E90009A4B08331B6843F00203994CC4F810388E
:100EA00007E0964B0C331B6843F00203944CC4F8E4
:100EB000143895E142B1914B08331B6843F020038D
:100EC0008F4CC4F8103807E08C4B0C331B6843F090
:100ED00020038B4CC4F8143882E132B1884B1B6973
:100EE00043F00403864C236105E0854B5B6943F0C6
:100EF0000403834C636173E171E142B17E4B0833BB
:100F00001B6843F480737E4CC4F8103407E07A4BBE
:100F10000C331B6843F48073794CC4F814345FE1DC
:100F200042B1764B08331B6843F04003744CC4F85D
:100F3000103807E0714B0C331B6843F04003704CD2
:100F4000C4F814384CE142B16C4B08331B6843F0D1
:100F500080036B4CC4F8103807E0684B0C331B68F7
:100F600043F08003664CC4F8143839E142B1634B56
:100F700008331B6843F40053614CC4F8103807E091
:100F80005E4B0C331B6843F400535D4CC4F81438BB
:100F900026E142B1594B08331B6843F48043584C57
:100FA000C4F8103807E0554B0C331B6843F48043FA
:100FB000534CC4F8143813E142B14D4B08331B684D
:100FC00043F400434F4CC4F8103807E0484B0C334F
:100FD0001B6843F400434B4CC4F8143800E1EFE0C5
:100FE000DCE0C9E0B6E0A6E096E077E063E04FE041
:100FF0003BE027E013E0FFE742B1404B08331B68BA
:1010000043F400433E4CC4F8103807E03B4B0C332C
:101010001B6843F400433A4CC4F81438E0E042B192
:10102000364B0C331B6843F48073354CC4F81438CA
:1010300007E0324B08331B6843F48073304CC4F82C
:101040001038CDE042B12A4B08331B6843F40073DB
:101050002C4CC4F8103807E0254B0C331B6843F4C4
:101060000073284CC4F81438BAE042B9214B083355
:101070001B6843F48063234CC4F8103C07E01D4B0D
:101080000C331B6843F480631E4CC4F8143CA7E087
:1010900042B9184B08331B6843F40063194CC4F879
:1010A000103C07E0134B0C331B6843F40063154CF2
:1010B000C4F8143C94E042B90E4B08331B6843F467
:1010C0008043104CC4F8103C07E00A4B0C331B68FB
:1010D00043F480430B4CC4F8143C81E0A2B9054BA7
:1010E00008331B6843F40043064CC4F8103C12E07C
:1010F00008080140080C014008140140081801408C
:101100000010014000000140364B1B6843F40043CF
:10111000354CC4F8143C63E032B9344B1B6943F4DA
:101120008073324C236105E0304B5B6943F480737C
:101130002E4C636154E032B92C4B1B6943F40073AD
:101140002A4C236105E0294B5B6943F40073274C6B
:10115000636145E03AB1264B1B6843F48063234C3E
:10116000C4F8103807E0224B1B1D1B6843F4806352
:101170001E4CC4F8143833E03AB11D4B1B6843F4DD
:1011800000631A4CC4F8103807E0194B1B1D1B688C
:1011900043F40063154CC4F8143821E03AB1144B01
:1011A0001B6843F48053114CC4F8103807E0104B0F
:1011B0001B1D1B6843F480530C4CC4F814380FE01B
:1011C00032B10A4B1B6943F40043084C236105E02C
:1011D000064B5B6943F40043044C636100E000BFCD
:1011E00000BF10BD140C0140000001400010014080
:1011F0001018014020B101281AD002284CD131E04A
:1012000071B1F74A128842F08002F64BA3F80C281D
:101210001A46B2F80C2842F00802A3F80C2806E09F
:10122000EF4A128822F08002EE4BA3F80C2834E03B
:1012300079B1ED4A128842F080024FF04023A3F8C2
:101240000C241A46B2F80C2442F00802A3F80C242D
:1012500007E0E54A128822F080024FF04023A3F80D
:101260000C241AE079B1E14A128842F080024FF072
:101270004023A3F80C281A46B2F80C2842F00802C2
:10128000A3F80C2807E0D94A128822F080024FF018
:101290004023A3F80C2800E000BF00BF704720B136
:1012A00001281AD002284CD131E071B1CC4A128801
:1012B00042F02002CB4BA3F80C281A46B2F80C28B7
:1012C00042F00402A3F80C2806E0C54A128822F076
:1012D0002002C44BA3F80C2834E079B1C24A12882A
:1012E00042F020024FF04023A3F80C241A46B2F833
:1012F0000C2442F00402A3F80C2407E0BA4A128836
:1013000022F020024FF04023A3F80C241AE079B118
:10131000B64A128842F020024FF04023A3F80C286E
:101320001A46B2F80C2842F00402A3F80C2807E091
:10133000AE4A128822F020024FF04023A3F80C2876
:1013400000E000BF00BF70472DE9F04104460D46A4
:1013500016460027B84600212046FFF7A0FF24B11B
:10136000012C1BD0022C49D130E0A14806F00EFB25
:101370008046B8F1FF0F05D99D4806F021FB0020FB
:10138000BDE8F081002704E0994806F01FFBE8550E
:101390007F1C474501D2B742F6DB30E0954806F0A6
:1013A000F5FA8046B8F1FF0F04D9924806F008FB21
:1013B0000020E5E7002704E08E4806F007FBE8552B
:1013C0007F1C474501D2B742F6DB18E08A4806F099
:1013D000DDFA8046B8F1FF0F04D9874806F0F0FA2D
:1013E0000020CDE7002704E0834806F0EFFAE85537
:1013F0007F1C474501D2B742F6DB00E000BF00BFCB
:1014000001212046FFF74BFF3846B9E770B5044687
:101410000E46022C01D9002070BD04EB440000EB05
:10142000C400764901EB80051020A860EE60002022
:101430002861802068610020A861E86128624FF47B
:10144000405068620020A86224B1012C23D0022CF5
:1014500068D144E000216A4802F0DEF9694868601A
:101460005F48083828602946654802F04FFA4FF473
:10147000005002F0C7F90122802159480C3802F0CF
:10148000D4FC01215E4802F0C7F9012154480C3810
:1014900002F0C1FC46E0002159483C3002F0BCF9A2
:1014A00059486860504808382860294654483C30FC
:1014B00002F02CFA4FF0007002F0A4F90122802112
:1014C00049480C3802F0B1FC01214D483C3002F093
:1014D000A3F9012144480C3802F09DFC22E00021D0
:1014E0004748283802F098F9484868603F4808386B
:1014F000286029464248283802F008FA202002F0E5
:1015000081F90122802139480C3802F08EFC01213A
:101510003B48283802F080F9012134480C3802F0A9
:101520007AFC00BF00BF012076E72DE9F0410446B8
:101530000D46164624B1012C1CD0022C75D134E086
:101540000020334908603349086000BF09E02A5C85
:101550002F490B680968491C2D4F39602949CA5425
:10156000401CB042F3DB0020294908603146FFF7F8
:101570004DFF5BE00020284908602849086000BF53
:1015800009E02A5C24490B680968491C224F39602C
:101590001D49CA54401CB042F3DB00201E490860BC
:1015A00031460120FFF732FF40E000201C4908606F
:1015B0001C49086000BF09E02A5C19490B680968EA
:1015C000491C174F39601149CA54401CB042F3DB23
:1015D00000201349086031460220FFF717FF25E07D
:1015E0000C380140003001400C4400400C480040E1
:1015F000580000206802002078040020880600209F
:101600004400024068010020780300208805002083
:101610000000002004000020080000200C00002032
:101620001000002014000020FFE700BF00BF30467C
:10163000BDE8F0810146002021B1012905D0022931
:1016400009D105E0C34A106807E0C34A106804E006
:10165000C24A106801E0002000BF00BF70472DE9BA
:10166000F04104460D461646BD48046024B1012CE5
:101670000CD0022C1ED113E0002704E0E919B94870
:1016800006F0B9F97F1CB742F8DB14E0002704E04C
:10169000E919B54806F0AFF97F1CB742F8DB0AE05C
:1016A000002704E0E919B14806F0A5F97F1CB7420C
:1016B000F8DB00E000BF00BFBDE8F08130B50346B5
:1016C00023B1012B18D0022B42D12BE0A84800688F
:1016D000A04C2468A04205D10020A54C20609D4C60
:1016E000206030BDA24804680068401CA04D2860FE
:1016F000A048005D08702CE09F480068964C246864
:10170000A04205D100209C4C2060934C2060E8E76B
:10171000994804680068401C974D28609748005D10
:10172000087016E0964800688C4C2468A04205D1E9
:101730000020934C2060894C2060D2E790480468D8
:101740000068401C8E4D28608E48005D087000E0E7
:1017500000BF00BF0120C4E738B58B48048814F0EF
:10176000200F0FD0001D0088C0B2009001226946F2
:101770000020FFF774FF8548B0F8000820F0200033
:101780008149088014F0800F1DD07F48008820F028
:1017900080007E49A1F80008012269460020FFF779
:1017A0008DFF0546002D05DD9DF800007649091DD9
:1017B000088007E074480C30008820F080007349EE
:1017C000A1F80C0800BF14F0080F05D114F0040FA5
:1017D00002D114F0020F06D06B4804886B48B0F8B1
:1017E0000408C0B2009038BD38B56948048814F0C8
:1017F000200F10D0001D0088C0B200900122694661
:101800001046FFF72CFF4FF04020B0F8000420F006
:1018100020005F49088014F0800F1FD05C480088CA
:1018200020F080004FF04021A1F800040122694619
:101830001046FFF743FF0546002D05DD9DF800002B
:101840005349091D088008E051480C30008820F0F9
:1018500080004FF04021A1F80C0400BF14F0080FE5
:1018600005D114F0040F02D114F0020F07D048483C
:1018700004884FF04020B0F80404C0B2009038BD96
:1018800038B54448048814F0200F10D0001D00889B
:10189000C0B20090012269460220FFF7E0FE4FF03F
:1018A0004020B0F8000820F020003A49088014F0E9
:1018B000800F1FD03748008820F080004FF0402173
:1018C000A1F80008012269460220FFF7F7FE05464D
:1018D000002D05DD9DF800002E49091D088008E057
:1018E0002C480C30008820F080004FF04021A1F8F7
:1018F0000C0800BF14F0080F05D114F0040F02D13A
:1019000014F0020F07D0234804884FF04020B0F8AD
:101910000408C0B2009038BD70B5124806F082F8D5
:1019200005461D4A1D4905F045FF04460E4806F0D0
:1019300079F80546184A194905F03CFF04460B485A
:1019400006F070F80546144A144905F033FF0446C2
:1019500070BD0000000000200800002010000020E2
:1019600018000020580000206802002078040020A1
:1019700004000020680100200C00002078030020F3
:10198000140000208805002000380140003001408C
:10199000004400400048004000000008497A000868
:1019A0007FB506460C46214603A8FFF775F900905F
:1019B000214603A8FFF770F90190214603A8FFF71D
:1019C0006BF902900025002013E0411C0EE05DF849
:1019D00020205DF821309A4207DD5DF820505DF847
:1019E00021204DF820204DF82150491C0329EEDB21
:1019F000401C0228E9DB019804B070BD2DE9F041DC
:101A000004460D4616461F4615F0FF0002D0012879
:101A10001ED10EE05D4800880006800C30600E216B
:101A20002046FFF7BDFF40F239314843401238608D
:101A300012E0574800880006800C30600F212046D5
:101A4000FFF7AEFF40F2393148434012386003E0FF
:101A500000203060386000BF00BFBDE8F08138B5BD
:101A6000044600220F216846FFF7CFF90020E0600E
:101A700038BD38B5044601220F216846FFF7C5F985
:101A8000E068142802DAE068401CE06038BDF8B570
:101A900004460D461646E068142801DA002000E0EE
:101AA00030460746E8B206286ED2DFE800F0031F92
:101AB0003F50575D002F0BDBB802364990FBF1F029
:101AC00049060887002208216846FFF79EF90CE0C6
:101AD000784280022F4990FBF1F0490608870122E5
:101AE00008216846FFF791F900BF4DE0002F0DDB9C
:101AF000B802284990FBF1F0C0F58060490688865D
:101B0000002209216846FFF780F90EE07842800242
:101B1000204990FBF1F0C0F58060490688860122DB
:101B200009216846FFF771F900BF2DE0002F06DBA1
:101B3000B802184990FBF1F04906888706E0784220
:101B40008002144990FBF1F0490688871CE0B80236
:101B5000104990FBF1F01049088015E0B0020D49E2
:101B600090FBF1F060600FE0B0020A4990FBF1F0E9
:101B7000A06000BFD4E90110884201DAA06800E04B
:101B800060680649088000BF00BFF8BD240400401B
:101B900024080040A086010040000040342C014091
:101BA000002008E0DA4B03EBC001DA4B03EBC00284
:101BB0000A6000BF401C0428F4DB704730B10128E4
:101BC0000CD0022812D0032820D117E0D24909688E
:101BD00041F48051D14AC2F8001418E0CE49096896
:101BE00041F40041CD4AC2F8001410E0CA49096826
:101BF00041F48051C94AC2F8001408E0C649096896
:101C000041F48041C54AC2F8001400E000BF00BFA3
:101C1000704730B101280CD0022812D0032820D1FF
:101C200017E0BD49096821F48051BC4AC2F800148C
:101C300018E0B949096821F40041B84AC2F8001413
:101C400010E0B549096821F48051B44AC2F8001483
:101C500008E0B149096821F48041B04AC2F8001493
:101C600000E000BF00BF7047012804D0022812D056
:101C7000032830D11FE0A8490831096841F4004128
:101C8000A64AC2F808141146D1F80C1421F40041F8
:101C9000C2F80C1420E0A0490831096841F48051D1
:101CA0009E4AC2F808141146D1F80C1421F4805150
:101CB000C2F80C1410E098490831096841F48041D9
:101CC000964AC2F808141146D1F80C1421F4804148
:101CD000C2F80C1400E000BF00BF7047012804D018
:101CE000022812D0032830D11FE08B49083109683F
:101CF00021F40041894AC2F808141146D1F80C14A5
:101D000041F40041C2F80C1420E08349083109680D
:101D100021F48051814AC2F808141146D1F80C14FC
:101D200041F48051C2F80C1410E07B490831096875
:101D300021F48041794AC2F808141146D1F80C14F4
:101D400041F48041C2F80C1400E000BF00BF7047AE
:101D500010B571481430006810F4805F19D06E48D7
:101D6000006820F480506D49C1F800040846D0F89E
:101D7000140440F48050C1F814046548103004F095
:101D80008BFE6648D0F8000440F480506349C1F8E7
:101D9000000461481430006810F4004F19D05E4808
:101DA000006820F400405D49C1F800040846D0F8FE
:101DB000140440F40040C1F814045548083004F0FD
:101DC0006BFE5648D0F8000440F400405349C1F877
:101DD000000451481430006810F4806F14D04E484D
:101DE000006820F480604D49C1F800040846D0F82E
:101DF000140440F48060C1F814040846D0F80004CC
:101E000040F48060C1F8000443481430006810F4C6
:101E1000804F19D04048006820F480403F49C1F805
:101E200000040846D0F8140440F48040C1F81404BB
:101E30003748183004F030FE3848D0F8000440F439
:101E400080403649C1F8000410BD334814300068A2
:101E500010F0100F14D03048006820F010002F4907
:101E6000C1F800040846D0F8140440F01000C1F88E
:101E700014040846D0F8000440F01000C1F8000433
:101E8000704725481430006810F0400F14D02248E5
:101E9000006820F040002149C1F800040846D0F84D
:101EA000140440F04000C1F814040846D0F80004BF
:101EB00040F04000C1F80004704710B50446184BCC
:101EC00008220421124805F0CCFC10BD10B50446D0
:101ED000144B082204210F4805F0C3FC10BD10B5B7
:101EE0000423082210490B4805F07CFC0F4A1049D6
:101EF000002005F05FFC042308220E49044805F089
:101F000071FC0A4A0C49002005F054FC10BD000089
:101F10002C0700200C0700200004014000000140B5
:101F2000BF6A00087582000865820008000000088A
:101F3000CD1E0008B76A0008BB1E0008002008E09C
:101F40005F4B03EBC0015F4B03EBC0020A6000BFB5
:101F5000401C0228F4DB704710B500BF58484068A9
:101F600028B1574A506852681268916888475448A7
:101F7000006828B1524A1068126812689168884750
:101F800000BF10BD10B5044601214FF0C05001F054
:101F90000DFE012001F0F8FD01F01AFC012001F016
:101FA00085FE00BF412001F069FE0028FAD04FF401
:101FB000807001F091FE012001F088FE01F0D4FE56
:101FC00001F0C8FE01F0C6FE47F6FF7001F0B2FE58
:101FD00001F0C0FE4FF46162216851436268C2EBB8
:101FE000021201EB8201A268881801F095FE01F04F
:101FF000B1FE4AF2A551042001F0FCFB10BD2DE911
:10200000F04104460D461646042001F0EBFBA0F516
:102010002541A53904D0FF2020702870307023E0BE
:1020200001F072FE07464FF46160B7FBF0F0182133
:10203000B0FBF1F201FB120020704FF46160B7FBBE
:10204000F0F100FB11703C21B0FBF1F028704FF46F
:102050006160B7FBF0F100FB11703C21B0FBF1F2C5
:1020600001FB1200307000BFBDE8F08110B50446DE
:10207000154B08220221124805F0F3FB10BD10B5E4
:102080000446124B082202210E4805F0EAFB10BD5F
:1020900010B5022308220E490A4805F0A3FB0D4A99
:1020A0000D49002005F086FB022308220B49044855
:1020B00005F098FB074A0A49002005F07BFB10BD9C
:1020C0005C0700204C070020BF6A000875820008EA
:1020D00065820008000000087F200008B76A000839
:1020E0006D20000800BF002002490860486000BF62
:1020F000704700002C0000207CB50446A069FFF763
:1021000099FA00B17CBD04F1B40005F0EBFBAA2004
:10211000019001A904F1B40005F0FFFB55200190E6
:1021200001A904F1B40005F0F8FB0020019001A919
:1021300004F1B40005F0F1FB04F1B401D4F8F001AE
:1021400005F083FC04F1B40005F0B0FBC01EC5B27D
:10215000022104F1B40005F009FC05700020009094
:1021600002250AE0294604F1B40005F0FFFB0078DF
:102170009DF80010484000906D1C04F1B40005F07B
:1021800095FBA842EEDC694604F1B40005F0C5FBFE
:102190000020C4F8F40104F1B40005F087FB054603
:1021A00004F1B40005F099FB06462A4601460020DA
:1021B000FFF7BBF904F1B40005F078FB054604F124
:1021C000B40005F08AFB06462A4601460220FFF7C6
:1021D000ACF997E770B50446002604F1240005F039
:1021E00087FB82E004F1240005F082FB05460D2DFB
:1021F00075D2DFE805F074071019222B343D464FE5
:1022000058616A0004F1240104F5A67004F062FC30
:1022100000B1012668E004F1240104F5AC7003F07C
:10222000E1F800B101265FE004F1240104F5B27089
:1022300004F09DFC00B1012656E004F1240104F5F0
:10224000B87003F061F900B101264DE004F12401FA
:1022500004F5BE7002F0CDF900B1012644E004F1AE
:10226000240104F5C47005F0E0F800B101263BE05C
:1022700004F1240104F5D07005F02FF900B1012616
:1022800032E004F1240104F5D67001F036FE00B10D
:10229000012629E004F1240104F5DC7002F05BFF63
:1022A00000B1012620E004F1240104F5E27002F0FF
:1022B0000CFF00B1012617E004F1240104F5EC70D5
:1022C00003F0C7F800B101260EE004F1240104F583
:1022D000F27003F0E9F800B1012605E0FFE704F130
:1022E000240005F0FFFA00BF00BF04F1240005F050
:1022F000DDFA00283FF776AF304670BD73B504466F
:10230000002594F8200030B101280CD0022812D00A
:1023100003283CD129E09DF80400AA2802D101201D
:1023200084F8200037E09DF80400552802D10220EF
:1023300084F820002FE09DF80400782811DA9DF839
:102340000400801CC4F8480104F1240005F0CAFA16
:1023500001A904F1240005F0E0FA032084F820002C
:1023600002E0002084F8200015E001A904F1240017
:1023700005F0D3FA04F1240005F098FAD4F84811D6
:10238000884203D10125002084F8200003E00020CA
:1023900084F8200000BF00BF28467CBD2DE9F04135
:1023A000A0B0064688464FF0FF37F069B0F1FF3F16
:1023B00005D058B101280AD0022810D108E03148D0
:1023C0000068F0612F480068B06109E000BF00BFFD
:1023D000D6E90610884201D0F069B06100E000BF84
:1023E00000BF80226946B069FEF7AEFF05460024B3
:1023F0000BE01DF804103046FFF780FF20B1304697
:10240000FFF7E8FE00B10027641CAC42F1DB00BF1F
:10241000D6F84401401CC6F84401042804DB00201F
:10242000C6F84401012000E0002010B13046FFF75B
:1024300063FE384620B0BDE8F0814FF0FF31C16146
:10244000704770B5044604F1B40005F02FFAD4F8D3
:10245000F411451A202D00DD2025002D10DD04F19A
:10246000B40005F03AFAD4F8F41146182A46314679
:10247000A069FFF75AF8D4F8F4012844C4F8F4012D
:1024800070BD0000180000202DE9F05FADF5AC5DD7
:10249000002500260027A84600200DF5805CCCF81A
:1024A000740500BF0420CCF85C050020CCF8600562
:1024B000CCF86405CCF86805CCF86C0501208CF8E4
:1024C000700500BF7D24FF48046000BFFFF768FB74
:1024D000FFF734FDFEF744FA41F25050684401F032
:1024E00069FD41F2A440684400BF002120F8081FA4
:1024F0002021417601218176C176222101771721A1
:102500004177402181776121C1770021A0F87E10B9
:1025100000BF00BF491EC0F8A010083800BF41F23C
:10252000A4416944A1F5FC7004F0D4FB814600BFCE
:1025300041F2A44068440DF5805CCCF89002002084
:102540008CF89402CCF89802CCF89C02ACF8A0026B
:10255000ACF8A202CCF8A40200BF00BF0CF2A44069
:10256000CCF8600200208CF86402CCF86802CCF849
:102570006C02ACF87002ACF87202CCF87402CCF8C1
:1025800078028CF87D0200BF0C200023CE4ACCF8E4
:102590007C050CF27C51A1F56A7003F061FF0C2000
:1025A0000DF5805C0023C84ACCF878050CF5AF61C6
:1025B000A1F22C4003F054FFC44B41F24C126A4488
:1025C00002F18801A1F5E67002F016FA00BFC048DA
:1025D000CDF81C0F0020CDF8200FCDF8240FCDF83A
:1025E000280FCDF82C0FCDF8300F0DF5805CCCF80E
:1025F0000000CCF8040000BF05E000220DF63471A5
:1026000041F82020401C3228F7DB0020CDF8FC0FD9
:1026100000BF0DF6D84004F0B1FE0DF561694FF42E
:10262000807309F10C020021484605F069FD00BFE6
:102630000DF5926003F0F2FD0DF61C60CDF8E80692
:1026400000BF0DF5926003F09FF900BF0020ADF8C8
:102650003C040F20ADF840040420CDF844040020D1
:10266000CDF848046420CDF84C042920CDF850045E
:102670002A210DF23C4081612B21C1612C21016294
:1026800000BFD6A802F0D0FB03219DA804F048F9B2
:10269000012164A804F044F902212BA804F040F9B8
:1026A0000DF170094FF0FF320021484602F01EFA8A
:1026B00081468848C9F80000002089F8140089F88C
:1026C000150089F816000122052109F1180005F00E
:1026D0009DFBA0F118090122052109F1240005F054
:1026E00095FBA0F124090122052109F1300005F034
:1026F0008DFBA0F1300900BF0DF148094FF0FF320A
:102700000021484602F0F2F981467348C9F80000FA
:1027100040F2DC50C9F81400002089F8180009F1D3
:102720001C000021016000BFA0F11C090020C9F8B5
:10273000240000BF00BF119000BF96224FF48871A3
:10274000664802F0F8F932220021644802F0F3F9F9
:102750009622E521614802F0EEF9322200215F481D
:1027600002F0E9F99622AB215C4802F0E4F9052277
:1027700000215A4802F0C5F99622AB21574802F0D1
:10278000DAF99622E521554802F0D5F9C8224FF42E
:102790008871524802F0CFF9032205214F4802F018
:1027A000B0F9322288214D4802F0C5F932220021C9
:1027B0004A4802F0C0F932228821484802F0BBF9A9
:1027C00003220821454802F09CF919228821434838
:1027D00002F0B1F902220021404802F0ACF90222D5
:1027E0000B213E4802F08DF9642298213B4802F00B
:1027F000A2F96422AB21394802F09DF96422CC2170
:10280000364802F098F9642240F20111334802F090
:1028100092F964224FF48871304802F08CF94FF439
:10282000FA6200212D4802F086F9642298212B4893
:1028300002F081F96422AB21284802F07CF964227D
:10284000CC21264802F077F9642240F20111234896
:1028500002F071F964224FF48871204802F06BF99C
:102860004FF4FA6200211D4802F065F964229821B4
:102870001A4802F060F96422AB21184802F05BF9B3
:102880006422CC21154802F056F9642240F201116D
:10289000124802F050F964224FF488710F4802F098
:1028A0004AF911220D210D4802F02BF964228821EA
:1028B0000A4802F040F964229821084802F03BF9E6
:1028C00064220DE028000020786301006C070020DE
:1028D000A3B0AE3DF09C0008809E0008A807002031
:1028E000AB21FF4802F027F96422B521FC4802F031
:1028F00022F96422CC21FA4802F01DF96422E52174
:10290000F74802F018F9642240F20111F44802F08D
:1029100012F964224FF48871F14802F00CF9082290
:102920001E21EF4802F0EDF864224FF48871EC4864
:1029300002F001F9642240F20111E94802F0FBF8CB
:102940006422E521E64802F0F6F86422CC21E4484E
:1029500002F0F1F86422B521E14802F0ECF86422BB
:10296000AB21DF4802F0E7F864229821DC4802F04E
:10297000E2F864228821DA4802F0DDF808222621F4
:10298000D74802F0BEF896224FF48871D44802F07E
:10299000D2F832220021D24802F0CDF89622AB21A3
:1029A000CF4802F0C8F803222E21CD4802F0A9F842
:1029B0009622AB21CA4802F0BEF832220021C84854
:1029C00002F0B9F896224FF48871C54802F0B3F8C6
:1029D00003223121C24802F094F80021C0482C386B
:1029E00001F0B8FC00BF00208DF8300001208DF808
:1029F00031008DF8320000200D9064200E900020F0
:102A00000F90109000BF00BF0B9000BF0A9009907C
:102A1000B44800680DF5805CCCF84005B148001D55
:102A20000068CCF84405AF4808300068CCF8480589
:102A3000FBE300BF0DF5805C9CF8500500B9F4E3A2
:102A400000BF00200DF5805C8CF8500500BFBCF87D
:102A5000AC04401DACF8AC040CF2A441D6A802F0C2
:102A60000FF900219DA803F03DFE41F2C2416944E7
:102A70009DA803F03BFF002164A803F033FE41F260
:102A8000C341694464A803F031FF00212BA803F07F
:102A900029FE41F2C44169442BA803F027FF0DF23F
:102AA0003C4003F0C4FF00211CA802F080F89DF810
:102AB000850008B1022000E000200DF5805C8CF854
:102AC000BA049CF8BA049DF8861009B1012100E00F
:102AD000002108430DF5805C8CF8BA049CF8BA0418
:102AE0009DF8841009B1042100E0002108430DF590
:102AF000805C8CF8BA04099810F0010F04D19CF89E
:102B0000BA0410F0010F15D1099810F0020F06D188
:102B10000DF5805C9CF8BA0410F0020F0AD10998F8
:102B200010F0040F0BD10DF5805C9CF8BA0410F086
:102B3000040F04D003216A482C3801F00BFC0DF57A
:102B4000805C9CF8BA040990002112A804F040F8B7
:102B500012A804F03AF8642190FBF1F00DF5805CC6
:102B60008CF8BC0400BF9DF861008CF8BB0400BF6A
:102B70009DF8600008B1102000E000200DF5805C99
:102B80009CF8BB1408438CF8BB040CF2CB42511EDA
:102B9000481EFFF734FA002151482C3801F0A8FCF8
:102BA0004F482C3801F094FF58B141F208006844B6
:102BB00001F08EFF28B1002141F20800684401F0C5
:102BC00046FD00BF0DF5805CDCF85C05401CCCF8D0
:102BD0005C059CF87015884204DBDCF86405CCF8D1
:102BE0006C0512E00DF5805C9CF87005DCF85C1556
:102BF000401ADCF8601548439CF8701590FBF1F022
:102C0000DCF86415081ACCF86C050DF5805CDCF86E
:102C10006C85DCF86805CCF8740500BF4046DCF82C
:102C20007415CCF80000CCF8041000BF0CF10800BB
:102C3000DCE9001201F0C6FD12A803F0C6FF8146D0
:102C4000014641F2D410684403F000FC12A803F0DE
:102C5000BCFF8146014641F24C10684403F0F6FB8C
:102C600012A803F0B2FF8146B8F1640F01DC012025
:102C700000E0002003464A4641F2A44169440CA802
:102C800002F01EF900BF9DF83000032801D1012099
:102C900000E0002030B10022114641F208006844F3
:102CA00001F090FD00BF9DF8320008B1002003E064
:102CB00001208DF8320000BF20B1022108482C38D5
:102CC00001F048FB41F29020684403F017FB00BF7D
:102CD0000DF5805C9CF8940260B1BCF9A22203E07F
:102CE000A8070020E8F7FF1FBCF9A0120CF10800AC
:102CF00001F012FD41F25C20684402F037FC00BF95
:102D00000DF5805C9CF8640238B1BCF97222BCF904
:102D100070120CF1080001F0FFFC00210DF6D84004
:102D200004F0D0F90DF5805CDCF8000070B9DCF837
:102D3000040058B9DCF8A40440B9DCF8A80428B9A8
:102D40009CF8B00410B99CF8AF0428B101208DF8AC
:102D500091048DF81C0C04E000208DF891048DF88E
:102D60001C0C0DF5805C9CF8DC0408B9012000E027
:102D7000002007900DF5805C9CF8DC04C0F118037E
:102D800001460CF2DE4000EB410208A90DF6D840E6
:102D900004F0B9F90DF5805C9CF8DC1408448CF85B
:102DA000DC0400BFBDF8061E06919DF80C0E002144
:102DB0008DF80C1E00BF28B30023009301931A4620
:102DC0000293BDF8180001B20DF5926002F0CAFF3F
:102DD000FB49DDF8940406F00BFB814606F02AFC63
:102DE00000B20DF5805CACF8D404F549DDF89C0424
:102DF00006F0FEFA814606F01DFC00B20DF5805C7F
:102E0000ACF8D6049DF8020E28B9BDF8041E0DF5E5
:102E1000926002F03BFD9DF8ED2C0D2141F2A440A3
:102E2000684401F092F80122042141F2A440684470
:102E300001F08BF8079828B19DF820000DF5805C13
:102E40008CF8DB04002141F20800684401F08CFD9D
:102E500041F2A4416944A1F29C4001F003FC00BF8F
:102E60000DF5805CDCF85815C8B200BF8CF8BD04C5
:102E70000CF59A79BCF9D6A4504606F013FCD1495A
:102E8000059006F05DFC8346CF4906F0B1FAC9F81B
:102E9000080000BF002109F5BC70FFF77FFA002889
:102EA0007DD10A9818B90621C84801F053FA0120CB
:102EB0000A9041F2AC20684490F8530168B10021B7
:102EC00041F2AC20684480F85311B0F95621B0F9B2
:102ED000541100F52C7003F0DDFB41F2AC20684486
:102EE00090F86B01D8B1002141F2AC20684480F821
:102EF0006B110121A0F5297001F0A9FB41F2080036
:102F0000684401F0E5FD50B141F2AC20684490F80E
:102F10006E21B0F86C110023AC4801F09DF941F22C
:102F2000AC20684490F85F0128B1002141F2AC2048
:102F3000684480F85F1141F2AC20684490F8770152
:102F400068B141F2AC20684490F878119F4801F0D4
:102F500001FA002141F2AC20684480F8771141F277
:102F6000AC20684490F8A70128B1002141F2AC20C0
:102F7000684480F8A71141F2AC20684490F88F01B2
:102F800028B1002141F2AC20684480F88F1141F251
:102F9000AC20684490F8B30170B1002100E028E152
:102FA00041F258406844C171A0F5D671B1F8B4013E
:102FB000ADF80C0400BF00BF41F2AC20684490F8AB
:102FC000BF0100283ED0002141F2AC20684480F8C7
:102FD000BF11B0F8C00110F0010F06D001220A2184
:102FE00041F2A440684400F0B0FF41F2AC206844D4
:102FF000B0F8C00110F0020F06D001220B2141F2FF
:10300000A440684400F0A1FF41F2AC206844B0F84D
:10301000C00110F0040F06D001220C2141F2A4409F
:10302000684400F092FF41F2AC206844B0F8C0015F
:1030300010F0080F06D00122132141F2A440684489
:1030400000F083FF41F2AC20684490F8EB010028C7
:1030500071D0002141F2AC20684480F8EB11B0F847
:10306000EC01C0431FFA80F94FEA291900BFBDF8EF
:10307000400400EA0900ADF83C040DF23C4003F0C6
:10308000D6FC00BF41F2AC206844B0F8EC0100F07F
:103090000102252105A8FDF7B8FE41F2AC206844E5
:1030A000B0F8EC01C0F34002262105A8FDF7ADFE03
:1030B00041F2AC206844B0F8EC01C0F38002272153
:1030C00005A8FDF7A2FE41F2AC206844B0F8EC017F
:1030D000C0F3C002282105A8FDF797FE41F2AC20FD
:1030E0006844B0F8EC01C0F300221B2105A8FDF7ED
:1030F0008CFE41F2AC206844B0F8EC01C0F34022F1
:103100001C2105A8FDF781FE41F2AC206844B0F80F
:10311000EC01C0F380221D2105A8FDF776FE41F2E7
:10312000AC206844B0F8EC01C0F3C0221E2105A811
:10313000FDF76BFE00BF41F2AC20684490F8DF0160
:1031400068B3002141F284406844C1710DF56160AB
:1031500000F29C4393F8E01100F2FF620B014FF084
:10316000000E09E003EB0E0900F10C0C1CF80990AD
:1031700002F80E900EF1010EBEF1100FF2DB00BF4F
:1031800041F2AC20684490F8E0010DF5805C8CF8C9
:103190000E0501220F210CF2A44000F0D6FE41F2F0
:1031A000AC20684490F8CB01F8B1002141F27040A6
:1031B0006844C171A0F5E27191F8CC01002111E0E1
:1031C0000000C842D80F494000A08C467C07002070
:1031D0000DF6FE4212F83120824202D1CDF8F01CE9
:1031E00002E0491C2029F3DB00BF0027002501264F
:1031F0001AE0781C0746B0F5167F15DD41F2AC20C9
:103200006844FFF71AF9002776B155B9052112482D
:1032100001F0A0F80022114641F25C50684403F02E
:1032200039FA012500200A9000BF02E410B5FFF72B
:103230002BF9002010BD10B508480949016000BFF6
:103240000849016000214160816000BF01460248D9
:1032500001F08CF910BD00007C0700206C070020F5
:10326000C09E0008249F0008032A40F2318010F01D
:10327000030C00F0158011F8013BBCF1020F624411
:1032800098BF11F801CB00F8013B38BF11F8013BA2
:10329000A2F1040298BF00F801CB38BF00F8013B4F
:1032A00011F0030300F02680083AC0F0098051F8BD
:1032B000043B51F804CB40F8043B40F804CBF3E75F
:1032C000121D5CBF51F8043B40F8043BAFF3008093
:1032D000D20724BF11F8013B11F801CB48BF11F808
:1032E000012B24BF00F8013B00F801CB48BF00F8D8
:1032F000012B704710B5203AC0F00B80B1E8185090
:10330000203AA0E81850B1E81850A0E81850BFF4CF
:10331000F5AF5FEA027C24BFB1E81850A0E818506E
:1033200044BF18C918C0BDE810405FEA827C24BFC2
:1033300051F8043B40F8043B08BF7047D20728BF50
:1033400031F8023B48BF11F8012B28BF20F8023B9F
:1033500048BF00F8012B7047704770477047000066
:1033600070B5064C7C44064D7D4403E02068204443
:103370008047241DAC42F9D170BD0000A46D00004F
:10338000B46D00000148704770470000500A0020EB
:103390000148704770470000540A002070B5064687
:1033A00000F07EF80568301D082838BF0820C01DD1
:1033B00020F00704B44220D929466868B8B10268F1
:1033C000A24210D304F108039A423CBF42684A600B
:1033D00007D343680219536003681B1B13604A60DC
:1033E0000460001D70BD014640680028E7D12146F9
:1033F000284600F065F80028DED1002070BD70B5C9
:103400000546041F00F04CF80168002D08BF70BD90
:10341000486801E001464068002818BFA042F9D37F
:103420000A685318A34218BF4C6003D123680C46A6
:103430001A440A6021680A1982421CBF606070BD8C
:103440004268626000680844206070BD10B500F0FA
:103450002DF8006810BD10B5044600F027F8046090
:1034600010BD10B500F07CF8BDE8104000F072B857
:103470002DE9F04105460F46164633B106FB0354CD
:10348000A41B2046B847A542FAD1A5F10800BDE823
:10349000F08100F07DB80000004870471C0A002051
:1034A0000148704770470000240A00200148704717
:1034B000704700001C0A0020704770477047704733
:1034C00038B504460A4600206946AFF3008000285C
:1034D00008BF38BD02460099204600F096F801204A
:1034E00038BD012000F0D2B8F8B5AFF30080054632
:1034F00000200C46102000BF06462844A0420DD9EB
:10350000324669460020AFF30080070008BF00F094
:10351000BDF80098A04218BF0546C419FFF7C0FFC8
:10352000F11D074621F007014E190560284600F0FD
:103530000AF8B44208BFF8BDA21B31463868BDE89E
:10354000F84000F062B8002101604160806070477F
:1035500010207047002801D000F028B87047000004
:1035600010B5002102A000F078F8012010BD000085
:103570005349475056464E3A205075726520766939
:10358000727475616C20666E2063616C6C6564009A
:1035900010B500F085F8016919B100220261884771
:1035A00001E08068804700F050F8000003494FF0C8
:1035B0001800ABBE70470000410100002600020069
:1035C0007546FFF769FFAE4605006946534620F091
:1035D0000700854618B020B5FDF7DCFABDE82040AD
:1035E0004FF000064FF000074FF000084FF0000BBF
:1035F00021F00701AC46ACE8C009ACE8C009ACE872
:10360000C009ACE8C0098D4670478C4600E01846FA
:103610004368002B18BF6345F9D30368184460451D
:1036200007D0C81C20F0070000F1040CACEB01002F
:10363000121A0CF10400CCF80020FFF7E0BE04469B
:10364000AFF300802046FCF7A3FD002000F05CF8FB
:10365000FCF790FD0120FFF7A9FF70B504460D4669
:103660000A2000E0641C00F041F834B12078002802
:10367000F8D102E06D1C00F039F815B12878002867
:10368000F8D1BDE870400A2000F030B810B500F065
:1036900043F8BDE81040FFF75DBF0000FFF7D5FF1E
:1036A00070B500F02BF804680546B4B92020FFF788
:1036B00075FE040001D1FFF7C8FF094900202C6006
:1036C000C4E900010749A1602073206160610649D7
:1036D000A06109B100F046F8E061204670BD00002D
:1036E000000000009D3600080000000008B5694693
:1036F00000900320ABBE08BD704700000148704732
:1037000070470000580A002010B500F049F8BDE8E5
:103710001040FFF71FBF0000002110B5012800D1A5
:1037200002A108A0FFF799FF012010BD3A204865CB
:103730006170206D656D6F727920636F7272757044
:103740007465640053494752544D454D3A204F75B6
:1037500074206F662068656170206D656D6F727989
:103760000000000010B58820FFF718FE002801D0E7
:103770000021017010BD802902D808B1017809B17B
:1037800000207047012100F8081B704718B100F1B4
:103790000802914201D0002070470021017070475B
:1037A00010B5002102A0FFF758FF012010BD000056
:1037B000534947414252543A2041626E6F726D61E3
:1037C0006C207465726D696E6174696F6E000000C3
:1037D00010B5012000F002FABDE81040002000F012
:1037E000FDB9000002490844B0F8000C7047000021
:1037F00000600040024A1044A0F8001C704700001E
:10380000006000400349C20002D5C1F804047047BB
:1038100048607047000002400029016802D041F072
:10382000010101E021F001010160704702680021FF
:1038300022F001020260016041608160C160304B92
:103840002F49C21A8039984245D018DC2D4BA0EB85
:103850000302984237D00ADC2B4A80182BD0142858
:103860002DD0282826D1486840F4706036E0142A0C
:103870002DD0282A1ED1486840F470002EE0B2F501
:103880006C7F32D00ADCB2F5627F29D0B2F5677F57
:1038900010D1D1F8040440F0F00009E0B2F5717FD6
:1038A00028D0B2F5767F05D1D1F8040440F4702019
:1038B000C1F804047047486840F00F000EE0486803
:1038C00040F0F0000AE0486840F4704006E04868C4
:1038D00040F4702002E0486840F070604860704733
:1038E000D1F8040440F00F00E2E7D1F8040440F4FA
:1038F0007060DDE7D1F8040440F47040D8E70000C0
:103900008000024044000240F8FFFDBF70B502682D
:1039100047F6F0739A430E6A8B680C693343D1E91A
:1039200005562C432343CC6933432343D1E909543F
:103930002B43234313430360CA6842600A688260D2
:103940004968C16070BD000010B5837920490268E4
:10395000A3B3D1F800349343C1F80034D1F8042460
:1039600003689A43C1F80424027904680A44D2F82F
:1039700000342343C2F80034D1F8082403689A4382
:10398000C1F80824D1F80C2403689A43C1F80C2428
:103990004279102A0AD101F581610A6803681A4345
:1039A0000A604A68006802434A6010BD1144D1F8B9
:1039B000002400680243C1F8002410BDFFE700792D
:1039C0000844D0F800149143C0F80014F5E7000053
:1039D0000000014010B58A0721F003040649120FC8
:1039E00021440F238C6893409C438C608B689040EB
:1039F00003438B6010BD000000000140F0B5CB78A0
:103A00000022DC0603F00F0301D58C7823430C88D9
:103A10000F2714F0FF0F4FF0010C1CD0D0F800500E
:103A20000E880CFA02F42640A64210D1960007FA3E
:103A300006FE25EA0E0E03FA06F5CE7845EA0E05D7
:103A4000282E00D14461CE78482E00D10461521C4A
:103A5000082AE5D305600A88FF2A1ED94568002296
:103A600002F108060CFA06F40E882640A64210D190
:103A7000960007FA06FE25EA0E0E03FA06F5CE7842
:103A800045EA0E05282E00D14461CE78482E00D19B
:103A90000461521C082AE3D34560F0BDF0B5104D17
:103AA0006B68440D260184B2C0F30157B440C0F3E3
:103AB0000342032F06D1686823F0706220F0706023
:103AC000686008E0C00203D503209040834300E013
:103AD000A34343F0706201B122436A60F0BD00006D
:103AE000000001404161704701617047F0B50F234C
:103AF000C27801784FF0E024012742B3D4F80C2DAE
:103B0000467802F4E062C2F5E062120AC2F10405EE
:103B1000D3408278AE401A40324315018A07D20E54
:103B2000954021F003010B19D3F80064FF21914067
:103B30008E430D402E43C3F800640078410900F025
:103B40001F0004EB81018740C1F80071F0BD01F056
:103B50001F008740480904EB8000C0F88071F0BD69
:103B60000249084302490860704700000000FA0556
:103B70000CED00E0024A1140014302480160704729
:103B800080FFFF1F08ED00E0014908627047000058
:103B900000000E42044A0029516901D0014300E0AF
:103BA000814351617047000000100240044A00291F
:103BB000D16901D0014300E08143D1617047000029
:103BC00000100240044A0029916901D0014300E03D
:103BD0008143916170470000001002400149086074
:103BE000704700004004424230B5204A5168204BE3
:103BF00011F00C0103D0042901D0082901D0036081
:103C000011E05168022401F4701104EB91415468F1
:103C1000184D14F4803F02D05468A40301D56943C1
:103C200000E0594301605168134B01F0F0010909AC
:103C30005C5C0168E1404160546804F4E064240A7B
:103C40001C5D21FA04F48460546804F46054E40AAE
:103C50001B5DD940C1605268074B02F44042920B91
:103C60001B1F9A5CB1FBF2F1016130BD00100240F4
:103C700000127A0000093D00049C00080346002061
:103C80005909094A012901D1116804E0022901D129
:103C9000116A00E0516A03F01F02012393400B42B6
:103CA00000D00120704700000010024006490022A9
:103CB0000A7001F82029012802D0042802D1052029
:103CC00081F8200070470000201002400149086080
:103CD000704700003C04424202490A6A02430A62F9
:103CE00070470000001002400248018841F01001B6
:103CF00001807047042800400248018821F010012B
:103D0000018070470428004002498888098840EAF9
:103D1000014070471828004000B50246FFF7E4FF55
:103D20000348110C018082805DF804EBFFF7E4BFCB
:103D30001828004000B50246FFF7D6FF0448C2F33A
:103D40000341018082805DF804EBFFF7D5BF0000DE
:103D500008280040034800BFB0F804188906FBD5C6
:103D600070470000002000400648B0F8041821F019
:103D70000801A0F8041800BFB0F804180907FBD523
:103D800070470000002000400029018802D041F067
:103D9000400101E021F04001018070470246128994
:103DA00000200A4200D0012070478089704781813D
:103DB000704770B502880B884E888C88CD88334355
:103DC0002C430E8923434C8933438D892343CC896B
:103DD0002B4302F44152234313430380828B22F48A
:103DE00000628283098A018270BD0029018802D0A5
:103DF00041F0010102E040F2FE32114001807047C3
:103E0000002930F8441F02D041F4004101E0C1F321
:103E10000E01018070470029818902D041F40051D0
:103E200001E021F4005181817047002A828A01D08B
:103E30000A4300E08A438282704710B5C1F34213FF
:103E400001F01F040121A140012B01D10C3004E03D
:103E5000022B01D1103000E01430002A026801D09A
:103E60000A4300E08A43026010BD000030B50446FA
:103E7000008A85B00D464CF6FF710840E988014381
:103E80002182A0894EF6F3110840A9882A8911439E
:103E90006A8902431143A181A08A4FF6FF4108407D
:103EA000A9890143A1826846FFF79EFE104884421B
:103EB00001D1039800E0029819214843296864223F
:103EC0008900B0FBF1F0B0FBF2F109010B096FF0D2
:103ED00018056B43322500EB830005EB0010B0FBA7
:103EE000F2F000F00F000843208105B030BD000063
:103EF000003801400146012070477CB504460D465C
:103F00002A46A11D01A801F0B3F8A0796179884281
:103F100001D000207CBD284603F0C8FC61798842AE
:103F200001DA0020F6E72A4604F10801684601F0AC
:103F3000B9F8206881682046884710B10120E071F7
:103F400001E00020E071E079E4E710B5012404FA13
:103F500001F32AB1D0F8A8401C43C0F8A84004E0FF
:103F6000D0F8A8409C43C0F8A84010BD00BF0E493F
:103F70000968491C0C4A11600C4909680C4A12680E
:103F800011440A4A116000BF00BF4168491C4160EA
:103F9000282903DB00214160012100E0002109B153
:103FA00001210170704700001C0000202400002047
:103FB000280000207CB5044600202070201D002130
:103FC000016000BF041F0F4903C9CDE900010E487D
:103FD000406840B10C48406828B10B4A50685268AC
:103FE000126851688847102003F0D0FB054621462F
:103FF000DDE9002304F0EEF805460348456000BF04
:1040000020467CBDF89B00084C07002010B50446F4
:104010000020254908802548806940F40060234934
:10402000886100202249A1F8000C1F49303908801E
:1040300001201D490C390880B020091D088000208E
:1040400019492C39088018490880091D0880091D64
:104050000880091D0880602013491C390880002051
:10406000091D0880091D088004200F493439088083
:1040700000200F49A1F8040C0846B0F8000C40F0ED
:10408000010009493439088001200949A1F8140CBC
:10409000012105483438FFF7A8FE012102483438D1
:1040A000FFF7AEFE10BD0000342C014000100240AE
:1040B0000020014010B50446606A20B1012806D0F6
:1040C00002280CD107E0204600F06EF908E02046F7
:1040D00000F0FAF804E02046FFF798FF00E000BF88
:1040E00000BF10BD10B50446606A20B1012806D09B
:1040F00002280CD107E0204600F00CF808E020462A
:1041000000F060F804E0204600F09CF900E000BFF9
:1041100000BF10BD10B5044600202749088027487D
:10412000806940F400602549886100202449A1F895
:10413000000C21493039088001201F490C390880C2
:10414000B020091D088000201B492C3908801A491D
:1041500008805820091D08800020091D0880091DBD
:1041600008804FF4C04014491C3908800020091D04
:1041700008801020091D088004200F493439088068
:1041800000200F49A1F8040C0846B0F8000C40F0DC
:10419000010009493439088001200949A1F8140CAB
:1041A000012105483438FFF720FE01210248343848
:1041B000FFF726FE10BD0000342C01400010024025
:1041C000002001402249C96941F00201204AD16121
:1041D0002049098880F8201000219204A2F80014D8
:1041E0001C4A203A118001211A4A121D11804D21CA
:1041F000121D11800021174A1C3A1180154A1032F5
:104200001180121D1180121D11802421121D118098
:104210000021104A0C3A11804FF4C041121D118048
:104220009114121D118004210A4A243A11800021A0
:104230001205A2F804141146B1F8001441F001016E
:10424000044A243A118001218A07A2F81414704705
:1042500000100240240400402DE9F04104460D46C0
:1042600016461F4684F82970206801692046884751
:1042700010B12046FFF736FF208BA84217D04DB96A
:1042800094F8280078B9012084F828002046FFF728
:1042900011FF08E094F8280028B1002084F82800D5
:1042A0002046FFF71FFF2583208B06490880E66123
:1042B000206841682046884702F03EFC6061BDE806
:1042C000F0810000282C01402049C96941F0020119
:1042D0001E4AD16100211E4A11801205A2F8041461
:1042E0001B4A28321180FF21121D11800321184A18
:1042F000083211800021164A34321180121D1180BB
:10430000121D1180121D118040F20111104A183245
:1043100011800021121D1180121D118004210C4AF0
:10432000118000211205A2F804141146B1F80014FE
:1043300041F00101064A11800121054A1432118021
:1043400090F820101207A2F82414704700100240C1
:10435000000400407CB504460D46684602F0E8FBC8
:1043600004F12C008168A94201D8002107E0C56052
:1043700000F50471C26851F832100160012109B9D9
:1043800000207CBD694604F12C0000F0E9FB08B96F
:104390000020F6E7BDF8001001232046019AFFF740
:1043A0005BFF0120EDE7000010B50446224880695C
:1043B00040F400602049886100202049088020499D
:1043C000A1F8040C1D492831088040F2FF70091D36
:1043D00008800020194908310880184934310880C4
:1043E000091D0880091D0880091D088060201349E7
:1043F000183108800020091D08800120091D08804F
:1044000004200E49088000200D49A1F8040C08463C
:10441000B0F8000C40F0010008490880012007496D
:104420001431088001210548FFF7DFFC0121034812
:10443000FFF7E6FC10BD000000100240002C014018
:104440000020014010B50446002026490880264877
:10445000806940F400602449886100202349A1F864
:10446000000C20493039088001201E490C39088091
:10447000B020091D088000201A492C3908805820D6
:10448000184908800020091D0880091D0880091DA1
:104490000880602013491C3908800020091D08800D
:1044A0000120091D088004200E49343908800020AD
:1044B0000E49A1F8040C0846B0F8000C40F00100C9
:1044C00008493439088001200849A1F8140C012159
:1044D00004483438FFF789FC012102483438FFF7DB
:1044E0008FFC10BD342C0140001002400020014020
:1044F0007CB504460D46206829464269204690470F
:1045000010B14FF0FF307CBD02F016FB6169411A1B
:10451000E06981421FD394F82900C0B1684602F0D7
:1045200007FB694604F12C0000F01AFB38B1BDF816
:10453000001001232046019AFFF78EFE06E00020BE
:1045400084F82900206881682046884703E02068B5
:104550008168204688470020D5E710B504462046EC
:10456000FFF7A8FD00202072208310BD70B504461F
:104570000E464FF0FF320021204600F0B7FA044605
:104580001748206004F1180002F0D2FAA0F11804D4
:1045900002206062002084F8280084F8290004F1D9
:1045A0002C0528606860A860402308220D4905F1A9
:1045B000100003F017F9A0F110050C2308220A4996
:1045C00005F5047003F00EF9A0F5047500BFA5F120
:1045D0002C04C4F89C622046FFF7BFFF204670BD44
:1045E000689C0008316B0008BD4E000801460120A0
:1045F000704738B504460D462A46A11D684600F0AE
:1046000037FDA0796179884201D0002038BD284665
:1046100003F04CF96179884201DA0020F6E72A4676
:1046200004F10801684600F023FD2A4604F109015F
:10463000684600F01DFD206881682046884710B15B
:104640000120E07101E00020E071E079DEE770B563
:1046500004460D461DB1206881682046884784F8CD
:10466000285170BD70B504460D4600BFE16B084689
:10467000C91700EB91618911296000BFA16B084641
:10468000C91700EB9161C1F38F11E98100BF606C24
:104690004FF47A7190FBF1F0A87400BFD4F8C41005
:1046A0000846C91700EB91618911696000BFD4F811
:1046B000C0100846C91700EB9161C1F38F122A821E
:1046C00000BFD4F8CC004FF47A7190FBF1F0E8749D
:1046D0000020A87604F1140000F06EFDA97E0843C6
:1046E000A87604F19C0000F067FD08B1022000E00C
:1046F0000020A97E0843A8760A21A06C90FBF1F067
:1047000085F82800D020005990FBF1F0C1B2292093
:104710004155002070BD00002DE9FF4104460D46C3
:104720001646284604F09AFACDE9020123A00CC8E7
:10473000029804F0E7FACDE9000104F041FA0746D7
:10474000304604F08BFACDE902011CA00CC8029897
:1047500004F0D8FACDE9000104F032FA804694F86A
:10476000280108B1BDE8FF8104F1140000F0B0F9A0
:1047700048B104F19C0000F0ABF920B11FB9B8F1C9
:10478000000F00D1EEE7394604F1140002F0C9FB36
:10479000414604F19C0002F0C4FB3246294604F570
:1047A000967000F0BBFC04F1140000F098F904F1DD
:1047B0009C0000F094F901202072D3E7C9AC410CB1
:1047C00032030E402DE9F74F86B004460D46002611
:1047D000089F284604F042FACDE9020160A00CC807
:1047E000029804F08FFACDE9000104F0E9F9049091
:1047F00094F8280110B109B0BDE8F08F04F114005D
:1048000000F066F940B104F19C0000F061F918B1C4
:1048100015B9089800B9EEE787B904F114000499B6
:1048200002F07FFB04F19C00049902F07AFB2A4617
:10483000294604F5967000F071FC6BE0781C01D0FD
:10484000012F18D17842049A00FB02F104F1140000
:1048500002F067FB049807FB00F104F19C0002F0F2
:1048600060FB07FB05F2784200FB05F104F596704A
:1048700000F054FC4EE0002F01DA7F420126A7F140
:104880007B0807F17B0916B3049800FB09F090FB45
:10489000F9FA514604F1140002F043FB049800FBBE
:1048A00008F090FBF9FA514604F19C0002F039FB44
:1048B00008FB05F090FBF9FA09FB05F090FBF9FB0A
:1048C0005246594604F5967000F028FC21E0049801
:1048D00000FB08F090FBF9FA514604F1140002F0D5
:1048E00020FB049800FB09F090FBF9FA514604F113
:1048F0009C0002F016FB09FB05F090FBF9FA08FB9F
:1049000005F090FBF9FB5246594604F5967000F00D
:1049100005FC00BF049810F15A0F0BDA57B90121BA
:1049200004F1140000F03FFC012104F19C0000F0B0
:104930003AFC09E0002104F1140000F034FC0021ED
:1049400004F19C0000F02FFC04F1140000F0C7F803
:1049500004F19C0000F0C3F8012020724BE7000036
:10496000C9AC410C32030E4070B504460D4604F14B
:10497000140000F0B7F810B900BF00BF00BF29460F
:1049800004F1140000F01FFC294604F19C0000F023
:104990001AFC04F1140000F0A5F820B904F19C0001
:1049A00000F0A0F898B1D4F824010268D1688847D3
:1049B000D4F8240102681169884778B904F1140019
:1049C00000F09EFC04F19C0000F09AFC06E0D4F894
:1049D000240102689168884700202072002070BD81
:1049E00010B5044604F1140000F091FC04F19C00A1
:1049F00000F08DFC10BD0000F0B585B004460D46FA
:104A000016461F464FF0FF320021204600F06EF898
:104A10000446194820600523012200210E20CDE91B
:104A20000323CDE90101154B00932B463A4604F1CF
:104A3000140000F081FCA0F11404052301220E20D3
:104A4000CDE90102CDE903230C4B009333463A46EE
:104A5000012104F19C0000F06FFCA0F19C04C4F85B
:104A60002471002084F8280104F5967000BFA0F599
:104A70009674204605B0F0BD9C9C00081873010098
:104A8000034B0360017142710023C3717047000042
:104A9000BC9C000870B504460D462068016920469C
:104AA000884748B1E068002801DA002000E0E068AB
:104AB00020614FF0FF3070BD2069401C2061E1682B
:104AC000884202DA6FF00100F5E700202061F2E78A
:104AD0000146087A08B9012070470020FCE701214F
:104AE000017270470146087A70470000034B03606B
:104AF000416000230372C26002617047D09C0008CD
:104B0000704710B5034698680C2801DB002010BDE3
:104B10008818402801DB0020F9E703F504709C6841
:104B200040F834109C6800EBC40042609868401C58
:104B300098600120EBE730B503465868402801DB58
:104B4000002030BD03F110005D6820F835105C686E
:104B500000EBC40042605868401C58600120F0E738
:104B600030B50246D068002801DA002030BD02F5D9
:104B70000474D56804EBC5001368D0E900452C44E3
:104B80009C4201DC012400E0002424B14FF0FF30FE
:104B9000D0600020EAE71368581C106002F1100092
:104BA00000EBC30309CBC1E900030120DEE7F8B540
:104BB00004460E4605216846FCF78EF80546014678
:104BC00004F1300003F027F9207504216846FCF752
:104BD00083F80546014604F1180003F01CF96075DE
:104BE00003216846FCF778F80546014604F12400E5
:104BF00003F011F9A0750020F8BD2DE9F04104463D
:104C00000D46164605EB850104F13C0000EBC1079B
:104C1000983050F825100E30FCF73EF880463A6880
:104C2000511C3960391D41F822803968092901DB9E
:104C3000002139600020002108E03A1D52F82120AF
:104C4000824202DD3A1D52F82100491C0929F4DB99
:104C500000BF81B206F1800020F8151030F8150071
:104C6000B0F5167F04DA317B0120A840014331738F
:104C7000BDE8F08130B5002502F11B04655430BD5C
:104C80007CB504460D460020A8720C216846FCF74E
:104C900023F8A97A0843A8720B216846FCF71CF890
:104CA00008B1022000E00020A97A0843A8720A2176
:104CB0006846FCF711F808B1042000E00020A97A4A
:104CC0000843A8720020E87202216846FCF704F845
:104CD000E97A0843E87201216846FBF7FDFF08B155
:104CE000022000E00020E97A0843E872002085F8FD
:104CF0002E0000BF01232A4600212046FFF7BAFFFD
:104D000000232A4601212046FFF7B4FF01232A464B
:104D100002212046FFF7AEFF002028732A4600211B
:104D20002046FFF76AFF2A4601212046FFF765FF6C
:104D30002A4602212046FFF760FF00BF052101A897
:104D4000FBF7AAFFA5F88A00062101A8FBF7A4FF3C
:104D500081B28C204153072101A8FBF79DFF81B24E
:104D60008E204153092101A8FBF796FF81B29020C4
:104D700041530C2101A8FBF78FFF81B292204153D0
:104D800000219420415396204153002025F8980F8C
:104D90001F216846FBF7A0FF2988084325F89809DA
:104DA00020216846FBF798FF08B1022000E00020B0
:104DB000B5F898100843A5F8980021216846FBF73C
:104DC0008BFF08B1042000E00020B5F898100843DC
:104DD000A5F8980022216846FBF77EFF08B108205D
:104DE00000E00020B5F898100843A5F898002321AA
:104DF0006846FBF771FF08B1102000E0002035F88D
:104E0000981F08432880288825F898092421684697
:104E1000FBF762FF08B1402000E00020B5F89810D1
:104E20000843A5F898007CBD10B504464FF0FF324A
:104E300000212046FFF75AFE04461E48206001224A
:104E4000022104F1140002F0F8FFA0F11404012281
:104E5000022104F1200002F0F0FFA0F12004012261
:104E6000022104F12C0002F0E8FFA0F12C040A203A
:104E7000A06303232822104904F13C0002F0B2FC95
:104E8000A0F13C040020A4F8B40004F1E00000BF4D
:104E9000A0F1E00404F1E10000BFA0F1E10403206F
:104EA000C4F8D4000421D82001510221DC20015192
:104EB000204610BD109D00082D830008704700009B
:104EC0002DE9FC4104460D4616461F4600BF2069E9
:104ED00008B926610AE05A212069484306EB860199
:104EE00000EB4100642190FBF1F0206100BF60689D
:104EF000401C6060A168884209DD607890F0010084
:104F000001D0012000E00020607000206060207867
:104F100030B1012838D002286CD0032833D183E087
:104F200000BF43F22C312069884202DA3220A060AF
:104F300001E06420A060E87D50B1E068401CE060C2
:104F4000962805DD0120207007214848FFF702FA66
:104F500043F2BC41206988420ADD002219216846DB
:104F6000FBF753FF01221A216846FBF74EFF0AE0C8
:104F7000012219216846FBF748FF01221A216846E1
:104F8000FBF743FF00BF6DE000BFE87D58B9E06864
:104F9000401EE06010F1960F05DA00202070082115
:104FA0003248FFF7D7F9E87D00F0060002280DD15E
:104FB000207001221A216846FBF727FF00221921E1
:104FC0006846FBF722FF0020A0704BE0607828B114
:104FD00001221A216846FBF718FF0AE00022192176
:104FE0006846FBF712FF00221A216846FBF70DFF07
:104FF00000BF37E000BFE87D58B9E068401EE060C0
:1050000010F1960F05DA0020207008211748FFF7ED
:10501000A1F901221A2101A8FBF7F7FE00221921AC
:1050200001A8FBF7F2FE1DE000BF3220A06060780F
:1050300028B1012219216846FBF7E7FE0AE00022A9
:1050400019216846FBF7E1FE00221A216846FBF7AA
:10505000DCFE00BF2FB1E87D08B1012000E0002098
:10506000207000BF00BFBDE8FC8100007C0700206D
:1050700070B506460C461546284602F039FC2070ED
:1050800070BD70B506460C461546284602F030FC49
:105090002080284602F02CFC218841EA002000B242
:1050A000208070BD70B506460C461546284602F0B5
:1050B0001FFC2080284602F01BFC218841EA0020CA
:1050C000208070BD01460120704738B504460D466A
:1050D0002A46A11D6846FFF7CBFFA0796179884277
:1050E00001D0002038BD284602F0E0FB61798842FB
:1050F00001DA0020F6E72A4604F108016846FFF7C6
:10510000B7FF206881682046884710B10120E07110
:1051100001E00020E071E079E4E700002DE9F041D2
:1051200004460D461646A81904F0BCFA07464FF08F
:105130007C5104F005FB2060701B04F0B3FA0746B5
:10514000024904F055F96060BDE8F0810000764343
:105150000146012070477CB504460D462A46A11D34
:1051600001A8FFF785FFA0796179884201D000206E
:105170007CBD284602F09AFB6179884201DA002062
:10518000F6E72A4604F108016846FFF78BFF20681E
:1051900081682046884710B10120E07101E00020BD
:1051A000E071E079E4E770B504460D46A06E016851
:1051B0008A682946904770BD10B50446A06E026803
:1051C000D168884710BDF8B504460E46206881694D
:1051D000204688472068002142692046904778B1E0
:1051E0000020A56E0090286803686A46211D2846A5
:1051F0009847A06E0268516888474FF0FF30F8BDAD
:10520000206A08B9012000E00020014604F17C007A
:1052100002F001FE50B120688168204688470020D6
:105220002063204601F05FFE0020E8E7A06E0168E1
:1052300004F128020B6804F12001984720632046FE
:1052400001F051FE0020DAE730B58DB005460020B0
:105250000B906968686902680AAB14680BAAA047DA
:105260000A9803F0FBFCCDE9080121A00CC80898BE
:1052700003F048FDCDE90601686B03F0EFFCCDE9D2
:1052800004011DA00CC8049803F03CFDCDE9020107
:10529000DDE9062303F040F9CDE9000103F090FCBD
:1052A000686395F86C0010B10B9840420B90E86A67
:1052B0000B99081AA862A96FA86A884205DD686F71
:1052C0004042A96A0844A86209E0A86F401C404215
:1052D000A96A814203DAA96A686F0844A862D5E91D
:1052E0000901084468620B98E8620DB030BD000007
:1052F0009A9999999999C93F9A9999999999E93F50
:1053000010B50446A06E02685168884710BD38B5D4
:10531000044600202072A06E026851688847002071
:10532000A56E0090286803686A46211D28469847A4
:105330000020206238BD00002DE9F84F04460D46DC
:1053400016461F46DDE90AB8DDF838A0DDF83090D2
:105350000D9B00935B4632462946204601F0E4FD52
:1053600004461848206004F164000021016000BF79
:10537000A0F16404A76684F86C90C4F870A00120C2
:1053800000FA08F06067A8F1010101208840A067D9
:105390000122642104F17C0002F038FDA0F17C04BC
:1053A00061686069026804F13403D2F800C004F156
:1053B0002C02E0470020A0622046FFF745FF204670
:1053C000BDE8F88F789D00080146087A642805DC5E
:1053D000487A642802DC887A642801DD002070475E
:1053E0000120FCE738B504460D462A46A11D684653
:1053F000FFF73EFEA0796179884201D0002038BDD8
:10540000284602F053FA6179884201DA0020F6E773
:105410002A4604F108016846FFF72AFE2A4604F1ED
:1054200009016846FFF724FE2A4604F10A0168468E
:10543000FFF71EFE206881682046884710B10120D2
:10544000E07101E00020E071E079D8E70146012039
:10545000704738B504460D462A46A11D6846FFF739
:1054600007FEA0796179884201D0002038BD284626
:1054700002F01CFA6179884201DA0020F6E72A4638
:1054800004F108016846FFF7F3FD206881682046B3
:10549000884710B10120E07101E00020E071E0795F
:1054A000E4E70146012070477CB504460D462A46D4
:1054B000A11D01A8FFF7DCFDA0796179884201D028
:1054C00000207CBD284602F0F1F96179884201DABA
:1054D0000020F6E72A4604F108016846FFF7E2FDDE
:1054E000206881682046884710B10120E07101E002
:1054F0000020E071E079E4E70146087A642801DDE4
:10550000002070470120FCE738B504460D462A46C6
:10551000A11D6846FFF7ACFDA0796179884201D0F2
:10552000002038BD284602F0C1F96179884201DACD
:105530000020F6E72A4604F108016846FFF798FDC7
:10554000206881682046884710B10120E07101E0A1
:105550000020E071E079E4E770470021C182818298
:10556000C1628162416202210170704738B5044610
:1055700000BF207A00B112E0E068B0F5167F0DDAC6
:10558000E068401CE0606068807D012806D12169E8
:10559000481C2061642901DD0120207200BF207AAF
:1055A00020B96068807D84F8210038BDA069401C66
:1055B000A061A069642805DA01221D216846FBF775
:1055C00024FC15E0A069C82805DA01221E216846DE
:1055D000FBF71BFC0CE00020A06100221D216846A7
:1055E000FBF713FC00221E216846FBF70EFC00BFF0
:1055F00094F8210010F0010F0CD06068807D48B94C
:1056000094F8200090F0010001D0012000E000207B
:1056100084F8200094F8200028B90020E06120469A
:10562000FFF79BFF14E0E069401CE0610B49E06973
:10563000884203DA204600F015F809E00849E069DD
:10564000884203DA2046FFF788FF01E00020E0618E
:105650006068807D84F82100A7E7000080FC0A00D4
:10566000A0BB0D00C16A491CC1620178012979D033
:10567000022902D0032976D1C6E0818A891C09B2A9
:105680008182C18A891C09B2C1824168097B0029D3
:1056900043D096228262032202700022C28282825A
:1056A000426290F8302092F0010201D0012200E025
:1056B000002280F830200022C2624268127B02F091
:1056C0000702012A06D0032A07D0042A0CD0062A92
:1056D00014D10CE09622426200BF426A8C324262D0
:1056E000012280F830200DE09622426200BF426A1B
:1056F0008C324262002280F8302003E04FF4AA721C
:10570000426200BF00BF604A1288D1B24023C3EB9F
:105710006103426A1A44426249E04168897A002979
:1057200045D064228262032202700022C2828282F9
:10573000426290F8302092F0010201D0012200E094
:10574000002280F830200022C2624268927A02F081
:105750000702012A08D0032A09D0042A0ED0062AFB
:1057600016D10EE024E067E07822426200BF426A70
:1057700078324262012280F830200DE078224262C5
:1057800000BF426A78324262002280F8302003E093
:105790004FF4AA72426200BF00BF3B4A1288D1B2E6
:1057A0004023C3EB6103426A1A44426200BF46E0F1
:1057B000B0F91410FA291CDAB0F9141011F1FA0F2B
:1057C00017DDB0F9141090F8302012B16FF0030219
:1057D00000E00422114409B28182B0F9161090F859
:1057E00030200AB1042201E06FF00302114409B233
:1057F000C182426AC16A914205DD0021C162C18253
:105800008182022101701AE0B0F9141011F1960F93
:1058100007DD818A891E09B28182C18A891E09B287
:10582000C182D0E90A21914205DD0021C162C18215
:1058300081820121017002E00221017000BF00BFDE
:10584000B0F91410B1F5C87F03DD4FF4C87181823F
:1058500007E0B0F9141011F5C87F02DA4FF6706155
:105860008182B0F91610B1F5C87F03DD4FF4C8711D
:10587000C18207E0B0F9161011F5C87F02DA4FF6C1
:105880007061C18270470000240800402DE9FC418E
:1058900004460D463648006810F0010F11D1344817
:1058A00001F0D4FF68B100BF0020324908604860B1
:1058B000009069462F4802F0CBFA00BF2C48AFF3A6
:1058C0000080284603F0EEFE019001A904F2646016
:1058D00002F07DFD8046284903F032FF074603F0C1
:1058E000A9FE06462548007858B1002023490870D3
:1058F000304603F0D7FE009069461E4802F0A8FA31
:1059000000BF304603F0CEFE01901A4A019950685C
:1059100003F0E2FC17494860164801990268083014
:1059200040F8221008380068401C124908600A2814
:1059300004DD00200860012081F834000D4A13685E
:10594000083252F82310083A506804F031F8094937
:10595000486000BF00BF4868094903F049FD074699
:10596000084903F0EDFEC4F86006BDE8FC810000C4
:10597000380000207C0A00200000C84234000020CB
:10598000000020410AD7233C2DE9F04F8FB0044698
:10599000002500200D90D4F85862C4F81C030DAB0C
:1059A000324604F5C871204602F0ECFB00BF022726
:1059B0000D9881193A460CA8FDF756FC0D9838440D
:1059C0000D9000BFBDF8300003F085FEC4F89401CF
:1059D0008A49D4F8940103F05DFF06D28849D4F8CF
:1059E000940103F0ADFEC4F89401D4F89401C4F816
:1059F0006006002709E004F5CC7000EB87010DABD1
:105A00003246204602F0BEFB7F1C182FF3DB002736
:105A100009E004F5FC7000EB87010DAB324620462F
:105A200002F0B0FB7F1C182FF3DB7649D4F890010D
:105A3000884203D0002084F8880101250020C4F8A2
:105A40002803002790E004F5CC7151F8270003F0FB
:105A500029FE834603F018FCCDE90A016AA00CC8B0
:105A60000A9802F0ADFECDE9080102F00BFD804678
:105A700004F5FC7151F8270003F014FE834603F08F
:105A800003FCCDE90A0162A00CC80A9802F098FE56
:105A9000CDE9080102F0F6FC814607EB87016FF0C3
:105AA000770202EB410003F0FDFD82460C2F04DB80
:105AB0005949504603F010FC82460021404603F04D
:105AC00089FD50D0484603F0DFFBCDE90A0153A021
:105AD0000CC80A9803F0DEF805D34FF07F51484612
