:020000040800F2
:10000000B88A0020A50B0008C90B0008CB0B00081C
:10001000CF0B0008D30B0008D70B0008000000002E
:10002000000000000000000000000000DD0B0008E0
:10003000DB0B000800000000DF0B0008A51F000814
:10004000E10B0008E30B0008E50B00084B0C00086F
:10005000E70B0008E90B0008EB0B0008ED0B0008AC
:10006000EF0B0008F10B00089D1E0008F30B0008C1
:10007000F50B0008F70B0008F90B0008FB0B000854
:10008000FD0B0008FF0B0008010C0008030C000822
:10009000050C0008070C0008090C0008D31E000816
:1000A0000B0C00080D0C00080F0C0008110C0008C8
:1000B000130C0008150C0008170C0008190C000898
:1000C0001B0C00081D0C00081F0C0008210C000868
:1000D000230C00085F170008E917000873180008D0
:1000E000B11D0008250C00088F0C000800F002F874
:1000F00000F045F80AA090E8000C82448344AAF17D
:100100000107DA4501D100F03AF8AFF2090EBAE87A
:100110000F0013F0010F18BFFB1A43F0010318473B
:1001200040A2000060A20000103A24BF78C878C145
:10013000FAD8520724BF30C830C144BF04680C60ED
:10014000704700000023002400250026103A28BF35
:1001500078C1FBD8520728BF30C148BF0B60704739
:100160001FB509F02EFD9DE8030003F0A7FB03F087
:10017000EBFA1FBD10B5002007F0DFFE10BD03F045
:1001800005FC1146FFF7ECFF03F04AFA03F03DFCD3
:1001900003B4FFF7EFFF03BC03F0F2FB08B5002147
:1001A0004FF0006003F0F2FE25208DF800000120E2
:1001B0008DF8010005208DF8020001208DF8030064
:1001C000684603F09FFE26208DF8000001208DF880
:1001D000010005208DF8020001208DF8030068461B
:1001E00003F090FE27208DF8000001208DF801001B
:1001F00005208DF8020001208DF80300684603F009
:1002000081FE4FF4C06003F0B7FE28208DF8000097
:1002100001208DF8010007208DF8020001208DF8E3
:100220000300684603F06EFE08BD0020FB49C8606D
:1002300008611420486100208861C8610846006890
:1002400040F00100086008464068F5490840F3495D
:10025000486008460068F3490840F04908600846CD
:10026000006820F4802008600846406820F4FE0002
:10027000486000208860704710B500BFE7480068FC
:1002800010F0020FFAD03020E749086008460068F5
:1002900040F0020008600846006840F01000086066
:1002A0000020DE49486008464068486008464068CB
:1002B00048600846406840F48060486008464068EE
:1002C00040F4004048600846406840F460104860D0
:1002D0000846006840F08070086000BFCF480068A2
:1002E00010F0007FFAD0CD48406840F00200CB49C2
:1002F000486000BFC948406800F00C000828F9D1E8
:10030000C648C06940F00060C449C8610846C06979
:1003100040F08050C8610846806940F00100886163
:100320000121084603F042FE0121C80303F04AFE02
:10033000012144F60C0003F051FE10BD41F63F7060
:100340004FF0E021486106200861002088610846DE
:10035000006940F001000861704710B5042003F007
:100360002BFCA0F52541A53903D103F009FF03F0CB
:10037000FDFE10BD10B5A948806940F40060A74992
:1003800088610020A9490880091D0880A7492831F3
:10039000088040F2FF70091D08800020A349083141
:1003A0000880A24934310880091D0880091D088091
:1003B000091D088060209D49183108800020091D12
:1003C0000880091D08800420984908800020091D24
:1003D0000880081F008840F00100091F08800121E3
:1003E000924803F00EFF0121904803F015FF8B485F
:1003F000C06940F001008949C8610846806940F041
:10040000010088618A48406840F40070884948606B
:100410008248806940F0040080498861084680690C
:1004200040F00800886100208904088088800885E1
:10043000088140F2FF3088860020088788877D4940
:1004400008807D48006858B946F2700009060883A4
:10045000002088831120088440F2FF3088850AE05C
:1004600040F664000107888546F2600008838883AF
:1004700041F21110088404200107088000208880C0
:100480000846008840F0010008806448C06940F0D8
:1004900002006249C8610846806940F00100886135
:1004A0006348406840F44060614948605B48806947
:1004B00040F0100059498861002060490880091DFA
:1004C00008805E4928310880FF20091D088003202C
:1004D0005A49083108800020584934310880091DE4
:1004E0000880091D0880091D088040F20110534949
:1004F000183108800020091D0880091D088004208B
:100500004E4908800020091D0880081F008840F01F
:100510000100091F08804148C06940F004003F49BC
:10052000C8610846806940F0010088614048406821
:1005300040F480503E4948603848806940F01000DF
:100540003649886100203E490880091D08803C49E1
:1005500028310880FF20091D088003203849083110
:1005600008800020364934310880091D0880091DA3
:100570000880091D088040F20110314918310880B7
:100580000020091D0880091D088004202C490880CE
:100590000020091D0880081F008840F00100091F85
:1005A000088010BD1CB50F21032003F0FDFB4FF4A4
:1005B0000040009000208DF804000C208DF805000C
:1005C00001208DF80600684603F0A8FB0E210320E9
:1005D00003F0EAFB4FF48040009000208DF8040007
:1005E0000C208DF8050001208DF80600684603F008
:1005F00095FB0C21022003F0D7FB4FF480500090B4
:1006000000208DF804000C208DF8050001208DF8E5
:100610000600684603F082FB1CBD0000001002408B
:100620000000FFF8FFFFF6FE00200240002C014012
:100630000000014040000040000000200004004095
:1006400000080040FE48806940F00400FC498861D1
:10065000BB20FC490860FC48091D0860F848806917
:1006600040F00800F6498861F848F9490860F948FF
:10067000091D0860F8480068A8B1081F006820F04C
:100680007F40091F08600846006840F0EE4008609F
:10069000081D006820F47F40091D086008460068B6
:1006A00040F43B400860E648806940F01000E449AF
:1006B0008861EA48EA490860EA484860E048806999
:1006C00040F02000DE498861E748E8490860E848D2
:1006D000091D0860DA48806940F04000D849886107
:1006E000E448E5490860E548091D0860704708B519
:1006F0000121480503F066FC0121022003F0B8FB4C
:100700004FF44070ADF8000003208DF802001C206B
:100710008DF803006946CE4803F05AFB08BD10B5BA
:10072000D74803F06DFAD648283003F069FAD44868
:10073000643003F065FA10BD1FB50121880303F092
:100740004DFC4FF4E13000900020ADF80400ADF80E
:100750000600ADF80800ADF80C000C20ADF80A005A
:100760006946C84803F08EFD012240F22551C54874
:1007700003F06FFD0121C34803F059FD0121480436
:1007800003F020FC0121082003F072FB4FF4E1305C
:1007900000900020ADF80400ADF80600ADF80800A8
:1007A000ADF80C000C20ADF80A006946B64803F01D
:1007B00069FD012240F22551B34803F04AFD0121B1
:1007C000B14803F034FD0121880403F0FBFB012153
:1007D000AE4803F04DFB4FF4E13000900020ADF83F
:1007E0000400ADF80600ADF80800ADF80C000C20D0
:1007F000ADF80A006946A64803F044FD012240F224
:100800002551A34803F025FD8D48C06940F48020A0
:100810008B49C86101219E4803F009FD1FBD88482E
:10082000806940F40070864988610846806940F01C
:10083000040088610846806940F008008861084625
:10084000806940F010008861002092490860091D0D
:100850000860081D006840F00500091D0860084692
:10086000006840F0280008600846006840F4A07066
:1008700008600846006840F4206008600846006888
:1008800040F4A04008600846006840F4203008604A
:10089000081D006840F00500091D08600846006852
:1008A00040F0280008600846006840F4A070086026
:1008B0000846006840F4206008600846006840F47C
:1008C000A04008600846006840F4203008600846F0
:1008D000006840F4A01008600846006840F420005A
:1008E00008600846006840F0A0600860084600689C
:1008F00040F0205008600020664928310860091D3A
:100900000860091D08606348001D006840F0010090
:100910006049091D08600846006840F0080008604A
:1009200000BF5C48001D006810F0080FF9D159485D
:10093000001D006840F004005649091D086000BF12
:100940005448001D006810F0040FF9D170474A4860
:10095000001D006820F07F604749091D08600846B7
:10096000006840F088600860081D0068C0F34030EF
:100970003949086040480830006810F4804F01D0C1
:10098000022000E000203449096808433249086029
:1009900070473148006870471CB5684600BFFFF7D4
:1009A00044FCFFF769FCFFF7F9FB264810300068AC
:1009B00040F48070234910310860081D006840F43D
:1009C0008070091D08601E48806940F004001C49C1
:1009D00088610846806940F008008861084680699F
:1009E00040F0100088610846806940F0200088616E
:1009F0000846806940F040008861FFF7A8FF0022A8
:100A0000292101A800F0FFF900222A2101A800F005
:100A1000FAF900222B2101A800F0F5F900222C217F
:100A200001A800F0F0F900220F2101A800F0EBF975
:100A30000022192101A800F0E6F900221A212BE07A
:100A40000010024000080140BB84484400343400D8
:100A5000000C0140B0334433000000204003004448
:100A600000100140334B04343344B44400140140BB
:100A70004344444433443433001801404333333354
:100A80001C000240003801400044004010001400E7
:100A9000004800400424014001A800F0B4F90022FD
:100AA0001B2101A800F0AFF900221C2101A800F0D1
:100AB000AAF900221D2101A800F0A5F900221E219B
:100AC00001A800F0A0F9FFF7BDFD0022192101A83F
:100AD00000F099F900221A2101A800F094F90022EF
:100AE0001B2101A800F08FF900221C2101A800F0B1
:100AF0008AF900221D2101A800F085F900221E219B
:100B000001A800F080F90122292101A800F07BF959
:100B10002249684607F051FD01222A2101A800F070
:100B200072F91E49684607F048FD01222B2101A8F1
:100B300000F069F91949684607F03FFD01222C21B0
:100B400001A800F060F91549684607F036FD01225A
:100B5000142101A800F057F9FFF7FFFBFFF70AFC8B
:100B6000FFF7DDFDFFF7E8FDFFF71CFDFFF757FE80
:100B7000FFF7E4FBFFF7BBFD0022142101A800F002
:100B800042F90748006840F40050054908600846EB
:100B9000006840F4804008601CBD000000350C0077
:100BA000101801400348004703480449044A054B14
:100BB00070470000ED000008B80A0020B88A002045
:100BC000B85A0020B85A0020704700BFFEE700BFA7
:100BD000FEE700BFFEE700BFFEE7704770477047C3
:100BE000704770477047704770477047704770474D
:100BF000704770477047704770477047704770473D
:100C0000704770477047704770477047704770472C
:100C1000704770477047704770477047704770471C
:100C2000704770471A48006840F40030184908605F
:100C30001848008820F008001649088000BF1548B1
:100C4000008810F0080FFAD070471248008810F0A2
:100C5000040F05D00F48008820F004000D490880DB
:100C60000C48008810F0020F05D00A48008820F0D8
:100C70000200084908800748008810F0010F05D0DD
:100C80000448008820F0010002490880704770473E
:100C9000140401400428004010B5024600200C4B0B
:100CA00019600B4B2C3B1B6843F00103084C2C3C98
:100CB000236000BF064B343B1B6813F0020FF9D0D2
:100CC000034B183318680023014C343C236010BDDB
:100CD0003424014010B502460020252972D2DFE8F5
:100CE00001F08E13191F252B8E8E31363B41474D57
:100CF0008E5266575C618E8E8E8E6C8E8E8E8E8E30
:100D00008E72777C81868800F84B1B68012424EA68
:100D1000D32076E0F54B1B68012424EA133070E001
:100D2000F34B1B68012424EA13306AE0F04B1B6884
:100D3000012424EA533064E0EE4B1B68012424EACA
:100D400053205EE0EC4B1B6803F0010059E0EA4BD6
:100D50001B68C3F3400054E0E74B1B68012424EAFE
:100D600093004EE0E44B1B68012424EAD30048E0E2
:100D7000E14B1B68012424EA131042E0DE4B1B68A0
:100D8000C3F340103DE0DC4B1B68C3F3C03038E0D8
:100D9000D84B1B68C3F3C01033E0D64B1B68C3F3BA
:100DA00080202EE0D34B1B68C3F3C02029E0D24B38
:100DB0001B68012424EA532023E0CC4B1B68C3F3B7
:100DC00000201EE01BE0CB4B1B68C3F3800018E043
:100DD000C84B1B68C3F3C00013E0C64B1B68C3F3CA
:100DE00000100EE0C54B9B68C3F3803009E0002083
:100DF00007E0C24B9B68012424EA530001E0002075
:100E000000BF00BF10BD70B506460D4614462D2D1F
:100E100073D2DFE805F017727272727272722A3D35
:100E200072727250D2F272727272F0EFACBF72EEE6
:100E3000EDECEBEAE9727272727272E8E7E6E56372
:100E40007386990044B1A9480830006840F4807066
:100E5000A6490831086007E0A4480C30006840F457
:100E60008070A2490C310860DEE144B1A24808302C
:100E7000006840F00100A0490831086007E09E4882
:100E80000C30006840F001009B490C310860CBE158
:100E900044B199480830006840F002009649083192
:100EA000086007E094480C30006840F00200924966
:100EB0000C310860B8E144B18F480830006840F058
:100EC00020008D490831086007E08B480C3000682D
:100ED00040F0200088490C310860A5E134B1874812
:100EE000006940F004008549086105E083484069D5
:100EF00040F004008149486196E194E144B17D48A5
:100F00000830006840F480707A490831086007E0D2
:100F100078480C30006840F4807076490C310860E5
:100F200082E144B174480830006840F040007249E2
:100F30000831086007E070480C30006840F040005D
:100F40006D490C3108606FE144B16B4808300068AE
:100F500040F0800068490831086007E066480C30BE
:100F6000006840F0800064490C3108605CE144B1E5
:100F700061480830006840F400505F49083108605B
:100F800007E05D480C30006840F400505A490C31CD
:100F9000086049E144B158480830006840F4804096
:100FA00055490831086007E053480C30006840F4A8
:100FB000804051490C31086036E144B14B4808305B
:100FC000006840F4004049490831086007E047489C
:100FD0000C30006840F4004044490C31086023E1C3
:100FE00012E100E1EEE0DCE0CCE0BCE0AAE098E059
:100FF00065E03BE027E013E0FFE744B13E480830FE
:10100000006840F400403C490831086007E03A4875
:101010000C30006840F4004037490C31086003E1AF
:1010200044B135480C30006840F4807032490C31CE
:10103000086007E030480830006840F480702E49AE
:1010400008310860F0E044B128480830006840F4F6
:10105000007026490831086007E024480C30006819
:1010600040F4007021490C310860DDE0FFF791FC8D
:1010700090B944B91E480830006840F480601C49AB
:10108000083108601AE01A480C30006840F48060AB
:1010900017490C31086011E044B915480830006860
:1010A00040F0400012490831086007E010480C3059
:1010B000006840F040000E490C310860B4E0FFF7D2
:1010C00068FCE8B944B90A480830006840F4006098
:1010D00007490831086023E005480C30006840F4F7
:1010E000006003490C3108601AE000000808014064
:1010F000080C01400814014008180140001001408C
:1011000034B94A48006840F080004849086007E068
:101110004648001D006840F080004449091D0860F1
:1011200082E034B94148006840F480403F4908609B
:1011300007E03E48001D006840F480403B49091D1F
:10114000086071E034B93948006840F4004037491C
:10115000086007E03548001D006840F4004033494E
:10116000091D086060E034B93148006940F48070BE
:101170002F49086105E02E48406940F480702C49F1
:10118000486151E034B92A48006940F400702849A8
:10119000086105E02648406940F400702449486130
:1011A00042E034B12348006840F48060214908607F
:1011B00007E02048001D006840F480601D49091DBB
:1011C000086031E034B11B48006840F40060194900
:1011D000086007E01748001D006840F400601549EA
:1011E000091D086020E034B11248006840F48050C6
:1011F0001049086007E00F48001D006840F4805067
:101200000C49091D08600FE034B10948006940F439
:1012100000400749086105E00548406940F4004086
:101220000349486100E000BF00BF70BD100C0140E1
:10123000001001401018014020B1012816D00228EA
:101240003CD127E059B1FB4A128842F08002F94BA9
:101250001A801A46128842F008021A8005E0F54A00
:10126000128822F08002F34B1A8028E059B1F24A2A
:10127000128842F08002F04B1A801A46128842F01F
:1012800008021A8005E0EC4A128822F08002EA4B3C
:101290001A8014E059B1E94A128842F08002E74B03
:1012A0001A801A46128842F008021A8005E0E34AC2
:1012B000128822F08002E14B1A8000E000BF00BFDC
:1012C000704720B1012816D002283CD127E059B13F
:1012D000D84A128842F02002D64B1A801A46128849
:1012E00042F004021A8005E0D24A128822F020025D
:1012F000D04B1A8028E059B1CF4A128842F0200220
:10130000CD4B1A801A46128842F004021A8005E07A
:10131000C94A128822F02002C74B1A8014E059B142
:10132000C64A128842F02002C44B1A801A4612881C
:1013300042F004021A8005E0C04A128822F020021E
:10134000BE4B1A8000E000BF00BF70472DE9F0419E
:1013500080460E4617460024002500214046FFF730
:10136000B0FFB8F1000F06D0B8F1010F1BD0B8F1F3
:10137000020F46D12EE0B24806F090FE0546FF2D42
:1013800005D9AF4806F0A4FE0020BDE8F081002496
:1013900004E0AB4806F0A2FE3055641CAC4201D21A
:1013A000BC42F6DB2EE0A74806F078FE0546FF2D8E
:1013B00004D9A44806F08CFE0020E6E7002404E0EF
:1013C000A04806F08BFE3055641CAC4201D2BC42F2
:1013D000F6DB17E09C4806F061FE0546FF2D04D9B8
:1013E000994806F075FE0020CFE7002404E09648F7
:1013F00006F074FE3055641CAC4201D2BC42F6DBF0
:1014000000E000BF00BF01214046FFF75AFF204621
:10141000BBE770B505460E46022D01D9002070BD10
:1014200005EB450000EBC500884901EB8004102066
:10143000A060E66000202061802060610020A06143
:10144000E06120624FF4405060620020A06225B14C
:10145000012D23D0022D68D144E000217C4802F008
:10146000C5FB7C4860607348083820602146784896
:1014700002F036FC4FF4005002F0AEFB0122802156
:101480006C480C3802F0DDFE0121714802F0AEFB21
:10149000012168480C3802F0CAFE46E000216C4881
:1014A0003C3002F0A3FB6C48606063480838206061
:1014B000214667483C3002F013FC4FF0007002F008
:1014C0008BFB012280215C480C3802F0BAFE01211E
:1014D0005F483C3002F08AFB012157480C3802F08B
:1014E000A6FE22E000215A48283802F07FFB5B4824
:1014F000606052480838206021465548283802F07C
:10150000EFFB202002F068FB012280214B480C38C1
:1015100002F097FE01214E48283802F067FB0121B6
:1015200046480C3802F083FE00BF00BF012076E77A
:101530002DE9F04106460D46144626B1012E1CD079
:10154000022E50D134E0002045490860454908602A
:1015500000BF09E02A5C42490B680968491C404FFA
:1015600039603C49CA54401CA042F3DB00203C498E
:1015700008602146FFF74DFF36E000203A49086039
:101580003A49086000BF09E02A5C37490B680968DE
:10159000491C354F39603049CA54401CA042F3DB26
:1015A00000203149086021460120FFF732FF1BE08F
:1015B00000202F4908602F49086000BF09E02A5C1D
:1015C0002B490B680968491C294F39602349CA54C3
:1015D000401CA042F3DB0020254908602146022080
:1015E000FFF717FF00E000BF00BF2046BDE8F08115
:1015F0000146002021B1012905D0022909D105E0C9
:10160000174A106807E0184A106804E0184A106882
:1016100001E0002000BF00BF70472DE9F041064601
:101620000C4615461448066046B3012E31D0022EF2
:1016300043D138E00C3801400C4400400C480040D5
:101640005C0000206C0200207C0400208C0600203E
:10165000440002406C0100207C0300208C05002027
:1016600004000020080000200C00002010000020D2
:1016700014000020180000201C000020FFE70027B5
:1016800004E0E119AA4806F03EFD7F1CAF42F8DBFA
:1016900014E0002704E0E119A64806F034FD7F1CA1
:1016A000AF42F8DB0AE0002704E0E119A24806F0A7
:1016B0002AFD7F1CAF42F8DB00E000BF00BFBDE8A1
:1016C000F08130B5034623B1012B18D0022B42D153
:1016D0002BE09A4800689A4C2468A04205D100206B
:1016E000964C2060964C206030BD94480468006899
:1016F000401C924D28609348005D08702CE0924891
:101700000068924C2468A04205D100208E4C2060D5
:101710008E4C2060E8E78C4804680068401C8A4DC5
:1017200028608B48005D087016E08A4800688A4C83
:101730002468A04205D10020864C2060864C2060A1
:10174000D2E7844804680068401C824D28608348C2
:10175000005D087000E000BF00BF0120C4E738B59D
:101760007F48048814F0200F0ED0001D0088C0B2FE
:101770000090012269460020FFF74FFF784800885B
:1017800020F020007649088014F0800F1CD07448A7
:10179000008820F0800072490880012269460020FC
:1017A000FFF78FFF0546002D05DD9DF800006C4911
:1017B000091D088007E06A480C30008820F080008E
:1017C00067490C31088000BF14F0080F05D114F0F0
:1017D000040F02D114F0020F05D061480488001DE7
:1017E0000088C0B2009038BD38B55E48048814F057
:1017F000200F0ED0001D0088C0B200900122694663
:101800001046FFF70AFF5748008820F0200055498E
:10181000088014F0800F1CD05248008820F080000F
:1018200050490880012269461046FFF74AFF0546E5
:10183000002D05DD9DF800004A49091D088007E0DC
:1018400048480C30008820F0800046490C31088060
:1018500000BF14F0080F05D114F0040F02D114F0EA
:10186000020F05D03F480488001D0088C0B20090D8
:1018700038BD38B53C48048814F0200F0ED0001D48
:101880000088C0B20090012269460220FFF7C5FE21
:101890003548008820F020003349088014F0800F7C
:1018A0001CD03148008820F080002F490880012298
:1018B00069460220FFF705FF0546002D05DD9DF86E
:1018C00000002949091D088007E027480C300088DE
:1018D00020F0800024490C31088000BF14F0080F6C
:1018E00005D114F0040F02D114F0020F05D01E48E8
:1018F0000488001D0088C0B2009038BD10B50C48A7
:1019000006F018FC0446194A194906F0EDFA094890
:1019100006F010FC0446154A154906F0E5FA06489B
:1019200006F008FC0446114A114906F0DDFA10BD24
:101930005C0000206C0200207C04002008000020D5
:10194000040000206C010020100000200C0000208A
:101950007C03002018000020140000208C050020CB
:1019600000380140004400400048004000000008EA
:10197000598100087FB506460C46214603A8FFF7AB
:101980008BF90090214603A8FFF786F901902146C4
:1019900003A8FFF781F902900025002013E0411C05
:1019A0000EE05DF820205DF821309A4207DD5DF8F9
:1019B00020505DF821204DF820204DF82150491C81
:1019C0000329EEDB401C0228E9DB019804B070BD5E
:1019D0002DE9F04107460E4614461D4616F0FF005D
:1019E00002D001281ED10EE0864800880006800C37
:1019F00020600E213846FFF7BDFF40F239314843E1
:101A00004012286012E0804800880006800C2060A8
:101A10000F213846FFF7AEFF40F2393148434012FC
:101A2000286003E000202060286000BF00BFBDE800
:101A3000F08138B5044600220F216846FFF7E3F92C
:101A40000020E06038BD38B5044601220F21684609
:101A5000FFF7D9F9E068142802DAE068401CE0607A
:101A600038BDF8B505460E461746E868142801DA71
:101A7000002000E038460446FEF78BFF002873D1B3
:101A8000F0B206286ED2DFE800F0031F3F50575D2A
:101A9000002C0BDBA0025D4990FBF1F049060887A2
:101AA000002208216846FFF7AEF90CE06042800290
:101AB000564990FBF1F04906088701220821684643
:101AC000FFF7A1F900BF4DE0002C0DDBA0024F494C
:101AD00090FBF1F0C0F5806049068886002209215C
:101AE0006846FFF790F90EE060428002474990FB9C
:101AF000F1F0C0F580604906888601220921684618
:101B0000FFF781F900BF2DE0002C06DBA0023F4962
:101B100090FBF1F04906888706E0604280023B496D
:101B200090FBF1F0490688871CE0A002374990FB42
:101B3000F1F03749088015E0B802344990FBF1F024
:101B400068600FE0B802314990FBF1F0A86000BF77
:101B5000D5E90110884201DAA86800E068682D49DB
:101B6000088000BF4DE0FFE716F0FF0002D001281B
:101B700045D121E0002C0EDB40F664006043234990
:101B800090FBF1F040F66401081A0907888640F6D8
:101B9000640008870FE040F6640001078886604211
:101BA00040F664014843194990FBF1F040F66401A6
:101BB000081A0907088723E0002C0FDB40F66400B1
:101BC0006043124990FBF1F040F66401081A0907DE
:101BD000888740F664000E4908800FE040F66400F4
:101BE00001078887604240F664014843074990FB3B
:101BF000F1F040F66401081A0549088000E000BFD2
:101C000000BFF8BD2404004024080040A086010065
:101C100040000040342C01400021084609E0CF4B31
:101C200003EBC001CE4B03EBC0020A6000BF411CB6
:101C300008460428F3DB704730B101280BD0022896
:101C400010D003281CD114E0C649096841F4805122
:101C5000C44A116015E0C349096841F40041C14A12
:101C600011600EE0BF49096841F48051BD4A11601E
:101C700007E0BC49096841F48041BA4A116000E0BC
:101C800000BF00BF704730B101280BD0022810D030
:101C900003281CD114E0B349096821F48051B14AEA
:101CA000116015E0AF49096821F40041AD4A1160A7
:101CB0000EE0AC49096821F48051AA4A116007E09E
:101CC000A849096821F48041A64A116000E000BFDC
:101CD00000BF7047012804D0022811D003282DD15D
:101CE0001DE0A0490831096841F400419D4A0832CD
:101CF0001160111D096821F40041121D11601EE0E0
:101D000098490831096841F48051964A08321160B7
:101D1000111D096821F48051121D11600FE09149D5
:101D20000831096841F480418E4A08321160111D62
:101D3000096821F48041121D116000E000BF00BF5E
:101D40007047012804D0022811D003282DD11DE0AE
:101D500084490831096821F40041824A083211603F
:101D6000111D096841F40041121D11601EE07D49FA
:101D70000831096821F480517A4A08321160111D36
:101D8000096841F48051121D11600FE07549083156
:101D9000096821F48041734A08321160111D0968F5
:101DA00041F48041121D116000E000BF00BF704788
:101DB00010B56C481430006810F4805F17D0694883
:101DC000006820F480506749086066481430006855
:101DD00040F480506349143108606048103005F0C9
:101DE000C3F96048006840F480505E4908605D486F
:101DF0001430006810F4004F17D05A48006820F4DF
:101E000000405849086057481430006840F40040CA
:101E10005449143108605148083005F0A5F951487B
:101E2000006840F400404F4908604E481430006894
:101E300010F4806F13D04B48006820F4806049494B
:101E4000086048481430006840F480604549143107
:101E500008604448006840F4806042490860414896
:101E60001430006810F4804F17D03E48006820F40A
:101E700080403C4908603B481430006840F4804092
:101E80003849143108603548183005F06DF9354887
:101E9000006840F480403349086010BD3148143078
:101EA000006810F0100F13D02E48006820F01000CA
:101EB0002C4908602B481430006840F01000294974
:101EC000143108602748006840F010002549086078
:101ED000704724481430006810F0400F13D0214898
:101EE000006820F040001F4908601E481430006858
:101EF00040F040001B49143108601A48006840F067
:101F0000400018490860704710B5044604230822B1
:101F10001549124801F02AFC10BD10B504460423EF
:101F2000082212490E4801F021FC10BD10B504230F
:101F300008220F490A4805F0EFFF0E4A0E4900201B
:101F400005F0D2FF042308220C49044805F0E4FF01
:101F5000084A0B49002005F0C7FF10BD30070020DC
:101F600010070020000401408F7100082D8A00082E
:101F70001D8A0008000000081B1F00088771000868
:101F8000091F00080021084609E0604B03EBC0016F
:101F90005F4B03EBC0020A6000BF411C08460228E9
:101FA000F3DB704710B500BF5848406828B1574A66
:101FB000506852681268916888475448006828B190
:101FC000524A1068126812689168884700BF10BDB5
:101FD00010B5044601214FF0C05001F0F3FF01207D
:101FE00001F0DEFF01F0DEFD012002F06BF800BF22
:101FF000412002F04FF80028FAD04FF4807002F030
:1020000077F8012002F06EF802F0BAF802F0AEF8AC
:1020100002F0ACF847F6FF7002F098F802F0A6F86C
:102020004FF46162216851436268C2EB021201EB16
:102030008201A268881802F07BF802F097F84AF251
:10204000A551042001F0C0FD10BD2DE9F04104466A
:102050000D461646042001F0AFFDA0F52541A53937
:1020600004D0FF2020702870307023E002F058F870
:1020700007464FF46160B7FBF0F01821B0FBF1F2B6
:1020800001FB120020704FF46160B7FBF0F100FB20
:1020900011703C21B0FBF1F028704FF46160B7FB88
:1020A000F0F100FB11703C21B0FBF1F201FB1200DA
:1020B000307000BFBDE8F08110B50446022308224D
:1020C0001449124801F052FB10BD10B5044602231A
:1020D000082211490E4801F049FB10BD10B502233A
:1020E00008220E490A4805F017FF0D4A0D49002045
:1020F00005F0FAFE022308220B49044805F00CFF04
:10210000074A0A49002005F0EFFE10BD60070020D5
:10211000500700208F7100082D8A00081D8A0008D2
:1021200000000008CB20000887710008B9200008D3
:10213000024800210160416000BF7047300000206C
:102140007CB50446A069FFF753FA00B17CBD04F1E9
:10215000B40005F050FFAA20019001A904F1B400D9
:1021600005F064FF5520019001A904F1B40005F0C9
:102170005DFF0020019001A904F1B40005F056FFB5
:1021800004F1B401D4F8140205F0E7FF04F1B4003F
:1021900005F015FFC01EC5B2022104F1B40005F020
:1021A0006DFF05700020009002250AE0294604F129
:1021B000B40005F063FF00789DF8001048400090DF
:1021C0006D1C04F1B40005F0FAFEA842EEDC69468D
:1021D00004F1B40005F02AFF0020C4F8180204F14D
:1021E000B40005F0ECFE054604F1B40005F0FEFE77
:1021F00006462A4631460020FFF79AF904F1B4005A
:1022000005F0DDFE054604F1B40005F0EFFE0646DC
:102210002A4631460220FFF78BF900BF96E770B5DA
:102220000446002604F1240005F0EBFE95E004F1DD
:10223000240005F0E6FE05460F2D75D2DFE805F017
:10224000871A232C353E475059626B757E08110062
:1022500004F1240104F5A67003F06AFB00B1012625
:102260007AE004F1240104F5B27003F000FB00B140
:10227000012671E004F1240104F5B87004F092FF26
:1022800000B1012668E004F1240104F5BE7003F0FA
:10229000B7FA00B101265FE004F1240104F5C4702F
:1022A00004F0CDFF00B1012656E004F1240104F54D
:1022B000CA7003F0AAFB00B101264DE004F124012D
:1022C00004F5D07002F085FB00B1012644E004F172
:1022D000240104F5D67005F042FC00B101263BE074
:1022E00004F1240104F5E27005F091FC00B101262F
:1022F00032E004F1240104F5E87002F00AF800B1BC
:10230000012629E004F1240104F5EE7003F02BF915
:1023100000B1012620E004F1240104F5F47003F07B
:10232000DCF800B1012617E011E004F1240104F506
:10233000FE7003F0C7FA00B101260DE004F124019C
:1023400004F5027003F031FB00B1012604E004F152
:10235000240005F050FE00BF00BF04F1240005F08A
:102360002EFE00283FF763AF304670BD73B50446BC
:10237000002594F8200030B101280CD0022812D09A
:1023800003283CD129E09DF80400AA2802D10120AD
:1023900084F8200037E09DF80400552802D102207F
:1023A00084F820002FE09DF80400782811DA9DF8C9
:1023B0000400801CC4F8480104F1240005F01BFE51
:1023C00001A904F1240005F031FE032084F8200067
:1023D00002E0002084F8200015E001A904F12400A7
:1023E00005F024FE04F1240005F0E9FDD4F84811BD
:1023F000884203D10125002084F8200003E000205A
:1024000084F8200000BF00BF28467CBD2DE9F041C4
:10241000A0B0044688464FF0FF37E069B0F1FF3FB7
:1024200005D058B101280AD0022810D108E031485F
:102430000068E0612F480068A06109E000BF00BFAC
:10244000D4E90610884201D0E069A06100E000BF35
:1024500000BF80226946A069FEF778FF0546002686
:102460000BE01DF806102046FFF780FF20B1204644
:10247000FFF7D5FE00B10027761CAE42F1DB00BFAE
:10248000D4F84401401CC4F84401042804DB0020B3
:10249000C4F84401012000E0002010B12046FFF7FD
:1024A0004FFE384620B0BDE8F0814FF0FF31C161EA
:1024B000704770B5044604F1B40005F080FDD4F80F
:1024C0001812451A202D00DD2025002D10DD04F105
:1024D000B40005F08BFDD4F8181246182A46314690
:1024E000A069FFF725F8D4F818022844C4F81802A8
:1024F00070BD00001C000020ADF5B05D00200DF5A2
:102500008051C1F8F00500210DF58050C0F8EC15A0
:10251000C0F8E815C0F8E415C0F8E01545F25550CC
:1025200001F0EAFC062001F0DBFC4FF49D7001F0A5
:10253000DDFC002001F0E0FC01F0CAFC01F0C0FC71
:1025400041F2C85068440E9004220E9802600022A6
:102550000E9842600E9882600E98C2600E980261DA
:1025600001220E98027500BF7D200DF58051C1F843
:10257000FC05D1F8FC05FE49086000BFFFF74CFBE5
:10258000FFF700FDFEF708FA41F2BC50684401F085
:102590001DFF0DF5A8500E900E980D9000220D987D
:1025A000028120220D9880F8212001220D9880F8C8
:1025B00022200D9880F8232022220D9880F82420D4
:1025C00017220D9880F8252040220D9880F82620AB
:1025D00061220D9880F8272000220D98A0F886200F
:1025E0000D9880F888200D980E90521E0E98C0F815
:1025F000B82000BF0DF5A851A1F5077004F0DCFE6E
:1026000041F2C82068440D900DF5A8500E90DDE908
:102610000D10086000220D9802710D9882600D98CF
:10262000C2600D9802820D9842820D98426100BFEF
:1026300041F2942068440D900DF5A8500E90DDE90C
:102640000D1048600D9802720D98C2600D980261DD
:102650000D9882820D98C2820D9882610D98C26198
:102660000D9880F8212000BF0C200DF5805100232B
:10267000C04AC1F8F80501F5BF61A1F57F7004F00B
:10268000FDFA0C200DF580510023BA4AC1F8F4057B
:1026900001F2F451A1F5926004F0F0FAB64B41F268
:1026A00064126A4402F198010DF5815002F092FB28
:1026B0000DF634700D90B1480E90DDE90D0101600A
:1026C00000210D9841600D9881600D98C1600D98B2
:1026D00001610D9841610D98C0F8E4100D98C0F8A3
:1026E000E81000200C9009E000220D9800F118017C
:1026F0000C9841F820200C98401C0C900C98322823
:10270000F2DB00210D98C0F8E01000BF0DF54F601E
:1027100005F0CAF90DF628620E924FF480730E9AF6
:102720000C3200210E9806F0CBF800BF0DF5956035
:1027300003F0C8FF0DF634600E900E98CDF8000738
:1027400000BF0DF5956003F0A9FB0DF254400E900B
:1027500000220E9802800F220E98828004220E988A
:10276000826000220E98C26064220E9802612922C3
:102770000E9842612A220E9882612B220E98C26125
:102780002C220E98026200BFDCA802F03BFD032160
:10279000A3A804F02DFC01216AA804F029FC022161
:1027A00031A804F025FC22A90E914FF0FF32002140
:1027B0000E9802F089FB72490E90016000210E987C
:1027C00001750E9841750E988175012205210E98AC
:1027D000183005F0D6FEA0F118010E910122052156
:1027E0000E98243005F0CDFEA0F124010E910122B7
:1027F00005210E98303005F0C4FEA0F130010E9195
:1028000000BF18A90E914FF0FF3200210E9802F080
:102810005BFB5C490E90016040F2DC510E98416117
:1028200000210E9801760E981C300D9000220D9814
:1028300002600D981C380E900E98426200BF17A8D7
:102840000E900E98026000BF96224FF488714E4899
:1028500002F05FFB322200214B4802F05AFB962225
:10286000E521494802F055FB32220021464802F09A
:1028700050FB9622AB21444802F04BFB052200217D
:10288000414802F02CFB9622AB213F4802F041FB6D
:102890009622E5213C4802F03CFBC8224FF48871A7
:1028A000394802F036FB03220521374802F017FBB6
:1028B00032228821344802F02CFB32220021324897
:1028C00002F027FB322288212F4802F022FB03224C
:1028D00008212D4802F003FB192288212A4802F022
:1028E00018FB02220021284802F013FB02220B21D0
:1028F000254802F0F4FA64229821234802F009FBEB
:102900006422AB21204802F004FB6422CC211E4843
:1029100002F0FFFA642240F201111B4802F0F9FABA
:1029200064224FF48871184802F0F3FA4FF4FA6207
:102930000021154802F0EDFA64229821124802F0B5
:10294000E8FA6422AB21104802F0E3FA6422CC21B9
:102950000D4802F0DEFA642240F201110A4802F04A
:10296000D8FA64224FF48871074802F0D2FA0DE0D9
:102970002C0000207863010070070020A3B0AE3D5A
:10298000389F0008F4A00008AC0700204FF4FA625A
:102990000021FE4802F0BDFA64229821FB4802F0B3
:1029A000B8FA6422AB21F94802F0B3FA6422CC21D0
:1029B000F64802F0AEFA642240F20111F34802F048
:1029C000A8FA64224FF48871F04802F0A2FA1122AA
:1029D0000D21EE4802F083FA64228821EB4802F0D0
:1029E00098FA64229821E94802F093FA6422AB2114
:1029F000E64802F08EFA6422B521E44802F089FA32
:102A00006422CC21E14802F084FA6422E521DF4807
:102A100002F07FFA642240F20111DC4802F079FAF8
:102A200064224FF48871D94802F073FA08221E21FB
:102A3000D64802F054FA64224FF48871D34802F069
:102A400068FA642240F20111D04802F062FA64226E
:102A5000E521CE4802F05DFA6422CC21CB4802F099
:102A600058FA6422B521C94802F053FA6422AB2116
:102A7000C64802F04EFA64229821C44802F049FA8E
:102A800064228821C14802F044FA08222621BF4866
:102A900002F025FA96224FF48871BC4802F039FA08
:102AA00032220021B94802F034FA9622AB21B7480D
:102AB00002F02FFA03222E21B44802F010FA9622D7
:102AC000AB21B24802F025FA32220021AF4802F0D1
:102AD00020FA96224FF48871AC4802F01AFA0322C9
:102AE0003121AA4802F0FBF90021A8482C3801F056
:102AF0002DFE12A80E9000210E98017001210E9853
:102B000041700E98817000210E98416064210E98EA
:102B1000816000210E98C1600E98016100BF11A86C
:102B20000E9000220E98026000BF002010900F90BF
:102B3000974800680DF58051C1F8AC059448001D18
:102B40000068C1F8B005924808300068C1F8B405C3
:102B5000FEE300BF0DF5805090F8BC0500B9F7E723
:102B600000BF00210DF5805080F8BC1500BF01F0BA
:102B7000AFF90DF58050B0F80805401D81B20DF594
:102B80008050A0F808150DF5A851DCA802F065FAF0
:102B90000021A3A804F00AF941F21E516944A3A838
:102BA00004F00CFA00216AA804F000F941F21F5168
:102BB00069446AA804F002FA002131A804F0F6F88A
:102BC0000DF5A95131A804F0F9F90DF2544004F0C3
:102BD00096FA002122A802F0D8F99DF89D0008B1CC
:102BE000022100E000210DF5805080F8161590F8C4
:102BF00016059DF89E1009B1012100E00021014356
:102C00000DF5805080F8161590F816059DF89C106B
:102C100009B1042100E0002101430DF5805080F846
:102C200016150F9810F0010F06D10DF5805090F891
:102C3000160510F0010F15D10F9810F0020F06D1F4
:102C40000DF5805090F8160510F0020F0AD10F987C
:102C500010F0040F0BD10DF5805090F8160510F010
:102C6000040F04D0032149482C3801F06FFD0DF505
:102C7000805090F816150F91002118A804F010FB51
:102C800018A804F00AFB642190FBF1F0C1B20DF525
:102C9000805080F8181500BF9DF8791080F817153E
:102CA00000BF9DF8780008B1102100E000210DF56B
:102CB000805090F8170501430DF5805080F81715E6
:102CC00000F22752511E481EFFF7BFF900212F487E
:102CD0002C3801F0FDFD2D482C3802F0E8F848B101
:102CE0000DF5815002F0E3F820B100210DF581507F
:102CF00001F09DFE00BF0DF58050D0F8C815491CAD
:102D0000C0F8C81590F8DC05814206DB0DF580504F
:102D1000D0F8D015C0F8D8151AE00DF5805090F80D
:102D2000DC15D0F8C805091A0DF58050D0F8CC058F
:102D300041430DF5805090F8DC0591FBF0F10DF565
:102D40008050D0F8D005411A0DF58050C0F8D81544
:102D50000DF58050D0F8D815C0F8E415D0F8D4158A
:102D6000C0F8E01500BFD0F8E4050DF580510A90D9
:102D7000D1F8E0050B900A9888610B98C86100BFF4
:102D8000C8690B9088690A90014603E0AC070020EF
:102D9000E8F7FF1F0DF581500B9A01F003FF18A80B
:102DA00004F07BFA01460B9041F2FC10684403F0FA
:102DB000A6FD18A804F071FA01460B9041F26410C8
:102DC000684403F09CFD18A804F067FA0DF58051E3
:102DD0000B90D1F8E405642801DC012000E000201C
:102DE00003460A900DF5A85112A80B9A02F056FA64
:102DF00000BF9DF84800032801D1012000E0002019
:102E000028B1002211460DF5815001F0CBFE00BF24
:102E10009DF84A0008B1002003E001208DF84A0027
:102E200000BF18B10221FE4801F090FC41F2C82019
:102E3000684403F0BBFC00BF0DF5805090F8CC0255
:102E400058B10DF58050B0F9DA120B91B0F9D812E3
:102E50000A9120300B9A01F04FFE41F29420684411
:102E600002F006FE00BF0DF5805090F89C0258B1AC
:102E70000DF58050B0F9AA120B91B0F9A8120A9181
:102E800020300B9A01F038FE00210DF54F6004F060
:102E9000B1FC0DF580508069B8B90DF58050C0695E
:102EA00098B90DF58050D0F8000570B90DF5805037
:102EB000D0F8040548B90DF5805090F80C0520B9FC
:102EC0000DF5805090F80B0528B101218DF8A9145B
:102ED0008DF8341C04E000218DF8A9148DF8341C01
:102EE0000DF5805090F8380508B9012000E0002069
:102EF0000D900DF5805090F83805C0F118010DF5D2
:102F000080500B9190F8381500F23A5000EB4101D7
:102F10000A910A460EA90DF54F600B9B04F08BFC3D
:102F200001460DF5805090F838050844C1B20DF502
:102F3000805080F8381500BFBDF81E1E0C919DF81A
:102F4000241E0B9100218DF8241E0B9850B30020F5
:102F500000900190034602460290BDF8300001B295
:102F60000DF5956003F07CF9DDF8AC140A91AD49DC
:102F70000A9806F0EDFB0B9006F0E0FC00B20DF5B0
:102F80008051A1F83005DDF8B4140A91A5490A98DA
:102F900006F0DEFB0B9006F0D1FC00B20DF580517F
:102FA000A1F832059DF81A0E30B9BDF81C1E0DF5BA
:102FB00095600B9102F014FF9DF8051D0A460B91D8
:102FC0000D210DF5A85001F0CCF9012204210DF5D9
:102FD000A85001F0C6F90D9828B19DF838100DF5EC
:102FE000805080F8371500210DF5815001F0AAFEC0
:102FF0000DF5A8510DF5815001F024FD00BF0DF530
:103000008050D0F8C405C1B20B910B990DF58050DA
:1030100080F8191500F5A6700A900DF58050B0F9EA
:1030200032150B910B9806F0A5FC7F49089006F02D
:1030300001FD7E49099006F08BFB01460A988160EC
:1030400000BF002141F2E4206844FFF7DFF90028C7
:103050007DD1109818B90621714801F077FB012045
:10306000109041F2E420684490F85301E8B3002145
:1030700041F2E420684480F8531190F8540130B9CB
:103080000DF58050C0F80012C0F8681134E041F22C
:10309000E420684490F854110DF58050C0F80012F7
:1030A00000F5397090F854110DF58050C0F8681192
:1030B00000F53970D0F860110B91D0F85C110A91CD
:1030C000D0F858110991E838DDE90A2303F0B4FD7E
:1030D00041F2E4206844D0F860110B91D0F85C1103
:1030E0000A91D0F85811099100E00BE0A0F5C070EA
:1030F000DDE90A2303F0A0FD012141F2E420684448
:1031000080F86B1141F2E420684490F86B01E8B359
:10311000002141F2E420684480F86B110DF58050E5
:10312000D0F80002C1B20DF5805080F88915D0F8B2
:10313000000260BB0DF58050D0F804120A913C49A2
:103140000A9806F077FC0B9006F0F8FB00E037E2F7
:103150000DF58051C1F88C05D1F808120A91344957
:103160000A9806F067FC0B9006F0E8FB01460DF5A7
:103170008050C0F89015D0F80C120A912C490A988A
:1031800006F058FC0B9006F0D9FB01E038E004E0B3
:103190000DF58051C1F894052CE00DF58050D0F864
:1031A00010120A9122490A9806F044FC0B9006F08E
:1031B000C5FB01460DF58050C0F88C15D0F81412EF
:1031C0000A911B490A9806F035FC0B9006F0B6FBF5
:1031D0000DF58051C1F89005D1F818120A911449E3
:1031E0000A9806F027FC0B9006F0A8FB0DF580511D
:1031F000C1F89405012215210DF5A85001F0B1F890
:1032000041F2E420684490F87701F0B1002141F2E6
:10321000E420684480F87711B0F97A010B9009E056
:10322000800700200000C842D80F494000A08C460B
:1032300000007A4441F2E4206844B0F978110A9120
:1032400000F539700B9A03F08AFD41F2E4206844DE
:1032500090F88F0100B3002141F2E420684480F827
:103260008F1101210DF5815001F0E1FB0DF5815029
:1032700001F01DFE80B141F2E420684490F8920113
:103280000B9041F2E4206844B0F8901100230A91B9
:10329000EC480B9A01F0DEF941F2E420684490F822
:1032A000830128B1002141F2E420684480F88311B1
:1032B00041F2E420684490F89B0178B141F2E420A7
:1032C000684490F89C0101460B90DE4801F03EFAFC
:1032D000002141F2E420684480F89B1141F2E4208F
:1032E000684490F8CB0128B1002141F2E420684401
:1032F00080F8CB1141F2E420684490F8B30128B182
:10330000002141F2E420684480F8B31141F2E42046
:10331000684490F8D70180B1002141F2E42068446C
:1033200080F8D711DCA90A91B0F8D8010B90DDE93B
:103330000A10A1F8B40000BF00BF41F2E4206844C5
:1033400090F8E301E0B3002141F2E420684400E09A
:1033500064E180F8E311B0F8E40110F0010F05D04A
:1033600001220A210DF5A85000F0FBFF41F2E420F4
:103370006844B0F8E40110F0020F05D001220B21DF
:103380000DF5A85000F0EDFF41F2E4206844B0F8DC
:10339000E40110F0040F05D001220C210DF5A85016
:1033A00000F0DFFF41F2E4206844B0F8E40110F0DF
:1033B000080F05D0012213210DF5A85000F0D1FF10
:1033C00041F2E420684490F80F02E0B3002141F29A
:1033D000E420684480F80F12B0F81002C04380B2B5
:1033E0000A900A9801110A910DF2544008900A9827
:1033F00009900898818809980140089801800898E8
:1034000003F07DFE00BF41F2E4206844B0F81002F2
:1034100000F001010A46099125210BA8FDF7F3FCF4
:1034200041F2E4206844B0F81002C0F340010A46BB
:10343000099126210BA8FDF7E6FC41F2E42068443F
:10344000B0F8100200E049E0C0F380010A4609919B
:1034500027210BA8FDF7D7FC41F2E4206844B0F81F
:103460001002C0F3C0010A46099128210BA8FDF7FC
:10347000CAFC41F2E4206844B0F81002C0F3002115
:103480000A4609911B210BA8FDF7BDFC41F2E4207F
:103490006844B0F81002C0F340210A4609911C218B
:1034A0000BA8FDF7B0FC41F2E4206844B0F810022C
:1034B000C0F380210A4609911D210BA8FDF7A3FC4A
:1034C00041F2E4206844B0F81002C0F3C0210A467B
:1034D00009911E210BA8FDF796FC00BF41F2E420E4
:1034E000684490F80302A8B3002141F2E420684444
:1034F00080F803120DF62860099000F2BC4090F8A5
:10350000041200F28720CDE90A100A9801010891FF
:10351000002007900BE0DDE90701014409980C3019
:10352000425C0B9907980A540798411C0791079829
:103530001028F0DB00BF41F2E420684490F8040258
:103540000DF5805181F86A0501220F210DF5A85073
:1035500000F007FF41F2E420684490F8EF0120B347
:10356000002141F2E420684480F8EF110DF54F602E
:103570000A9000F2F45090F8F0010B9000200990AE
:103580000FE00A9800F12601099811F830100B9805
:10359000814203D1DDE90901886105E00998411CF8
:1035A000099109982028ECDB00BF00210DF580501F
:1035B000C0F8E815C0F8F0150121C0F8EC152CE0B2
:1035C0000DF58051D1F8E805401CC1F8E805B0F5CB
:1035D000167F22DD01F53970FEF767FF00210DF53A
:1035E0008050C0F8E815D0F8EC05B0B10DF580506A
:1035F000D0F8F00550B90521124801F0A7F80022D3
:10360000114641F2C850684403F0A9FB01210DF5B1
:103610008050C0F8F0150021109100BFFFF799BA53
:10362000FEF76AFF10B508480849016000BF084965
:10363000016000214160816000BF0146014801F046
:1036400085F910BD800700207007002034A1000814
:1036500098A10008032A40F2308010F0030C00F01B
:10366000158011F8013BBCF1020F624498BF11F8BC
:1036700001CB00F8013B38BF11F8013BA2F1040275
:1036800098BF00F801CB38BF00F8013B11F00303ED
:1036900000F02580083AC0F0088051F8043B083A51
:1036A00051F804CBA0E80810F5E7121D5CBF51F8F3
:1036B000043B40F8043BAFF30080D20724BF11F86D
:1036C000013B11F801CB48BF11F8012B24BF00F8D2
:1036D000013B00F801CB48BF00F8012B704710B543
:1036E000203AC0F00B80B1E81850203AA0E81850FA
:1036F000B1E81850A0E81850BFF4F5AF5FEA027CBB
:1037000024BFB1E81850A0E8185044BF18C918C029
:10371000BDE810405FEA827C24BF51F8043B40F8CA
:10372000043B08BF7047D20728BF31F8023B48BFAF
:1037300011F8012B28BF20F8023B48BF00F8012BED
:10374000704770477047704770B5064C7C44064D13
:103750007D4403E0206820448047241DAC42F9D119
:1037600070BD0000306C0000406C00002DE9F0419D
:1037700005460F46164633B106FB0354A41B2046EC
:10378000B847A542FAD1A5F10800BDE8F0810000D4
:1037900000487047540A002000487047580A00202B
:1037A00070B5064600F06AF8056806F10B0020F0D7
:1037B0000704B4429CBF002070BD2B466A68BAB1B2
:1037C0001068A04210D304F1080188423CBF506841
:1037D000586007D35168101941601168091B0160D6
:1037E00058601460101D70BD13465268002AE7D15E
:1037F0002146284600F04EF80028DED170BD70B595
:103800000446051F00F03AF80068002C14BF446815
:1038100070BD002C18BFA54284BF20466468F8D84C
:1038200001680A18AA4218BF456003D12A680546F4
:103830001144016028684119A1421CBF6C6070BD31
:103840006168696021680844286070BD10B500F0A7
:1038500019F8006810BD10B5044600F013F80460B4
:1038600010BD10B500F066F8BDE8104000F05CB87F
:1038700000F078B800487047200A002000487047E0
:10388000280A002000487047200A0020704770472F
:103890007047704738B504460A4600206946AFF3C2
:1038A0000080002808BF38BD02460099204600F07D
:1038B00092F8012038BD012000F0CEB8F8B5AFF382
:1038C0000080054600200C46102000BF0646A819BF
:1038D000A0420DD9324669460020AFF300800700B0
:1038E00008BF00F0B9F80098A04218BF0546C419F7
:1038F000FFF7C4FF05600746F01D20F007004619DA
:10390000284600F00AF8B44208BFF8BDA21B3146B1
:103910003868BDE8F84000F05EB800210160C0E9F9
:103920000110704710207047002801D000F028B81F
:103930007047000010B5002102A000F074F80120CB
:1039400010BD00005349475056464E3A20507572FC
:1039500065207669727475616C20666E2063616C97
:103960006C65640010B500F081F8016919B100229E
:103970000261884701E08068804700F04CF8000051
:1039800001491820ABBEFEE7260002007546FFF78E
:1039900071FFAE4605006946534620F00700854694
:1039A00018B020B5FDF700F9BDE820404FF0000643
:1039B0004FF000074FF000084FF0000B21F0070117
:1039C000AC46ACE8C009ACE8C009ACE8C009ACE85A
:1039D000C0098D467047034640688C46002818BFD2
:1039E000814284BF03464068F8D81868184488426A
:1039F00007D00CF1030020F00700001D411A521AF5
:103A00000146081D0A60FFF7FABE0446AFF30080C6
:103A10002046FCF7BDFB002000F05AF8FCF7AAFB9B
:103A20000120FFF7ADFF70B505460C460A2000E007
:103A30006D1C00F041F835B128780028F8D102E07B
:103A4000641C00F039F814B120780028F8D1BDE8E2
:103A500070400A2000F030B810B500F041F8BDE821
:103A60001040FFF761BF0000FFF7D5FF70B500F011
:103A70002BF804680546A4B92020FFF791FE040046
:103A800011D00A4900202C60C4E900010849A16056
:103A90002073206160610749A06109B100F048F816
:103AA000E061204670BDFFF7B6FF00000000000097
:103AB000693A00080000000008B569468DF800006A
:103AC0000320ABBE08BD7047004870475C0A002069
:103AD00010B500F04FF8BDE81040FFF725BF00001B
:103AE00010B5012805D0002103A0FFF79CFF01209D
:103AF00010BD09A1F8E7000053494752544D454D08
:103B00003A204F7574206F662068656170206D657E
:103B10006D6F7279000000003A2048656170206D79
:103B2000656D6F727920636F727275707465640071
:103B300010B58820FFF734FE002801D00021017065
:103B400010BD802902D808B1017809B10020704762
:103B5000012100F8081B704718B100F108029142DA
:103B600001D0002070470021017070470048704765
:103B7000240A002010B5002102A0FFF754FF012005
:103B800010BD0000534947414252543A2041626EF1
:103B90006F726D616C207465726D696E6174696FAE
:103BA0006E00000010B5012000F024FABDE81040BE
:103BB000002000F01FBA000002490844B0F8000CD1
:103BC0007047000000600040024A1044A0F8001C4A
:103BD00070470000006000400349C20002D5C1F8F0
:103BE00004047047486070470000024000290168E3
:103BF00002D041F0010101E021F0010101607047B4
:103C00000268002122F001020260016041608160CF
:103C1000C160304B2F49C21A8039984245D018DC18
:103C20002D4BA0EB0302984237D00ADC2B4A8018B8
:103C30002BD014282DD0282826D1486840F4706055
:103C400036E0142A2DD0282A1ED1486840F470008E
:103C50002EE0B2F56C7F32D00ADCB2F5627F29D05B
:103C6000B2F5677F10D1D1F8040440F0F00009E00C
:103C7000B2F5717F28D0B2F5767F05D1D1F8040472
:103C800040F47020C1F804047047486840F00F0009
:103C90000EE0486840F0F0000AE0486840F47040E8
:103CA00006E0486840F4702002E0486840F0706028
:103CB00048607047D1F8040440F00F00E2E7D1F803
:103CC000040440F47060DDE7D1F8040440F470406F
:103CD000D8E700008000024044000240F8FFFDBF2A
:103CE00070B5026847F6F0739A430E6A8B680C69E8
:103CF0003343D1E905562C432343CC693343234353
:103D0000D1E909542B43234313430360CA6842603B
:103D10000A6882604968C16070BD000010B583798F
:103D200020490268A3B3D1F800349343C1F80034AA
:103D3000D1F8042403689A43C1F804240279046882
:103D40000A44D2F800342343C2F80034D1F80824DE
:103D500003689A43C1F80824D1F80C2403689A43F5
:103D6000C1F80C244279102A0AD101F581610A6850
:103D700003681A430A604A68006802434A6010BD3B
:103D80001144D1F8002400680243C1F8002410BD9A
:103D9000FFE700790844D0F800149143C0F80014FC
:103DA000F5E700000000014010B58A0721F0030488
:103DB0000649120F21440F238C6893409C438C606A
:103DC0008B68904003438B6010BD000000000140F1
:103DD000F0B5CB780022DC0603F00F0301D58C7818
:103DE00023430C880F2714F0FF0F4FF0010C1CD059
:103DF000D0F800500E880CFA02F42640A64210D1EA
:103E0000960007FA06FE25EA0E0E03FA06F5CE78AE
:103E100045EA0E05282E00D14461CE78482E00D107
:103E20000461521C082AE5D305600A88FF2A1ED9BE
:103E30004568002202F108060CFA06F40E882640B6
:103E4000A64210D1960007FA06FE25EA0E0E03FAE6
:103E500006F5CE7845EA0E05282E00D14461CE78CD
:103E6000482E00D10461521C082AE3D34560F0BDFE
:103E7000F0B5104D6B68440D260184B2C0F30157B4
:103E8000B440C0F30342032F06D1686823F0706288
:103E900020F07060686008E0C00203D50320904005
:103EA000834300E0A34343F0706201B122436A60A0
:103EB000F0BD0000000001404161704701617047A2
:103EC00002494CF6CC4008607047000000300040CA
:103ED00002494AF6AA2008607047000000300040FE
:103EE0000149486070470000003000400149886087
:103EF0007047000000300040014908607047000032
:103F000000300040F0B50F23C27801784FF0E02474
:103F1000012742B3D4F80C2D467802F4E062C2F5D2
:103F2000E062120AC2F10405D3408278AE401A4022
:103F3000324315018A07D20E954021F003010B1977
:103F4000D3F80064FF2191408E430D402E43C3F807
:103F500000640078410900F01F0004EB81018740F4
:103F6000C1F80071F0BD01F01F008740480904EB63
:103F70008000C0F88071F0BD024908430249086022
:103F8000704700000000FA050CED00E0024A114005
:103F9000014302480160704780FFFF1F08ED00E009
:103FA000014908627047000000000E42044A0029DF
:103FB000516901D0014300E0814351617047000025
:103FC00000100240044A0029D16901D0014300E0F9
:103FD0008143D1617047000000100240044A00296B
:103FE000916901D0014300E0814391617047000075
:103FF000001002400149086070470000400442423E
:1040000030B5204A5168204B11F00C0103D004292F
:1040100001D0082901D0036011E05168022401F4A5
:10402000701104EB91415468184D14F4803F02D094
:104030005468A40301D5694300E059430160516805
:10404000134B01F0F00109095C5C0168E14041603B
:10405000546804F4E064240A1C5D21FA04F48460CA
:10406000546804F46054E40A1B5DD940C16052688E
:10407000074B02F44042920B1B1F9A5CB1FBF2F11A
:10408000016130BD0010024000127A0000093D00BD
:104090004C9E0008034600205909094A012901D114
:1040A000116804E0022901D1116A00E0516A03F0AD
:1040B0001F02012393400B4200D0012070470000F3
:1040C00000100240064900220A7001F82029012848
:1040D00002D0042802D1052081F82000704700009A
:1040E0002010024001490860704700003C04424231
:1040F00002490A6A02430A62704700000010024047
:104100000248018841F010010180704704280040F6
:104110000248018821F01001018070470428004006
:1041200002498888098840EA014070471828004001
:1041300000B50246FFF7E4FF0348110C01808280BE
:104140005DF804EBFFF7E4BF1828004000B5024615
:10415000FFF7D6FF0448C2F30341018082805DF877
:1041600004EBFFF7D5BF000008280040034800BF5C
:10417000B0F804188906FBD5704700000020004005
:104180000648B0F8041821F00801A0F8041800BF90
:10419000B0F804180907FBD5704700000020004064
:1041A0000029018802D041F0400101E021F04001E6
:1041B000018070470246128900200A4200D0012087
:1041C0007047808970478181704770B502880B887D
:1041D0004E888C88CD8833432C430E8923434C89E9
:1041E00033438D892343CC892B4302F4415223432B
:1041F00013430380828B22F400628283098A018246
:1042000070BD0029018802D041F0010102E040F2B6
:10421000FE32114001807047002930F8441F02D05F
:1042200041F4004101E0C1F30E0101807047002913
:10423000818902D041F4005101E021F400518181D3
:104240007047002A828A01D00A4300E08A438282B2
:10425000704710B5C1F3421301F01F040121A140C2
:10426000012B01D10C3004E0022B01D1103000E011
:104270001430002A026801D00A4300E08A43026039
:1042800010BD000030B50446008A85B00D464CF6DE
:10429000FF710840E98801432182A0894EF6F3119D
:1042A0000840A9882A8911436A8902431143A181E0
:1042B000A08A4FF6FF410840A9890143A1826846C0
:1042C000FFF79EFE1048844201D1039800E0029857
:1042D00019214843296864228900B0FBF1F0B0FB42
:1042E000F2F109010B096FF018056B43322500EB61
:1042F000830005EB0010B0FBF2F000F00F00084364
:10430000208105B030BD0000003801400146012089
:1043100070477CB504460D462A46A11D01A801F050
:1043200091F8A0796179884201D000207CBD2846AF
:1043300003F045FE6179884201DA0020F6E72A465B
:1043400004F10801684601F0B5F82068816820464C
:10435000884710B10120E07101E00020E071E079B0
:10436000E4E710B5012404FA01F32AB1D0F8B8400B
:104370001C43C0F8B84004E0D0F8B8409C43C0F8F3
:10438000B84010BD00BF0E490968491C0C4A1160B5
:104390000C4909680C4A126811440A4A116000BFAE
:1043A00000BF4168491C4160282903DB00214160AE
:1043B000012100E0002109B10121017070470000D6
:1043C00020000020280000202C0000207CB504469E
:1043D00000202070201D002140F8041900BF044671
:1043E00025460F4903C9CDE900010E48406840B198
:1043F0000C48406828B10B4A5068526812685168EE
:104400008847102003F05CFD06462946DDE90023BD
:1044100004F0BCFA06460348466000BF20467CBD57
:10442000409E00085007002010B504460020234994
:1044300008802348806940F4006021498861002099
:104440001E4934390880091D088001201B490C3998
:104450000880B020091D0880002018492C390880E8
:1044600016490880091D0880091D0880091D08805B
:10447000602012491C3908800020091D0880091D90
:10448000088004200D49343908800020091D088067
:10449000081F008840F00100091F0880012007491B
:1044A00020390880012105483438FFF7AAFE012190
:1044B00002483438FFF7B0FE10BD0000342C014034
:1044C0000010024010B50446606A20B1012806D0F1
:1044D00002280CD107E0204600F062F908E02046EF
:1044E00000F0F0F804E02046FFF79EFF00E000BF78
:1044F00000BF10BD10B50446606A20B1012806D087
:1045000002280CD107E0204600F00CF808E0204615
:1045100000F05AF804E0204600F08AF900E000BFFD
:1045200000BF10BD10B5044600202549088025486D
:10453000806940F4006023498861002020493439B3
:104540000880091D088001201D490C390880B02011
:10455000091D088000201A492C3908801849088054
:104560005820091D08800020091D0880091D0880A9
:104570004FF4C04012491C3908800020091D0880F2
:104580001020091D088004200D49343908800020BE
:10459000091D0880081F008840F00100091F0880DD
:1045A0000120074920390880012105483438FFF7E8
:1045B00028FE012102483438FFF72EFE10BD00000E
:1045C000342C0140001002402049C96941F0020129
:1045D0001E4AD1611E49098880F8201000211C4A1A
:1045E000243A1180121D11800121194A121D1180D7
:1045F0004D21121D11800021154A1C3A1180144AC8
:1046000010321180121D1180121D11802421121DE3
:10461000118000210E4A0C3A11804FF4C041121D46
:1046200011809114121D11800421094A243A11802D
:104630000021121D1180111F098841F00101121F74
:1046400011800121024A103A118070470010024087
:10465000240400402DE9F04104460D4616461F464D
:1046600084F82970206801692046884710B12046E7
:10467000FFF740FF208BA84217D04DB994F82800CF
:1046800078B9012084F828002046FFF71BFF08E0D6
:1046900094F8280028B1002084F828002046FFF76D
:1046A00029FF2583208B06490880E6612068416840
:1046B0002046884702F0A8FD6061BDE8F081000057
:1046C000282C01401F49C96941F002011D4AD161EE
:1046D00000211D4A1180121D11801B4A28321180B1
:1046E000FF21121D11800321174A08321180002179
:1046F000154A34321180121D1180121D1180121DB5
:10470000118040F20111104A183211800021121D4F
:104710001180121D118004210B4A11800021121DED
:104720001180111F098841F00101121F1180012120
:10473000054A1432118090F82010034A2432118067
:104740007047000000100240000400407CB50446A1
:104750000D46684602F054FD04F12C00294682689B
:104760008A4201D8002207E0C16000F50472C368E4
:1047700052F83320026001220AB900207CBD69464C
:1047800004F12C0000F0DAFB08B90020F6E7BDF8D0
:10479000001001232046019AFFF75CFF0120EDE79E
:1047A00010B504462048806940F400601E498861C5
:1047B00000201E490880091D08801C4928310880F6
:1047C00040F2FF70091D0880002018490831088058
:1047D000164934310880091D0880091D0880091D0B
:1047E000088060201149183108800020091D0880C8
:1047F0000120091D088004200C4908800020091DA3
:104800000880081F008840F00100091F088001206F
:1048100006491431088001210448FFF7F2FC012108
:104820000248FFF7F9FC10BD00100240002C0140C7
:1048300010B504460020244908802448806940F4CB
:1048400000602249886100201F4934390880091D11
:10485000088001201C490C390880B020091D0880FF
:10486000002019492C390880582017490880002059
:10487000091D0880091D0880091D08806020124953
:104880001C3908800020091D08800120091D0880AE
:1048900004200D49343908800020091D0880081FB4
:1048A000008840F00100091F0880012006492039D6
:1048B0000880012104483438FFF7A3FC0121024895
:1048C0003438FFF7A9FC10BD342C01400010024021
:1048D0007CB504460D46206829464269204690472B
:1048E00010B14FF0FF307CBD02F08EFC6169411ABF
:1048F000E06981421FD394F82900C0B1684602F0F4
:104900007FFC694604F12C0000F018FB38B1BDF8BB
:10491000001001232046019AFFF79CFE06E00020CC
:1049200084F82900206881682046884703E02068D1
:104930008168204688470020D5E710B50446204608
:10494000FFF7C0FD00202072208310BD70B5044623
:104950000E464FF0FF320021204600F0B5FA044623
:104960001748206004F1180002F04AFCA0F1180476
:1049700002206062002084F8280084F8290004F1F5
:104980002C0528606860A860402308220D4905F1C5
:10499000100003F0C1FAA0F110050C2308220A4907
:1049A00005F5047003F0B8FAA0F5047500BFA5F191
:1049B0002C04C4F89C622046FFF7BFFF204670BD60
:1049C000B09E0008017200089952000801460120BB
:1049D000704738B504460D462A46A11D684600F0CA
:1049E00031FDA0796179884201D0002038BD284688
:1049F00003F0E5FA6179884201DA0020F6E72A46F9
:104A000004F10801684600F01DFD2A4604F1090181
:104A1000684600F017FD206881682046884710B17D
:104A20000120E07101E00020E071E079DEE770B57F
:104A300004460D461DB1206881682046884784F8E9
:104A4000285170BD70B505460C4600BFE96B08469D
:104A5000C91700EB91618911216000BFA96B08465D
:104A6000C91700EB9161C1F38F11E18100BF686C40
:104A70004FF47A7190FBF1F0A07400BFD5F8C41028
:104A80000846C91700EB91618911616000BFD5F834
:104A9000C0100846C91700EB9161C1F38F12228242
:104AA00000BFD5F8CC004FF47A7190FBF1F0E074C0
:104AB0000020A07605F1140000F086FDA17E0843D9
:104AC000A07605F19C0000F07FFD08B1022000E017
:104AD0000020A17E0843A0760A21A86C90FBF1F08B
:104AE00084F82800D020405990FBF1F0C1B2292071
:104AF0000155002070BD00002DE9FC4706460F4619
:104B00009046384604F005FB244A254BCDE90001C8
:104B100004F066FB044604F0CDFA8146404604F0FA
:104B2000F8FA04461D4A1E4B04F05AFBCDE9000179
:104B300004F0C0FA824696F8280108B1BDE8FC8767
:104B400006F1140000F0B3F958B106F19C0000F032
:104B5000AEF930B1B9F1000F03D1BAF1000F00D1B5
:104B6000ECE7494606F1140002F073FD514606F1E8
:104B70009C0002F06EFD4246394606F5967000F044
:104B8000D5FC06F1140000F099F906F19C0000F044
:104B900095F90120307200BFD0E70000C9AC410C8C
:104BA00032030E402DE9FE4F06468846924600200D
:104BB00002905746404604F0ACFA604A604BCDE99B
:104BC000000104F00DFB044604F074FA814696F8E7
:104BD000280108B1BDE8FE8F06F1140000F067F966
:104BE00058B106F19C0000F062F930B1B8F1000F45
:104BF00003D1BAF1000F00D1ECE787B9494606F1BD
:104C0000140002F026FD494606F19C0002F021FD49
:104C10004246414606F5967000F088FC69E0781C33
:104C200001D0012F16D1784200FB09F106F11400E2
:104C300002F00FFD07FB09F106F19C0002F009FDEF
:104C400007FB08F2784200FB08F106F5967000F0C9
:104C50006DFC4EE0002F02DA7F4201200290A7F1A6
:104C60007B0507F17B04029808B309FB04F090FB75
:104C7000F4FB594606F1140002F0EBFC09FB05F0C9
:104C800090FBF4FB594606F19C0002F0E2FC05FBA8
:104C900008F090FBF4FB04FB08F090FBF4F05A469C
:104CA0000146019006F5967000F040FC20E009FBFB
:104CB00005F090FBF4FB594606F1140002F0C9FC24
:104CC00009FB04F090FBF4FB594606F19C0002F04E
:104CD000C0FC04FB08F090FBF4FB05FB08F090FB24
:104CE000F4F05A460146019006F5967000F01EFC5D
:104CF00000BF19F15A0F0BDA57B9012106F1140060
:104D000000F059FC012106F19C0000F054FC09E080
:104D1000002106F1140000F04EFC002106F19C0079
:104D200000F049FC06F1140000F0C8F806F19C0000
:104D300000F0C4F80120307200BF4BE7C9AC410C51
:104D400032030E4070B504460D4604F1140000F025
:104D5000B8F810B900BF00BF00BF294604F1140025
:104D600000F039FC294604F19C0000F034FC04F109
:104D7000140000F0A6F820B904F19C0000F0A1F89E
:104D800098B1D4F824010268D1688847D4F8240186
:104D900002681169884778B904F1140000F0C2FC78
:104DA00004F19C0000F0BEFC06E0D4F82401026887
:104DB0009168884700202072002070BD10B504461D
:104DC00004F1140000F0B5FC04F19C0000F0B1FC0B
:104DD00010BD0000F0B585B004460E4617461D46CE
:104DE0004FF0FF320021204600F06EF804461948CB
:104DF00020600520012100220E23CDE90132CDE9FA
:104E00000310154833462A460021009004F114008F
:104E100000F0A4FCA0F11404052001210E23CDE92B
:104E20000131CDE903100C483B462A46009004F1BD
:104E30009C0000F093FCA0F19C04C4F824510020D5
:104E400084F8280104F5967000BFA0F596742046FA
:104E500005B0F0BDE49E000818730100034B036029
:104E6000017142710023C37170470000049F000864
:104E700070B504460D46206801692046884748B150
:104E8000E068002801DA002000E0E06820614FF0CF
:104E9000FF3070BD2069401C2061E168884202DA61
:104EA0006FF00100F5E70020206100BFF1E7014647
:104EB000087A08B9012070470020FCE7012101723F
:104EC00070470146087A7047034B03604160002336
:104ED0000372C26002617047189F0008704710B5E6
:104EE000034698680C2801DB002010BD8818402874
:104EF00001DB0020F9E703F504709C6840F83410EA
:104F00009C6800EBC40042609868401C98600120D7
:104F1000EBE730B503465868402801DB002030BD80
:104F200003F110005D6820F835105C6800EBC400E8
:104F300042605868401C58600120F0E730B50246D6
:104F4000D068002801DA002030BD02F50474D5686D
:104F500004EBC5001368D0E900452C449C4201DCF9
:104F6000012400E0002424B14FF0FF30D060002085
:104F7000EAE71368581C106002F1100000EBC3034D
:104F800009CBC1E900030120DEE7F8B504460E466F
:104F900005216846FBF79EFE0546294604F13000D0
:104FA00003F0F4FA207504216846FBF793FE0546EA
:104FB000294604F1180003F0E9FA607503216846F8
:104FC000FBF788FE0546294604F1240003F0DEFACB
:104FD000A0750020F8BD2DE9F04107460D461646A4
:104FE00005EB850107F13C0000EBC104983050F857
:104FF00025100E30FBF750FE80462268501C2060C2
:10500000201D40F822802068092801DB0020206054
:105010000021002008E0221D52F820208A4202DDF3
:10502000221D52F82010401C0928F4DB00BF06F1B5
:10503000800020F8151030F81500B0F5167F04DA5E
:10504000307B0121A94008433073BDE8F08130B5C1
:10505000002502F11B04655430BD7CB505460C46A5
:105060000020A0720C216846FBF734FEA17A0843A9
:10507000A0720B216846FBF72DFE08B1022000E06C
:105080000020A17A0843A0720A216846FBF722FE9D
:1050900008B1042000E00020A17A0843A07200209B
:1050A000E07202216846FBF715FEE17A0843E072E0
:1050B00001216846FBF70EFE08B1022000E0002047
:1050C000E17A0843E072002084F82E0000BF01233B
:1050D000224600212846FFF7BAFF0023224601217D
:1050E0002846FFF7B4FF0123224602212846FFF796
:1050F000AEFF00202073224600212846FFF76BFFF9
:10510000224601212846FFF766FF22460221284653
:10511000FFF761FF00BF052101A8FBF7BDFDA4F863
:105120009A00062101A8FBF7B7FD81B29C2001532C
:10513000072101A8FBF7B0FD81B29E200153092190
:1051400001A8FBF7A9FD81B2A02001530C2101A801
:10515000FBF7A2FD81B2A22001530021A42001533C
:10516000A6200153002024F8A80F1F216846FBF752
:10517000B1FD2188084324F8A80920216846FBF7DF
:10518000A9FD08B1022000E00020B4F8A8100843EF
:10519000A4F8A80021216846FBF79CFD08B1042073
:1051A00000E00020B4F8A8100843A4F8A8002221C9
:1051B0006846FBF78FFD08B1082000E00020B4F836
:1051C000A8100843A4F8A80023216846FBF782FD35
:1051D00008B1102000E0002034F8A81F0843208008
:1051E000208824F8A80924216846FBF773FD08B13C
:1051F000402000E00020B4F8A8100843A4F8A8005C
:105200007CBD000010B504464FF0FF32002120465F
:10521000FFF75AFE04461E4820600122022104F1D5
:10522000140003F0C5F9A0F114040122022104F1D5
:10523000200003F0BDF9A0F120040122022104F1B5
:105240002C0003F0B5F9A0F12C040A20A06303237D
:105250002822104904F13C0002F05EFEA0F13C045B
:105260000020A4F8B40004F1E00000BFA0F1E004C5
:1052700004F1E10000BFA0F1E1040320C4F8D40070
:105280000421D82001510221DC200151204610BD0B
:10529000589F0008E58A0008704700002DE9FC418E
:1052A00004460D4617461E463846216909B9206155
:1052B0000AE05A222169514300EB800201EB4201CE
:1052C000642291FBF2F1216100BF6068401C6060C4
:1052D000A168884209DD607890F0010001D00120CA
:1052E00000E00020607000206060207830B101286C
:1052F00037D002286AD0032832D180E043F22C3123
:105300002069884202DA3220A06001E06420A060B7
:10531000E87D50B1E068401CE060962805DD012082
:10532000207007214648FFF711FA43F2BC4120697B
:1053300088420ADD002219216846FBF764FD01223C
:105340001A216846FBF75FFD0AE001221921684631
:10535000FBF759FD01221A216846FBF754FD00BFF7
:105360006AE0E87D58B9E068401EE06010F1960FF1
:1053700005DA0020207008213148FFF7E7F9E87DC1
:1053800000F0060002280DD1207001221A21684683
:10539000FBF739FD002219216846FBF734FD002098
:1053A000A07049E0607828B101221A216846FBF715
:1053B0002AFD0AE0002219216846FBF724FD00229D
:1053C0001A216846FBF71FFD00BF35E0E87D58B99C
:1053D000E068401EE06010F1960F05DA00202070B2
:1053E00008211748FFF7B2F901221A2101A8FBF79B
:1053F0000AFD0022192101A8FBF705FD1CE032205F
:10540000A060607828B1012219216846FBF7FBFCF7
:105410000AE0002219216846FBF7F5FC00221A2158
:105420006846FBF7F0FC00BF2EB1E87D08B1012013
:1054300000E00020207000BF00BFBDE8FC8100003C
:105440008007002070B506460C461546284602F037
:10545000D8FD207070BD70B506460C46154628462E
:1054600002F0CFFD2060284602F0CBFD216841EA22
:1054700000202060284602F0C4FD216841EA004077
:105480002060284602F0BDFD216841EA00602060EE
:1054900070BD70B506460C461546284602F0B1FDB3
:1054A0002080284602F0ADFD218841EA002000B2AC
:1054B000208070BD70B506460C461546284602F0A1
:1054C000A0FD2080284602F09CFD218841EA0020B2
:1054D000208070BD01460120704738B504460D4656
:1054E0002A46A11D6846FFF7ADFFA0796179884281
:1054F00001D0002038BD284602F061FD6179884264
:1055000001DA0020F6E72A4604F108016846FFF7B1
:1055100099FF206881682046884710B10120E0711A
:1055200001E00020E071E079E4E700002DE9F041BE
:1055300004460D461646A81904F01CFA07464FF01B
:105540007C5104F077FA2060701B04F013FA0746D0
:10555000024904F0FDF86060BDE8F0810000764388
:105560000146012070477CB504460D462A46A11D20
:1055700001A8FFF767FFA0796179884201D0002078
:105580007CBD284602F01BFD6179884201DA0020CB
:10559000F6E72A4604F108016846FFF78BFF20680A
:1055A00081682046884710B10120E07101E00020A9
:1055B000E071E079E4E770B504460D46A06E01683D
:1055C0008A682946904770BD10B50446A06E0268EF
:1055D000D168884710BDF8B504460E462068816939
:1055E000204688472068002142692046904778B1CC
:1055F0000020A56E0090286803686A46211D284691
:105600009847A06E0268516888474FF0FF30F8BD98
:10561000206A08B9012000E00020014604F17C0066
:1056200002F0B4FF50B1206881682046884700200E
:105630002063204601F0EFFF0020E8E7A06E01683C
:1056400004F128020B6804F12001984720632046EA
:1056500001F0E1FF0020DAE72DE9FF478046002056
:105660000390D8F80410D8F81400026802AB14684C
:1056700003AAA047029803F04CFD0446264A274B94
:1056800003F0AEFD06460F46D8F8340003F041FDA6
:105690000446214A224B03F0A3FD814632463B4695
:1056A00003F0FCFACDE9000103F004FDC8F8340072
:1056B00098F86C0010B1039840420390D8F82C0081
:1056C0000399081AC8F82800D8F87810D8F82800E4
:1056D000884208DDD8F874004042D8F82810084401
:1056E000C8F828000EE0D8F87800401C4042D8F8EE
:1056F0002810814206DAD8F82810D8F87400084437
:10570000C8F82800D8E909010844C8F8240003981B
:10571000C8F82C00BDE8FF879A9999999999C93FD3
:105720009999E93F10B50446A06E02685168884710
:1057300010BD38B5044600202072A06E0268516882
:1057400088470020A56E0090286803686A46211DDE
:10575000284698470020206238BD00002DE9F84F08
:1057600004460F4693461D460BAE96E84007CDF81B
:1057700000905A46394620460A9B01F06DFF0446C8
:105780001748206004F16400002140F8641900BF4C
:105790000446A56684F86C80C4F870A00120B0406F
:1057A0006067701E01218140A1670122642104F11C
:1057B0007C0002F0E6FEA0F17C046168606902688A
:1057C00004F13403D2F800C004F12C02E0470020B9
:1057D000A0622046FFF740FF2046BDE8F88F00009A
:1057E000C09F00080146087A642805DC487A6428CE
:1057F00002DC887A642801DD002070470120FCE784
:1058000038B504460D462A46A11D6846FFF71AFE24
:10581000A0796179884201D0002038BD284602F085
:10582000CEFB6179884201DA0020F6E72A4604F1CE
:1058300008016846FFF706FE2A4604F1090168469A
:10584000FFF700FE2A4604F10A016846FFF7FAFD59
:10585000206881682046884710B10120E07101E08E
:105860000020E071E079D8E701460120704738B5A3
:1058700004460D462A46A11D6846FFF7E3FDA079C0
:105880006179884201D0002038BD284602F097FB9C
:105890006179884201DA0020F6E72A4604F108011E
:1058A0006846FFF7CFFD206881682046884710B121
:1058B0000120E07101E00020E071E079E4E70146B9
:1058C0000120704738B504460D462A46A11D68469A
:1058D000FFF7B8FDA0796179884201D0002038BD7A
:1058E000284602F06CFB6179884201DA0020F6E775
:1058F0002A4604F108016846FFF7A4FD2068816884
:105900002046884710B10120E07101E00020E071DD
:10591000E079E4E70146C868002805DB086900284B
:1059200002DB4869002801DA002070470120FCE70B
:105930007CB504460D462A46A11D01A8FFF782FD4D
:10594000A0796179884201D000207CBD284602F010
:1059500036FB6179884201DA0020F6E72A4604F135
:10596000080101A8FFF76EFD2A4604F10C01684604
:10597000FFF771FD2A4604F110016846FFF76BFD41
:105980002A4604F114016846FFF765FD2068816826
:105990002046884710B10120E07101E00020E0714D
:1059A000E079D2E70146012070477CB504460D46F8
:1059B0002A46A11D01A8FFF745FDA079617988421B
:1059C00001D000207CBD284602F0F9FA61798842B6
:1059D00001DA0020F6E72A4604F108016846FFF7DD
:1059E00069FD206881682046884710B10120E07178
:1059F00001E00020E071E079E4E70146087A6428DC
:105A000001DD002070470120FCE738B504460D4653
:105A10002A46A11D6846FFF715FDA07961798842E5
:105A200001D0002038BD284602F0C9FA61798842C9
:105A300001DA0020F6E72A4604F108016846FFF77C
:105A400001FD206881682046884710B10120E0717F
:105A500001E00020E071E079E4E770470021C182B5
:105A60008182C1628162416202210170704700003F
:105A700038B5044600BF207A00B112E0E068B0F506
:105A8000167F0DDAE068401CE0606068807D0128C8
:105A900006D12169481C2061642901DD01202072A2
:105AA00000BF207A20B96068807D84F8210038BD6D
:105AB000A069401CA061A069642805DA01221D21AB
:105AC0006846FBF7A0F915E0A069C82805DA0122AD
:105AD0001E216846FBF797F90CE00020A061002228
